:100000000C946E030C948B030C948B030C948B0355
:100010000C948B030C948B030C948B030C948B0328
:100020000C948B030C948B030C94F6240C943125C4
:100030000C948B030C948B030C948B030C948B0308
:100040000C948B030C948B030C948B030C948B03F8
:100050000C94E1030C948B030C948B030C94A20D71
:100060000C948B030C948B030C948B030C948B03D8
:100070000C948B030C948B030C948B030C948B03C8
:100080000C948B030C948B030C948B030C94B80985
:100090000C948B030C948B030C948B030C948B03A8
:1000A0000C948B030C948B030C948B038B2488246B
:1000B000852482247F247C2479247624732470244C
:1000C0006D246A246724642461245E245B245824FC
:1000D000552452244F244C244924462443244024AC
:1000E0003D243A243724342431242E242B2428245C
:1000F000252422241F241C2419241624132410240C
:100100000D240A24072404240124FE23FB23F823BE
:10011000F523F223EF23EC23E923E623E323E02373
:10012000DD23DA23D723D423D123CE23CB236E3967
:100130003936363436330056616E65737361204C40
:1001400069005A6F6D626965733A00466F6F643A71
:100150000054696D653A0053636F72653A004C69EB
:100160007665733A006E3939363634363300535774
:100170003320746F20726573746172740053573248
:1001800020746F2071756974003A0054696D653A86
:100190000053636F72653A0047414D45204F564505
:1001A00052000D0A5A6F6D62696573206665643A84
:1001B00020000A0D47616D65206F766572000D0A9B
:1001C000466F6F6420696E20696E76656E746F721B
:1001D000793A20000D0A4E756D626572206F6620B7
:1001E0007A6F6D626965733A20000D0A5A6F6D620D
:1001F000696520636F6C6C696465642077697468F5
:1002000020666F6F64000D0A4E756D626572206F17
:1002100066207A6F6D626965733A20000D0A5A6F25
:100220006D6269657320737061776E696E67210016
:100230000D0A466F6F6420696E20696E76656E7474
:100240006F72793A20000D0A4E756D626572206FEB
:1002500066207A6F6D626965733A20000A0D476106
:100260006D6520506175736564000A0D506C61798D
:100270006572207265737061776E6564000A0D5057
:100280006C6179657220636F6C6C6964656420775A
:10029000697468207472656173757265000D0A2057
:1002A0004361757365206F662064656174683A20E8
:1002B000000A0D506C617965722068617320646971
:1002C0006564000D0A2043757272656E7420736355
:1002D0006F72653A20000D0A204C697665732072B2
:1002E000656D61696E696E673A20000D0A20546978
:1002F0006D653A20000A47616D652068617320735F
:10030000746172746564000D0A506C6179657220C5
:10031000706F736974696F6E3A20280088A8F8209E
:10032000205088C0C0FE82BA929282FEAAA0AABFC4
:100330000001000064031200020000760343000382
:100340000000B9030401030904BD031402030904F6
:10035000D3031603030904EB030C0001C11201804F
:10036000360181361201000202000010C0167A0424
:1003700000010102030109024300020100C0320929
:1003800004000001020201000524001001052401FF
:10039000010104240206052406000107058203105A
:1003A000004009040100020A0000000705030240A2
:1003B00000000705840240000004030904140359E7
:1003C000006F007500720020004E0061006D006536
:1003D0000000001603550053004200200053006542
:1003E000007200690061006C0000000C03310032F3
:1003F0000033003400350000000000000000000061
:100400005F00000007000700147F147F14242A7F78
:100410002A1223130864623649552250000503004E
:1004200000001C2241000041221C0014083E081458
:1004300008083E08080050300000080808080800B6
:100440006060000020100804023E5149453E004211
:100450007F400042615149462141454B31181412F9
:100460007F1027454545393C4A4949300171090506
:10047000033649494936064949291E0036360000E7
:1004800000563600000814224100141414141400FD
:10049000412214080201510906324979413E7E1178
:1004A00011117E7F494949363E414141227F4141F8
:1004B000221C7F494949417F090909013E414949B7
:1004C0007A7F0808087F00417F41002040413F01BA
:1004D0007F081422417F404040407F020C027F7F12
:1004E0000408107F3E4141413E7F090909063E4113
:1004F00051215E7F09192946464949493101017F49
:1005000001013F4040403F1F2040201F3F403840F6
:100510003F63140814630708700807615149454395
:10052000007F41410002040810200041417F000487
:1005300002010204404040404000010204002054F7
:100540005454787F48444438384444442038444420
:10055000487F3854545418087E0901020C525252F4
:100560003E7F0804047800447D40002040443D0064
:100570007F1028440000417F40007C041804787CF0
:100580000804047838444444387C141414080814CB
:1005900014187C7C080404084854545420043F4434
:1005A00040203C4040207C1C2040201C3C403040EF
:1005B0003C44281028440C5050503C4464544C4453
:1005C000000836410000007F00000041360800109E
:1005D0000808100878464146786E616E00696E66BC
:1005E0000000407A10F35A00A0724E18090010A5BE
:1005F000D4E80000E87648170000E40B540200003D
:10060000CA9A3B000000E1F50500008096980000C2
:100610000040420F000000A08601000000102700EB
:10062000000000E803000000006400000000000A71
:1006300000000000000100000000002C76D888DCDB
:10064000674F0823DFC1DFAE59E1B1B796E5E3E4B8
:1006500053C63AE651997696E8E6C28426EB898C31
:100660009B62ED407C6FFCEFBC9C9F40F2BAA56F93
:10067000A5F490055A2AF75C936B6CF9676DC11B62
:10068000FCE0E40D47FEF520E6B500D0ED902E032A
:1006900000943577050080841E080000204E0A0073
:1006A0000000C80C333333330F986E12831141EFBF
:1006B0008D2114893BE65516CFFEE6DB18D1844B1D
:1006C000381BF77C1D901DA4BBE424203284725E8D
:1006D000228100C9F124ECA1E53D270011241FBEB1
:1006E000CFEFDAE0DEBFCDBF11E0A0E0B1E0E8EC93
:1006F000F8E602C005900D92A238B107D9F717E0CD
:10070000A2E8B1E001C01D92AB34B107E1F70E944D
:100710008F220C9462340C94000087E880937A0056
:100720000895982F9F71906490937C0080728093BD
:100730007B0080917A00806480937A0080917A00B7
:1007400086FDFCCF2091780030917900C901089591
:10075000CF93DF93A8EFB3E047E050E0C1E0D0E0F3
:1007600029C0CE01022E02C0880F991F0A94E2F719
:1007700080956823F901EC5AFE4F808190E0042EA9
:1007800002C0959587950A94E2F7817090E0022E59
:1007900002C0880F991F0A94E2F7682B2F5F3F4F22
:1007A00028303105F1F66D93415050408FEF4F3FA7
:1007B000580721F06C9120E030E0D3CFDF91CF914A
:1007C00008951F920F920FB60F9211248F939F934B
:1007D000AF93BF938091A6019091A701A091A8012A
:1007E000B091A9010196A11DB11D8093A60190931E
:1007F000A701A093A801B093A901BF91AF919F91C8
:100800008F910F900FBE0F901F901895AF92BF92CF
:10081000CF92DF92EF92FF920F931F936091A60108
:100820007091A7018091A8019091A901E0908400A6
:10083000F09085000E94E22E20E030E040E857E48E
:100840000E94EB2F5B016C0100E010E0C801B701D2
:100850000E94E22E9B01AC01C601B5010E94E12D70
:1008600020E030E040E852E40E94EB2F20E034E248
:1008700044EF5AE40E94492E1F910F91FF90EF9090
:10088000DF90CF90BF90AF9008952F923F924F92FC
:100890005F926F927F928F929F92AF92BF92CF9210
:1008A000DF92EF92FF920F931F93DF93CF93CDB719
:1008B000DEB72E970FB6F894DEBF0FBECDBF81E036
:1008C0000E949103A0E0B0E0BC01CD010E94E22EA5
:1008D00020E030E24EE854E40E94492E5B016C01B6
:1008E00060933602709337028093380290933902F6
:1008F00020909B0130909C0180916001909161015A
:100900002091640130916501409162015091630131
:100910000CE312E01E870D87882499247C010027B0
:10092000F7FC0095102FE982FA820B831C83B90132
:10093000882777FD8095982F6D837E838F83988796
:10094000CA01AA2797FDA095BA2F89879A87AB87F6
:10095000BC872501360177FA709477F870945AC0F5
:10096000AD85BE851496ED90FD900D911C91179765
:1009700069817A818B819C810E94E42E9B01AC016C
:10098000C801B7010E94452E882371F06D817E81D8
:100990008F8198850E94E42E9B01AC01C801B701AC
:1009A0000E94452E882339F4ED85FE85A086B18608
:1009B000C286D38616C069857A858B859C850E9400
:1009C000E42E9B01AC01C801B7010E94452E88238B
:1009D00041F4AD85BE8518964D925D926D927C92E4
:1009E0001B97ED85FE8560817181828193812085D1
:1009F0003185428553850E94E12DAD85BE856D937D
:100A00007D938D939C9313970894811C911C55960C
:100A1000BE87AD87821493040CF4A2CF2E960FB636
:100A2000F894DEBF0FBECDBFCF91DF911F910F9124
:100A3000FF90EF90DF90CF90BF90AF909F908F90FE
:100A40007F906F905F904F903F902F900895AF925E
:100A5000BF92CF92DF92EF92FF920F931F93CF93AB
:100A6000DF93A0909B01B0909C01CCE3D2E0CC241A
:100A7000DD2429C0E880F9800A811B81C801B70103
:100A800020E030E048EA52E40E94E72F18162CF4E8
:100A900080E090E0A0E2B1EC0EC0C801B70120E018
:100AA00030E040E251EC0E94452E882344F480E07F
:100AB00090E0A8EAB2E488839983AA83BB83089470
:100AC000C11CD11C6596CA14DB04A4F2DF91CF913E
:100AD0001F910F91FF90EF90DF90CF90BF90AF905C
:100AE00008950E9445040E9427050895809195016C
:100AF000882379F580914901882329F083E393E3E2
:100B0000A3E3BFE304C083E393E3A3E3BFEB8093DA
:100B10003D0590933E05A0933F05B093400560913D
:100B200035057091360580913705909138052091F3
:100B30003D0530913E0540913F05509140050E9492
:100B4000E12D6093350570933605809337059093BA
:100B500038050895EF92FF920F931F93E0903505AB
:100B6000F09036050091370510913805C801B7019E
:100B700020E030E040E050E00E94452E882324F43D
:100B800081E0809349010CC0C801B70120E030E04A
:100B90004AE952E40E94E72F181614F41092490112
:100BA0001F910F91FF90EF9008950E94AA050E9457
:100BB0007605089580913502882309F44AC0209172
:100BC0003A0230913B022A30310584F480914C0185
:100BD00090914D01039790934D0180934C0180912A
:100BE0004A0190914B018055904013C0C9010A976A
:100BF0000A97D0F480914C0190914D010396909307
:100C00004D0180934C0180914A0190914B01805B92
:100C10009F4F90934B0180934A012F5F3F4F30933A
:100C20003B0220933A0208952431310591F48FE379
:100C300090E090934D0180934C0180E293E090937B
:100C40004B0180934A0110923B0210923A0210929B
:100C5000350208956F927F928F929F92AF92BF92CA
:100C6000CF92DF92EF92FF920F931F93DF93CF9378
:100C7000CDB7DEB728970FB6F894DEBF0FBECDBF55
:100C80006D8C7E8C8F8C98A0E98CFA8C0B8D1C8DD2
:100C90006AA570E0882777FD8095982F0E94E42E42
:100CA0009B01AC01C401B3010E94E12D0E94B12E51
:100CB0005B016C0169A570E0882777FD8095982F0E
:100CC0000E94E42E9B01AC01C801B7010E94E12DF6
:100CD00020E030E040E85FE30E94E02D0E94B12E6A
:100CE00078876F83C801B7010E94B12E7E836D8320
:100CF000BC82AB82C401B3010E94B12E7A836983A6
:100D000029813A814B815C816D817E818F819885BB
:100D100028960FB6F894DEBF0FBECDBFCF91DF91FE
:100D20001F910F91FF90EF90DF90CF90BF90AF9009
:100D30009F908F907F906F9008952F923F924F9247
:100D40005F926F927F929F92AF92BF92CF92DF920B
:100D5000EF92FF920F931F93DF93CF9300D0CDB705
:100D6000DEB74E885F88688C798C2EAD3FAD3A83B4
:100D70002983ABA4BCA4CDA4DEA4E9A5FAA58181F6
:100D8000282E3324EE24FF2487E090E08E199F095B
:100D9000F10102C0F595E7958A95E2F7E0FF40C0C2
:100DA000B701882777FD8095982F0E94E42E9B013C
:100DB000AC01C301B2010E94E12D0E94B12E8B0152
:100DC000E981FA818381982E87FF14C0C601B5019D
:100DD00020E030E040E050E00E94E12D0E94B12E82
:100DE000C80102976817790729F1C80102966817A8
:100DF000790701F196FE14C0C601B50120E030E08C
:100E000040E85FE30E94E12D0E94B12EC8010297E5
:100E10006817790779F00E5F1F4F6017710751F05F
:100E20000894E11CF11CF6E0EF16F10409F0ACCFD8
:100E300080E001C081E00F900F90CF91DF911F9172
:100E40000F91FF90EF90DF90CF90BF90AF909F9069
:100E50007F906F905F904F903F902F9008952F92CA
:100E60003F924F925F927F928F929F92AF92BF92EA
:100E7000CF92DF92EF92FF920F931F93DF93CF9366
:100E8000CDB7DEB768970FB6F894DEBF0FBECDBF03
:100E9000A0909B01B0909C01C090EE03D090EF0316
:100EA000E090F003F090F103772400E010E01E01E1
:100EB0000894211C311C91E1892E912C8C0E9D1ED1
:100EC00089E0482E512C4C0E5D1E85C08DB79EB713
:100ED00045970FB6F8949EBF0FBE8DBF85E190E099
:100EE000089FF001099FF00D189FF00D1124ADB778
:100EF000BEB71196E45CFD4F85E101900D928150E3
:100F0000E1F70E942A06EDB7FEB775960FB6F89482
:100F1000FEBF0FBEEDBF298B3A8B4B8B5C8B6D8B6D
:100F20007E8B8F8B988FD101F40188E001900D9218
:100F30008150E1F78DB79EB745970FB6F8949EBFE5
:100F40000FBE8DBFADB7BEB71196E2EEF3E085E1FF
:100F500001900D928150E1F70E942A06EDB7FEB78D
:100F600075960FB6F894FEBF0FBEEDBF298B3A8B76
:100F70004B8B5C8B6D8B7E8B8F8B988FD201F401AA
:100F800088E001900D928150E1F7C701B60120E0A1
:100F900030E040E050E00E94E72F1816D4F4898139
:100FA0009A8102972B853C852817390794F08F8109
:100FB000988505962F8538898217930754F08D817F
:100FC0009E8105972D853E852817390714F07724D3
:100FD00073940F5F1F4F0A151B050CF477CF872DF5
:100FE00068960FB6F894DEBF0FBECDBFCF91DF91EC
:100FF0001F910F91FF90EF90DF90CF90BF90AF9037
:101000009F908F907F905F904F903F902F9008958A
:101010002F923F924F925F926F927F928F929F9208
:10102000AF92BF92CF92DF92EF92FF920F931F93F6
:10103000DF93CF93CDB7DEB768970FB6F894DEBFD6
:101040000FBECDBF80909B0190909C014FE4E42E99
:1010500042E0F42E00E010E01E010894211C311C37
:1010600031E1632E712C6C0E7D1E29E0422E512C35
:101070004C0E5D1E91C08DB79EB745970FB6F89484
:101080009EBF0FBE8DBF85E190E0089FF001099FD4
:10109000F00D189FF00D1124ADB7BEB71196E45CAA
:1010A000FD4F85E101900D928150E1F70E942A06E3
:1010B000EDB7FEB775960FB6F894FEBF0FBEEDBF45
:1010C000298B3A8B4B8B5C8B6D8B7E8B8F8B988FA8
:1010D000D101F30188E001900D928150E1F7AB80DE
:1010E000BC80C980DA808DB79EB745970FB6F8945B
:1010F0009EBF0FBE8DBFADB7BEB71196E2EEF3E057
:1011000085E101900D928150E1F70E942A06EDB72A
:10111000FEB775960FB6F894FEBF0FBEEDBF298BD4
:101120003A8B4B8B5C8B6D8B7E8B8F8B988FD20128
:10113000F30188E001900D928150E1F74B855C85C9
:1011400069857A858F81988502972D853E85281738
:10115000390744F48D819E8101962F853889821745
:101160009307A4F46C157D051CF4C416D50634F061
:10117000A416B5065CF46A157B0544F4F70180817A
:1011800091818C55914011F481E00BC00F5F1F4F8E
:1011900085E190E0E80EF91E081519050CF46BCFF7
:1011A00080E068960FB6F894DEBF0FBECDBFCF913A
:1011B000DF911F910F91FF90EF90DF90CF90BF9044
:1011C000AF909F908F907F906F905F904F903F90E7
:1011D0002F9008953F924F925F926F927F928F92DD
:1011E0009F92AF92BF92CF92DF92EF92FF920F93B6
:1011F0001F93DF93CF93CDB7DEB768970FB6F89400
:10120000DEBF0FBECDBFE0909B01F0909C01BB24E0
:1012100000E010E08CE290E08C0F9D1F382EA92E8C
:101220002E010894411C511C71E1C72ED12CCC0E0B
:10123000DD1E65E1662E712C59E0852E912C8C0EF9
:101240009D1E79C0EDB7FEB775970FB6F894FEBF37
:101250000FBEEDBFADB7BEB71196832D9A2DFC0121
:1012600085E101900D928150E1F70E942A06EDB7C9
:10127000FEB775960FB6F894FEBF0FBEEDBF298B73
:101280003A8B4B8B5C8B6D8B7E8B8F8B988FD201C7
:10129000F60188E001900D928150E1F78DB79EB77D
:1012A00045970FB6F8949EBF0FBE8DBF069DF00107
:1012B000079DF00D169DF00D1124ADB7BEB7119628
:1012C000E45CFD4F85E101900D928150E1F70E94B1
:1012D0002A06EDB7FEB775960FB6F894FEBF0FBE9F
:1012E000EDBF298B3A8B4B8B5C8B6D8B7E8B8F8B01
:1012F000988FD401F60188E001900D928150E1F7BA
:101300002B813C8189859A852817390791F48D8531
:101310009E8502972D813E812817390754F08F85CD
:10132000988902962F8138858217930714F0BB2481
:10133000B3940F5F1F4F0E151F050CF483CF8B2D39
:1013400068960FB6F894DEBF0FBECDBFCF91DF9188
:101350001F910F91FF90EF90DF90CF90BF90AF90D3
:101360009F908F907F906F905F904F903F900895E7
:101370001F920F920FB60F9211248F939F93AF93EA
:10138000BF938091AA019091AB01A091AC01B09163
:10139000AD010196A11DB11D8093AA019093AB01EF
:1013A000A093AC01B093AD01BF91AF919F918F918C
:1013B0000F900FBE0F901F9018952A9A2B9A0895A0
:1013C0002A982B9808958091AA019091AB01A09141
:1013D000AC01B091AD010497A105B10558F02A9A6E
:1013E0002B9A1092AA011092AB011092AC011092AC
:1013F000AD0108952A982B980895AF92BF92CF928D
:10140000DF92EF92FF920F931F93CF93DF93C0ED84
:10141000D4E000E010E0E5E1AE2EB12C0F2EF0E0BC
:10142000CF2EF0E0DF2EF0E0EF2EF0E0FF2EF02DDB
:101430002DB73EB7255130400FB6F8943EBF0FBED2
:101440002DBF0A9DF0010B9DF00D1A9DF00D11248A
:10145000ADB7BEB71196E453FB4F85E101900D92F5
:101460008150E1F70E94EA082DB73EB72B5E3F4F4F
:101470000FB6F8943EBF0FBE2DBF882389F56C814F
:101480007D818E819F8120E030E040E050E00E942D
:10149000452E882309F065C0688579858A859B85F6
:1014A0002AE939E949E95EE30E94E12D68877987F5
:1014B0008A879B87CC82DD82EE82FF8220E030E04B
:1014C00040E85FE30E94E72F18160CF04AC080E066
:1014D00090E0A0E8BFE388879987AA87BB8741C0CF
:1014E000C886D986EA86FB86688179818A819B8154
:1014F00020E030E040EE50E40E94E12D0E94B12E49
:101500002091600130916101621773072CF0C901CD
:10151000029686179707C4F4209162013091630107
:10152000621773072CF0C90102968617970764F4B7
:1015300020916401309165016217730794F0C9012D
:101540000296861797076CF027503040B90188271C
:1015500077FD8095982F0E94E42E688379838A8393
:101560009B83688179818A819B81288539854A8519
:101570005B850E94E12D688379838A839B830F5F5B
:101580001F4F65960530110509F052CFDF91CF91BD
:101590001F910F91FF90EF90DF90CF90BF90AF9091
:1015A00008952F923F924F925F926F927F928F9207
:1015B0009F92AF92BF92CF92DF92EF92FF920F93E2
:1015C0001F93CF93DF936091360270913702809121
:1015D0003802909139022AE939E949E95EE30E942B
:1015E000E12D3B014C01CCECD4E0FFE4CF2EF1E047
:1015F000DF2EAA24BB241B012C0157FA509457F864
:1016000050942DB73EB7255130400FB6F8943EBFE9
:101610000FBE2DBF85E190E0A89EF001A99EF00DC0
:10162000B89EF00D1124ADB7BEB71196E453FB4F31
:1016300085E101900D928150E1F70E94EA08EDB733
:10164000FEB775960FB6F894FEBF0FBEEDBF8823A8
:1016500009F047C0E884F9840A851B85C801B701F1
:1016600020E030E040E050E00E94452E882309F45D
:1016700045C0C801B70120E030E040E050E00E94E2
:10168000E72F181684F4688179818A819B8120E094
:1016900030E040E050E40E94E02D688379838A8343
:1016A0009B83F6011082688579858A859B8520E079
:1016B00030E040E050E00E94452E8823FCF4688131
:1016C00079818A819B8120E030E040E050E40E94F3
:1016D000E12D688379838A839B8321E0F60120834F
:1016E0000DC0F6018081882329F0688679868A8674
:1016F0009B8604C0288639864A865B866881798104
:101700008A819B81288539854A855B850E94E12DE8
:10171000688379838A839B830894A11CB11C659696
:101720000894C11CD11CF5E0AF16B10409F069CFD3
:10173000DF91CF911F910F91FF90EF90DF90CF90AD
:10174000BF90AF909F908F907F906F905F904F90E1
:101750003F902F900895EF92FF920F931F93CF9396
:10176000DF93CCECD4E0E880F9800A811B81C801CA
:10177000B70120E030E043EA52E40E94E72F181658
:101780002CF480E090E0A0E2B0EC0EC0C801B701FC
:1017900020E030E040E250EC0E94452E882344F4E3
:1017A00080E090E0A3EAB2E488839983AA83BB83B4
:1017B000659685E0C533D807B1F6DF91CF911F91CB
:1017C0000F91FF90EF9008954F925F926F927F92EA
:1017D0008F929F92AF92BF92CF92DF92EF92FF9241
:1017E0000F931F93CF93DF9300914701109148010E
:1017F000C0EDD4E00F2EF0E04F2EF0E05F2EF0EEC3
:101800006F2EF0EC7F2EF02D0F2EF0E08F2EF0E0FB
:101810009F2EF0E0AF2EF0E0BF2EF02D0F2EFDEC4E
:10182000CF2EFCECDF2EFCE4EF2EFEE3FF2EF02D9E
:10183000688179818A819B8120E030E040E452E434
:101840000E94E72F181674F4015010404882598204
:101850006A827B8288869986AA86BB86CC82DD8254
:10186000EE82FF82659685E0C933D80709F71093A9
:10187000480100934701DF91CF911F910F91FF9095
:10188000EF90DF90CF90BF90AF909F908F907F9020
:101890006F905F904F9008952F923F924F925F927A
:1018A0006F927F928F929F92AF92BF92CF92DF9270
:1018B000EF92FF920F931F93DF93CF93CDB7DEB7D5
:1018C00068970FB6F894DEBF0FBECDBF20909B0186
:1018D00030909C01B1ECCB2EB1E0DB2EAA24BB24CE
:1018E0008DB79EB745970FB6F8949EBF0FBE8DBFBC
:1018F00085E190E0A89EF001A99EF00DB89EF00D44
:101900001124ADB7BEB71196EF53FE4F85E101909C
:101910000D928150E1F70E942A06EDB7FEB7759649
:101920000FB6F894FEBF0FBEEDBF298B3A8B4B8BE1
:101930005C8B6D8B7E8B8F8B988FDE011196FE01F9
:10194000719688E001900D928150E1F74B805C80A8
:101950006F8078848D809E80A4E4EA2EA2E0FA2E27
:1019600000E010E055C08DB79EB745970FB6F894CC
:101970009EBF0FBE8DBF85E190E0089FF001099FDB
:10198000F00D189FF00D1124ADB7BEB71196E45CB1
:10199000FD4F85E101900D928150E1F70E942A06EA
:1019A000EDB7FEB775960FB6F894FEBF0FBEEDBF4C
:1019B000298B3A8B4B8B5C8B6D8B7E8B8F8B988FAF
:1019C000DE011996FE01719688E001900D9281501A
:1019D000E1F789859A8548165906A1F48F8598897B
:1019E000861597057CF08D859E858816990654F09E
:1019F000F70180819181A281B381F601808791876F
:101A0000A287B3870F5F1F4F85E190E0E80EF91EB4
:101A1000021513050CF4A7CFF60160817181828154
:101A2000938120853185428553850E94E12DF60101
:101A300060837183828393830894A11CB11C85E128
:101A400090E0C80ED91E95E0A916B10409F048CF60
:101A500068960FB6F894DEBF0FBECDBFCF91DF9171
:101A60001F910F91FF90EF90DF90CF90BF90AF90BC
:101A70009F908F907F906F905F904F903F902F90AE
:101A800008956F927F928F929F92AF92BF92CF9262
:101A9000DF92EF92FF920F931F93CF93DF93C1ECEE
:101AA000D1E00F2EF0E06F2EF0E07F2EF8EA8F2EBF
:101AB000F2E49F2EF02D0F2EF0E0AF2EF0E0BF2EBF
:101AC000F0E0CF2EF0ECDF2EF02DE880F9800A81D7
:101AD0001B81C801B70120E030E044EB52E40E94D2
:101AE000E72F18162CF4A882B982CA82DB820EC0B6
:101AF000C801B70120E030E040E051EC0E94452EE3
:101B0000882324F4688279828A829B82659682E0A7
:101B1000CA32D807D1F6DF91CF911F910F91FF9074
:101B2000EF90DF90CF90BF90AF909F908F907F907D
:101B30006F900895519821985098279820988598EB
:101B4000869808951F920F920FB60F9211242F932B
:101B50003F934F938F939F934091820189B18695D4
:101B600080FD09C020E030E080914B0590914C054C
:101B70008737910511F421E030E0440F4E71422B7C
:101B800040938201809182018F3121F481E0809322
:101B9000830106C080918201882311F41092830191
:101BA000409184011F9909C020E030E080914B05ED
:101BB00090914C058337910511F421E030E0440FFA
:101BC0004E71422B40938401809184018F3121F426
:101BD00081E08093850106C080918401882311F4FF
:101BE000109285019091850180919001981749F09C
:101BF0008091850110929001882319F081E08093F3
:101C000090014091860183B1869580FD09C020E056
:101C100030E080914B0590914C058136910511F48F
:101C200021E030E0440F4E71422B409386018091B9
:101C300086018F3121F481E08093870106C0809175
:101C40008601882311F410928701409188014899F8
:101C500009C020E030E080914B0590914C0584361E
:101C6000910511F421E030E0440F4E71422B409376
:101C70008801809188018F3121F481E0809389016E
:101C800006C080918801882311F410928901409147
:101C90008A01189909C020E030E080914B059091AD
:101CA0004C058037910511F421E030E0440F4E716E
:101CB000422B40938A0180918A018F3121F481E087
:101CC00080938B0106C080918A01882311F41092C1
:101CD0008B0190918B0180919101981749F080912F
:101CE0008B0110929101882319F081E0809391017A
:101CF00080918C019FB1880F8E71929596959695E3
:101D00009170892B80938C0180918C018F3121F40B
:101D100081E080938D0106C080918C01882311F4AD
:101D200010928D0140918E018FB1829586958770BA
:101D300080FD09C020E030E080914B0590914C057A
:101D40008437910511F421E030E0440F4E71422BAD
:101D500040938E0180918E018F3121F481E0809338
:101D60008F0106C080918E01882311F410928F019B
:101D700090918F0180919201981749F080918F0185
:101D800010929201882319F081E0809392019F9133
:101D90008F914F913F912F910F900FBE0F901F90F9
:101DA000189590918D018091AE01981759F080910E
:101DB0008D018093AE0110923202882319F081E0E8
:101DC00080933202809185019091AF01891719F4B7
:101DD00010922A020DC080918501891749F08091E7
:101DE000850110922A02882319F081E080932A024B
:101DF000809185018093AF0180918F019091B00116
:101E0000891719F4109233020DC080918F01891740
:101E100049F080918F0110923302882319F081E0FC
:101E20008093330280918F018093B00190918B0158
:101E30008091B101981759F080918B018093B10185
:101E400010923402882319F081E08093340290913B
:101E500083018091B201981759F08091830180939A
:101E6000B20110920004882319F081E080930004ED
:101E7000909187018091B301981759F08091870163
:101E80008093B30110924A05882319F081E0809372
:101E90004A05909189018091B401981759F0809179
:101EA00089018093B40110922F02882319F081E0F8
:101EB00080932F02089580913302882331F080911E
:101EC000950191E08927809395010895292F332763
:101ED00027FD3A952093BF008093CF0008950E947C
:101EE0009C2681E094E067E371E00E940A33AC0134
:101EF00082E190E06BE070E021E00E94932881E0B5
:101F000094E06EE271E00E940A33AC0184E190E05B
:101F100064E170E021E00E9493280E94B8280E94AA
:101F2000ED22882319F480E090E002C00E94C822CC
:101F30007E9903C08337910591F70E9406040E94A1
:101F4000B12E70932C0260932B02882777FD809529
:101F5000982F0E94E42E60939D0170939E018093C0
:101F60009F019093A00108950F931F93DF93CF9348
:101F7000CDB7DEB72F970FB6F894DEBF0FBECDBF3B
:101F800000D000D000D0EDB7FEB731968E010F5FC4
:101F90001F4FADB7BEB712961C930E93119780E0FA
:101FA00091E09383828380914701909148019583CA
:101FB00084830E9484338DB79EB706960FB6F8943B
:101FC0009EBF0FBE8DBF81E094E062E471E00E948D
:101FD0000A33AC018AE090E069E270E021E00E94FF
:101FE000932882E390E069E270E0A80121E00E947A
:101FF00093282F960FB6F894DEBF0FBECDBFCF91BA
:10200000DF911F910F9108950F931F93DF93CF934B
:10201000CDB7DEB72F970FB6F894DEBF0FBECDBF9A
:1020200000D000D000D0EDB7FEB731968E010F5F23
:102030001F4FADB7BEB712961C930E93119780E059
:1020400091E093838283809145019091460195832D
:1020500084830E9484338DB79EB706960FB6F8949A
:102060009EBF0FBE8DBF81E094E06BE471E00E94E3
:102070000A33AC018AE090E06FE170E021E00E9459
:1020800093288DE290E06FE170E0A80121E00E94CA
:1020900093282F960FB6F894DEBF0FBECDBFCF9119
:1020A000DF911F910F9108950F931F93DF93CF93AB
:1020B000CDB7DEB72F970FB6F894DEBF0FBECDBFFA
:1020C00000D000D000D0EDB7FEB731968E010F5F83
:1020D0001F4FADB7BEB712961C930E93119780E0B9
:1020E00091E0938382838091990190919A019583E5
:1020F00084830E9484338DB79EB706960FB6F894FA
:102100009EBF0FBE8DBF81E094E067E571E00E9445
:102110000A33AC018AE090E06BE070E021E00E94BD
:1021200093288DE290E06BE070E0A80121E00E942E
:1021300093282F960FB6F894DEBF0FBECDBFCF9178
:10214000DF911F910F9108950F931F93DF93CF930A
:10215000CDB7DEB72F970FB6F894DEBF0FBECDBF59
:1021600000D000D000D0EDB7FEB731968E010F5FE2
:102170001F4FADB7BEB712961C930E93119780E018
:1021800091E09383828380914301909144019583F0
:1021900084830E9484338DB79EB706960FB6F89459
:1021A0009EBF0FBE8DBF81E094E06EE571E00E949E
:1021B0000A33AC018AE090E061E070E021E00E9427
:1021C00093288DE290E061E070E0A80121E00E9498
:1021D00093282F960FB6F894DEBF0FBECDBFCF91D8
:1021E000DF911F910F9108954F925F926F927F92AE
:1021F0008F929F92AF92BF92CF92DF92EF92FF9217
:102200000F931F93DF93CF93CDB7DEB76E970FB6C3
:10221000F894DEBF0FBECDBF0091E0031091E10343
:10222000C8016CE370E00E946E30882777FD8095CE
:10223000982F0E94E42E0E941F2F3B014C01C801E1
:102240006CE370E00E946E30AA2797FDA095BA2F2C
:10225000BC01CD010E94E42E0E941F2F5B016C0186
:1022600000D000D000D00DB71EB70F5F1F4F2E015A
:102270000894411C511CEDB7FEB75282418243E0E5
:10228000E42E41E0F42EF801F382E282C401B301AE
:102290000E94B12EF801758364830E9484330DB7C8
:1022A0001EB70F5F1F4F30E1832E912C8C0E9D1EA9
:1022B000EDB7FEB792828182F801F382E282C60115
:1022C000B5010E94B12EF801758364830E948433A6
:1022D0008DB79EB706960FB6F8949EBF0FBE8DBF02
:1022E00081E094E061E571E00E940A33AC018AE08C
:1022F00090E065E170E021E00E9493288DE290E09B
:1023000065E170E0A20121E00E94932887E390E05C
:1023100065E170E048E051E021E00E9493288BE302
:1023200090E065E170E0A40121E00E9493286E96A0
:102330000FB6F894DEBF0FBECDBFCF91DF911F91D6
:102340000F91FF90EF90DF90CF90BF90AF909F9054
:102350008F907F906F905F904F900895EF92FF92D3
:102360000F931F9348C0109234020E94ED228823DD
:1023700039F00E94C8229093CA048093C90404C013
:102380001092CA041092C9040E94D10E0E949C2689
:102390000E94A4100E9454100E94F4100E94041085
:1023A0000E94B40F0E94B82880913402882339F427
:1023B0008091C9049091CA0480379105E1F40E948C
:1023C00006047B018C016091E0037091E103882792
:1023D00077FD8095982F0E94E42E9B01AC01C801E7
:1023E000B7010E94E02D0E94B12E70932C026093E1
:1023F0002B021092930180919301882309F0B3CFAF
:102400001F910F91FF90EF900895CF92DF92EF927E
:10241000FF920F931F93CF93DF9380914701909189
:10242000480118161906CCF11092A2011092A101D0
:102430000E94060460939D0170939E0180939F010A
:102440009093A00185E090E090934801809347012C
:10245000CCECD4E006E611E00F2EF0E0CF2EF0E059
:10246000DF2EF0E0EF2EF0E0FF2EF02DC886D986AB
:10247000EA86FB86F801619171918F01882777FDCB
:102480008095982F0E94E42E688379838A839B83AA
:102490006596F5E0C533DF0749F70E9406047B0126
:1024A0008C0160919D0170919E0180919F0190919E
:1024B000A0010E941F2F9B01AC01C801B7010E941F
:1024C000E02D0E94B12E6330710524F081E08093ED
:1024D000CB0402C01092CB04635070406830710589
:1024E00068F481E08093F7038091A1019091A201AB
:1024F00001969093A2018093A10102C01092F7036C
:10250000DF91CF911F910F91FF90EF90DF90CF90CF
:1025100008950F931F93CF93DF930CE312E0C0E075
:10252000D0E006C0C8010E94793121960B5E1F4F92
:1025300080919B0190919C01C817D9079CF3C0E042
:10254000D0E0CE018F539E4F0E947931CE0184534B
:102550009B4F0E9479316596C936D10591F782EE7D
:1025600093E00E94793185E395E00E947931DF9113
:10257000CF911F910F9108951F93E1E6F0E080E85D
:10258000808311E010830E949A0D87E880937A007F
:102590008FE30E94EC280E941D2914BC84E085BDB5
:1025A00010936E001092800093E09093810010933E
:1025B0006F001092900082E0809391001093710060
:1025C0009093BF008FEF8093D10082E88093C0008A
:1025D0003F9A87E08093C1001092C3007894229ABA
:1025E000239A2A982B980E94AC221F9108950F934A
:1025F0001F93CF93DF930CE312E0C0E0D0E006C05E
:10260000C8010E94AB2921960B5E1F4F80919B0150
:1026100090919C01C817D9079CF3DF91CF911F912E
:102620000F910895CF93DF93CCECD4E0CE010E94BC
:10263000AB29659685E0C533D807C1F7DF91CF9107
:102640000895CF93DF93C1ECD1E0CE010E94AB2976
:10265000659682E0CA32D807C1F7DF91CF9108951D
:102660000E949C260E94F71282EE93E00E94AB2902
:1026700085E395E00E94AB290E9421130E9412136A
:102680000E94B8280E94A80308958F929F92AF924B
:10269000BF92CF92EF92FF920F931F93CF93DF934E
:1026A000A6E68A2EA1E09A2ECCECD4E0F40161914A
:1026B00071914F01882777FD8095982F0E94E42E15
:1026C0007B018C018CE193E067E070E00E9462295D
:1026D0005C01CE01B801A70100E010E020EE30EC73
:1026E000F5E0EF2EE7E0CE2E0E9483296596F0E715
:1026F0008F16F1E09F06D1F6DF91CF911F910F91D8
:10270000FF90EF90CF90BF90AF909F908F900895E3
:10271000AF92BF92CF92EF920F931F93CF93DF931D
:10272000C1ECD1E083E293E062E070E00E946229B4
:102730005C01CE0140E050E062EA72E400E010E0AB
:1027400020E030E0E2E0EE2EB2E0CB2E0E948329C2
:102750001A8A659682E0CA32D80721F7DF91CF91B5
:102760001F910F91EF90CF90BF90AF900895AF92CF
:10277000BF92CF92EF920F931F9385E293E067E0B1
:1027800070E00E9462295C0185E395E040E050E042
:1027900060E070E000E010E028E132E4A7E0EA2E1B
:1027A000F7E0CF2E0E9483291F910F91EF90CF90D9
:1027B000BF90AF900895AF92BF92CF92DF92EF9209
:1027C000FF920F931F9380919B0190919C01019721
:1027D00025E130E0829FF001839FF00D929FF00D84
:1027E0001124E45CFD4FC080D180E280F3806481DD
:1027F00075818681978120E030E040E050E40E94BE
:10280000E12D8B019C0182EE93E0B701A601F6E079
:10281000EF2EE8E0CE2EB4E5AB2EB1E0BB2E0E9449
:1028200083291F910F91FF90EF90DF90CF90BF9081
:10283000AF900895809143019091440118161906B4
:102840001CF481E0809335020E94DB131092970103
:10285000109298010895AF92BF92CF92EF920F938A
:102860001F9320919B0130919C0185E190E0AC0188
:10287000249FC001259F900D349F900D1124845CEE
:102880009D4F40E050E068E472E400E010E020E09A
:1028900030E0EAE0EE2EB2E0CB2EACE5AA2EA1E0CD
:1028A000BA2E0E94832980919B0190919C010196F0
:1028B00090939C0180939B011F910F91EF90CF907B
:1028C000BF90AF9008952F923F924F925F926F9278
:1028D0007F928F929F92AF92BF92CF92DF92EF92B0
:1028E000FF920F931F93DF93CF9300D000D000D0BF
:1028F000CDB7DEB780919B0190919C0144970CF07D
:10290000D2C040E651E05A834983442455241E82B4
:102910001D821C821B8286B590E00E9427322224F1
:1029200033248B819C81029789F4ED81FE81E7300D
:10293000F10524F43196FE83ED839DC0F2E04F163D
:10294000510424F40894411C511C95C00E94223269
:10295000AA2797FDA095BA2FBC01CD010E94E42EB5
:1029600020E03EEF4FEF56E40E94492E2AE939E974
:1029700049E95EE30E94452E87FD7DC00E94223218
:1029800010E0AA2797FDA095BA2FBC01CD010E94A7
:10299000E42E20E03EEF4FEF56E40E94492E2DEC4E
:1029A0003CEC4CE45EE30E94E72F181644F411E07F
:1029B0004D815E814F5F5F4F5E834D8303C00894FE
:1029C000411C511CB101882777FD8095982F0E94EA
:1029D000E42E6B017C01E981FA8160817181882795
:1029E00077FD8095982F0E94E42E3B014C012091A9
:1029F0009B0130919C011123C1F045E150E0249FDF
:102A0000C001259F900D349F900D1124845C9D4F33
:102A1000A601B70183019401FAE0EF2EE2E0CE2E89
:102A2000BCE5AB2EB1E0BB2E1BC085E190E0289F3A
:102A30008001299F100D389F100D1124045C1D4F3B
:102A40008CE293E064E070E00E9462295C01C801BE
:102A5000A601B70183019401AAE0EA2EF2E0CF2E8D
:102A60000E94832980919B0190919C0101969093F3
:102A70009C0180939B01ECE0F0E02E0E3F1EF4E5FC
:102A80002F16310409F04DCF4B815C814F5F5F4FB2
:102A90005C834B8389819A8102969A838983433030
:102AA000510509F038CF26960FB6F894DEBF0FBE59
:102AB000CDBFCF91DF911F910F91FF90EF90DF90ED
:102AC000CF90BF90AF909F908F907F906F905F90CE
:102AD0004F903F902F900895CF93DF9380E060E276
:102AE0000E94CB2880E062EB0E94CB2860914E01CF
:102AF000669566956695606480E00E94CB28C0E08C
:102B0000D0E081E060E00E94CB282196C830D1055A
:102B1000C1F7DF91CF910895CF93DF9380E060E21A
:102B20000E94CB2880E062EB0E94CB2860914E018E
:102B3000669566956695606480E00E94CB28C8EF34
:102B4000D3E081E069910E94CB2884E0C030D807AF
:102B5000C1F7DF91CF9108950E946C1580914E01CD
:102B60008F5F80934E010E948C150895DC010D90BB
:102B70000020E9F71197A81BB90BBD010E947D2326
:102B800008950F931F932DB73EB7285030400FB6CE
:102B9000F8943EBF0FBE2DBFEDB7FEB7319605EBE3
:102BA00011E0ADB7BEB712961C930E93119728E0B3
:102BB00030E03383228320E031E035832483978320
:102BC00086830E9453332DB73EB7285F3F4F0FB621
:102BD000F8943EBF0FBE2DBFC8010E94B6151F91CD
:102BE0000F91089581E094E063EC72E00E940A3353
:102BF0000E94B6158091990190919A010E94C11589
:102C0000089581E094E066ED72E00E940A330E942C
:102C1000B61580914301909144010E94C115089519
:102C2000AF92BF92CF92DF92EF92FF920F931F93DA
:102C30000E9406040E94B12E7B018C01CB016CE343
:102C400070E00E946E30882777FD8095982F0E9453
:102C5000E42E0E941F2F5B016C01C7016CE370E042
:102C60000E946E30AA2797FDA095BA2FBC01CD0116
:102C70000E94E42E0E941F2F7B018C0181E094E0D2
:102C80006BEE72E00E940A330E94B615C601B501D0
:102C90000E94B12EDC01CB010E94C11588E091E0B9
:102CA0000E94B615C801B7010E94B12EDC01CB010C
:102CB0000E94C1151F910F91FF90EF90DF90CF9070
:102CC000BF90AF9008950F931F9301E014E0C801E7
:102CD00062EB71E00E940A330E94B6150E94011651
:102CE0000E94F2150E941016C80162EA71E00E946B
:102CF0000A330E94B6158091A3019091A4010E940D
:102D0000C1151F910F9108950F931F9301E014E0D7
:102D1000C8016AEE71E00E940A330E94B615C8012C
:102D200064ED71E00E940A330E94B615809147015C
:102D3000909148010E94C115C8016EEB71E00E949C
:102D40000A330E94B61580914501909146010E9478
:102D5000C1150E9410161F910F9108952F923F9256
:102D60004F925F926F927F928F929F92AF92BF929B
:102D7000CF92DF92EF92FF920F931F93DF93CF9347
:102D8000CDB7DEB768970FB6F894DEBF0FBECDBFE4
:102D9000B0ED8B2EB4E09B2EAA24BB248DB79EB73A
:102DA00045970FB6F8949EBF0FBE8DBFA5E1B0E06A
:102DB000AA9EF001AB9EF00DBA9EF00D1124ADB7A6
:102DC000BEB71196E453FB4F85E101900D928150FF
:102DD000E1F70E942A06EDB7FEB775960FB6F89494
:102DE000FEBF0FBEEDBF298B3A8B4B8B5C8B6D8B7F
:102DF0007E8B8F8B988FDE011196FE01719688E095
:102E000001900D928150E1F74D805E806F80788453
:102E10002B803C80A1ECEA2EA1E0FA2ECC24DD240C
:102E200093C08DB79EB745970FB6F8949EBF0FBE5F
:102E30008DBFA5E1B0E0CA9EF001CB9EF00DDA9EF9
:102E4000F00D1124ADB7BEB71196EF53FE4F85E1DB
:102E500001900D928150E1F70E942A06EDB7FEB76E
:102E600075960FB6F894FEBF0FBEEDBF298B3A8B57
:102E70004B8B5C8B6D8B7E8B8F8B988FDE011996C5
:102E8000FE01719688E001900D928150E1F72D8549
:102E90003E858B859C852816390609F04EC08F85A6
:102EA00098896816790624F02415350544F445C040
:102EB000241535050CF441C062167306F4F180E068
:102EC00090E0A2EAB2E4F70180839183A283B38306
:102ED00080E090E0A0E0B0E084839583A683B78390
:102EE000128A0F5F1F4F109346010093450180E047
:102EF00090E0A0EEB0ECF40180839183A283B383D1
:102F000080914701909148010197909348018093E7
:102F100047018091990190919A010A9690939A01A4
:102F2000809399010E9484168091A3019091A4013D
:102F300001969093A4018093A3010894C11CD11C15
:102F400085E190E0E80EF91E0091450110914601DF
:102F5000C016D1060CF465CF0894A11CB11CA5E1E4
:102F6000B0E08A0E9B1EB5E0AB16B10409F016CF97
:102F700068960FB6F894DEBF0FBECDBFCF91DF913C
:102F80001F910F91FF90EF90DF90CF90BF90AF9087
:102F90009F908F907F906F905F904F903F902F9079
:102FA00008950F931F9301E014E0C8016CE172E0F3
:102FB0000E940A330E94B615C80166E072E00E94C2
:102FC0000A330E94B61580914701909148010E94F2
:102FD000C1150E9410160E9401160E94F2151F9141
:102FE0000F9108950E94AB0B0E9405128091CB04B3
:102FF000882311F00E94FD098091F703882319F0BE
:103000000E94E30902C02A982B988091A101909117
:10301000A201019711F40E94D1170E94E40B0E94B3
:10302000D10A0E94AE1608950F931F9301E014E099
:10303000C8016CE572E00E940A330E94B6150E9436
:1030400001160E94F2150E941016C80166E472E093
:103050000E940A330E94B615809147019091480161
:103060000E94C115C80160E372E00E940A330E9409
:10307000B61580914501909146010E94C1151F919E
:103080000F910895EF92FF920F931F938091340256
:103090008823F9F00E94141881E0809393010E9424
:1030A00006047B018C0160912B0270912C02882711
:1030B00077FD8095982F0E94E42E9B01AC01C801FA
:1030C000B7010E94E02D0E94B12E7093E10360933E
:1030D000E0031F910F91FF90EF900895EF92FF9200
:1030E0000F931F937C0101E014E0C80161EB72E0D3
:1030F0000E940A330E94B615C8016DE972E00E9471
:103100000A330E94B615C7010E94B6150E94011627
:103110000E94F2150E9410161F910F91FF90EF90E0
:1031200008954F925F926F927F928F929F92AF928B
:10313000BF92CF92DF92EF92FF920F931F93DF9394
:10314000CF93CDB7DEB768970FB6F894DEBF0FBE4A
:10315000CDBF00E010E02E010894411C511C21E17C
:10316000A22EB12CAC0EBD1E95E1692E712C89E00A
:10317000882E912C8C0E9D1E8DB79EB745970FB64D
:10318000F8949EBF0FBE8DBFADB7BEB71196E2EEED
:10319000F3E085E101900D928150E1F70E942A064B
:1031A000EDB7FEB775960FB6F894FEBF0FBEEDBF34
:1031B000298B3A8B4B8B5C8B6D8B7E8B8F8B988F97
:1031C000D201F50188E001900D928150E1F7EF8086
:1031D000F884CD80DE808DB79EB745970FB6F89402
:1031E0009EBF0FBE8DBF069DF001079DF00D169D81
:1031F000F00D1124ADB7BEB71196E453FB4F85E136
:1032000001900D928150E1F70E942A06EDB7FEB7BA
:1032100075960FB6F894FEBF0FBEEDBF298B3A8BA3
:103220004B8B5C8B6D8B7E8B8F8B988FD401F501D4
:1032300088E001900D928150E1F749855A852F85EC
:1032400038898D859E858C159D051CF0E816F9063C
:1032500034F4E216F306E4F02C153D05CCF0898138
:103260009A8148175907A4F08B819C818417950790
:103270007CF0809143019091440101979093440127
:10328000809343018AE091E00E946E180E941A1414
:103290000F5F1F4F0530110509F06ECF68960FB60E
:1032A000F894DEBF0FBECDBFCF91DF911F910F917C
:1032B000FF90EF90DF90CF90BF90AF909F908F9056
:1032C0007F906F905F904F900895DF93CF93CDB72D
:1032D000DEB760970FB6F894DEBF0FBECDBF8DB7D7
:1032E0009EB745970FB6F8949EBF0FBE8DBFADB782
:1032F000BEB71196E2EEF3E085E101900D928150A8
:10330000E1F70E942A06EDB7FEB775960FB6F8945E
:10331000FEBF0FBEEDBF29873A874B875C876D875D
:103320007E878F87988BDE011196FE01399688E0A3
:1033300001900D928150E1F78B819C81C1976CF4D3
:1033400089819A8197FD09C08D819E8197FD05C075
:103350008F819885853591057CF08091430190910E
:103360004401019790934401809343018BE191E0E4
:103370000E946E180E941A1460960FB6F894DEBF71
:103380000FBECDBFCF91DF9108956F927F928F9244
:103390009F92AF92BF92CF92DF92EF92FF920F93E4
:1033A0001F93DF93CF93CDB7DEB768970FB6F8942E
:1033B000DEBF0FBECDBF6FE4E62E62E0F62E00E06A
:1033C00010E055E1652E712C4E010894811C911C72
:1033D00041E1C42ED12CCC0EDD1E39E0A32EB12C40
:1033E000AC0EBD1E94C08DB79EB745970FB6F8942E
:1033F0009EBF0FBE8DBF069DF001079DF00D169D6F
:10340000F00D1124ADB7BEB71196E45CFD4F85E118
:1034100001900D928150E1F70E942A06EDB7FEB7A8
:1034200075960FB6F894FEBF0FBEEDBF298B3A8B91
:103430004B8B5C8B6D8B7E8B8F8B988FD401F601C1
:1034400088E001900D928150E1F78DB79EB74597C6
:103450000FB6F8949EBF0FBE8DBFADB7BEB7119625
:10346000E2EEF3E085E101900D928150E1F70E94D8
:103470002A06EDB7FEB775960FB6F894FEBF0FBEDD
:10348000EDBF298B3A8B4B8B5C8B6D8B7E8B8F8B3F
:10349000988FD501F60188E001900D928150E1F7F7
:1034A00029853A858B819C812817390754F52B850E
:1034B0003C8589819A81821793071CF52D853E856D
:1034C0008F81988582179307E4F42F8538898D8141
:1034D0009E8128173907ACF4F701808191818C55C2
:1034E000914079F08091430190914401019790932C
:1034F0004401809343018FE291E00E946E180E9484
:103500001A140F5F1F4F85E190E0E80EF91E8091BD
:103510009B0190919C01081719070CF464CF6896E1
:103520000FB6F894DEBF0FBECDBFCF91DF911F91D4
:103530000F91FF90EF90DF90CF90BF90AF909F9052
:103540008F907F906F9008952F923F924F925F924D
:103550006F927F928F929F92BF92CF92DF92EF9263
:10356000FF920F931F93DF93CF93CDB7DEB768978A
:103570000FB6F894DEBF0FBECDBFAFE4CA2EA2E0F7
:10358000DA2EBB24EE24FF24F5E12F2E312C2E0160
:103590000894411C511CE1E18E2E912C8C0E9D1E35
:1035A00079E0672E712C6C0E7D1EA8C08DB79EB77A
:1035B00045970FB6F8949EBF0FBE8DBFE29CF001F9
:1035C000E39CF00DF29CF00D1124ADB7BEB711963F
:1035D000E45CFD4F85E101900D928150E1F70E947E
:1035E0002A06EDB7FEB775960FB6F894FEBF0FBE6C
:1035F000EDBF298B3A8B4B8B5C8B6D8B7E8B8F8BCE
:10360000988FD201F40188E001900D928150E1F78A
:1036100009811A818DB79EB745970FB6F8949EBF62
:103620000FBE8DBFADB7BEB71196E2EEF3E085E1F8
:1036300001900D928150E1F70E942A06EDB7FEB786
:1036400075960FB6F894FEBF0FBEEDBF298B3A8B6F
:103650004B8B5C8B6D8B7E8B8F8B988FD301F401A2
:1036600088E001900D928150E1F78B859C85801751
:103670009107E9F58F81988505962F8538898217FE
:103680009307ACF18D819E8105972D853E85281786
:1036900039076CF1F601808191818C559140C1F41C
:1036A000F0923102E092300208501040B8018827B1
:1036B00077FD8095982F0E94E42E6093E603709327
:1036C000E7038093E8039093E903BB24B3940FC00E
:1036D000809143019091440101979093440180931C
:1036E00043018FE291E00E946E180E941A14089420
:1036F000E11CF11C85E190E0C80ED91E80919B0170
:1037000090919C01E816F9060CF450CF8B2D689629
:103710000FB6F894DEBF0FBECDBFCF91DF911F91E2
:103720000F91FF90EF90DF90CF90BF909F908F9080
:103730007F906F905F904F903F902F900895EF9201
:10374000FF920F931F93DF93CF93CDB7DEB72A97E6
:103750000FB6F894DEBF0FBECDBF0E94A41A982FFB
:1037600023ED31E0AE014F5F5F4FE0E0F0E0D901C3
:103770008C91882319F4DA01ED93FC9331962B5E3A
:103780003F4F4E5F5F4FE530F10589F7E09045010F
:10379000F0904601EE19FF09EE0FFF1FEC0FFD1F21
:1037A0002181328180912A02882309F44AC01E14A3
:1037B0001F040CF046C0992309F443C085E190E052
:1037C000289F8001299F100D389F100D11240F5341
:1037D0001E4F6091E2037091E3038091E4039091A6
:1037E000E50320E030E040E050E40E94E12DF801E4
:1037F00060837183828393836091E6037091E70312
:103800008091E8039091E90320E030E040E051E44A
:103810000E94E12D20E030E040E050E40E94E02DE5
:10382000D80114966D937D938D939C93179781E0A7
:1038300052968C930894E108F108F0924601E092C8
:1038400045012A960FB6F894DEBF0FBECDBFCF91CB
:10385000DF911F910F91FF90EF9008950E949F1BA1
:103860000E944C0C0E94410D0895DF92EF92FF924E
:103870000F931F930E94A41AD82E0E940808882331
:1038800041F1E090EA03F090EB030091EC0310911A
:10389000ED03C801B70120E030E040E050E00E94B5
:1038A000E72F181654F0C801B70120E030E040E0DF
:1038B00050E00E94452E882364F480E090E0A0E070
:1038C000B0E08093EA039093EB03A093EC03B093F2
:1038D000ED0380910004882331F1DD2009F465C0F7
:1038E00080E090E0A0E1B0EC8093EE039093EF03D2
:1038F000A093F003B093F1036091E6037091E703A6
:103900008091E8039091E90320E030E040E150E449
:103910000E94E02D6093E6037093E7038093E80331
:103920009093E90303C0DD2009F43FC06091E603F2
:103930007091E7038091E8039091E90320E030E083
:1039400040E051E40E94E12D0E94B12E809160017F
:10395000909161016817790739F080916401909125
:1039600065016817790749F4809136029091370212
:10397000A0913802B091390210C0809162019091FB
:1039800063016817790789F48091360290913702B4
:10399000A0913802B0913902B0588093EA03909315
:1039A000EB03A093EC03B093ED0380919701882380
:1039B00079F16091E6037091E7038091E8039091BB
:1039C000E90320E030E040E051E40E94E12D7B017A
:1039D0008C016091620170916301882777FD809569
:1039E000982F0E94E42E9B01AC01C801B7010E94F0
:1039F000452E609136027091370280913802909185
:103A0000390220E030E040E05FE30E94E12D33C066
:103A1000809198018823B9F16091E6037091E703E2
:103A20008091E8039091E90320E030E040E051E428
:103A30000E94E12D7B018C01609162017091630114
:103A4000882777FD8095982F0E94E42E9B01AC017A
:103A5000C801B7010E94452E60913602709137026D
:103A6000809138029091390220E030E040E05FE33D
:103A70000E94E12D90586093EA037093EB038093CA
:103A8000EC039093ED036091E2037091E303809166
:103A9000E4039091E5032091EA033091EB03409118
:103AA000EC035091ED030E94E12D6093E2037093CB
:103AB000E3038093E4039093E5031F910F91FF903C
:103AC000EF90DF9008950E94A41A8823C1F02091FE
:103AD00030023091310280914D0590914E052817AA
:103AE000390769F030934E0520934D058091990177
:103AF00090919A01019690939A018093990108956B
:103B00006F927F928F929F92AF92BF92CF92DF92ED
:103B1000EF92FF920F931F93DF93CF93CDB7DEB752
:103B200068970FB6F894DEBF0FBECDBF3FE4E32E1B
:103B300032E0F32E00E010E025E1A22EB12C3E0190
:103B40000894611C711C91E1C92ED12CCC0EDD1E94
:103B500089E0882E912C8C0E9D1ECBC02DB73EB7D0
:103B6000255130400FB6F8943EBF0FBE2DBF0A9DC1
:103B7000F0010B9DF00D1A9DF00D1124ADB7BEB7ED
:103B80001196E45CFD4F85E101900D928150E1F7C3
:103B90000E942A06EDB7FEB775960FB6F894FEBFE1
:103BA0000FBEEDBF298B3A8B4B8B5C8B6D8B7E8B65
:103BB0008F8B988FD301F60188E001900D92815090
:103BC000E1F72DB73EB7255130400FB6F8943EBF10
:103BD0000FBE2DBFADB7BEB71196E2EEF3E085E1A3
:103BE00001900D928150E1F70E942A06EDB7FEB7D1
:103BF00075960FB6F894FEBF0FBEEDBF298B3A8BBA
:103C00004B8B5C8B6D8B7E8B8F8B988FD401F601E9
:103C100088E001900D928150E1F729853A858B81EA
:103C20009C812817390709F05EC08F819885059619
:103C30002F853889821793070CF455C08D819E819A
:103C400005972D853E85281739070CF44CC0F701E0
:103C5000808191818C55914089F52DB73EB72A52CC
:103C600030400FB6F8943EBF0FBE2DBF2F5F3F4FC1
:103C7000D901E2EEF3E085E101900D928150E1F788
:103C80000A9DF0010B9DF00D1A9DF00D1124D90134
:103C90005596E45CFD4F85E101900D928150E1F76E
:103CA0000E949D06EDB7FEB7BA960FB6F894FEBF18
:103CB0000FBEEDBF882311F081E024C0F7018081A1
:103CC00091818C55914079F080914301909144010C
:103CD000019790934401809343018FE291E00E9409
:103CE0006E180E941A140F5F1F4F25E130E0E20E9C
:103CF000F31E80919B0190919C01081719070CF409
:103D00002DCF80E068960FB6F894DEBF0FBECDBF12
:103D1000CF91DF911F910F91FF90EF90DF90CF90A7
:103D2000BF90AF909F908F907F906F900895FF927B
:103D30000F931F930E94A41A082F0E94801DF82E33
:103D40000E942F07182F002351F56091EE03709108
:103D5000EF038091F0039091F10320E030E040E820
:103D60005EE30E94E12D6093EE037093EF03809376
:103D7000F0039093F10320E030E040E85FE30E941D
:103D8000E72F181664F480E090E0A0E8BFE380938A
:103D9000EE039093EF03A093F003B093F10311238C
:103DA00021F01092970110929801002311F4FF2046
:103DB00061F080E090E0A0E0B0E08093EE039093AB
:103DC000EF03A093F003B093F1036091E6037091C9
:103DD000E7038091E8039091E9032091EE0330918D
:103DE000EF034091F0035091F1030E94E12D6093A5
:103DF000E6037093E7038093E8039093E9031F9130
:103E00000F91FF9008951F930E94A41A182F0E94EB
:103E1000801D982F80912F02882371F0112311F4B7
:103E2000992351F080919801882319F010929801FC
:103E300003C081E08093970180914A05882371F047
:103E4000112311F4992351F080919701882319F0DF
:103E50001092970103C081E0809398011F9108950B
:103E600081E094E067E073E00E940A330E94B61597
:103E70006091E2037091E3038091E4039091E50384
:103E80000E94B12EDC01CB010E94C1158CE20E9480
:103E90001B236091E6037091E7038091E803909102
:103EA000E9030E94B12EDC01CB010E94C1158FE312
:103EB00091E00E94B615089581E094E06AE672E010
:103EC0000E940A330E94B6150E94301F089581E0B7
:103ED00094E06DE772E00E940A330E94B6150E94DA
:103EE000F2150E9401160E9410160E94301F0895BC
:103EF000DF93CF93CDB7DEB768970FB6F894DEBFE8
:103F00000FBECDBF8DB79EB745970FB6F8949EBF35
:103F10000FBE8DBFADB7BEB71196E5E3F5E085E105
:103F200001900D928150E1F70E942A06EDB7FEB78D
:103F300075960FB6F894FEBF0FBEEDBF298B3A8B76
:103F40004B8B5C8B6D8B7E8B8F8B988FDE011196EC
:103F5000FE01719688E001900D928150E1F78DB7D6
:103F60009EB745970FB6F8949EBF0FBE8DBFADB7F5
:103F7000BEB71196E2EEF3E085E101900D9281501B
:103F8000E1F70E942A06EDB7FEB775960FB6F894D2
:103F9000FEBF0FBEEDBF298B3A8B4B8B5C8B6D8BBD
:103FA0007E8B8F8B988FDE011996FE01719688E0CB
:103FB00001900D928150E1F72B853C8589819A8192
:103FC00028173907BCF18D819E8103972D853E8589
:103FD000281739077CF18F81988503962F853889BA
:103FE000821793073CF1809143019091440102961E
:103FF00090934401809343011092470580E090E044
:10400000A8E6B2E48093390590933A05A0933B0566
:10401000B0933C0580E090E0A0E7B1EC80933505DB
:1040200090933605A0933705B09338050E941A1473
:104030000E94671F68960FB6F894DEBF0FBECDBF13
:10404000CF91DF91089580913502882321F40E9459
:10405000031F0E94351C0E94971E0E9465190E9432
:10406000781F0E94631D0E9491180E94DA050E9429
:10407000C519089581E094E065EF72E00E940A336B
:104080000E94B6150E94301F08950E9463140E947A
:104090002B140E94DB130E94B7130E9488130E9406
:1040A00045130E943A2080919B0190919C010197B9
:1040B00090934E0580934D0508950E949C26109282
:1040C000960110929301109295011092970110920F
:1040D000980181E08093490110924E0510924D05A0
:1040E00010923102109230021092A4011092A3019A
:1040F00080E090E0A0E0B0E080939D0190939E016D
:10410000A0939F01B093A0018AE090E090934401B6
:104110008093430110929A011092990185E090E0FA
:104120009093460180934501909348018093470105
:1041300010929C0110929B011092E1031092E003F7
:104140000E9406040E94B12E70932C0260932B02F1
:10415000882777FD8095982F0E94E42E60939D011B
:1041600070939E0180939F019093A0010E9445202F
:104170000E94B82808952F923F924F925F926F92BB
:104180007F928F929F92AF92BF92CF92DF92EF92E7
:10419000FF920F931F93DF93CF93CDB7DEB7AD9709
:1041A0000FB6F894DEBF0FBECDBF63E0262E61E0F0
:1041B000362E50E1452E512C4C0E5D1E4FE1642EE3
:1041C000712C6C0E7D1E37C100912D0210912E02B4
:1041D000C8016CE370E00E946E30882777FD8095FF
:1041E000982F0E94E42E0E941F2F4B015C01C801F2
:1041F0006CE370E00E946E30AA2797FDA095BA2F5D
:10420000BC01CD010E94E42E0E941F2F6B017C0196
:1042100000D000D000D00DB71EB70F5F1F4FE1E0F8
:10422000F0E0EC0FFD1FADB7BEB71296FC93EE9316
:104230001197D80113963C922E921297C501B401A2
:104240000E94B12EF801758364830E9484330DB7F8
:104250001EB70F5F1F4FADB7BEB712965C924E925E
:104260001197F80133822282C701B6010E94B12E54
:10427000D80115967C936E9314970E948433EDB702
:10428000FEB73196ADB7BEB712967C926E9211977B
:1042900080E091E0938382838091990190919A01CB
:1042A000958384830E948433ADB7BEB716960FB64C
:1042B000F894BEBF0FBEADBF0E94ED22882319F453
:1042C000CC24DD2403C00E94C8226C010E94AC15DE
:1042D00081E094E068E971E00E940A33AC0189E171
:1042E00090E061E070E021E00E94932881E094E09A
:1042F00061E971E00E940A33AC018AE090E06BE072
:1043000070E021E00E9493288DE290E06BE070E085
:10431000A30121E00E94932881E094E06BE871E022
:104320000E940A33AC018AE090E065E170E021E090
:104330000E9493288DE290E065E170E0AE014F5F4E
:104340005F4F21E00E94932881E094E069E871E0EA
:104350000E940A33AC0187E390E065E170E021E060
:104360000E9493288BE390E065E170E0A20121E0D8
:104370000E94932881E094E06DE771E00E940A3387
:10438000AC0180E090E06FE170E021E00E949328B2
:1043900081E094E06EE671E00E940A33AC0180E0B7
:1043A00090E069E270E021E00E9493280E940604F8
:1043B0007B018C0160912D0270912E02882777FD80
:1043C0008095982F0E94E42E9B01AC01C801B70193
:1043D0000E94E02D20E030E040E450E40E94E72F0E
:1043E000181614F40E94B8287D9904C0B2E7CB16C1
:1043F000D10421F40E945D20109294017E9904C0A2
:10440000E1E7CE16D104B9F41092940181E08093D3
:1044100096010E949C2681E094E065E671E00E948E
:104420000A33AC0184E190E064E170E021E00E9495
:1044300093280E94B82880919401882309F0C4CE63
:10444000AD960FB6F894DEBF0FBECDBFCF91DF9112
:104450001F910F91FF90EF90DF90CF90BF90AF90A2
:104460009F908F907F906F905F904F903F902F9094
:10447000089580914C010E94EC280E94ED2288232F
:1044800039F00E94C82290934C0580934B0504C0DC
:1044900010924C0510924B0580914A0190914B016E
:1044A000292F332727FD3A952093BF008093CF0013
:1044B0000E94D10E80913302882331F080919501C2
:1044C00091E08927809395010E9442180E94AE11C5
:1044D0000E94F2170E9423200E9471050E94D505B8
:1044E0000E942E1C0E943013809143019091440140
:1044F000181619069CF00E9406040E94B12E7093B3
:104500002E0260932D020E949C260E94B8280E94D1
:1045100063160E94BB2081E0809394010895CF939D
:10452000DF930E94BC120E946F0F0E944520C8ECCE
:10453000D0E009C00E9439228AE491E0FE0131975F
:10454000F1F70197D9F780919601882399F380E0DC
:1045500090E0DF91CF91089581E08093D70080EAC9
:104560008093D80082E189BD09B400FEFDCF80E9C7
:104570008093D8001092E0001092BD011092BE010D
:104580008CE08093E200789408958091BD010895B5
:104590002FB7F8948091BD01882369F083E0809360
:1045A000E9009BE68091E80085FD09C082FF03C019
:1045B0009093E800F7CF2FBF2FEF3FEF0CC0909103
:1045C000F1008091E80085FD03C08BE68093E80050
:1045D0002FBF292F30E0C90108952FB7F89480919B
:1045E000BD01882311F490E010C083E08093E900BE
:1045F0009091F200992349F48091E80082FF05C070
:1046000085FD03C08BE68093E8002FBF892F0895B6
:104610008091BD01882371F09FB7F89483E0809367
:10462000E9002BE602C02093E8008091E80085FDB8
:10463000FACF9FBF0895482F8091BD018823D9F1FB
:104640002FB7F89484E08093E9008091C00188231B
:1046500041F08091E80085FD02C02FBF12C010928A
:10466000C0019091E400975E34E08091E80085FD00
:1046700013C02FBF8091E400891729F481E0809353
:10468000C0018FEF08958091BD018823A1F02FB75D
:10469000F8943093E900E9CF4093F1008091E8006D
:1046A00085FD03C08AE38093E80085E08093BF0125
:1046B0002FBF80E008958FEF0895282F8091BD01CE
:1046C000882351F09FB7F89484E08093E9008091AB
:1046D000E80085FD03C09FBF8FEF08952093F10090
:1046E0008091E80085FD03C08AE38093E80085E0BF
:1046F0008093BF019FBF80E00895CF93DF93EC01CB
:104700008091BD01882309F41CC13FB7F89484E06F
:104710008093E9008091C001882309F408C1809149
:10472000E80085FD02C03FBF0CC11092C001FFC070
:104730009091E400975E8091E80085FD13C03FBF33
:104740008091E400891721F481E08093C001F9C0D1
:104750008091BD01882309F4F4C03FB7F894B09369
:10476000E900E9CF8091F200242F281B822F90E0EE
:104770006817790708F4262F822F90E0813491057D
:1047800008F0C6C08A5A9F4FFC01EE0FFF1F05902C
:10479000F491E02D099489918093F100899180939F
:1047A000F10089918093F10089918093F1008991C2
:1047B0008093F10089918093F10089918093F100B9
:1047C00089918093F10089918093F1008991809380
:1047D000F10089918093F10089918093F100899192
:1047E0008093F10089918093F10089918093F10089
:1047F00089918093F10089918093F1008991809350
:10480000F10089918093F10089918093F100899161
:104810008093F10089918093F10089918093F10058
:1048200089918093F10089918093F100899180931F
:10483000F10089918093F10089918093F100899131
:104840008093F10089918093F10089918093F10028
:1048500089918093F10089918093F10089918093EF
:10486000F10089918093F10089918093F100899101
:104870008093F10089918093F10089918093F100F8
:1048800089918093F10089918093F10089918093BF
:10489000F10089918093F10089918093F1008991D1
:1048A0008093F10089918093F10089918093F100C8
:1048B00089918093F10089918093F100899180938F
:1048C000F10089918093F10089918093F1008991A1
:1048D0008093F10089918093F10089918093F10098
:1048E00089918093F10089918093F100899180935F
:1048F000F10089918093F10089918093F100899171
:104900008093F10089918093F10089918093F10067
:1049100089918093F1008091E80085FD02C0509359
:10492000E800621B7109A093BF013FBF04C0B4E05F
:1049300040E45AE3A5E06115710509F0F9CE80E085
:1049400001C08FEFDF91CF9108959FB7F8948091C8
:10495000BF01882341F084E08093E9008AE38093DB
:10496000E8001092BF019FBF08956091700170919F
:104970007101809172019091730108958091740189
:104980000895809175010895809176010895809130
:10499000BE010895282F9FB7F8948091BD01882308
:1049A00039F082E08093E9008091E80085FD03C042
:1049B0009FBF8FEF089581EA8093F10080E280939A
:1049C000F1001092F1001092F1001092F10010929B
:1049D000F10081E08093F1001092F1002093F1004A
:1049E0008AE38093E8009FBF80E008951F920F92B2
:1049F0000FB60F9211248F939F938091E100109234
:104A0000E100982F83FF11C01092E90081E08093AC
:104A1000EB001092EC0082E18093ED0088E080933F
:104A2000F0001092BD011092BE0192FF13C0809160
:104A3000BD01882379F08091BF01882359F081500E
:104A40008093BF01882331F484E08093E9008AE3F6
:104A50008093E8009F918F910F900FBE0F901F9051
:104A600018951F920F920FB60F9211240F931F9358
:104A70002F933F934F935F936F937F938F939F9366
:104A8000AF93BF93EF93FF931092E9008091E800FA
:104A900083FF3CC14091F1003091F1008091F10021
:104AA000682F70E02091F100922F80E0682B792B25
:104AB0008091F100A82FB0E02091F100922F80E0CA
:104AC000A82BB92B1091F1000091F10082EF809397
:104AD000E800363009F05AC027E333E0A901455019
:104AE0005040F9013797859194918617970701F502
:104AF000FA01859194918A179B07D1F49A012E5F50
:104B00003F4FF901659174912E5F3F4FF901449138
:104B1000212F30E0902F80E0282B392B2F3F3105BB
:104B200019F010F02FEF30E0241758F4422F09C08D
:104B3000295F3F4F495F5F4FF3E021363F0789F61A
:104B4000E5C05EEF8091E800282F30E0C901857054
:104B50009070892BB9F322FDDCC0342F413108F06D
:104B600030E1232FCB0106C0FC010196E491E093D4
:104B7000F10021502223C1F7630F711D431B509395
:104B8000E8004423F9F63031E9F2C3C0353061F46E
:104B90008EEF8093E8008091E80080FFFCCF862FA5
:104BA00080688093E300B5C0393051F5442309F0A3
:104BB000ADC06093BD011092BE011092BF018EEF97
:104BC0008093E8008AE593E021E02093E900FC016E
:104BD0000196E491E093EB00EE2369F0AC014F5FA6
:104BE0005F4FFC0184918093EC00CA010196FA01A9
:104BF00034913093ED002F5F253039F78EE181C07D
:104C0000383061F4403809F081C08091E80080FFBD
:104C1000FCCF8091BD018093F10050C0313289F406
:104C2000413A09F073C08091E80080FFFCCFE0E7D3
:104C3000F1E081918093F10081E0E737F807C9F74F
:104C40003DC03032A1F4413209F060C08091E800EB
:104C500082FFFCCFE0E7F1E08091F100819381E0F9
:104C6000E737F807C9F78BEF8093E80027C03232A7
:104C700051F4413209F04AC06093BE018091E800CE
:104C800080FFFCCF1BC03323E9F48091E80080FF54
:104C9000FCCF423811F080E00DC0A093E900809174
:104CA000EB0090E025E0969587952A95E1F78170D5
:104CB0001092E9008093F1001092F1008EEF809342
:104CC000E80027C0313011F0333001F54230F1F403
:104CD000672BE1F42A2F2F77822F81508430B0F494
:104CE0008EEF8093E8002093E900333079F089E17A
:104CF0008093EB0081E090E002C0880F991F2A9515
:104D0000E2F78093EA001092EA0003C081E2809308
:104D1000EB00FF91EF91BF91AF919F918F917F91A8
:104D20006F915F914F913F912F911F910F910F9034
:104D30000FBE0F901F901895EFE4F5E0119287E0F9
:104D4000E734F807D9F708959C0197FD37C077FD40
:104D500035C08435910594F5603371057CF5CB0140
:104D600073E0959587957A95E1F76770452B99F0F3
:104D7000E4E58E9FF0011124E20FF31FE15BFA4F8F
:104D800081E090E002C0880F991F6A95E2F72081C8
:104D9000282B20830895E4E58E9FF0011124E20F73
:104DA000F31FE15BFA4F81E090E002C0880F991F8A
:104DB0006A95E2F7809520812823208308952F9219
:104DC0003F924F925F926F927F928F929F92AF929B
:104DD000BF92CF92DF92EF92FF920F931F93DF93D8
:104DE000CF93CDB7DEB72E970FB6F894DEBF0FBEC8
:104DF000CDBF7C016B014A0139011C870B878417E9
:104E00009507F9F45B0110C0C701B5014B855C85BE
:104E10000E94A426C614D70424F40894A11CB11C33
:104E200003C00894A108B108C614D7042CF46A146E
:104E30007B040CF4FDC0E8CFA614B7040CF4F8C052
:104E4000E3CF62177307F9F45C0110C0C501B60126
:104E50004B855C850E94A426E814F90424F4089488
:104E6000A11CB11C03C00894A108B108E814F904FE
:104E70002CF48A149B040CF4DBC0E8CFA814B9040A
:104E80000CF4D6C0E3CF4817590724F447017A0140
:104E90003B016901B4016E197F09882777FD809570
:104EA000982F0E94E42E6F83788789879A87B301B1
:104EB0006C197D09882777FD8095982F0E94E42E34
:104EC0006B837C838D839E832F81388549855A85AA
:104ED0000E94492E1B012C0120E030E040E050E010
:104EE0000E94E72F87FF04C057FA509457F8509458
:104EF000DA82C9820F2EF0E0AF2EF0E0BF2EF0E094
:104F0000CF2EF0E0DF2EF02D7FC0C70169817A81BE
:104F10004B855C850E94A426C601B501A2019101C2
:104F20000E94E12D3BC0C70169817A814B855C8578
:104F30000E94A4261E861D866B817C818D819E81A8
:104F400020E030E040E050E00E94E72F181624F403
:104F500021E030E03E872D8700E010E06B817C810E
:104F60008D819E8120E030E040E050E00E94452E9F
:104F7000882314F401E010E08D859E85801B910B41
:104F8000E981FA81E80FF91FFA83E983C601B501C7
:104F900020E030E040E85FE30E94E02D5B016C011F
:104FA00020E030E040E05FE30E94E72F8823CCF070
:104FB0006B817C818D819E8120E030E040E050E07B
:104FC0000E94E72F18163CF429813A816216730675
:104FD0000CF0A9CF06C089819A81861597050CF03F
:104FE000A2CF6F81788589859A8520E030E040E006
:104FF00050E00E94E72F181624F40894E11CF11CDD
:1050000003C00894E108F1086F81788589859A8545
:1050100020E030E040E050E00E94E72F181624F432
:105020008E149F042CF071CFE814F9040CF06DCFAE
:105030002E960FB6F894DEBF0FBECDBFCF91DF9195
:105040001F910F91FF90EF90DF90CF90BF90AF90A6
:105050009F908F907F906F905F904F903F902F9098
:1050600008954F925F926F927F928F929F92AF922C
:10507000BF92CF92DF92EF92FF920F931F93CF9345
:10508000DF933B01490125E0429FA0011124A9E5DE
:10509000EA2EA3E0FA2EE40EF51E8C01F1E04F2E6D
:1050A000512CEEE5AE2EE3E0BE2EA40EB51EF701A8
:1050B00084918114910409F48095C0E0D0E0C82E59
:1050C000DD24BE01660D771DA2010C2E02C0440F27
:1050D000551F0A94E2F74C215D210C2E02C0559514
:1050E00047950A94E2F7C8010E94A4262196C83089
:1050F000D10539F70894E11CF11C0F5F1F4FEA142A
:10510000FB04A9F6DF91CF911F910F91FF90EF90D3
:10511000DF90CF90BF90AF909F908F907F906F90D7
:105120005F904F900895CF92DF92EF92FF920F938E
:105130001F93CF93DF936B017A01E901082F10E0F1
:1051400008C0802F90E0B6019E010E9431280B5FBD
:105150001F5FF701E10FF11D4081442391F7DF91BB
:10516000CF911F910F91FF90EF90DF90CF90089516
:10517000CF93DF9380E060E00E942D29CFE4D5E05B
:1051800081E069910E94CB2887E0C734D807C1F736
:10519000DF91CF91089595B18295880F807E9F7D94
:1051A000982B95B95F9827E030E070E08F98CB019D
:1051B000022E02C0959587950A94E2F780FF02C0FF
:1051C0002E9A01C02E988F9A215030408FEF2F3F9A
:1051D000380761F75F9A08951F93182F579A249AFA
:1051E000259A269A879A2C985F9A2C9A80E061E2F9
:1051F0000E94CB28106880E0612F0E94CB2880E0BD
:1052000064E00E94CB2880E063E10E94CB2880E02C
:105210006CE00E94CB2880E060E20E94CB2880E016
:105220006CE00E94CB2880E060E40E94CB2880E004
:1052300060E80E94CB281F910895CF93DF93C0E0D0
:10524000D0E081E060E00E94CB28219681E0C83F59
:10525000D807B9F7DF91CF9108951F93182F606495
:1052600080E00E94CB28106880E0612F0E94CB284C
:105270001F9108950F931F93CF93DF938C01C1E08B
:10528000D0E001C02196FC010196E491EE23D1F714
:10529000CE010E94CC309C01009771F080E090E03C
:1052A000F801E80FF91FE491D901A80FB91FEC9399
:1052B00001968C179D07A4F3C901DF91CF911F912F
:1052C0000F9108950F931F93CF93DF938C01EB0100
:1052D000CB010E94CC309C01009779F080E090E0F7
:1052E00009C0F801E80FF91FE491D901A80FB91F0F
:1052F000EC9301968C179D07A4F3C901DF91CF9120
:105300001F910F910895AF92BF92CF92EF920F939A
:105310001F93FC014083518362837383048315834D
:1053200026833783E08AC18AB48AA38A81E0828B8C
:1053300080E090E0A0E0B0E080879187A287B3870B
:1053400084879587A687B7871F910F91EF90CF909D
:10535000BF90AF9008952F923F924F925F926F92BD
:105360007F928F929F92AF92BF92CF92DF92EF92F5
:10537000FF920F931F93CF93DF938C01DC01529622
:105380008C915297882309F481C06D917D918D9104
:105390009C910E944E300E94B12E3B01F801248165
:1053A000358146815781643571050CF06FC0D80195
:1053B00050968C91C82FD0E0CE01860D971D1816FF
:1053C00019060CF063C0CA01B9010E944E300E9458
:1053D000B12E4B01603371050CF058C0F801818982
:1053E0009401280F311D121613060CF04FC057E020
:1053F000A52EB12CAC0EBD1E43E0B594A7944A95E2
:10540000E1F7EE24FF24CC24DD2437E0232E312CD9
:1054100031C0CE0123E0959587952A95E1F7D80113
:105420005396ED91FC915497EC0DFD1DE80FF91F7B
:10543000408150E0CE0187709070F101E81BF90BBC
:1054400002C055954795EA95E2F741705070CE013C
:10545000860D971DB2010E94A4262196D801509670
:105460008C9190E0C817D907A4F20894E11CF11CB4
:10547000CA0CDB1CF801818990E0E816F90634F4C7
:10548000C0E0D0E02701480C591CE8CFDF91CF9154
:105490001F910F91FF90EF90DF90CF90BF90AF9052
:1054A0009F908F907F906F905F904F903F902F9044
:1054B0000895A1E1B0E0EFE5FAE20C9481303C01FF
:1054C0007F876E876A01FC0117821682838181FDC6
:1054D00003C06FEF7FEF6FC39E012F5F3F4F398B8C
:1054E000288BF3012381EE85FF8523FD859123FF22
:1054F0008191FF87EE87882309F45AC3853251F4DE
:10550000EE85FF8523FD859123FF8191FF87EE873F
:10551000853229F490E0B3010E942733E2CF982F1F
:1055200010E0882499241032B0F49B3269F09C3248
:1055300028F4903251F0933271F40BC09D3239F05F
:10554000903349F4116028C01260146025C01860BF
:1055500023C0106121C017FD2AC0892F80538A30D3
:1055600078F416FF06C0FAE09F9E902C1124980E46
:1055700013C03AE0839E802C1124880E10620CC068
:105580009E3221F416FD14C3106406C09C3611F43B
:10559000106802C0983659F4EE85FF8523FD959179
:1055A00023FF9191FF87EE87992309F0BCCF892FC4
:1055B0008554833020F4812F8061905E07C0892F4D
:1055C0008556833008F09FC1812F8F7E86FD02C0F3
:1055D00076E0972E6FE3F62EF822953619F4F0E474
:1055E000FF2A07C0963619F420E8F22A02C091106B
:1055F0009A94F7FE0AC03BE3391518F45CE3B52E24
:1056000002C0B92CB39427E009C047E0491520F443
:10561000BB2447E0942EF7CF292DBB24C601049666
:105620009D878C87F6016081718182819381AE01B3
:105630004F5F5F4F0B2D0E9432326C010981202E8B
:10564000332400FF04C003FD02C01DE209C0F1FEC7
:1056500002C01BE205C0F2FC02C010E001C010E273
:10566000C1018C709070892BB9F1112311F483E082
:1056700001C084E0881510F088240AC0881AF3FC61
:1056800007C080E290E0B3010E9427338A94C9F7F3
:10569000112329F0812F90E0B3010E94273323FECC
:1056A00003C009ED15E00EC00DED15E00BC0E114CF
:1056B000F10409F0805290E0B3010E9427330F5F9C
:1056C0001F4F05C0EF2CFF24F0E1EF22FF24F8016B
:1056D0008491882361F714C1F7FE12C0BC0C24FE2C
:1056E00004C08A81813309F4BA941B141CF0BB24D2
:1056F000B3942DC0F8E0FB1550F538E0B32E27C069
:10570000F6FC25C0892D90E08C159D054CF02CEF02
:10571000C2162FEFD20624F030E8F32A01C09A9483
:10572000992049F0E2E0F0E0EC0FFD1FE90DF11DDA
:1057300080818033A1F3F7FE0AC0B92CB394892D80
:1057400090E0C816D90614F0992401C09C18F7FC03
:1057500003C025E030E009C01C141D041CF021E04A
:1057600030E003C096012F5F3F4F112311F02F5FF0
:105770003F4F992029F0892D90E00196280F391F7D
:10578000882D90E02817390714F0882401C0821A68
:105790004F2C5524C20189709070892B39F008C0B4
:1057A00080E290E0B3010E9427338A948820C1F7F9
:1057B000112329F0812F90E0B3010E94273343FE8B
:1057C00007C008C080E390E0B3010E9427338A94A9
:1057D0008820C1F7F7FE46C08601D7FE02C000E070
:1057E00010E076010894E11CF11CE01AF10A41E096
:1057F00050E04C0F5D1FE40EF51E26014B185108BA
:10580000892D90E0AA24BB24A81AB90A5FEF0F3FA4
:10581000150729F48EE290E0B3010E942733C016E9
:10582000D10634F0401651061CF4F701808101C006
:1058300080E3015010400894E11CF11C0A151B057F
:105840002CF090E0B3010E942733E0CF0C151D052A
:1058500039F49A81963318F4953311F424FE81E3D8
:1058600090E04BC08A81813309F00F7E90E0B30154
:105870000E9427339920A1F08EE290E0B3010E94AC
:10588000273312E0E1E0F0E0EC0FFD1FE10FF11D26
:105890001F5F808190E0B3010E9427339A9491F7B3
:1058A00044FC03C085E690E002C085E490E0B301CB
:1058B0000E942733D7FC05C0C114D10441F404FF72
:1058C00006C0D094C194D108D3948DE201C08BE27C
:1058D00090E0B3010E94273380E305C08F5F26EF7D
:1058E0003FEFC20ED31E3AE0C316D104BCF790E0DE
:1058F000B3010E942733C601C096B3010E9427332B
:10590000CC84DD8452C1933631F0933799F09335CE
:1059100009F059C023C0F601808189835E01089493
:10592000A11CB11C22E030E0C20ED31E21E0E22E09
:10593000F12C12C0F601A080B18016FD03C06FEFFC
:105940007FEF02C0692D70E022E030E0C20ED31E6E
:10595000C5010E941C337C011F7713C0F601A08093
:10596000B18016FD03C06FEF7FEF02C0692D70E0BC
:1059700022E030E0C20ED31EC5010E9411337C012B
:10598000106813FF07C01BC080E290E0B3010E94C3
:1059900027338A94882D90E0E816F906A8F30FC003
:1059A000F50117FD859117FF81915F0190E0B3012B
:1059B0000E94273381108A940894E108F108E114C9
:1059C000F10471F7F2C0943611F0993689F517FF9A
:1059D00008C0F601208131814281538184E090E04A
:1059E0000AC0F601808191819C01442737FD4095D2
:1059F000542F82E090E0C80ED91E9FE6F92EF122C6
:105A000057FF09C050954095309521953F4F4F4F16
:105A10005F4F90E8F92ACA01B901AE014F5F5F4FAD
:105A20002AE030E00E94A833E82EE889EE1A41C04F
:105A3000953721F41F7E2AE030E01CC0197F9F3685
:105A400061F0903720F4983509F0B2C00FC090375C
:105A500039F0983709F0ACC004C028E030E00AC043
:105A6000106114FD146020E130E004C014FD1660E4
:105A700020E132E017FF08C0F60160817181828168
:105A8000938144E050E008C0F60180819181BC011F
:105A900080E090E042E050E0C40ED51EAE014F5FC2
:105AA0005F4F0E94A833E82E5889E51A8FE7F82E39
:105AB000F122F6FE0BC08EEFF822E91438F4F4FE62
:105AC00007C0F2FC05C09FEEF92202C01E2D01C0E6
:105AD000192DF4FE0DC0FE01EE0DF11D8081803305
