:100000000C946D020C948A020C948A020C948A025D
:100010000C948A020C948A020C948A020C948A0230
:100020000C948A020C948A020C94F41C0C942F1DDC
:100030000C948A020C948A020C948A020C948A0210
:100040000C948A020C948A020C948A020C948A0200
:100050000C94A7020C948A020C948A020C945D0AF8
:100060000C948A020C948A020C948A020C948A02E0
:100070000C948A020C948A020C948A020C948A02D0
:100080000C948A020C948A020C948A020C947306D3
:100090000C948A020C948A020C948A020C948A02B0
:1000A0000C948A020C948A020C948A02891C861C85
:1000B000831C801C7D1C7A1C771C741C711C6E1C9C
:1000C0006B1C681C651C621C5F1C5C1C591C561C4C
:1000D000531C501C4D1C4A1C471C441C411C3E1CFC
:1000E0003B1C381C351C321C2F1C2C1C291C261CAC
:1000F000231C201C1D1C1A1C171C141C111C0E1C5C
:100100000B1C081C051C021CFF1BFC1BF91BF61B0F
:10011000F31BF01BED1BEA1BE71BE41BE11BDE1BC3
:10012000DB1BD81BD51BD21BCF1BCC1BC91B000153
:10013000000062011200020000740143000300008D
:10014000B7010401030904BB011402030904D1012E
:100150001603030904E9010C0001C11201803601F4
:1001600081361201000202000010C0167A0400015C
:100170000102030109024300020100C03209040028
:100180000001020201000524001001052401010103
:10019000042402060524060001070582031000401E
:1001A00009040100020A00000007050302400000E4
:1001B0000705840240000004030904140359006F7A
:1001C000007500720020004E0061006D00650000A7
:1001D00000160355005300420020005300650072D2
:1001E00000690061006C0000000C03310032003334
:1001F00000340035000000000000000000005F0037
:10020000000007000700147F147F14242A7F2A129D
:10021000231308646236495522500005030000008C
:100220001C2241000041221C0014083E081408084A
:100230003E08080050300000080808080800606008
:10024000000020100804023E5149453E00427F4014
:100250000042615149462141454B311814127F102B
:1002600027454545393C4A4949300171090503365E
:1002700049494936064949291E00363600000056CC
:1002800036000008142241001414141414004122F2
:1002900014080201510906324979413E7E111111BB
:1002A0007E7F494949363E414141227F4141221CDE
:1002B0007F494949417F090909013E4149497A7FFE
:1002C0000808087F00417F41002040413F017F082E
:1002D0001422417F404040407F020C027F7F04088F
:1002E000107F3E4141413E7F090909063E415121AF
:1002F0005E7F09192946464949493101017F0101BB
:100300003F4040403F1F2040201F3F4038403F6358
:100310001408146307087008076151494543007FBA
:1003200041410002040810200041417F0004020105
:100330000204404040404000010204002054545454
:10034000787F484444383844444420384444487F03
:100350003854545418087E0901020C5252523E7F00
:100360000804047800447D40002040443D007F1094
:1003700028440000417F40007C041804787C080475
:10038000047838444444387C1414140808141418AD
:100390007C7C080404084854545420043F44402002
:1003A0003C4040207C1C2040201C3C4030403C44D1
:1003B000281028440C5050503C4464544C440008CD
:1003C00036410000007F0000004136080010080898
:1003D000100878464146786E616E00696E660000CE
:1003E000407A10F35A00A0724E18090010A5D4E804
:1003F0000000E87648170000E40B54020000CA9A97
:100400003B000000E1F505000080969800000040E8
:10041000420F000000A0860100000010270000002D
:1004200000E803000000006400000000000A000073
:100430000000000100000000002C76D888DC674F27
:100440000823DFC1DFAE59E1B1B796E5E3E453C657
:100450003AE651997696E8E6C28426EB898C9B624F
:10046000ED407C6FFCEFBC9C9F40F2BAA56FA5F4F9
:1004700090055A2AF75C936B6CF9676DC11BFCE021
:10048000E40D47FEF520E6B500D0ED902E03009474
:100490003577050080841E080000204E0A00000009
:1004A000C80C333333330F986E12831141EF8D2113
:1004B00014893BE65516CFFEE6DB18D1844B381B7A
:1004C000F77C1D901DA4BBE424203284725E22813F
:1004D00000C9F124ECA1E53D270011241FBECFEF98
:1004E000DAE0DEBFCDBF13E0A0E0B1E0E4E2F8E582
:1004F00002C005900D92A032B107D9F718E0A0E232
:10050000B3E001C01D92AB31B107E1F70E94891A37
:100510000C94102C0C94000087E880937A000895C6
:10052000982F9F71906490937C00807280937B00E1
:1005300080917A00806480937A0080917A0086FDB1
:10054000FCCF2091780030917900C90108951F9265
:100550000F920FB60F9211248F939F93AF93BF9377
:100560008091420390914303A0914403B0914503CD
:100570000196A11DB11D8093420390934303A09364
:100580004403B0934503BF91AF919F918F910F901A
:100590000FBE0F901F901895AF92BF92CF92DF922F
:1005A000EF92FF920F931F93609142037091430368
:1005B0008091440390914503E0908400F090850081
:1005C0000E94972620E030E040E857E40E94A027F0
:1005D0005B016C0100E010E0C801B7010E949726A2
:1005E0009B01AC01C601B5010E94962520E030E0D8
:1005F00040E852E40E94A02720E034E244EF5AE4AD
:100600000E94FE251F910F91FF90EF90DF90CF90F9
:10061000BF90AF9008952F923F924F925F926F924A
:100620007F928F929F92AF92BF92CF92DF92EF9282
:10063000FF920F931F93DF93CF93CDB7DEB72E9723
:100640000FB6F894DEBF0FBECDBF81E00E949002CE
:10065000A0E0B0E0BC01CD010E9497267B018C0197
:1006600020E030E040E85FE30E94FA2588232CF484
:1006700080E090E0A0E0B0E033C0C801B70120E026
:1006800030E040E85FE30E949C2718167CF4C80124
:10069000B70120E030E040E853E40E94FA258823C7
:1006A0002CF48DEC9CECACECBDE31AC0C801B70196
:1006B00020E030E040E853E40E949C2718160CF03C
:1006C00054C0C801B70120E030E040E054E40E948B
:1006D000FA2588230CF049C08AE999E9A9E9BEE323
:1006E0008093D8039093D903A093DA03B093DB03EC
:1006F00020903E0330903F036091F5027091F60226
:100700002091F9023091FA024091F7025091F802DB
:100710008090D8039090D903A090DA03B090DB03C7
:10072000D501C401B05889839A83AB83BC83AEEDF5
:10073000B3E0BE87AD87CC24DD24CB01AA2797FD8B
:10074000A095BA2F8D839E83AF83B887C901AA274E
:1007500097FDA095BA2F89879A87AB87BC872A0116
:10076000662457FC6094762C90C0C801B70120E045
:1007700030E040E054E40E949C2718167CF4C80145
:10078000B70120E030E040E454E40E94FA258823D9
:100790002CF480E090E0A0E0BFE3A2CFC801B70155
:1007A00020E030E040E454E40E949C2718160CF04E
:1007B0009FCFC801B70120E030E040E854E40E9438
:1007C000FA2588230CF094CF83E393E3A3E3BFE3FC
:1007D00087CFAD85BE851496ED90FD900D911C914F
:1007E00017976D817E818F8198850E9499269B0144
:1007F000AC01C801B7010E94FA25882371F0698510
:100800007A858B859C850E9499269B01AC01C80145
:10081000B7010E94FA25882339F4ED85FE8580868C
:100820009186A286B38616C0C301B2010E949926A2
:100830009B01AC01C801B7010E94FA25882351F43D
:1008400089819A81AB81BC81ED85FE858087918706
:10085000A287B387AD85BE856D917D918D919C9169
:10086000139718962D913D914D915C911B970E9485
:100870009625ED85FE85608371838283938308943A
:10088000C11CD11C7596FE87ED87C214D3040CF4ED
:10089000A0CF2E960FB6F894DEBF0FBECDBFCF917E
:1008A000DF911F910F91FF90EF90DF90CF90BF905D
:1008B000AF909F908F907F906F905F904F903F9000
:1008C0002F900895AF92BF92CF92DF92EF92FF9256
:1008D0000F931F93CF93DF93A0903E03B0903F03FD
:1008E000CEEDD3E0CC24DD2429C0E880F9800A8154
:1008F0001B81C801B70120E030E048EA52E40E94C1
:100900009C2718162CF480E090E0A0E2B1EC0EC019
:10091000C801B70120E030E040E251EC0E94FA2526
:10092000882344F480E090E0A8EAB2E488839983C5
:10093000AA83BB830894C11CD11C6596CA14DB042E
:10094000A4F2DF91CF911F910F91FF90EF90DF9074
:10095000CF90BF90AF9008950E940B030E94620455
:10096000089580913803882379F58091CD028823FA
:1009700029F080E090E0A0E0BFE304C080E090E0D8
:10098000A0E0BFEB80930D0690930E06A0930F0698
:10099000B0931006609105067091060680910706D7
:1009A0009091080620910D0630910E0640910F0699
:1009B000509110060E9496256093050670930606D6
:1009C00080930706909308060895EF92FF920F9385
:1009D0001F93E0900506F09006060091070610911F
:1009E0000806C801B70120E030E040E050E00E9476
:1009F000FA25882324F481E08093CD020CC0C8013D
:100A0000B70120E030E04AE952E40E949C27181622
:100A100014F41092CD021F910F91FF90EF90089562
:100A20000E94E5040E94B10408956F927F928F9214
:100A30009F92AF92BF92CF92DF92EF92FF920F936D
:100A40001F93DF93CF93CDB7DEB728970FB6F894F7
:100A5000DEBF0FBECDBF6D8C7E8C8F8C98A0E98CD5
:100A6000FA8C0B8D1C8D6AA570E0882777FD809528
:100A7000982F0E9499269B01AC01C401B3010E94EA
:100A800096250E9466265B016C0169A570E08827A7
:100A900077FD8095982F0E9499269B01AC01C80193
:100AA000B7010E94962520E030E040E85FE30E9415
:100AB00095250E94662678876F83C801B7010E943A
:100AC00066267E836D83BC82AB82C401B3010E9423
:100AD00066267A83698329813A814B815C816D81A5
:100AE0007E818F81988528960FB6F894DEBF0FBE61
:100AF000CDBFCF91DF911F910F91FF90EF90DF90CD
:100B0000CF90BF90AF909F908F907F906F900895FF
:100B10008091D103882351F080913B03882319F001
:100B200010923B0303C081E080933A0380911A0640
:100B3000882351F080913A03882319F010923A03E8
:100B4000089581E080933B0308953F924F925F9216
:100B50006F927F928F929F92AF92BF92CF92DF92CD
:100B6000EF92FF920F931F93DF93CF93CDB7DEB732
:100B700068970FB6F894DEBF0FBECDBFE0903E037E
:100B8000F0903F03BB2400E010E08CE290E08C0F7B
:100B90009D1F382EA92E2E010894411C511C21E1C5
:100BA000C22ED12CCC0EDD1E95E1692E712C89E070
:100BB000882E912C8C0E9D1E79C0EDB7FEB77597CF
:100BC0000FB6F894FEBF0FBEEDBFADB7BEB711961E
:100BD000832D9A2DFC0185E101900D928150E1F762
:100BE0000E941505EDB7FEB775960FB6F894FEBFD7
:100BF0000FBEEDBF298B3A8B4B8B5C8B6D8B7E8B45
:100C00008F8B988FD201F60188E001900D92815070
:100C1000E1F78DB79EB745970FB6F8949EBF0FBE0C
:100C20008DBF069DF001079DF00D169DF00D11245E
:100C3000ADB7BEB71196E252FC4F85E101900D921F
:100C40008150E1F70E941505EDB7FEB775960FB616
:100C5000F894FEBF0FBEEDBF298B3A8B4B8B5C8B9C
:100C60006D8B7E8B8F8B988FD401F60188E001907D
:100C70000D928150E1F72B813C8189859A85281757
:100C8000390791F48F85988903962F8138858217CB
:100C9000930754F08D859E8503972D813E812817FB
:100CA000390714F0BB24B3940F5F1F4F0E151F05B7
:100CB0000CF483CF8B2D68960FB6F894DEBF0FBE71
:100CC000CDBFCF91DF911F910F91FF90EF90DF90FB
:100CD000CF90BF90AF909F908F907F906F905F90DC
:100CE0004F903F9008951F920F920FB60F921124CC
:100CF0008F939F93AF93BF93809146039091470347
:100D0000A0914803B09149030196A11DB11D8093A4
:100D1000460390934703A0934803B0934903BF91C0
:100D2000AF919F918F910F900FBE0F901F901895CC
:100D30002A9A2B9A08952A982B9808958091460311
:100D400090914703A0914803B09149030497A105EE
:100D5000B10558F02A9A2B9A109246031092470335
:100D6000109248031092490308952A982B980895E9
:100D7000AF92BF92CF92DF92EF92FF920F931F93A9
:100D8000CF93DF93C0EAD5E000E010E035E1A32E79
:100D9000B12C0F2EF0E0CF2EF0E0DF2EF0E0EF2EA2
:100DA000F0E0FF2EF02D2DB73EB7255130400FB6A5
:100DB000F8943EBF0FBE2DBF0A9DF0010B9DF00DB4
:100DC0001A9DF00D1124ADB7BEB71196E456FA4F37
:100DD00085E101900D928150E1F70E94A5052DB7A4
:100DE0003EB72B5E3F4F0FB6F8943EBF0FBE2DBFF0
:100DF000882389F56C817D818E819F8120E030E0A0
:100E000040E050E00E94FA25882309F065C068851B
:100E100079858A859B852AE939E949E95EE30E945B
:100E20009625688779878A879B87CC82DD82EE82C8
:100E3000FF8220E030E040E85FE30E949C27181624
:100E40000CF04AC080E090E0A0E8BFE38887998773
:100E5000AA87BB8741C0C886D986EA86FB86688197
:100E600079818A819B8120E030E040EE50E40E944D
:100E700096250E9466262091F5023091F6026217AF
:100E800073072CF0C901039686179707C4F42091C5
:100E9000F7023091F802621773072CF0C90103962C
:100EA0008617970764F42091F9023091FA026217CD
:100EB000730794F0C9010396861797076CF02750C3
:100EC0003040B901882777FD8095982F0E94992698
:100ED000688379838A839B83688179818A819B81F6
:100EE000288539854A855B850E94962568837983A4
:100EF0008A839B830F5F1F4F65960530110509F0AC
:100F000052CFDF91CF911F910F91FF90EF90DF9023
:100F1000CF90BF90AF9008952F923F924F925F92E3
:100F20006F927F928F929F92AF92BF92CF92DF92F9
:100F3000EF92FF920F931F93CF93DF936091D803AB
:100F40007091D9038091DA039091DB032AE939E9A2
:100F500049E95EE30E9496253B014C01CCE9D5E0CE
:100F600049E0C42E43E0D42EAA24BB241B012C014B
:100F700057FA509457F850942DB73EB7255130404A
:100F80000FB6F8943EBF0FBE2DBF85E190E0A89E3E
:100F9000F001A99EF00DB89EF00D1124ADB7BEB7BB
:100FA0001196E456FA4F85E101900D928150E1F7D8
:100FB0000E94A505EDB7FEB775960FB6F894FEBF73
:100FC0000FBEEDBF882309F047C0E884F9840A8585
:100FD0001B85C801B70120E030E040E050E00E94EE
:100FE000FA25882309F445C0C801B70120E030E0A4
:100FF00040E050E00E949C27181684F468817981B3
:101000008A819B8120E030E040E050E40E949525F9
:10101000688379838A839B83F6011082688579854A
:101020008A859B8520E030E040E050E00E94FA2570
:101030008823FCF4688179818A819B8120E030E0FB
:1010400040E050E40E949625688379838A839B83DD
:1010500021E0F60120830DC0F6018081882329F06C
:10106000688679868A869B8604C0288639864A8661
:101070005B86688179818A819B81288539854A854B
:101080005B850E949625688379838A839B83089475
:10109000A11CB11C65960894C11CD11CF5E0AF16CB
:1010A000B10409F069CFDF91CF911F910F91FF90AB
:1010B000EF90DF90CF90BF90AF909F908F907F90F8
:1010C0006F905F904F903F902F900895EF92FF9216
:1010D0000F931F93CF93DF93CCE9D5E0E880F9809D
:1010E0000A811B81C801B70120E030E048EA52E4E0
:1010F0000E949C2718162CF480E090E0A0EAB0EC47
:101100000EC0C801B70120E030E040EA50EC0E9478
:10111000FA25882344F480E090E0A8EAB2E48883CA
:101120009983AA83BB83659686E0C530D807B1F65C
:10113000DF91CF911F910F91FF90EF9008954F9203
:101140005F926F927F928F929F92AF92BF92CF9257
:10115000DF92EF92FF920F931F93CF93DF93009153
:10116000CB021091CC02C0EAD5E00F2EF0E04F2E5A
:10117000F0E05F2EF0EE6F2EF0EC7F2EF02D0F2EB4
:10118000F0E08F2EF0E09F2EF0E0AF2EF0E0BF2ECB
:10119000F02D0F2EFDECCF2EFCECDF2EFCE4EF2E1D
:1011A000FEE3FF2EF02D688179818A819B8120E00A
:1011B00030E040E452E40E949C27181674F4015079
:1011C0001040488259826A827B8288869986AA86E4
:1011D000BB86CC82DD82EE82FF82659686E0C930D6
:1011E000D80709F71093CC020093CB02DF91CF917F
:1011F0001F910F91FF90EF90DF90CF90BF90AF9035
:101200009F908F907F906F905F904F9008952F9256
:101210003F924F925F926F927F928F929F92AF9286
:10122000BF92CF92DF92EF92FF920F931F93DF93C3
:10123000CF93CDB7DEB768970FB6F894DEBF0FBE79
:10124000CDBF20903E0330903F0363E6C62E63E09F
:10125000D62EAA24BB248DB79EB745970FB6F89417
:101260009EBF0FBE8DBF85E190E0A89EF001A99EB4
:10127000F00DB89EF00D1124ADB7BEB71196ED5923
:10128000FC4F85E101900D928150E1F70E94150518
:10129000EDB7FEB775960FB6F894FEBF0FBEEDBF63
:1012A000298B3A8B4B8B5C8B6D8B7E8B8F8B988FC6
:1012B000DE011196FE01719688E001900D92815039
:1012C000E1F74B805C806F8078848D809E8056EE45
:1012D000E52E53E0F52E00E010E055C08DB79EB727
:1012E00045970FB6F8949EBF0FBE8DBF85E190E085
:1012F000089FF001099FF00D189FF00D1124ADB764
:10130000BEB71196E252FC4F85E101900D928150DB
:10131000E1F70E941505EDB7FEB775960FB6F89484
:10132000FEBF0FBEEDBF298B3A8B4B8B5C8B6D8B59
:101330007E8B8F8B988FDE011996FE01719688E067
:1013400001900D928150E1F789859A8548165906DA
:10135000A1F48F859889861597057CF08D859E85EB
:101360008816990654F0F70180819181A281B3819A
:10137000F60180879187A287B3870F5F1F4F85E1B2
:1013800090E0E80EF91E021513050CF4A7CFF60144
:101390006081718182819381208531854285538569
:1013A0000E949625F601608371838283938308945B
:1013B000A11CB11C85E190E0C80ED91E95E0A916CC
:1013C000B10409F048CF68960FB6F894DEBF0FBE9F
:1013D000CDBFCF91DF911F910F91FF90EF90DF90E4
:1013E000CF90BF90AF909F908F907F906F905F90C5
:1013F0004F903F902F9008956F927F928F929F927F
:10140000AF92BF92CF92DF92EF92FF920F931F9312
:10141000CF93DF93C3E6D3E00F2EF0E06F2EF0E022
:101420007F2EF8EA8F2EF2E49F2EF02D0F2EF0E0A3
:10143000AF2EF0E0BF2EF0E0CF2EF0ECDF2EF02D3F
:10144000E880F9800A811B81C801B70120E030E003
:1014500044EB52E40E949C2718162CF4A882B9820F
:10146000CA82DB820EC0C801B70120E030E040E054
:1014700051EC0E94FA25882324F4688279828A82BA
:101480009B82659683E0CC3CD807D1F6DF91CF9163
:101490001F910F91FF90EF90DF90CF90BF90AF9092
:1014A0009F908F907F906F900895519821985098B9
:1014B000279820988598869808951F920F920FB6C6
:1014C0000F9211242F933F934F938F939F934091AB
:1014D000200389B1869580FD09C020E030E080912D
:1014E0001B0690911C068737910511F421E030E02E
:1014F000440F4E71422B40932003809120038F3183
:1015000021F481E08093210306C080912003882389
:1015100011F410922103409122031F9909C020E089
:1015200030E080911B0690911C068337910511F4E1
:1015300021E030E0440F4E71422B40932203809112
:1015400022038F3121F481E08093230306C0809130
:101550002203882311F41092230390912303809196
:101560002F03981749F08091230310922F038823AB
:1015700019F081E080932F034091240383B1869575
:1015800080FD09C020E030E080911B0690911C0690
:101590008136910511F421E030E0440F4E71422B69
:1015A00040932403809124038F3121F481E08093C0
:1015B000250306C080912403882311F4109225038B
:1015C00040912603489909C020E030E080911B0635
:1015D00090911C068436910511F421E030E0440F0F
:1015E0004E71422B40932603809126038F3121F4C4
:1015F00081E08093270306C080912603882311F49D
:101600001092270340912803189909C020E030E088
:1016100080911B0690911C068037910511F421E002
:1016200030E0440F4E71422B4093280380912803F1
:101630008F3121F481E08093290306C08091280333
:10164000882311F410922903909129038091320389
:10165000981749F08091290310923203882319F0DA
:1016600081E08093320380912A039FB1880F8E71AD
:101670009295969596959170892B80932A038091E7
:101680002A038F3121F481E080932B0306C08091DF
:101690002A03882311F410922B0340912C038FB15D
:1016A00082958695877080FD09C020E030E08091AA
:1016B0001B0690911C068437910511F421E030E05F
:1016C000440F4E71422B40932C0380912C038F3199
:1016D00021F481E080932D0306C080912C038823A0
:1016E00011F410922D0390912D03809134039817DB
:1016F00049F080912D0310923403882319F081E082
:10170000809334039F918F914F913F912F910F9030
:101710000FBE0F901F901895809123039091500356
:10172000891719F41092CC030DC0809123038917F7
:1017300049F0809123031092CC03882319F081E0B3
:101740008093CC03809123038093500380912D03D9
:1017500090915103891719F41092D5030DC080910F
:101760002D03891749F080912D031092D50388230A
:1017700019F081E08093D50380912D03809351036C
:101780009091290380915203981759F08091290371
:10179000809352031092D603882319F081E080933E
:1017A000D6039091210380915303981759F08091AB
:1017B00021038093530310929A05882319F081E046
:1017C00080939A059091250380915403981759F0BE
:1017D000809125038093540310921A06882319F0F0
:1017E00081E080931A069091270380915503981702
:1017F00059F080912703809355031092D1038823D9
:1018000019F081E08093D10390912B0380915603CE
:10181000981759F080912B03809356031092D403AC
:10182000882319F081E08093D40308958091D50333
:10183000882331F08091380391E089278093380321
:101840000895292F332727FD3A952093BF008093D1
:10185000CF0008950E949A1E82E190E06BE070E054
:1018600040E051E020E00E94912084E190E064E1BA
:1018700070E04BE051E021E00E9491200E94B620F0
:101880007E9BFECF08950F931F93DF93CF93CDB729
:10189000DEB72F970FB6F894DEBF0FBECDBF00D0D6
:1018A00000D000D0EDB7FEB731968E010F5F1F4F0D
:1018B000ADB7BEB712961C930E93119784E191E0D9
:1018C000938382838091CB029091CC029583848311
:1018D0000E94322B8DB79EB706960FB6F8949EBF26
:1018E0000FBE8DBF8AE090E069E270E047E151E011
:1018F00021E00E94912082E390E069E270E0A8017B
:1019000021E00E9491202F960FB6F894DEBF0FBE03
:10191000CDBFCF91DF911F910F9108950F931F932A
:10192000DF93CF93CDB7DEB72F970FB6F894DEBF16
:101930000FBECDBF00D000D000D0EDB7FEB73196BE
:101940008E010F5F1F4FADB7BEB712961C930E935B
:10195000119784E191E0938382838091C9029091F1
:10196000CA02958384830E94322B8DB79EB7069658
:101970000FB6F8949EBF0FBE8DBF8AE090E06FE176
:1019800070E040E251E021E00E9491208DE290E081
:101990006FE170E0A80121E00E9491202F960FB620
:1019A000F894DEBF0FBECDBFCF91DF911F910F9195
:1019B00008950F931F93DF93CF93CDB7DEB72F9783
:1019C0000FB6F894DEBF0FBECDBF00D000D000D060
:1019D000EDB7FEB731968E010F5F1F4FADB7BEB7A3
:1019E00012961C930E93119784E191E09383828366
:1019F00080913C0390913D03958384830E94322B18
:101A00008DB79EB706960FB6F8949EBF0FBE8DBFDA
:101A10008AE090E06BE070E046E251E021E00E9455
:101A200091208DE290E06BE070E0A80121E00E943F
:101A300091202F960FB6F894DEBF0FBECDBFCF9189
:101A4000DF911F910F9108950F931F93DF93CF9311
:101A5000CDB7DEB72F970FB6F894DEBF0FBECDBF60
:101A600000D000D000D0EDB7FEB731968E010F5FE9
:101A70001F4FADB7BEB712961C930E93119784E11A
:101A800091E0938382838091C7029091C8029583ED
:101A900084830E94322B8DB79EB706960FB6F894BA
:101AA0009EBF0FBE8DBF8AE090E061E070E04DE226
:101AB00051E021E00E9491208DE290E061E070E031
:101AC000A80121E00E9491202F960FB6F894DEBF66
:101AD0000FBECDBFCF91DF911F910F9108954F920F
:101AE0005F926F927F928F929F92AF92BF92CF92AE
:101AF000DF92EF92FF920F931F93DF93CF93CDB7B7
:101B0000DEB76E970FB6F894DEBF0FBECDBF009163
:101B1000820510918305C8016CE370E00E942328C0
:101B2000882777FD8095982F0E9499260E94D426B9
:101B30003B014C01C8016CE370E00E942328AA27F6
:101B400097FDA095BA2FBC01CD010E9499260E9455
:101B5000D4265B016C0100D000D000D00DB71EB7B9
:101B60000F5F1F4F2E010894411C511CEDB7FEB7AB
:101B700052824182F4E3EF2EF1E0FF2EF801F3826E
:101B8000E282C401B3010E946626F8017583648372
:101B90000E94322B0DB71EB70F5F1F4FE0E18E2E54
:101BA000912C8C0E9D1EEDB7FEB792828182F801BA
:101BB000F382E282C601B5010E946626F8017583B0
:101BC00064830E94322B8DB79EB706960FB6F894A9
:101BD0009EBF0FBE8DBF8AE090E065E170E049E3F3
:101BE00051E021E00E9491208DE290E065E170E0FB
:101BF000A20121E00E94912087E390E065E170E07E
:101C00004FE351E021E00E9491208BE390E065E1F9
:101C100070E0A40121E00E9491206E960FB6F89426
:101C2000DEBF0FBECDBFCF91DF911F910F91FF900F
:101C3000EF90DF90CF90BF90AF909F908F907F906C
:101C40006F905F904F900895EF92FF920F931F93C4
:101C500032C01092D6030E948C0B0E949A1E0E94E2
:101C6000240D0E94D90C0E946F0D0E948E0C0E94C0
:101C7000430C0E94B6208091D6038823E1F00E9495
:101C8000CC027B018C0160918205709183058827CD
:101C900077FD8095982F0E9499269B01AC01C80181
:101CA000B7010E9495250E9466267093CE0360932B
:101CB000CD031092360380913603882351F61F918D
:101CC0000F91FF90EF900895CF92DF92EF92FF92E5
:101CD0000F931F93CF93DF938091CB029091CC020F
:101CE00018161906CCF110924F0310924E030E9461
:101CF000CC0260934A0370934B0380934C03909300
:101D00004D0385E090E09093CC028093CB02CCE928
:101D1000D5E00BEF12E00F2EF0E0CF2EF0E0DF2E3B
:101D2000F0E0EF2EF0E0FF2EF02DC886D986EA868F
:101D3000FB86F801619171918F01882777FD80956D
:101D4000982F0E949926688379838A839B8365965E
:101D5000F6E0C530DF0749F70E94CC027B018C0119
:101D600060914A0370914B0380914C0390914D0315
:101D70000E94D4269B01AC01C801B7010E949525A1
:101D80000E9466266330710524F081E080939B05F4
:101D900002C010929B05635070406830710568F472
:101DA00081E08093990580914E0390914F030196B5
:101DB00090934F0380934E0302C010929905DF91D8
:101DC000CF911F910F91FF90EF90DF90CF900895EA
:101DD0000F931F93CF93DF930EED13E0C0E0D0E09D
:101DE00006C0C8010E942E2921960B5E1F4F8091CC
:101DF0003E0390913F03C817D9079CF3C0E0D0E0A1
:101E0000CE018D599C4F0E942E29CE0184569A4FA7
:101E10000E942E296596C936D10591F784E895E090
:101E20000E942E2985E096E00E942E29DF91CF9115
:101E30001F910F9108951F93E1E6F0E080E8808301
:101E400011E010830E94550A87E880937A008FE39F
:101E50000E94EA200E941B2114BC84E085BD1093DF
:101E60006E001092800093E09093810010936F00B9
:101E70001092900082E080939100109371009093F3
:101E8000BF008FEF8093D10082E88093C0003F9A1B
:101E900087E08093C1001092C3007894229A239A1D
:101EA0002A982B980E94AA1A1F9108950F931F93A6
:101EB000CF93DF930EED13E0C0E0D0E006C0C80181
:101EC0000E94602121960B5E1F4F80913E039091EE
:101ED0003F03C817D9079CF3DF91CF911F910F9152
:101EE0000895CF93DF93CCE9D5E0CE010E94602125
:101EF000659686E0C530D807C1F7DF91CF91089588
:101F0000CF93DF93C3E6D3E0CE010E9460216596B4
:101F100083E0CC3CD807C1F7DF91CF9108950E94B0
:101F20009A1E0E94560F84E895E00E94602185E089
:101F300096E00E9460210E94800F0E94710F0E9413
:101F4000B62008958F929F92AF92BF92CF92EF9258
:101F50000F931F93CF93DF93FBEF8F2EF2E09F2E13
:101F6000CCE9D5E0F401619171914F01882777FDAB
:101F70008095982F0E949926AB01BC01CE0100E00C
:101F800010E020EE30ECE5E0EE2EB7E0CB2EAEEE2A
:101F9000AA2EA2E0BA2E0E9438216596F5E08F168F
:101FA000F3E09F06F9F6DF91CF911F910F91EF902B
:101FB000CF90BF90AF909F908F900895AF92BF92B7
:101FC000CF92EF920F931F93CF93DF93C3E6D3E0AB
:101FD000CE0140E050E062EA72E400E010E020E070
:101FE00030E0E2E0EE2EB2E0CB2EACEEAA2EA2E084
:101FF000BA2E0E9438211A8A659683E0CC3CD80715
:1020000039F7DF91CF911F910F91EF90CF90BF9053
:10201000AF900895AF92BF92CF92EF920F931F931C
:1020200085E096E040E050E060E070E000E010E025
:1020300028E132E4B7E0EB2EA7E0CA2EF5EEAF2E92
:10204000F2E0BF2E0E9438211F910F91EF90CF90A8
:10205000BF90AF900895AF92BF92CF92DF92EF9270
:10206000FF920F931F9380913E0390913F0301973E
:1020700025E130E0829FF001839FF00D929FF00DEB
:102080001124E252FC4FC080D180E280F380648151
:1020900075818681978120E030E040EE50E40E9417
:1020A00095258B019C0184E895E0B701A601A5E088
:1020B000EA2EF7E0CF2EEEECAE2EE2E0BE2E0E942E
:1020C00038211F910F91FF90EF90DF90CF90BF903C
:1020D000AF90089584E895E00E942E2981E08093D6
:1020E000D70310923A0310923B030E942B100895DD
:1020F000AF92BF92CF92EF920F931F9320913E0326
:1021000030913F0385E190E0AC01249FC001259F01
:10211000900D349F900D112482529C4F40E050E06E
:102120006EE972E400E010E020E031E4FAE0EF2E26
:10213000E3E0CE2EB5EDAB2EB2E0BB2E0E943821EF
:1021400080913E0390913F03019690933F038093CB
:102150003E039093D3038093D2031F910F91EF908E
:10216000CF90BF90AF9008952F923F924F925F9281
:102170006F927F928F929F92AF92BF92CF92DF9297
:10218000EF92FF920F931F93CF93DF9380913E03C3
:1021900090913F0344970CF09DC005EF402E02E064
:1021A000502E15E1212E312C8091840090918500D4
:1021B0000E94DC29C0E0D0E00E94D729AA2797FD21
:1021C000A095BA2FBC01CD010E94992620E03EEFD8
:1021D0004FEF56E40E94FE2523E333E343EB5EE337
:1021E0000E94FA2587FD67C00E94D7297C01BE01A5
:1021F000882777FD8095982F0E9499265B016C01B6
:10220000F20160817181882777FD8095982F0E9467
:1022100099263B014C010027F7FC0095102FC801BF
:10222000B7010E94992620E03EEF4FEF56E40E944E
:10223000FE252DEC3CEC4CE45EE30E949C272091B3
:102240003E0330913F031816B4F4229DC001239D34
:10225000900D329D900D112482529C4FA501B60124
:1022600083019401BAE0EB2EA3E0CA2EF5EDAF2E68
:10227000F2E0BF2E15C0229DC001239D900D329D1E
:10228000900D112482529C4FA501B6018301940147
:10229000EAE0EE2EB3E0CB2EADEDAA2EA2E0BA2EF0
:1022A0000E94382180913E0390913F0301969093C4
:1022B0003F0380933E032C96C435D10509F07CCFB3
:1022C00082E090E0480E591E9BEF491692E05906B5
:1022D00009F06ACFDF91CF911F910F91FF90EF909E
:1022E000DF90CF90BF90AF909F908F907F906F9036
:1022F0005F904F903F902F900895DC010D9000204B
:10230000E9F71197A81BB90BBD010E947B1B08952B
:102310000F931F932DB73EB7285030400FB6F89457
:102320003EBF0FBE2DBFEDB7FEB7319607E513E0F8
:10233000ADB7BEB712961C930E93119728E030E00C
:102340003383228324E131E035832483978386839A
:102350000E94012B2DB73EB7285F3F4F0FB6F89470
:102360003EBF0FBE2DBFC8010E947D111F910F916E
:1023700008958091D703882309F454C02091DC0389
:102380003091DD032A30310584F480910703909168
:102390000803039790930803809307038091050334
:1023A000909106038055904013C0C9010A970A977F
:1023B000D0F480910703909108030396909308034B
:1023C000809307038091050390910603805B9F4FE4
:1023D00090930603809305032F5F3F4F3093DD03F7
:1023E0002093DC0315C02431310591F48FE390E094
:1023F000909308038093070380E293E09093060391
:10240000809305031092DD031092DC031092D70332
:1024100081E491E00E947D118091DC039091DD03C5
:102420000E948811089583E491E00E947D118091BB
:102430003C0390913D030E948811089586E591E048
:102440000E947D118091C7029091C8020E9488115C
:102450000895AF92BF92CF92DF92EF92FF920F93C7
:102460001F930E94CC020E9466267B018C01CB0147
:102470006CE370E00E942328882777FD8095982FD1
:102480000E9499260E94D4265B016C01C7016CE36F
:1024900070E00E942328AA2797FDA095BA2FBC01BF
:1024A000CD010E9499260E94D4267B018C018BE6E7
:1024B00091E00E947D11C601B5010E946626DC01F3
:1024C000CB010E9488118FE391E00E947D11C80129
:1024D000B7010E946626DC01CB010E9488111F9182
:1024E0000F91FF90EF90DF90CF90BF90AF90089545
:1024F00085E791E00E947D110E941E120E94131236
:102500000E94291281E891E00E947D118091400390
:10251000909141030E948811089581E991E00E9401
:102520007D118DEA91E00E947D118091CB02909106
:10253000CC020E94881183EC91E00E947D11809171
:10254000C9029091CA020E9488110E94291208951E
:102550002F923F924F925F926F927F928F929F92B3
:10256000AF92BF92CF92DF92EF92FF920F931F93A1
:10257000DF93CF93CDB7DEB768970FB6F894DEBF81
:102580000FBECDBF90EA892E95E0992EAA24BB24D8
:102590008DB79EB745970FB6F8949EBF0FBE8DBFFF
:1025A000A5E1B0E0AA9EF001AB9EF00DBA9EF00D41
:1025B0001124ADB7BEB71196E456FA4F85E10190EC
:1025C0000D928150E1F70E941505EDB7FEB77596A3
:1025D0000FB6F894FEBF0FBEEDBF298B3A8B4B8B25
:1025E0005C8B6D8B7E8B8F8B988FDE011196FE013D
:1025F000719688E001900D928150E1F74D805E80E8
:102600006F8078842B803C8083E6E82E83E0F82E70
:10261000CC24DD2493C08DB79EB745970FB6F894B0
:102620009EBF0FBE8DBFA5E1B0E0CA9EF001CB9E5C
:10263000F00DDA9EF00D1124ADB7BEB71196ED592D
:10264000FC4F85E101900D928150E1F70E94150544
:10265000EDB7FEB775960FB6F894FEBF0FBEEDBF8F
:10266000298B3A8B4B8B5C8B6D8B7E8B8F8B988FF2
:10267000DE011996FE01719688E001900D9281505D
:10268000E1F72D853E858B859C852816390609F056
:102690004EC08F8598896816790624F02415350573
:1026A00044F445C0241535050CF441C06216730688
:1026B000F4F180E090E0A2EAB2E4F7018083918334
:1026C000A283B38380E090E0A0E0B0E084839583B0
:1026D000A683B783128A0F5F1F4F1093CA0200931D
:1026E000C90280E090E0A0EEB0ECF4018083918319
:1026F000A283B3838091CB029091CC0201979093F7
:10270000CC028093CB028091C7029091C8020A96B6
:102710009093C8028093C7020E948D12809140035B
:102720009091410301969093410380934003089454
:10273000C11CD11C85E190E0E80EF91E0091C90290
:102740001091CA02C016D1060CF465CF0894A11CE2
:10275000B11CA5E1B0E08A0E9B1EB5E0AB16B1043A
:1027600009F016CF68960FB6F894DEBF0FBECDBF46
:10277000CF91DF911F910F91FF90EF90DF90CF905D
:10278000BF90AF909F908F907F906F905F904F9091
:102790003F902F90089589ED91E00E947D118DEA80
:1027A00091E00E947D118091CB029091CC020E9419
:1027B00088110E9429120E941E120E94131208956D
:1027C0000E94640E80919B05882311F00E94B80638
:1027D00080919905882319F00E949E0602C02A98CC
:1027E0002B9880914E0390914F03019711F40E9412
:1027F000CB130E949F080E948C070E94A8120E947F
:10280000660808958DEE91E00E947D110E941E12CF
:102810000E9413120E9429128DEA91E00E947D11FC
:102820008091CB029091CC020E94881183EC91E0C0
:102830000E947D118091C9029091CA020E94881164
:102840000895EF92FF920F931F938091D6038823F0
:10285000F9F00E94021481E0809336030E94CC02BA
:102860007B018C016091CD037091CE03882777FDA9
:102870008095982F0E9499269B01AC01C801B70151
:102880000E9495250E9466267093830560938205B9
:102890001F910F91FF90EF9008950F931F938C015C
:1028A0008AEF91E00E947D118CE092E00E947D1100
:1028B000C8010E947D110E941E120E9413120E94E4
:1028C00029121F910F910895DF93CF93CDB7DEB7F3
:1028D00060970FB6F894DEBF0FBECDBF8DB79EB721
:1028E00045970FB6F8949EBF0FBE8DBFADB7BEB76C
:1028F0001196E4E8F5E085E101900D928150E1F751
:102900000E941505EDB7FEB775960FB6F894FEBF99
:102910000FBEEDBF29873A874B875C876D877E871F
:102920008F87988BDE011196FE01399688E0019021
:102930000D928150E1F78B819C81C1976CF4898164
:102940009A8197FD09C08D819E8197FD05C08F8179
:102950009885853591057CF08091C7029091C802D9
:1029600001979093C8028093C70280E292E00E9490
:102970004D140E946A1060960FB6F894DEBF0FBE29
:10298000CDBFCF91DF9108952F923F924F925F92EA
:102990006F927F928F929F92BF92CF92DF92EF922F
:1029A000FF920F931F93DF93CF93CDB7DEB7689756
:1029B0000FB6F894DEBF0FBECDBF51EFC52E53E06A
:1029C000D52EEE24FF24BB2445E1242E312C2E01EC
:1029D0000894411C511C31E1832E912C8C0E9D1EBC
:1029E00029E0622E712C6C0E7D1EA8C08DB79EB79B
:1029F00045970FB6F8949EBF0FBE8DBFE29CF001C5
:102A0000E39CF00DF29CF00D1124ADB7BEB711960A
:102A1000E252FC4F85E101900D928150E1F70E9456
:102A20001505EDB7FEB775960FB6F894FEBF0FBE4D
:102A3000EDBF298B3A8B4B8B5C8B6D8B7E8B8F8B99
:102A4000988FD201F40188E001900D928150E1F756
:102A500009811A818DB79EB745970FB6F8949EBF2E
:102A60000FBE8DBFADB7BEB71196E4E8F5E085E1C6
:102A700001900D928150E1F70E941505EDB7FEB768
:102A800075960FB6F894FEBF0FBEEDBF298B3A8B3B
:102A90004B8B5C8B6D8B7E8B8F8B988FD301F4016E
:102AA00088E001900D928150E1F78B859C8580171D
:102AB0009107E9F58F81988505962F8538898217CA
:102AC0009307ACF18D819E8105972D853E85281752
:102AD00039076CF1F60180819181855D9240C1F4E6
:102AE000F092D303E092D20307501040B801882738
:102AF00077FD8095982F0E949926609388057093A2
:102B0000890580938A0590938B05BB24B3940FC0ED
:102B10008091C7029091C80201979093C802809358
:102B2000C70284E392E00E944D140E946A10089448
:102B3000E11CF11C85E190E0C80ED91E80913E0396
:102B400090913F03E816F9060CF450CF8B2D689650
:102B50000FB6F894DEBF0FBECDBFCF91DF911F91AE
:102B60000F91FF90EF90DF90CF90BF909F908F904C
:102B70007F906F905F904F903F902F900895EF92CD
:102B8000FF920F931F93DF93CF93CDB7DEB72A97B2
:102B90000FB6F894DEBF0FBECDBF0E94C414982FAD
:102BA00025E733E0AE014F5F5F4FE0E0F0E0D90191
:102BB0008C91882319F4DA01ED93FC9331962B5E06
:102BC0003F4F4E5F5F4FE530F10589F7E090C90256
:102BD000F090CA02EE19FF09EE0FFF1FEC0FFD1F68
:102BE000218132818091CC03882309F443C01E14D3
:102BF0001F040CF03FC09923E9F185E190E0289F84
:102C00008001299F100D389F100D11240D591C4F64
:102C10006091840570918505809186059091870566
:102C200020E030E040E050E40E949625F801608307
:102C30007183828393836091880570918905809167
:102C40008A0590918B0520E030E040EA50E40E9434
:102C50009625D80114966D937D938D939C93179729
:102C600081E052968C930894E108F108F092CA0230
:102C7000E092C9022A960FB6F894DEBF0FBECDBF10
:102C8000CF91DF911F910F91FF90EF9008950E94D7
:102C9000BF150E9407090E94FC0908950E94C414F0
:102CA000882379F560919005709191058091920546
:102CB000909193052DEC3CEC4CE45EE30E9496254C
:102CC000609390057093910580939205909393057E
:102CD00020E030E040E85FE30E949C27181664F48F
:102CE00080E090E0A0E8BFE3809390059093910589
:102CF000A0939205B093930510923A0310923B0370
:102D00000CC080E090E0A0E0B0E08093900590934C
:102D10009105A0939205B0939305609188057091F9
:102D2000890580918A0590918B05209190053091BD
:102D3000910540919205509193050E9496256093CC
:102D400088057093890580938A0590938B05089573
:102D5000EF92FF920F931F930E94C414982F8091BB
:102D60009A05882331F1992309F465C083E393E33D
:102D7000A3E1B0EC8093900590939105A093920508
:102D8000B0939305609188057091890580918A05BB
:102D900090918B0523E333E343E150E40E949525B2
:102DA000609388057093890580938A0590938B05BD
:102DB00003C0992309F43FC060918805709189058B
:102DC00080918A0590918B0520E030E040EE50E440
:102DD0000E9496250E9466268091F5029091F60247
:102DE0006817790739F08091F9029091FA02681713
:102DF000790749F48091D8039091D903A091DA031F
:102E0000B091DB0310C08091F7029091F80268172F
:102E1000790789F48091D8039091D903A091DA03BE
:102E2000B091DB03B05880938C0590938D05A093EF
:102E30008E05B0938F0580913A03882379F16091D4
:102E400088057091890580918A0590918B0520E015
:102E500030E040EE50E40E9496257B018C016091A9
:102E6000F7027091F802882777FD8095982F0E94CD
:102E700099269B01AC01C801B7010E94FA25609117
:102E8000D8037091D9038091DA039091DB0320E09D
:102E900030E040E05FE30E94962533C080913B0321
:102EA0008823B9F1609188057091890580918A0520
:102EB00090918B0520E030E040EE50E40E94962592
:102EC0007B018C016091F7027091F802882777FDF1
:102ED0008095982F0E9499269B01AC01C801B701EB
:102EE0000E94FA256091D8037091D9038091DA038A
:102EF0009091DB0320E030E040E05FE30E94962504
:102F0000905860938C0570938D0580938E059093F7
:102F10008F0560918405709185058091860590915B
:102F2000870520918C0530918D0540918E0550913B
:102F30008F050E9496256093840570938505809384
:102F40008605909387051F910F91FF90EF9008954C
:102F50000E94C4148823C1F02091D2033091D3037E
:102F600080911D0690911E062817390769F030934D
:102F70001E0620931D0680913C0390913D0301960F
:102F800090933D0380933C03089584E492E00E9473
:102F90007D116091840570918505809186059091E1
:102FA00087050E946626DC01CB010E9488118CE215
:102FB0000E94191B609188057091890580918A058E
:102FC00090918B050E946626DC01CB010E9488113E
:102FD00089E592E00E947D1108958DE592E00E94BE
:102FE0007D110E94C517089580E792E00E947D112F
:102FF0000E9413120E941E120E9429120E94C517DD
:103000000895DF93CF93CDB7DEB768970FB6F894E6
:10301000DEBF0FBECDBF8DB79EB745970FB6F894F4
:103020009EBF0FBE8DBFADB7BEB71196E5E0F6E00F
:1030300085E101900D928150E1F70E941505EDB7F1
:10304000FEB775960FB6F894FEBF0FBEEDBF298B85
:103050003A8B4B8B5C8B6D8B7E8B8F8B988FDE01CD
:103060001196FE01719688E001900D928150E1F772
:103070008DB79EB745970FB6F8949EBF0FBE8DBF14
:10308000ADB7BEB71196E4E8F5E085E101900D9289
:103090008150E1F70E941505EDB7FEB775960FB6A2
:1030A000F894FEBF0FBEEDBF298B3A8B4B8B5C8B28
:1030B0006D8B7E8B8F8B988FDE011996FE0171963A
:1030C00088E001900D928150E1F72B853C85898144
:1030D0009A81281739071CF18D819E8103972D85D0
:1030E0003E8528173907DCF08F81988503962F8558
:1030F0003889821793079CF08091C7029091C8028B
:1031000002969093C8028093C7021092170685E03A
:1031100096E00E942E290E946A100E94F417689679
:103120000FB6F894DEBF0FBECDBFCF91DF910895EB
:103130008091D703882321F40E9488050E94A81655
:103140000E944E160E9464140E9401180E94A81743
:103150000E94B911089580E992E00E947D110E94B9
:10316000C5170895AF92BF92CF92EF920F931F931E
:103170000E94B4100E9478100E942B1085E096E007
:1031800040E050E060E070E000E010E028E132E470
:10319000A7E0EA2EF7E0CF2EE5EEAE2EE2E0BE2E5F
:1031A0000E9438210E94DE0F0E94A20F0E94AB18DD
:1031B0001F910F91EF90CF90BF90AF9008950E9414
:1031C0009A1E109235031092390310923603109212
:1031D000380310923A0310923B038AE090E09093F8
:1031E000C8028093C70210923D0310923C0385E011
:1031F00090E09093CA028093C9029093CC0280938E
:10320000CB0210923F0310923E030E94B2180E941C
:10321000B62008952F923F924F925F926F927F92C5
:103220008F929F92AF92BF92CF92DF92EF92FF92D6
:103230000F931F93DF93CF93CDB7DEB7AD970FB644
:10324000F894DEBF0FBECDBF04E3202E01E0302E88
:1032500010E1412E512C4C0E5D1EBFE16B2E712CE6
:103260006C0E7D1EE6C00091CF031091D003C80103
:103270006CE370E00E942328882777FD8095982FC3
:103280000E9499260E94D4264B015C01C8016CE380
:1032900070E00E942328AA2797FDA095BA2FBC01B1
:1032A000CD010E9499260E94D4266B017C0100D09A
:1032B00000D000D00DB71EB70F5F1F4FE1E0F0E068
:1032C000EC0FFD1FADB7BEB71296FC93EE931197AE
:1032D000D80113963C922E921297C501B4010E9418
:1032E0006626F801758364830E94322B0DB71EB7E2
:1032F0000F5F1F4FADB7BEB712965C924E921197FB
:10330000F80133822282C701B6010E946626D801E5
:1033100015967C936E9314970E94322BEDB7FEB7EF
:103320003196ADB7BEB712967C926E92119784E13A
:1033300091E09383828380913C0390913D03958338
:1033400084830E94322BADB7BEB716960FB6F894A1
:10335000BEBF0FBEADBF0E949A1E89E190E061E042
:1033600070E042EA52E021E00E9491208AE090E081
:103370006BE070E046E251E021E00E9491208DE296
:1033800090E06BE070E0A30121E00E9491208AE0D0
:1033900090E065E170E049E351E021E00E94912076
:1033A0008DE290E065E170E0AE014F5F5F4F21E09C
:1033B0000E94912087E390E065E170E04FE351E0E7
:1033C00021E00E9491208BE390E065E170E0A20192
:1033D00021E00E94912080E090E06FE170E04CEAF3
:1033E00052E021E00E94912080E090E069E270E0EC
:1033F00048EB52E021E00E9491200E94B6207D9B84
:1034000004C00E94DF18109237037E9B12C01092F6
:10341000370381E0809339030E949A1E84E190E093
:1034200064E170E04BE051E021E00E9491200E94B5
:10343000B62080913703882309F015CFAD960FB6DB
:10344000F894DEBF0FBECDBFCF91DF911F910F91DA
:10345000FF90EF90DF90CF90BF90AF909F908F90B4
:103460007F906F905F904F903F902F900895809144
:1034700007030E94EA200E94EB1A882339F00E9479
:10348000C61A90931C0680931B0604C010921C065B
:1034900010921B068091050390910603292F332774
:1034A00027FD3A952093BF008093CF000E948C0B9C
:1034B0008091D503882331F08091380391E08927EA
:1034C000809338030E9421140E94240E0E949818B1
:1034D0000E94AC040E9410050E9447160E94E0134F
:1034E0000E948F0F8091C7029091C802181619068A
:1034F0007CF00E94CC020E9466267093D0036093F9
:10350000CF030E9478120E940A1981E0809337034A
:103510000895CF93DF930E941B0F0E942A0C0E94F4
:10352000B218C8ECD0E009C00E94371A8AE491E0D2
:10353000FE013197F1F70197D9F780913503882380
:1035400021F480913903882379F380E090E0DF91C2
:10355000CF91089581E08093D70080EA8093D800CE
:1035600082E189BD09B400FEFDCF80E98093D800D7
:103570001092E00010925F03109260038CE0809341
:10358000E2007894089580915F0308952FB7F8942E
:1035900080915F03882369F083E08093E9009BE6D4
:1035A0008091E80085FD09C082FF03C09093E80088
:1035B000F7CF2FBF2FEF3FEF0CC09091F10080911C
:1035C000E80085FD03C08BE68093E8002FBF292F1C
:1035D00030E0C90108952FB7F89480915F038823E4
:1035E00011F490E010C083E08093E9009091F20024
:1035F000992349F48091E80082FF05C085FD03C04E
:103600008BE68093E8002FBF892F089580915F0398
:10361000882371F09FB7F89483E08093E9002BE64C
:1036200002C02093E8008091E80085FDFACF9FBF9B
:103630000895482F80915F038823D9F12FB7F8941C
:1036400084E08093E90080916203882341F08091B7
:10365000E80085FD02C02FBF12C010926203909156
:10366000E400975E34E08091E80085FD13C02FBF31
:103670008091E400891729F481E0809362038FEF41
:10368000089580915F038823A1F02FB7F8943093B9
:10369000E900E9CF4093F1008091E80085FD03C087
:1036A0008AE38093E80085E0809361032FBF80E088
:1036B00008958FEF0895282F80915F03882351F09C
:1036C0009FB7F89484E08093E9008091E80085FD3D
:1036D00003C09FBF8FEF08952093F1008091E80011
:1036E00085FD03C08AE38093E80085E08093610351
:1036F0009FBF80E00895CF93DF93EC0180915F033B
:10370000882309F41CC13FB7F89484E08093E90052
:1037100080916203882309F408C18091E80085FD47
:1037200002C03FBF0CC110926203FFC09091E40041
:10373000975E8091E80085FD13C03FBF8091E40053
:10374000891721F481E080936203F9C080915F03BF
:10375000882309F4F4C03FB7F894B093E900E9CFA7
:103760008091F200242F281B822F90E068177907A0
:1037700008F4262F822F90E08134910508F0C6C00E
:103780008A5A9F4FFC01EE0FFF1F0590F491E02D28
:10379000099489918093F10089918093F100899136
:1037A0008093F10089918093F10089918093F100D9
:1037B00089918093F10089918093F10089918093A0
:1037C000F10089918093F10089918093F1008991B2
:1037D0008093F10089918093F10089918093F100A9
:1037E00089918093F10089918093F1008991809370
:1037F000F10089918093F10089918093F100899182
:103800008093F10089918093F10089918093F10078
:1038100089918093F10089918093F100899180933F
:10382000F10089918093F10089918093F100899151
:103830008093F10089918093F10089918093F10048
:1038400089918093F10089918093F100899180930F
:10385000F10089918093F10089918093F100899121
:103860008093F10089918093F10089918093F10018
:1038700089918093F10089918093F10089918093DF
:10388000F10089918093F10089918093F1008991F1
:103890008093F10089918093F10089918093F100E8
:1038A00089918093F10089918093F10089918093AF
:1038B000F10089918093F10089918093F1008991C1
:1038C0008093F10089918093F10089918093F100B8
:1038D00089918093F10089918093F100899180937F
:1038E000F10089918093F10089918093F100899191
:1038F0008093F10089918093F10089918093F10088
:1039000089918093F10089918093F100899180934E
:10391000F1008091E80085FD02C05093E800621B31
:103920007109A09361033FBF04C0B4E040E45AE3CF
:10393000A5E06115710509F0F9CE80E001C08FEFB7
:10394000DF91CF9108959FB7F89480916103882308
:1039500041F084E08093E9008AE38093E8001092CC
:1039600061039FBF089560910E0370910F038091D2
:10397000100390911103089580911203089580918E
:1039800013030895809114030895809160030895AE
:10399000282F9FB7F89480915F03882339F082E045
:1039A0008093E9008091E80085FD03C09FBF8FEF01
:1039B000089581EA8093F10080E28093F1001092F3
:1039C000F1001092F1001092F1001092F10081E0EC
:1039D0008093F1001092F1002093F1008AE380932C
:1039E000E8009FBF80E008951F920F920FB60F92DC
:1039F00011248F939F938091E1001092E100982F02
:103A000083FF11C01092E90081E08093EB001092D7
:103A1000EC0082E18093ED0088E08093F00010924A
:103A20005F031092600392FF13C080915F038823AD
:103A300079F080916103882359F08150809361036C
:103A4000882331F484E08093E9008AE38093E800DE
:103A50009F918F910F900FBE0F901F9018951F92FE
:103A60000F920FB60F9211240F931F932F933F9332
:103A70004F935F936F937F938F939F93AF93BF9376
:103A8000EF93FF931092E9008091E80083FF3CC11F
:103A90004091F1003091F1008091F100682F70E0C9
:103AA0002091F100922F80E0682B792B8091F1001A
:103AB000A82FB0E02091F100922F80E0A82BB92B25
:103AC0001091F1000091F10082EF8093E800363010
:103AD00009F05AC025E331E0A90145505040F901F1
:103AE0003797859194918617970701F5FA0185918B
:103AF00094918A179B07D1F49A012E5F3F4FF901E9
:103B0000659174912E5F3F4FF9014491212F30E070
:103B1000902F80E0282B392B2F3F310519F010F022
:103B20002FEF30E0241758F4422F09C0295F3F4F90
:103B3000495F5F4FF1E02F353F0789F6E5C05EEF43
:103B40008091E800282F30E0C90185709070892BA2
:103B5000B9F322FDDCC0342F413108F030E1232FCE
:103B6000CB0106C0FC010196E491E093F1002150E5
:103B70002223C1F7630F711D431B5093E8004423B8
:103B8000F9F63031E9F2C3C0353061F48EEF80933D
:103B9000E8008091E80080FFFCCF862F806880934A
:103BA000E300B5C0393051F5442309F0ADC060934E
:103BB0005F0310926003109261038EEF8093E80020
:103BC00088E591E021E02093E900FC010196E49171
:103BD000E093EB00EE2369F0AC014F5F5F4FFC0117
:103BE00084918093EC00CA010196FA0134913093DC
:103BF000ED002F5F253039F78EE181C0383061F458
:103C0000403809F081C08091E80080FFFCCF8091AE
:103C10005F038093F10050C0313289F4413A09F0DA
:103C200073C08091E80080FFFCCFEEE0F3E081916B
:103C30008093F10083E0E531F807C9F73DC03032E9
:103C4000A1F4413209F060C08091E80082FFFCCF0E
:103C5000EEE0F3E08091F100819383E0E531F80735
:103C6000C9F78BEF8093E80027C0323251F441321C
:103C700009F04AC0609360038091E80080FFFCCFA8
:103C80001BC03323E9F48091E80080FFFCCF423869
:103C900011F080E00DC0A093E9008091EB0090E06E
:103CA00025E0969587952A95E1F781701092E900B5
:103CB0008093F1001092F1008EEF8093E80027C00E
:103CC000313011F0333001F54230F1F4672BE1F47B
:103CD0002A2F2F77822F81508430B0F48EEF80937B
:103CE000E8002093E900333079F089E18093EB001C
:103CF00081E090E002C0880F991F2A95E2F7809337
:103D0000EA001092EA0003C081E28093EB00FF9189
:103D1000EF91BF91AF919F918F917F916F915F9143
:103D20004F913F912F911F910F910F900FBE0F90C8
:103D30001F901895EFE1F6E0119288E0E731F8075F
:103D4000D9F708959C0197FD37C077FD35C08435BC
:103D5000910594F5603371057CF5CB0173E0959581
:103D600087957A95E1F76770452B99F0E4E58E9F8A
:103D7000F0011124E20FF31FE15EF94F81E090E0C2
:103D800002C0880F991F6A95E2F72081282B2083B3
:103D90000895E4E58E9FF0011124E20FF31FE15E28
:103DA000F94F81E090E002C0880F991F6A95E2F711
:103DB000809520812823208308952F923F924F924F
:103DC0005F926F927F928F929F92AF92BF92CF92AB
:103DD000DF92EF92FF920F931F93DF93CF93CDB7B4
:103DE000DEB72E970FB6F894DEBF0FBECDBF7C01B5
:103DF0006B014A0139011C870B8784179507F9F479
:103E00005B0110C0C701B5014B855C850E94A21EF5
:103E1000C614D70424F40894A11CB11C03C0089450
:103E2000A108B108C614D7042CF46A147B040CF45E
:103E3000FDC0E8CFA614B7040CF4F8C0E3CF6217B6
:103E40007307F9F45C0110C0C501B6014B855C85B0
:103E50000E94A21EE814F90424F40894A11CB11CC9
:103E600003C00894A108B108E814F9042CF48A14DA
:103E70009B040CF4DBC0E8CFA814B9040CF4D6C042
:103E8000E3CF4817590724F447017A013B01690140
:103E9000B4016E197F09882777FD8095982F0E94BD
:103EA00099266F83788789879A87B3016C197D0972
:103EB000882777FD8095982F0E9499266B837C83B5
:103EC0008D839E832F81388549855A850E94FE25E2
:103ED0001B012C0120E030E040E050E00E949C27D4
:103EE00087FF04C057FA509457F85094DA82C98279
:103EF0000F2EF0E0AF2EF0E0BF2EF0E0CF2EF0E07E
:103F0000DF2EF02D7FC0C70169817A814B855C85EA
:103F10000E94A21EC601B501A20191010E94962530
:103F20003BC0C70169817A814B855C850E94A21ED6
:103F30001E861D866B817C818D819E8120E030E014
:103F400040E050E00E949C27181624F421E030E065
:103F50003E872D8700E010E06B817C818D819E8102
:103F600020E030E040E050E00E94FA25882314F47D
:103F700001E010E08D859E85801B910BE981FA811F
:103F8000E80FF91FFA83E983C601B50120E030E0AC
:103F900040E85FE30E9495255B016C0120E030E082
:103FA00040E05FE30E949C278823CCF06B817C81FA
:103FB0008D819E8120E030E040E050E00E949C270F
:103FC00018163CF429813A81621673060CF0A9CFC9
:103FD00006C089819A81861597050CF0A2CF6F8162
:103FE000788589859A8520E030E040E050E00E94A5
:103FF0009C27181624F40894E11CF11C03C00894B3
:10400000E108F1086F81788589859A8520E030E0A4
:1040100040E050E00E949C27181624F48E149F0460
:104020002CF071CFE814F9040CF06DCF2E960FB67A
:10403000F894DEBF0FBECDBFCF91DF911F910F91DE
:10404000FF90EF90DF90CF90BF90AF909F908F90B8
:104050007F906F905F904F903F902F9008954F9278
:104060005F926F927F928F929F92AF92BF92CF9208
:10407000DF92EF92FF920F931F93CF93DF933B0159
:10408000490125E0429FA0011124A7E5EA2EA1E005
:10409000FA2EE40EF51E8C01F1E04F2E512CECE5CA
:1040A000AE2EE1E0BE2EA40EB51EF7018491811460
:1040B000910409F48095C0E0D0E0C82EDD24BE0153
:1040C000660D771DA2010C2E02C0440F551F0A94E5
:1040D000E2F74C215D210C2E02C0559547950A94BC
:1040E000E2F7C8010E94A21E2196C830D10539F717
:1040F0000894E11CF11C0F5F1F4FEA14FB04A9F6A2
:10410000DF91CF911F910F91FF90EF90DF90CF90B3
:10411000BF90AF909F908F907F906F905F904F90E7
:104120000895CF92DF92EF92FF920F931F93CF9358
:10413000DF936B017A01E901082F10E008C0802F9E
:1041400090E0B6019E010E942F200B5F1F5FF701D8
:10415000E10FF11D4081442391F7DF91CF911F9131
:104160000F91FF90EF90DF90CF900895CF93DF9362
:1041700080E060E00E942B21CFE1D6E081E06991F0
:104180000E94C92088E0C731D807C1F7DF91CF91DD
:10419000089595B18295880F807E9F7D982B95B963
:1041A0005F9827E030E070E08F98CB01022E02C0CC
:1041B000959587950A94E2F780FF02C02E9A01C078
:1041C0002E988F9A215030408FEF2F3F380761F79C
:1041D0005F9A08951F93182F579A249A259A269A22
:1041E000879A2C985F9A2C9A80E061E20E94C920FD
:1041F000106880E0612F0E94C92080E064E00E9486
:10420000C92080E063E10E94C92080E06CE00E9448
:10421000C92080E060E20E94C92080E06CE00E943A
:10422000C92080E060E40E94C92080E060E80E942C
:10423000C9201F910895CF93DF93C0E0D0E081E0C3
:1042400060E00E94C920219681E0C83FD807B9F7F5
:10425000DF91CF9108951F93182F606480E00E9432
:10426000C920106880E0612F0E94C9201F91089525
:10427000AF92BF92CF92EF920F931F93FC014083B6
:104280005183628373830483158326833783E08A93
:10429000C18AB48AA38A81E0828B80E090E0A0E0AA
:1042A000B0E080879187A287B38784879587A687A8
:1042B000B7871F910F91EF90CF90BF90AF90089567
:1042C0002F923F924F925F926F927F928F929F9226
:1042D000AF92BF92CF92DF92EF92FF920F931F9314
:1042E000CF93DF938C01DC0152968C9152978823F7
:1042F00009F481C06D917D918D919C910E9403285C
:104300000E9466263B01F801248135814681578150
:10431000643571050CF06FC0D80150968C91C82F90
:10432000D0E0CE01860D971D181619060CF063C05B
:10433000CA01B9010E9403280E9466264B0160331E
:1043400071050CF058C0F80181899401280F311DC6
:10435000121613060CF04FC057E0A52EB12CAC0E70
:10436000BD1E43E0B594A7944A95E1F7EE24FF24DF
:10437000CC24DD2437E0232E312C31C0CE0123E0C4
:10438000959587952A95E1F7D8015396ED91FC9183
:104390005497EC0DFD1DE80FF91F408150E0CE0150
:1043A00087709070F101E81BF90B02C05595479595
:1043B000EA95E2F741705070CE01860D971DB2016B
:1043C0000E94A21E2196D80150968C9190E0C817A9
:1043D000D907A4F20894E11CF11CCA0CDB1CF801FB
:1043E000818990E0E816F90634F4C0E0D0E02701B6
:1043F000480C591CE8CFDF91CF911F910F91FF908E
:10440000EF90DF90CF90BF90AF909F908F907F9074
:104410006F905F904F903F902F900895A1E1B0E092
:10442000E4E1F2E20C9436283C017F876E876A0152
:10443000FC0117821682838181FD03C06FEF7FEF3D
:104440006FC39E012F5F3F4F398B288BF301238170
:10445000EE85FF8523FD859123FF8191FF87EE8700
:10446000882309F45AC3853251F4EE85FF8523FD74
:10447000859123FF8191FF87EE87853229F490E0B3
:10448000B3010E94D52AE2CF982F10E08824992406
:104490001032B0F49B3269F09C3228F4903251F023
:1044A000933271F40BC09D3239F0903349F41160AE
:1044B00028C01260146025C0186023C0106121C09C
:1044C00017FD2AC0892F80538A3078F416FF06C062
:1044D000FAE09F9E902C1124980E13C03AE0839E20
:1044E000802C1124880E10620CC09E3221F416FD1F
:1044F00014C3106406C09C3611F4106802C09836CC
:1045000059F4EE85FF8523FD959123FF9191FF8757
:10451000EE87992309F0BCCF892F8554833020F48E
:10452000812F8061905E07C0892F8556833008F007
:104530009FC1812F8F7E86FD02C076E0972E6FE3AC
:10454000F62EF822953619F4F0E4FF2A07C09636C5
:1045500019F420E8F22A02C091109A94F7FE0AC0DA
:104560003BE3391518F45CE3B52E02C0B92CB394C3
:1045700027E009C047E0491520F4BB2447E0942E0A
:10458000F7CF292DBB24C60104969D878C87F601A1
:104590006081718182819381AE014F5F5F4F0B2DEE
:1045A0000E94E7296C010981202E332400FF04C0FA
:1045B00003FD02C01DE209C0F1FE02C01BE205C0FE
:1045C000F2FC02C010E001C010E2C1018C709070DA
:1045D000892BB9F1112311F483E001C084E088151F
:1045E00010F088240AC0881AF3FC07C080E290E02B
:1045F000B3010E94D52A8A94C9F7112329F0812F8B
:1046000090E0B3010E94D52A23FE03C007ED13E01A
:104610000EC00BED13E00BC0E114F10409F0805261
:1046200090E0B3010E94D52A0F5F1F4F05C0EF2C09
:10463000FF24F0E1EF22FF24F8018491882361F741
:1046400014C1F7FE12C0BC0C24FE04C08A81813361
:1046500009F4BA941B141CF0BB24B3942DC0F8E0E9
:10466000FB1550F538E0B32E27C0F6FC25C0892D88
:1046700090E08C159D054CF02CEFC2162FEFD20662
:1046800024F030E8F32A01C09A94992049F0E2E03E
:10469000F0E0EC0FFD1FE90DF11D80818033A1F3E7
:1046A000F7FE0AC0B92CB394892D90E0C816D9063C
:1046B00014F0992401C09C18F7FC03C025E030E0F9
:1046C00009C01C141D041CF021E030E003C0960159
:1046D0002F5F3F4F112311F02F5F3F4F992029F09B
:1046E000892D90E00196280F391F882D90E028171A
:1046F000390714F0882401C0821A4F2C5524C201B6
:1047000089709070892B39F008C080E290E0B30185
:104710000E94D52A8A948820C1F7112329F0812F7D
:1047200090E0B3010E94D52A43FE07C008C080E391
:1047300090E0B3010E94D52A8A948820C1F7F7FE41
:1047400046C08601D7FE02C000E010E07601089462
:10475000E11CF11CE01AF10A41E050E04C0F5D1F32
:10476000E40EF51E26014B185108892D90E0AA246D
:10477000BB24A81AB90A5FEF0F3F150729F48EE290
:1047800090E0B3010E94D52AC016D10634F040163D
:1047900051061CF4F701808101C080E301501040F4
:1047A0000894E11CF11C0A151B052CF090E0B301E4
:1047B0000E94D52AE0CF0C151D0539F49A81963355
:1047C00018F4953311F424FE81E390E04BC08A8104
:1047D000813309F00F7E90E0B3010E94D52A992021
:1047E000A1F08EE290E0B3010E94D52A12E0E1E050
:1047F000F0E0EC0FFD1FE10FF11D1F5F808190E0E5
:10480000B3010E94D52A9A9491F744FC03C085E62F
:1048100090E002C085E490E0B3010E94D52AD7FC65
:1048200005C0C114D10441F404FF06C0D094C19462
:10483000D108D3948DE201C08BE290E0B3010E94D5
:10484000D52A80E305C08F5F26EF3FEFC20ED31E4F
:104850003AE0C316D104BCF790E0B3010E94D52A18
:10486000C601C096B3010E94D52ACC84DD8452C112
:10487000933631F0933799F0933509F059C023C03E
:10488000F601808189835E010894A11CB11C22E09D
:1048900030E0C20ED31E21E0E22EF12C12C0F60150
:1048A000A080B18016FD03C06FEF7FEF02C0692DBD
:1048B00070E022E030E0C20ED31EC5010E94CA2A79
:1048C0007C011F7713C0F601A080B18016FD03C0E4
:1048D0006FEF7FEF02C0692D70E022E030E0C20E82
:1048E000D31EC5010E94BF2A7C01106813FF07C0B8
:1048F0001BC080E290E0B3010E94D52A8A94882DE3
:1049000090E0E816F906A8F30FC0F50117FD8591B0
:1049100017FF81915F0190E0B3010E94D52A8110B9
:104920008A940894E108F108E114F10471F7F2C0E7
:10493000943611F0993689F517FF08C0F6012081E9
:1049400031814281538184E090E00AC0F601808188
:1049500091819C01442737FD4095542F82E090E0DF
:10496000C80ED91E9FE6F92EF12257FF09C05095B7
:104970004095309521953F4F4F4F5F4F90E8F92A72
:10498000CA01B901AE014F5F5F4F2AE030E00E94DB
:10499000562BE82EE889EE1A41C0953721F41F7E88
:1049A0002AE030E01CC0197F9F3661F0903720F478
:1049B000983509F0B2C00FC0903739F0983709F038
:1049C000ACC004C028E030E00AC0106114FD1460DF
:1049D00020E130E004C014FD166020E132E017FF52
:1049E00008C0F601608171818281938144E050E0CA
:1049F00008C0F60180819181BC0180E090E042E036
:104A000050E0C40ED51EAE014F5F5F4F0E94562B83
:104A1000E82E5889E51A8FE7F82EF122F6FE0BC032
:104A20008EEFF822E91438F4F4FE07C0F2FC05C05A
:104A30009FEEF92202C01E2D01C0192DF4FE0DC0FB
:104A4000FE01EE0DF11D8081803319F4E9EEFE22A6
:104A500008C01F5FF2FE05C003C08F2D867809F0E5
:104A60001F5F0F2DF3FC14C0F0FE0FC0181510F0DF
:104A70009E2C0BC09E2C980C911A182D06C080E21B
:104A800090E0B3010E94D52A1F5F1815C0F304C03F
:104A9000181510F4811A01C0882404FF0FC080E3A8
:104AA00090E0B3010E94D52A02FF1DC001FD03C0A2
:104AB00088E790E00EC088E590E00BC0802F8678F4
:104AC00091F001FF02C08BE201C080E2F7FC8DE2B1
:104AD00090E0B3010E94D52A06C080E390E0B301C4
:104AE0000E94D52A9A94E914C0F3EA94E1E0F0E038
:104AF000EC0FFD1FEE0DF11D808190E0B3010E94CF
:104B0000D52AEE2091F706C080E290E0B3010E9422
:104B1000D52A8A948820C1F799CCF30166817781E0
:104B2000CB016196E2E10C9452285058BB27AA278A
:104B30000ED0B1C1A2D130F0A7D120F031F49F3F07
:104B400011F41EF497C10EF4E095E7FB64C1E92F60
:104B5000B3D180F3BA17620773078407950718F07B
:104B600071F49EF5E2C10EF4E0950B2EBA2FA02D44
:104B70000B01B90190010C01CA01A0011124FF270A
:104B8000591B99F0593F50F4503E68F11A16F04005
:104B9000A22F232F342F4427585FF3CF4695379504
:104BA0002795A795F0405395C9F77EF41F16BA0BC9
:104BB000620B730B840BBAF09150A1F0FF0FBB1F77
:104BC000661F771F881FC2F70EC0BA0F621F731FC0
:104BD000841F48F4879577956795B795F7959E3F1D
:104BE00008F0B3CF9395880F08F09927EE0F9795AB
:104BF00087950895ECD008F481E008950CD04BC15E
:104C000043D140F03AD130F021F45F3F19F003C1B5
:104C100051118CC12FC150D198F39923C9F3552359
:104C2000B1F3951B550BBB27AA276217730784079F
:104C300038F09F5F5F4F220F331F441FAA1FA9F355
:104C400033D00E2E3AF0E0E830D091505040E69547
:104C5000001CCAF729D0FE2F27D0660F771F881FA8
:104C6000BB1F261737074807AB07B0E809F0BB0B97
:104C7000802DBF01FF2793585F4F2AF09E3F5105BB
:104C800068F0C9C053C15F3FECF3983EDCF38695F2
:104C900077956795B795F7959F5FC9F7880F911D31
:104CA0009695879597F90895E1E0660F771F881F1D
:104CB000BB1F621773078407BA0720F0621B730BD0
:104CC000840BBA0BEE1F88F7E095089504D0689422
:104CD000B1112CC10895F8D088F09F5790F0B92FEA
:104CE0009927B751A0F0D1F0660F771F881F991F41
:104CF0001AF0BA95C9F712C0B13081F016D1B1E0FF
:104D0000089513C1672F782F8827B85F39F0B93F0E
:104D1000CCF3869577956795B395D9F73EF4909542
:104D20008095709561957F4F8F4F9F4F0895E894C0
:104D300009C097FB3EF490958095709561957F4FE3
:104D40008F4F9F4F9923A9F0F92F96E9BB27939591
:104D5000F695879577956795B795F111F8CFFAF4A1
:104D6000BB0F11F460FF1BC06F5F7F4F8F4F9F4FD2
:104D700016C0882311F096E911C0772321F09EE830
:104D8000872F762F05C0662371F096E8862F70E096
:104D900060E02AF09A95660F771F881FDAF7880F70
:104DA0009695879597F90895A9D080F09F3740F49C
:104DB00091110EF0BBC060E070E080E89FEB0895B9
:104DC00026F41B16611D711D811D2BC045C0990F56
:104DD0000008550FAA0BE0E8FEEF16161706E807C5
:104DE000F907C0F012161306E407F50798F0621BE6
:104DF000730B840B950B39F40A2661F0232B242BBB
:104E0000252B21F408950A2609F4A140A6958FEFD9
:104E1000811D811D089597F99F6780E870E060E02B
:104E20000895882371F4772321F09850872B762FEB
:104E300007C0662311F499270DC09051862B70E0AE
:104E400060E02AF09A95660F771F881FDAF7880FBF
:104E50009695879597F908959F3F31F0915020F4EA
:104E6000879577956795B795880F911D9695879546
:104E700097F908959FEF80EC089500240A94161680
:104E8000170618060906089500240A941216130638
:104E9000140605060895092E0394000C11F48823C6
:104EA00052F0BB0F40F4BF2B11F460FF04C06F5FE2
:104EB0007F4F8F4F9F4F089557FD9058440F551FB8
:104EC00059F05F3F71F04795880F97FB991F61F08C
:104ED0009F3F79F087950895121613061406551F03
:104EE000F2CF4695F1DF08C0161617061806991F6F
:104EF000F1CF86957105610508940895E5DFA0F06E
:104F0000BEE7B91788F4BB279F3860F41616B11DA9
:104F1000672F782F8827985FF7CF869577956795C5
:104F2000B11D93959639C8F30895E894BB27662779
:104F30007727CB0197F908954ADF08F48FEF08959A
:104F40000BD0A9CF9ADF28F09FDF18F0952309F046
:104F500062CF90CF1124EACFAFDFA0F3959FD1F3BA
:104F6000950F50E0551F629FF001729FBB27F00D17
:104F7000B11D639FAA27F00DB11DAA1F649F66276C
:104F8000B00DA11D661F829F2227B00DA11D621FBB
:104F9000739FB00DA11D621F839FA00D611D221F75
:104FA000749F3327A00D611D231F849F600D211D59
:104FB000822F762F6A2F11249F5750408AF0E1F0FC
:104FC00088234AF0EE0FFF1FBB1F661F771F881F45
:104FD00091505040A9F79E3F510570F01CCFA6CFCD
:104FE0005F3FECF3983EDCF3869577956795B79530
:104FF000F795E7959F5FC1F7FE2B880F911D96955A
:10500000879597F9089560DFE0F09E37D8F09639DC
:10501000B8F49E3848F4672F782F8827985FF9CF27
:1050200086957795679593959539D0F3B62FB1709E
:105030006B0F711D811D20F487957795679593956A
:10504000F0CE0ACF73CF97FB092E07260AD077FD43
:1050500004D043D006D000201AF4709561957F4F9C
:105060000895F6F7909581959F4F08952F923F925E
:105070004F925F926F927F928F929F92AF92BF9268
:10508000CF92DF92EF92FF920F931F93CF93DF9314
:10509000CDB7DEB7CA1BDB0B0FB6F894DEBF0FBE71
:1050A000CDBF09942A88398848885F846E847D84BE
:1050B0008C849B84AA84B984C884DF80EE80FD80C0
:1050C0000C811B81AA81B981CE0FD11D0FB6F89436
:1050D000DEBF0FBECDBFED010895AA1BBB1B51E182
:1050E00007C0AA1FBB1FA617B70710F0A61BB70B58
:1050F000881F991F5A95A9F780959095BC01CD01FD
:105100000895CF93DF93BC018230910510F462E0E3
:1051100070E0A0911908B0911A08ED01E0E0F0E00C
:1051200040E050E021C0888199818617970769F493
:105130008A819B81309719F09383828304C0909376
:105140001A0880931908FE0134C06817790738F4EB
:105150004115510519F08417950708F4AC01FE01BB
:105160008A819B819C01E9012097E9F6411551054F
:10517000A9F1CA01861B970B049708F4BA01E0E075
:10518000F0E02AC08D919C91119784179507F9F44E
:105190006417750781F412968D919C91139730973F
:1051A00019F09383828304C090931A08809319089E
:1051B000FD0132964FC0CA01861B970BFD01E80F17
:1051C000F91F6193719302978D939C9343C0FD01E6
:1051D000828193819C01D9011097A1F680911708D3
:1051E00090911808892B41F480911703909118032E
:1051F00090931808809317084091190350911A034F
:105200004115510541F44DB75EB78091150390915A
:105210001603481B590B20911708309118082417C2
:105220003507B0F4CA01821B930B8617970780F0ED
:10523000AB014E5F5F4F8417950750F0420F531F2D
:105240005093180840931708F9016193719302C0B5
:10525000E0E0F0E0CF01DF91CF910895CF93DF93AD
:10526000009709F450C0EC0122971B821A82A0918A
:105270001908B0911A08109709F140E050E0AC17F6
:10528000BD0708F1BB83AA83FE0121913191E20F92
:10529000F31FAE17BF0779F48D919C911197280FDA
:1052A000391F2E5F3F4F3983288312968D919C9131
:1052B00013979B838A834115510571F4D0931A0883
:1052C000C093190820C012968D919C911397AD013F
:1052D000009711F0DC01D3CFFA01D383C28321916F
:1052E0003191E20FF31FCE17DF0769F488819981AE
:1052F000280F391F2E5F3F4FFA01318320838A81A7
:105300009B8193838283DF91CF910895A0E0B0E0E9
:10531000ECE8F9E20C943E28EC01A880B980CA8040
:10532000DB80A114B104C104D10441F484E2A82EAD
:1053300089EDB82E8BE5C82E87E0D82EC601B501C1
:105340002DE133EF41E050E00E94D32B27EA31E416
:1053500040E050E00E94B42B7B018C01C601B501F6
:105360002DE133EF41E050E00E94D32BCA01B90197
:105370002CEE34EF4FEF5FEF0E94B42B6E0D7F1DCC
:10538000801F911F97FF04C061507040804090487B
:10539000688379838A839B839B013F77C901CDB75B
:1053A000DEB7EAE00C945A280E94862908958BE122
:1053B00093E00E9486290895A0E0B0E080931B034B
:1053C00090931C03A0931D03B0931E0308952830EF
:1053D00008F027E03327DA01990F311D87FD91602E
:1053E00000966105710539F432602E5F3D9330E31C
:1053F0002A95E1F708959F3F30F0803871056105E7
:1054000009F03C5F3C5F3D93913008F08068911D4E
:10541000DF93CF931F930F93FF92EF92192F987FF3
:105420009695E92F96959695E90FFF27E75CFB4F38
:1054300099273327EE24FF24A701E701059008945C
:10544000079428F4360FE71EF81E491F511D660FFA
:10545000771F881F991F0694A1F70590079428F4D9
:10546000E70EF81E491F561FC11D770F881F991F91
:10547000661F0694A1F70590079428F4F80E491FBB
:10548000561FC71FD11D880F991F661F771F0694CF
:10549000A1F70590079420F4490F561FC71FD81F86
:1054A000990F661F771F881F0694A9F7849110959E
:1054B000177041F0D695C79557954795F794E7949F
:1054C0001A95C1F7EFEDF3E06894159015913591B9
:1054D0006591959105907FE27395E118F10A430B70
:1054E000560BC90BD009C0F7E10CF11E431F561F24
:1054F000C91FD01D7EF4703311F48A95E6CFE8946D
:10550000015030F0080F0AF40027021708F4202F8A
:105510002395022F7A3328F079E37D932A95E9F7D2
:1055200010C07D932A9589F60694979567953795CF
:1055300017951794E118F10A430B560BC90BD009C4
:1055400098F023957E9173957A3308F070E37C93FD
:105550002013B8F77E9170617D9330F0839571E3ED
:105560007D9370E32A95E1F71124EF90FF900F915E
:105570001F91CF91DF91992787FD90950895FC01A8
:105580000590615070400110D8F7809590958E0F6E
:105590009F1F0895FC016150704001900110D8F7E1
:1055A000809590958E0F9F1F08950F931F93CF9313
:1055B000DF938C01EB018B8181FF1BC082FF0DC04B
:1055C0002E813F818C819D812817390764F4E88101
:1055D000F9810193F983E88306C0E885F985802F76
:1055E0000995892B31F48E819F8101969F838E834B
:1055F00002C00FEF1FEFC801DF91CF911F910F91F4
:105600000895AEE0B0E0E7E0FBE20C9444280D8999
:105610001E898F89988D97FF02C080E090E80197DE
:105620009E838D831A83098386E08C839E01255E89
:105630003F4FCE010196698D7A8DA9010E940E22FD
:105640004D815E8157FD0AC02F813885421753076F
:105650000CF49A01020F131FF80110822E96E4E059
:105660000C946028AEE0B0E0E8E3FBE20C94442840
:105670000D891E8986E08C831A8309838FEF9FE74B
:105680009E838D839E01275E3F4FCE0101966F89D9
:10569000788DA9010E940E222F813885020F131FD9
:1056A000F80110822E96E4E00C946028FA01AA27F3
:1056B000283051F1203181F1E8946F936E7F6E5F55
:1056C0007F4F8F4F9F4FAF4FB1E03ED0B4E03CD003
:1056D000670F781F891F9A1FA11D680F791F8A1FE6
:1056E000911DA11D6A0F711D811D911DA11D20D04D
:1056F00009F468943F912AE0269F11243019305D07
:105700003193DEF6CF010895462F4770405D4193F7
:10571000B3E00FD0C9F7F6CF462F4F70405D4A3344
:1057200018F0495D31FD4052419302D0A9F7EACF0C
:10573000B4E0A6959795879577956795BA95C9F73B
:1057400000976105710508959B01AC010A2E06942E
:105750005795479537952795BA95C9F7620F731FE7
:10576000841F951FA01D0895629FD001739FF001B3
:10577000829FE00DF11D649FE00DF11D929FF00DE1
:10578000839FF00D749FF00D659FF00D9927729F18
:10579000B00DE11DF91F639FB00DE11DF91FBD01A3
:1057A000CF011124089597FB092E05260ED057FD31
:1057B00004D014D00AD0001C38F450954095309590
:1057C00021953F4F4F4F5F4F0895F6F79095809585
:1057D000709561957F4F8F4F9F4F0895A1E21A2ECC
:1057E000AA1BBB1BFD010DC0AA1FBB1FEE1FFF1F85
:1057F000A217B307E407F50720F0A21BB30BE40BD5
:10580000F50B661F771F881F991F1A9469F760951B
:105810007095809590959B01AC01BD01CF010895D5
:04582000F894FFCF2A
:1058240056616E65737361204C69006E3939363682
:10583400343633002564005A6F6D626965733A002B
:10584400466F6F643A0053636F72653A004C697631
:1058540065733A00253032640054696D653A003A44
:10586400000A000D0A2043757272656E742073631A
:105874006F72653A20000D0A204C697665732072B8
:10588400656D61696E696E673A20000D0A2054697E
:105894006D653A20000A0D47616D65206F7665726B
:1058A400000D0A5A6F6D62696573206665643A205B
:1058B400000D0A5A6F6D62696520636F6C6C6964D0
:1058C4006564207769746820666F6F64000D0A4E02
:1058D400756D626572206F66207A6F6D626965739B
:1058E4003A20000D0A466F6F6420696E20696E7657
:1058F400656E746F72793A20000D0A5A6F6D626991
:10590400657320737061776E696E6721000A476161
:105914006D6520506175736564000A0D506C617982
:105924006572206861732064696564000D0A204310
:1059340061757365206F662064656174683A200040
:10594400506C61796572206973206F666673637247
:1059540065656E00466F7262696464656E20626C90
:105964006F636B000D0A506C6179657220706F7300
:105974006974696F6E3A202800290D0A000A0D50D7
:105984006C61796572207265737061776E6564000D
:105994000A0D506C6179657220636F6C6C69646583
:1059A4006420776974682074726561737572650028
:1059B4000A47616D65206861732073746172746550
:1059C400640047414D45204F5645520053573220FD
:1059D400746F20717569740053573320746F20728B
:1059E400657374617274000A00050005000170702B
:1059F40020F8205088FFFFFFFFFFFF0000FFFF009B
:105A040000FFFF0000FE82BA929282FEC0C088A806
:105A1400F820205088130020002D00050013001FDB
:105A2400003500450020033F00010101010100E1B0
:105A3400000000000820001B080000010000000016
:00000001FF
