:100000000C947E040C949B040C949B040C949B0411
:100010000C949B040C949B040C949B040C949B04E4
:100020000C949B040C949B040C944C230C948723F9
:100030000C949B040C949B040C949B040C949B04C4
:100040000C949B040C949B040C949B040C949B04B4
:100050000C94B8040C949B040C949B040C94B10D68
:100060000C949B040C949B040C949B040C949B0494
:100070000C949B040C949B040C949B040C949B0484
:100080000C949B040C949B040C949B040C94A70963
:100090000C949B040C949B040C949B040C949B0464
:1000A0000C949B040C949B040C949B04E122DE2290
:1000B000DB22D822D522D222CF22CC22C922C622AC
:1000C000C322C022BD22BA22B722B422B122AE225C
:1000D000AB22A822A522A2229F229C22992296220C
:1000E000932290228D228A228722842281227E22BC
:1000F0007B227822752272226F226C22692266226C
:10010000632260225D225A225722542251224E221B
:100110004B224822452242223F223C2239223622CB
:10012000332230222D222A222722242221226E3914
:100130003936363436330056616E65737361204C40
:1001400069005A6F6D626965733A00466F6F643A71
:100150000054696D653A0053636F72653A004C69EB
:100160007665733A006E3939363634363300535774
:100170003320746F20726573746172740053573248
:1001800020746F2071756974003A0054696D653A86
:100190000053636F72653A0047414D45204F564505
:1001A00052000D0A5A6F6D62696573206665643A84
:1001B00020000A0D47616D65206F766572000D0A9B
:1001C000466F6F6420696E20696E76656E746F721B
:1001D000793A20000D0A4E756D626572206F6620B7
:1001E0007A6F6D626965733A20000D0A5A6F6D620D
:1001F000696520636F6C6C696465642077697468F5
:1002000020666F6F64000D0A4E756D626572206F17
:1002100066207A6F6D626965733A20000D0A5A6F25
:100220006D6269657320737061776E696E67210016
:10023000506C6179657220636F6C6C6964656420D1
:1002400077697468207A6F6D62696500506C6179B6
:100250006572206973206F666673637265656E00F0
:10026000466F7262696464656E20626C6F636B00D6
:100270000D0A466F6F6420696E20696E76656E7434
:100280006F72793A20000D0A4E756D626572206FAB
:1002900066207A6F6D626965733A20000A0D4761C6
:1002A0006D6520506175736564000A0D506C61794D
:1002B0006572207265737061776E6564000A0D5017
:1002C0006C6179657220636F6C6C6964656420771A
:1002D000697468207472656173757265000D0A2017
:1002E0004361757365206F662064656174683A20A8
:1002F000000A0D506C617965722068617320646931
:100300006564000D0A2043757272656E7420736314
:100310006F72653A20000D0A204C69766573207271
:10032000656D61696E696E673A20000D0A20546937
:100330006D653A20000A47616D652068617320731E
:10034000746172746564000D0A506C617965722085
:10035000706F736974696F6E3A20280088A8F8205E
:10036000205088C0C0FE82BA929282FEAAA0AABF84
:10037000000000000000005F0000000700070014FC
:100380007F147F14242A7F2A1223130864623649BB
:100390005522500005030000001C224100004122AC
:1003A0001C0014083E081408083E080800503000DD
:1003B0000008080808080060600000201008040217
:1003C0003E5149453E00427F40004261514946212D
:1003D00041454B311814127F1027454545393C4A99
:1003E00049493001710905033649494936064949E9
:1003F000291E00363600000056360000081422413F
:1004000000141414141400412214080201510906A6
:10041000324979413E7E1111117E7F494949363E6C
:10042000414141227F4141221C7F494949417F0985
:100430000909013E4149497A7F0808087F00417F48
:1004400041002040413F017F081422417F4040404D
:10045000407F020C027F7F0408107F3E4141413EF5
:100460007F090909063E4151215E7F091929464647
:100470004949493101017F01013F4040403F1F2070
:1004800040201F3F4038403F631408146307087042
:1004900008076151494543007F41410002040810AB
:1004A000200041417F0004020102044040404040DE
:1004B000000102040020545454787F4844443838E2
:1004C00044444420384444487F3854545418087EE7
:1004D0000901020C5252523E7F0804047800447D08
:1004E00040002040443D007F1028440000417F40F0
:1004F000007C041804787C080404783844444438A8
:100500007C14141408081414187C7C08040408488B
:1005100054545420043F4440203C4040207C1C2044
:1005200040201C3C4030403C44281028440C505093
:10053000503C4464544C44000836410000007F00A5
:100540000000413608001008081008784641467837
:10055000000100008405120002000096054300031C
:100560000000D9050401030904DD05140203090490
:10057000F30516030309040B060C0001C1120180E8
:10058000360181361201000202000010C0167A0402
:1005900000010102030109024300020100C0320907
:1005A00004000001020201000524001001052401DD
:1005B0000101042402060524060001070582031038
:1005C000004009040100020A000000070503024080
:1005D00000000705840240000004030904140359C5
:1005E000006F007500720020004E0061006D006514
:1005F0000000001603550053004200200053006520
:10060000007200690061006C0000000C03310032D0
:10061000003300340035000000000000000000003E
:100620005F00000007000700147F147F14242A7F56
:100630002A1223130864623649552250000503002C
:1006400000001C2241000041221C0014083E081436
:1006500008083E0808005030000008080808080094
:100660006060000020100804023E5149453E0042EF
:100670007F400042615149462141454B31181412D7
:100680007F1027454545393C4A49493001710905E4
:10069000033649494936064949291E0036360000C5
:1006A00000563600000814224100141414141400DB
:1006B000412214080201510906324979413E7E1156
:1006C00011117E7F494949363E414141227F4141D6
:1006D000221C7F494949417F090909013E41494995
:1006E0007A7F0808087F00417F41002040413F0198
:1006F0007F081422417F404040407F020C027F7FF0
:100700000408107F3E4141413E7F090909063E41F0
:1007100051215E7F09192946464949493101017F26
:1007200001013F4040403F1F2040201F3F403840D4
:100730003F63140814630708700807615149454373
:10074000007F41410002040810200041417F000465
:1007500002010204404040404000010204002054D5
:100760005454787F484444383844444420384444FE
:10077000487F3854545418087E0901020C525252D2
:100780003E7F0804047800447D40002040443D0042
:100790007F1028440000417F40007C041804787CCE
:1007A0000804047838444444387C141414080814A9
:1007B00014187C7C080404084854545420043F4412
:1007C00040203C4040207C1C2040201C3C403040CD
:1007D0003C44281028440C5050503C4464544C4431
:1007E000000836410000007F00000041360800107C
:1007F0000808100878464146786E616E00696E669A
:100800000000407A10F35A00A0724E18090010A59B
:10081000D4E80000E87648170000E40B540200001A
:10082000CA9A3B000000E1F50500008096980000A0
:100830000040420F000000A08601000000102700C9
:10084000000000E803000000006400000000000A4F
:1008500000000000000100000000002C76D888DCB9
:10086000674F0823DFC1DFAE59E1B1B796E5E3E496
:1008700053C63AE651997696E8E6C28426EB898C0F
:100880009B62ED407C6FFCEFBC9C9F40F2BAA56F71
:10089000A5F490055A2AF75C936B6CF9676DC11B40
:1008A000FCE0E40D47FEF520E6B500D0ED902E0308
:1008B00000943577050080841E080000204E0A0051
:1008C0000000C80C333333330F986E12831141EF9D
:1008D0008D2114893BE65516CFFEE6DB18D1844BFB
:1008E000381BF77C1D901DA4BBE424203284725E6B
:1008F000228100C9F124ECA1E53D270011241FBE8F
:10090000CFEFDAE0DEBFCDBF11E0A0E0B1E0E4E779
:10091000F5E602C005900D92A635B107D9F717E0AC
:10092000A6E5B1E001C01D92A731B107E1F70E9431
:10093000E1200C94B8320C94000087E880937A0090
:100940000895982F9F71906490937C00807280939B
:100950007B0080917A00806480937A0080917A0095
:1009600086FDFCCF2091780030917900C90108956F
:100970001F920F920FB60F9211248F939F93AF93F4
:10098000BF9380917A0190917B01A0917C01B091FD
:100990007D010196A11DB11D80937A0190937B0189
:1009A000A0937C01B0937D01BF91AF919F918F91F6
:1009B0000F900FBE0F901F901895AF92BF92CF92DD
:1009C000DF92EF92FF920F931F9360917A017091E3
:1009D0007B0180917C0190917D01E0908400F090FA
:1009E00085000E94382D20E030E040E857E40E9466
:1009F000412E5B016C0100E010E0C801B7010E94CC
:100A0000382D9B01AC01C601B5010E94372C20E0B6
:100A100030E040E852E40E94412E20E034E244EF0E
:100A20005AE40E949F2C1F910F91FF90EF90DF904E
:100A3000CF90BF90AF9008952F923F924F925F92C8
:100A40006F927F928F929F92AF92BF92CF92DF92DE
:100A5000EF92FF920F931F93DF93CF93CDB7DEB743
:100A60002E970FB6F894DEBF0FBECDBF81E00E9477
:100A7000A104A0E0B0E0BC01CD010E94382D7B01B3
:100A80008C0120E030E040E85FE30E949B2C88234B
:100A90002CF480E090E0A0E0B0E033C0C801B701E2
:100AA00020E030E040E85FE30E943D2E18167CF421
:100AB000C801B70120E030E040E853E40E949B2CDD
:100AC00088232CF48DEC9CECACECBDE31AC0C8017F
:100AD000B70120E030E040E853E40E943D2E1816B4
:100AE0000CF054C0C801B70120E030E040E054E40D
:100AF0000E949B2C88230CF049C08AE999E9A9E956
:100B0000BEE380930A0290930B02A0930C02B09371
:100B10000D0220907001309071016091350170914B
:100B200036012091390130913A01409137015091BD
:100B3000380180900A0290900B02A0900C02B090B5
:100B40000D02D501C401B05889839A83AB83BC835D
:100B5000A0E1B2E0BE87AD87CC24DD24CB01AA277B
:100B600097FDA095BA2F8D839E83AF83B887C90167
:100B7000AA2797FDA095BA2F89879A87AB87BC874C
:100B80002A01662457FC6094762C90C0C801B701F6
:100B900020E030E040E054E40E943D2E18167CF442
:100BA000C801B70120E030E040E454E40E949B2CEF
:100BB00088232CF480E090E0A0E0BFE3A2CFC8013E
:100BC000B70120E030E040E454E40E943D2E1816C6
:100BD0000CF09FCFC801B70120E030E040E854E4BA
:100BE0000E949B2C88230CF094CF83E393E3A3E330
:100BF000BFE387CFAD85BE851496ED90FD900D9136
:100C00001C9117976D817E818F8198850E943A2D66
:100C10009B01AC01C801B7010E949B2C882371F095
:100C200069857A858B859C850E943A2D9B01AC0154
:100C3000C801B7010E949B2C882339F4ED85FE85FD
:100C400080869186A286B38616C0C301B2010E9437
:100C50003A2D9B01AC01C801B7010E949B2C88234F
:100C600051F489819A81AB81BC81ED85FE858087B5
:100C70009187A287B387AD85BE856D917D918D915A
:100C80009C91139718962D913D914D915C911B97D6
:100C90000E94372CED85FE85608371838283938368
:100CA0000894C11CD11C7596FE87ED87C214D3042D
:100CB0000CF4A0CF2E960FB6F894DEBF0FBECDBFBA
:100CC000CF91DF911F910F91FF90EF90DF90CF9028
:100CD000BF90AF909F908F907F906F905F904F905C
:100CE0003F902F900895AF92BF92CF92DF92EF92F4
:100CF000FF920F931F93CF93DF93A0907001B0905A
:100D00007101C0E1D2E0CC24DD2429C0E880F98063
:100D10000A811B81C801B70120E030E048EA52E4B3
:100D20000E943D2E18162CF480E090E0A0E2B1EC79
:100D30000EC0C801B70120E030E040E251EC0E9453
:100D40009B2C882344F480E090E0A8EAB2E48883F6
:100D50009983AA83BB830894C11CD11C6596CA14CD
:100D6000DB04A4F2DF91CF911F910F91FF90EF90E0
:100D7000DF90CF90BF90AF9008950E941C050E9415
:100D80007306089580916A01882379F580911E0188
:100D9000882329F080E090E0A0E0BFE304C080E079
:100DA00090E0A0E0BFEB8093090590930A05A09323
:100DB0000B05B0930C0560910105709102058091BF
:100DC0000305909104052091090530910A05409191
:100DD0000B0550910C050E94372C60930105709310
:100DE000020580930305909304050895EF92FF9206
:100DF0000F931F93E0900105F09002050091030509
:100E000010910405C801B70120E030E040E050E057
:100E10000E949B2C882324F481E080931E010CC047
:100E2000C801B70120E030E04AE952E40E943D2EBB
:100E3000181614F410921E011F910F91FF90EF905D
:100E400008950E94F6060E94C20608958091090244
:100E5000882309F44AC020910E0230910F022A30F3
:100E6000310584F4809121019091220103979093A0
:100E700022018093210180911F01909120018055D2
:100E8000904013C0C9010A970A97D0F480912101BC
:100E900090912201039690932201809321018091E9
:100EA0001F0190912001805B9F4F909320018093C0
:100EB0001F012F5F3F4F30930F0220930E020895C2
:100EC0002431310591F48FE390E0909322018093D7
:100ED000210180E293E09093200180931F01109202
:100EE0000F0210920E021092090208956F927F92E3
:100EF0008F929F92AF92BF92CF92DF92EF92FF922A
:100F00000F931F93DF93CF93CDB7DEB728970FB61C
:100F1000F894DEBF0FBECDBF6D8C7E8C8F8C98A0F9
:100F2000E98CFA8C0B8D1C8D6AA570E0882777FD03
:100F30008095982F0E943A2D9B01AC01C401B3010A
:100F40000E94372C0E94072D5B016C0169A570E09F
:100F5000882777FD8095982F0E943A2D9B01AC0140
:100F6000C801B7010E94372C20E030E040E85FE381
:100F70000E94362C0E94072D78876F83C801B70125
:100F80000E94072D7E836D83BC82AB82C401B301B6
:100F90000E94072D7A83698329813A814B815C8184
:100FA0006D817E818F81988528960FB6F894DEBF7B
:100FB0000FBECDBFCF91DF911F910F91FF90EF90AA
:100FC000DF90CF90BF90AF909F908F907F906F9069
:100FD00008952F923F924F925F927F928F929F92AD
:100FE000AF92BF92CF92DF92EF92FF920F931F9337
:100FF000DF93CF93CDB7DEB768970FB6F894DEBF17
:101000000FBECDBFA0907001B0907101772400E0B9
:1010100010E01E010894211C311C91E1892E912CB5
:101020008C0E9D1E89E0482E512C4C0E5D1E87C0F3
:101030008DB79EB745970FB6F8949EBF0FBE8DBF74
:1010400085E190E0089FF001099FF00D189FF00DD9
:101050001124ADB7BEB71196E05FFD4F85E1019059
:101060000D928150E1F70E947607EDB7FEB77596B5
:101070000FB6F894FEBF0FBEEDBF298B3A8B4B8B9A
:101080005C8B6D8B7E8B8F8B988FD101F40188E008
:1010900001900D928150E1F7CB80DC80E980FA80ED
:1010A0008DB79EB745970FB6F8949EBF0FBE8DBF04
:1010B000ADB7BEB71196E6EBF3E085E101900D9276
:1010C0008150E1F70E947607EDB7FEB775960FB62F
:1010D000F894FEBF0FBEEDBF298B3A8B4B8B5C8B18
:1010E0006D8B7E8B8F8B988FD201F40188E00190FD
:1010F0000D928150E1F74B855C8569857A858F81FA
:10110000988502962D853E858217930744F08D8140
:101110009E8103972F8538892817390774F06E153B
:101120007F051CF4E416F50634F0C416D5062CF43D
:101130006C157D0514F4772473940F5F1F4F0A1507
:101140001B050CF475CF872D68960FB6F894DEBF9B
:101150000FBECDBFCF91DF911F910F91FF90EF9008
:10116000DF90CF90BF90AF909F908F907F905F90D7
:101170004F903F902F90089580910302882351F063
:1011800080916D01882319F010926D0103C081E0F8
:1011900080936C0180911605882351F080916C0139
:1011A000882319F010926C01089581E080936D01FD
:1011B00008953F924F925F926F927F928F929F928B
:1011C000AF92BF92CF92DF92EF92FF920F931F9355
:1011D000DF93CF93CDB7DEB768970FB6F894DEBF35
:1011E0000FBECDBFE0907001F0907101BB2400E014
:1011F00010E08CE290E08C0F9D1F382EA92E2E015E
:101200000894411C511C41E1C42ED12CCC0EDD1E92
:1012100035E1632E712C29E0822E912C8C0E9D1EBF
:1012200079C0EDB7FEB775970FB6F894FEBF0FBE45
:10123000EDBFADB7BEB71196832D9A2DFC0185E1A8
:1012400001900D928150E1F70E947607EDB7FEB74D
:1012500075960FB6F894FEBF0FBEEDBF298B3A8B83
:101260004B8B5C8B6D8B7E8B8F8B988FD201F601B5
:1012700088E001900D928150E1F78DB79EB74597B8
:101280000FB6F8949EBF0FBE8DBF069DF001079D5F
:10129000F00D169DF00D1124ADB7BEB71196E05FAD
:1012A000FD4F85E101900D928150E1F70E94760794
:1012B000EDB7FEB775960FB6F894FEBF0FBEEDBF43
:1012C000298B3A8B4B8B5C8B6D8B7E8B8F8B988FA6
:1012D000D401F60188E001900D928150E1F72B8155
:1012E0003C8189859A852817390791F48D859E85DB
:1012F00003972D813E812817390754F08F859889EF
:1013000003962F8138858217930714F0BB24B3947A
:101310000F5F1F4F0E151F050CF483CF8B2D6896A2
:101320000FB6F894DEBF0FBECDBFCF91DF911F91F6
:101330000F91FF90EF90DF90CF90BF90AF909F9074
:101340008F907F906F905F904F903F9008951F9285
:101350000F920FB60F9211248F939F93AF93BF9369
:1013600080917E0190917F01A0918001B0918101D7
:101370000196A11DB11D80937E0190937F01A093E2
:101380008001B0938101BF91AF919F918F910F9098
:101390000FBE0F901F9018952A9A2B9A08952A989D
:1013A0002B98089580917E0190917F01A0918001FA
:1013B000B09181010497A105B10558F02A9A2B9AA2
:1013C00010927E0110927F01109280011092810193
:1013D00008952A982B980895AF92BF92CF92DF92EA
:1013E000EF92FF920F931F93CF93DF93CCE9D4E05A
:1013F00000E010E055E1A52EB12C0F2EF0E0CF2E2D
:10140000F0E0DF2EF0E0EF2EF0E0FF2EF02D2DB714
:101410003EB7255130400FB6F8943EBF0FBE2DBFEA
:101420000A9DF0010B9DF00D1A9DF00D1124ADB732
:10143000BEB71196E856FB4F85E101900D928150A1
:10144000E1F70E94D9082DB73EB72B5E3F4F0FB68C
:10145000F8943EBF0FBE2DBF882389F56C817D8136
:101460008E819F8120E030E040E050E00E949B2C84
:10147000882309F065C0688579858A859B852AE976
:1014800039E949E95EE30E94372C688779878A87C2
:101490009B87CC82DD82EE82FF8220E030E040E854
:1014A0005FE30E943D2E18160CF04AC080E090E0E9
:1014B000A0E8BFE388879987AA87BB8741C0C88611
:1014C000D986EA86FB86688179818A819B8120E0C2
:1014D00030E040EE50E40E94372C0E94072D20910E
:1014E000350130913601621773072CF0C90102965D
:1014F00086179707C4F4209137013091380162179D
:1015000073072CF0C90102968617970764F420919F
:10151000390130913A016217730794F0C9010296BC
:10152000861797076CF027503040B901882777FD60
:101530008095982F0E943A2D688379838A839B83B4
:10154000688179818A819B81288539854A855B8577
:101550000E94372C688379838A839B830F5F1F4F98
:1015600065960530110509F052CFDF91CF911F919B
:101570000F91FF90EF90DF90CF90BF90AF900895C4
:101580002F923F924F925F926F927F928F929F9293
:10159000AF92BF92CF92DF92EF92FF920F931F9381
:1015A000CF93DF9360910A0270910B0280910C023D
:1015B00090910D022AE939E949E95EE30E94372C4E
:1015C0003B014C01C8E9D4E064E2C62E61E0D62EAE
:1015D000AA24BB241301240157FA509457F85094BD
:1015E0002DB73EB7255130400FB6F8943EBF0FBE21
:1015F0002DBF85E190E0A89EF001A99EF00DB89E58
:10160000F00D1124ADB7BEB71196E856FB4F85E13A
:1016100001900D928150E1F70E94D908EDB7FEB715
:1016200075960FB6F894FEBF0FBEEDBF882309F084
:1016300047C0E884F9840A851B85C801B70120E00A
:1016400030E040E050E00E949B2C882309F445C024
:10165000C801B70120E030E040E050E00E943D2E9C
:10166000181684F4688179818A819B8120E030E0BA
:1016700040E050E40E94362C688379838A839B8300
:10168000F6011082688579858A859B8520E030E0A7
:1016900040E050E00E949B2C8823FCF46881798113
:1016A0008A819B8120E030E040E050E40E94372CAA
:1016B000688379838A839B8321E0F60120830DC0B0
:1016C000F6018081882329F0688679868A869B8640
:1016D00004C0288639864A865B86688179818A813A
:1016E0009B81288539854A855B850E94372C6883D4
:1016F00079838A839B830894A11CB11C6596089406
:10170000C11CD11CF5E0AF16B10409F069CFDF911F
:10171000CF911F910F91FF90EF90DF90CF90BF90EE
:10172000AF909F908F907F906F905F904F903F9081
:101730002F9008956F927F928F929F92AF92BF9257
:10174000CF92DF92EF92FF920F931F93CF93DF938D
:10175000C8E9D4E00F2EF0E06F2EF0E07F2EF8EA1B
:101760008F2EF2E49F2EF02D0F2EF0E0AF2EF0E042
:10177000BF2EF0EACF2EF0ECDF2EF02DE880F980BE
:101780000A811B81C801B70120E030E044EA52E43D
:101790000E943D2E18162CF4A882B982CA82DB82E0
:1017A0000EC0C801B70120E030E040E850EC0E94D4
:1017B0009B2C882324F4688279828A829B82659696
:1017C00085E0C130D807D1F6DF91CF911F910F91FD
:1017D000FF90EF90DF90CF90BF90AF909F908F9051
:1017E0007F906F9008954F925F926F927F928F9249
:1017F0009F92AF92BF92CF92DF92EF92FF920F93A0
:101800001F93CF93DF9300911C0110911D01CCE930
:10181000D4E00F2EF0E04F2EF0E05F2EF0EE6F2EB2
:10182000F0EC7F2EF02D0F2EF0E08F2EF0E09F2EAB
:10183000F0E0AF2EF0E0BF2EF02D0F2EFDECCF2EFE
:10184000FCECDF2EFCE4EF2EFEE3FF2EF02D688192
:1018500079818A819B8120E030E040E452E40E945B
:101860003D2E181674F401501040488259826A8245
:101870007B8288869986AA86BB86CC82DD82EE82B0
:10188000FF82659685E0C530D80709F710931D01E2
:1018900000931C01DF91CF911F910F91FF90EF906A
:1018A000DF90CF90BF90AF909F908F907F906F9080
:1018B0005F904F9008952F923F924F925F926F9258
:1018C0007F928F929F92AF92BF92CF92DF92EF92D0
:1018D000FF920F931F93DF93CF93CDB7DEB7689737
:1018E0000FB6F894DEBF0FBECDBF209070013090D0
:1018F0007101E5E9CE2EE1E0DE2EAA24BB248DB7EE
:101900009EB745970FB6F8949EBF0FBE8DBF85E179
:1019100090E0A89EF001A99EF00DB89EF00D112454
:10192000ADB7BEB71196EB56FE4F85E101900D9213
:101930008150E1F70E947607EDB7FEB775960FB6B6
:10194000F894FEBF0FBEEDBF298B3A8B4B8B5C8B9F
:101950006D8B7E8B8F8B988FDE011196FE017196B9
:1019600088E001900D928150E1F74B805C806F80A0
:1019700078848D809E8078E1E72E72E0F72E00E07B
:1019800010E055C08DB79EB745970FB6F8949EBF2F
:101990000FBE8DBF85E190E0089FF001099FF00D1B
:1019A000189FF00D1124ADB7BEB71196E05FFD4F43
:1019B00085E101900D928150E1F70E947607EDB725
:1019C000FEB775960FB6F894FEBF0FBEEDBF298B1C
:1019D0003A8B4B8B5C8B6D8B7E8B8F8B988FDE0164
:1019E0001996FE01719688E001900D928150E1F701
:1019F00089859A8548165906A1F48F859889861598
:101A000097057CF08D859E858816990654F0F70120
:101A100080819181A281B381F60180879187A2871D
:101A2000B3870F5F1F4F85E190E0E80EF91E0215A6
:101A300013050CF4A7CFF601608171818281938137
:101A400020853185428553850E94372CF6016083BD
:101A50007183828393830894A11CB11C85E190E07B
:101A6000C80ED91E95E0A916B10409F048CF6896B2
:101A70000FB6F894DEBF0FBECDBFCF91DF911F919F
:101A80000F91FF90EF90DF90CF90BF90AF909F901D
:101A90008F907F906F905F904F903F902F90089520
:101AA0006F927F928F929F92AF92BF92CF92DF926E
:101AB000EF92FF920F931F93CF93DF93C5E9D1E08D
:101AC0000F2EF0E06F2EF0E07F2EF8EA8F2EF2E47A
:101AD0009F2EF02D0F2EF0E0AF2EF0E0BF2EF0E0A5
:101AE000CF2EF0ECDF2EF02DE880F9800A811B81EB
:101AF000C801B70120E030E044EB52E40E943D2EE3
:101B000018162CF4A882B982CA82DB820EC0C801E2
:101B1000B70120E030E040E051EC0E949B2C88238C
:101B200024F4688279828A829B82659681E0CE3F26
:101B3000D807D1F6DF91CF911F910F91FF90EF90D1
:101B4000DF90CF90BF90AF909F908F907F906F90DD
:101B500008955198219850982798209885988698AC
:101B600008951F920F920FB60F9211242F933F9357
:101B70004F938F939F934091560189B1869580FD35
:101B800009C020E030E08091170590911805873753
:101B9000910511F421E030E0440F4E71422B409347
:101BA0005601809156018F3121F481E080935701D5
:101BB00006C080915601882311F41092570140917C
:101BC00058011F9909C020E030E0809117059091DD
:101BD00018058337910511F421E030E0440F4E7170
:101BE000422B40935801809158018F3121F481E0BC
:101BF0008093590106C080915801882311F41092F6
:101C000059019091590180916401981749F0809190
:101C1000590110926401882319F081E080936401D6
:101C200040915A0183B1869580FD09C020E030E0E3
:101C300080911705909118058136910511F421E0E6
:101C400030E0440F4E71422B40935A0180915A016B
:101C50008F3121F481E080935B0106C080915A01AD
:101C6000882311F410925B0140915C01489909C0EE
:101C700020E030E080911705909118058436910599
:101C800011F421E030E0440F4E71422B40935C018F
:101C900080915C018F3121F481E080935D0106C069
:101CA00080915C01882311F410925D0140915E01E6
:101CB000189909C020E030E080911705909118052F
:101CC0008037910511F421E030E0440F4E71422B32
:101CD00040935E0180915E018F3121F481E0809319
:101CE0005F0106C080915E01882311F410925F01AC
:101CF00090915F0180916501981749F080915F0193
:101D000010926501882319F081E08093650180912C
:101D100060019FB1880F8E719295969596959170FE
:101D2000892B80936001809160018F3121F481E0E3
:101D30008093610106C080916001882311F41092A4
:101D40006101409162018FB182958695877080FD17
:101D500009C020E030E08091170590911805843784
:101D6000910511F421E030E0440F4E71422B409375
:101D70006201809162018F3121F481E080936301DF
:101D800006C080916201882311F410926301909142
:101D9000630180916601981749F080916301109268
:101DA0006601882319F081E0809366019F918F91ED
:101DB0004F913F912F910F900FBE0F901F9018954C
:101DC0009091610180918201981759F08091610191
:101DD0008093820110920602882319F081E080939B
:101DE00006028091590190918301891719F410928C
:101DF000FE010DC080915901891749F08091590168
:101E00001092FE01882319F081E08093FE018091F9
:101E10005901809383018091630190918401891716
:101E200019F4109207020DC080916301891749F0DF
:101E30008091630110920702882319F081E080935A
:101E40000702809163018093840190915F018091EA
:101E50008501981759F080915F0180938501109258
:101E60000802882319F081E08093080290915701BD
:101E700080918601981759F08091570180938601CF
:101E80001092CC03882319F081E08093CC039091C9
:101E90005B0180918701981759F080915B018093D5
:101EA000870110921605882319F081E080931605AA
:101EB00090915D0180918801981759F080915D01A2
:101EC0008093880110920302882319F081E08093A7
:101ED0000302089580910702882331F080916A01FE
:101EE00091E0892780936A010895292F332727FDE0
:101EF0003A952093BF008093CF0008950E94F2246A
:101F00008DEC93E067E371E00E946031AC0182E107
:101F100090E06BE070E020E00E94E9268DEC93E019
:101F20006EE271E00E946031AC0184E190E064E116
:101F300070E021E00E94E9260E940E270E944321C2
:101F4000882319F480E090E002C00E941E217E994F
:101F500003C08337910591F70E94DD040E94072D8D
:101F6000709300026093FF01882777FD8095982F7A
:101F70000E943A2D609372017093730180937401F3
:101F80009093750108950F931F93DF93CF93CDB76F
:101F9000DEB72F970FB6F894DEBF0FBECDBF00D0CF
:101FA00000D000D0EDB7FEB731968E010F5F1F4F06
:101FB000ADB7BEB712961C930E93119780E091E0D7
:101FC0009383828380911C0190911D01958384836A
:101FD0000E94DA318DB79EB706960FB6F8949EBF71
:101FE0000FBE8DBF8DEC93E062E471E00E94603122
:101FF000AC018AE090E069E270E021E00E94E9260D
:1020000082E390E069E270E0A80121E00E94E92605
:102010002F960FB6F894DEBF0FBECDBFCF91DF91E4
:102020001F910F9108950F931F93DF93CF93CDB717
:10203000DEB72F970FB6F894DEBF0FBECDBF00D02E
:1020400000D000D0EDB7FEB731968E010F5F1F4F65
:10205000ADB7BEB712961C930E93119780E091E036
:102060009383828380911A0190911B0195838483CD
:102070000E94DA318DB79EB706960FB6F8949EBFD0
:102080000FBE8DBF8DEC93E06BE471E00E94603178
:10209000AC018AE090E06FE170E021E00E94E92667
:1020A0008DE290E06FE170E0A80121E00E94E92656
:1020B0002F960FB6F894DEBF0FBECDBFCF91DF9144
:1020C0001F910F9108950F931F93DF93CF93CDB777
:1020D000DEB72F970FB6F894DEBF0FBECDBF00D08E
:1020E00000D000D0EDB7FEB731968E010F5F1F4FC5
:1020F000ADB7BEB712961C930E93119780E091E096
:102100009383828380916E0190916F019583848384
:102110000E94DA318DB79EB706960FB6F8949EBF2F
:102120000FBE8DBF8DEC93E067E571E00E946031DA
:10213000AC018AE090E06BE070E021E00E94E926CB
:102140008DE290E06BE070E0A80121E00E94E926BA
:102150002F960FB6F894DEBF0FBECDBFCF91DF91A3
:102160001F910F9108950F931F93DF93CF93CDB7D6
:10217000DEB72F970FB6F894DEBF0FBECDBF00D0ED
:1021800000D000D0EDB7FEB731968E010F5F1F4F24
:10219000ADB7BEB712961C930E93119780E091E0F5
:1021A0009383828380911801909119019583848390
:1021B0000E94DA318DB79EB706960FB6F8949EBF8F
:1021C0000FBE8DBF8DEC93E06EE571E00E94603133
:1021D000AC018AE090E061E070E021E00E94E92635
:1021E0008DE290E061E070E0A80121E00E94E92624
:1021F0002F960FB6F894DEBF0FBECDBFCF91DF9103
:102200001F910F9108954F925F926F927F928F92DC
:102210009F92AF92BF92CF92DF92EF92FF920F9375
:102220001F93DF93CF93CDB7DEB76E970FB6F894B9
:10223000DEBF0FBECDBF0091B4031091B503C8013E
:102240006CE370E00E94C42E882777FD8095982F5C
:102250000E943A2D0E94752D3B014C01C8016CE390
:1022600070E00E94C42EAA2797FDA095BA2FBC014A
:10227000CD010E943A2D0E94752D5B016C0100D0AA
:1022800000D000D00DB71EB70F5F1F4F2E0108946E
:10229000411C511CEDB7FEB752824182B3E0EB2ED8
:1022A000B1E0FB2EF801F382E282C401B3010E9487
:1022B000072DF801758364830E94DA310DB71EB7CC
:1022C0000F5F1F4FA0E18A2E912C8C0E9D1EEDB743
:1022D000FEB792828182F801F382E282C601B501E3
:1022E0000E94072DF801758364830E94DA318DB74F
:1022F0009EB706960FB6F8949EBF0FBE8DBF8DECAD
:1023000093E061E571E00E946031AC018AE090E009
:1023100065E170E021E00E94E9268DE290E065E150
:1023200070E0A20121E00E94E92687E390E065E1E8
:1023300070E048E051E021E00E94E9268BE390E064
:1023400065E170E0A40121E00E94E9266E960FB6D7
:10235000F894DEBF0FBECDBFCF91DF911F910F91DB
:10236000FF90EF90DF90CF90BF90AF909F908F90B5
:102370007F906F905F904F900895EF92FF920F9330
:102380001F9348C0109208020E944321882339F00D
:102390000E941E21909396048093950404C010928D
:1023A0009604109295040E94E00E0E94F2240E946E
:1023B000B3100E9463100E9403110E9413100E9428
:1023C000C30F0E940E2780910802882339F4809160
:1023D00095049091960480379105E1F40E94DD0404
:1023E0007B018C016091B4037091B503882777FD60
:1023F0008095982F0E943A2D9B01AC01C801B7012E
:102400000E94362C0E94072D709300026093FF01FA
:102410001092680180916801882309F0B3CF1F9161
:102420000F91FF90EF900895CF92DF92EF92FF927D
:102430000F931F93CF93DF9380911C0190911D0107
:1024400018161906CCF110927701109276010E94AD
:10245000DD04609372017093730180937401909313
:10246000750185E090E090931D0180931C01C8E9FF
:10247000D4E00BE311E00F2EF0E0CF2EF0E0DF2EE2
:10248000F0E0EF2EF0E0FF2EF02DC886D986EA8628
:10249000FB86F801619171918F01882777FD809506
:1024A000982F0E943A2D688379838A839B8365964F
:1024B000F5E0C130DF0749F70E94DD047B018C01A4
:1024C0006091720170917301809174019091750116
:1024D0000E94752D9B01AC01C801B7010E94362CEA
:1024E0000E94072D6330710524F081E080939704EA
:1024F00002C010929704635070406830710568F410
:1025000081E08093CB0380917601909177010196D1
:10251000909377018093760102C01092CB03DF91F4
:10252000CF911F910F91FF90EF90DF90CF90089582
:102530000F931F93CF93DF9300E112E0C0E0D0E050
:1025400006C0C8010E94CF2F21960B5E1F4F8091BD
:10255000700190917101C817D9079CF3C0E0D0E0D9
:10256000CE018B569E4F0E94CF2FCE0188569B4F97
:102570000E94CF2F6596C936D10591F786EB93E07F
:102580000E94CF2F81E095E00E94CF2FDF91CF9165
:102590001F910F9108951F93E1E6F0E080E880839A
:1025A00011E010830E94A90D87E880937A008FE3E1
:1025B0000E9442270E94732714BC84E085BD1093BB
:1025C0006E001092800093E09093810010936F0052
:1025D0001092900082E0809391001093710090938C
:1025E000BF008FEF8093D10082E88093C0003F9AB4
:1025F00087E08093C1001092C3007894229A239AB6
:102600002A982B980E9402211F9108950F931F93DF
:10261000CF93DF9300E112E0C0E0D0E006C0C80134
:102620000E94012821960B5E1F4F809170019091AE
:102630007101C817D9079CF3DF91CF911F910F91BA
:102640000895CF93DF93C8E9D4E0CE010E9401281A
:10265000659685E0C130D807C1F7DF91CF91089525
:10266000CF93DF93C5E9D1E0CE010E9401286596A2
:1026700081E0CE3FD807C1F7DF91CF9108950E9446
:10268000F2240E94061386EB93E00E94012881E069
:1026900095E00E9401280E9430130E9421130E949D
:1026A0000E2708958F929F92AF92BF92CF92EF9292
:1026B000FF920F931F93CF93DF93ABE38A2EA1E09A
:1026C0009A2EC8E9D4E0F401619171914F018827F5
:1026D00077FD8095982F0E943A2D7B018C018CE527
:1026E00093E067E070E00E94B8275C01CE01B8017A
:1026F000A70100E010E020EE30ECF5E0EF2EE7E07F
:10270000CE2E0E94D9276596F5E48F16F1E09F063C
:10271000D1F6DF91CF911F910F91FF90EF90CF9065
:10272000BF90AF909F908F900895AF92BF92CF923D
:10273000EF920F931F93CF93DF93C5E9D1E083E628
:1027400093E062E070E00E94B8275C01CE0140E0B7
:1027500050E062EA72E400E010E020E030E0E2E005
:10276000EE2EB2E0CB2E0E94D9271A8A659681E020
:10277000CE3FD80721F7DF91CF911F910F91EF90B6
:10278000CF90BF90AF900895AF92BF92CF92EF924B
:102790000F931F9385E693E067E070E00E94B827EF
:1027A0005C0181E095E040E050E060E070E000E036
:1027B00010E028E132E4A7E0EA2EF7E0CF2E0E94F5
:1027C000D9271F910F91EF90CF90BF90AF900895B0
:1027D000AF92BF92CF92DF92EF92FF920F931F932F
:1027E0008091700190917101019725E130E0829F05
:1027F000F001839FF00D929FF00D1124E05FFD4FDB
:10280000C080D180E280F380648175818681978168
:1028100020E030E040E051E40E94362C8B019C0126
:1028200086EB93E0B701A601F6E0EF2EE8E0CE2EAE
:10283000B9E2AB2EB1E0BB2E0E94D9271F910F91B8
:10284000FF90EF90DF90CF90BF90AF900895809170
:10285000180190911901181619061CF481E0809353
:1028600009020E94E81310926C0110926D01089504
:10287000AF92BF92CF92EF920F931F93209170016E
:102880003091710185E190E0AC01249FC001259F4A
:10289000900D349F900D1124805F9D4F40E050E0DB
:1028A00064E972E400E010E020E131E4EAE0EE2EB9
:1028B000B2E0CB2EA1E3AA2EA1E0BA2E0E94D92726
:1028C00080917001909171010196909371018093B4
:1028D00070011F910F91EF90CF90BF90AF9008952E
:1028E0002F923F924F925F926F927F928F929F9220
:1028F000AF92BF92CF92DF92EF92FF920F931F930E
:10290000DF93CF9300D000D000D0CDB7DEB7809159
:1029100070019091710144970CF0CDC0A5E34A2E4F
:10292000A1E05A2E80918400909185000E947D3014
:102930001C821B821A8219821E821D822224332449
:102940004D815E814630510551F489819A81892BF0
:1029500009F49BC0EB81FC81EF2B09F496C00E9427
:102960007830AA2797FDA095BA2FBC01CD010E940F
:102970003A2D20E03EEF4FEF56E40E949F2C23E3D8
:1029800033E343EB5EE30E949B2C87FD7EC00E94F5
:10299000783010E0AA2797FDA095BA2FBC01CD0191
:1029A0000E943A2D20E03EEF4FEF56E40E949F2C0C
:1029B0002DEC3CEC4CE45EE30E943D2E181644F4F2
:1029C00011E049815A814F5F5F4F5A83498305C0A7
:1029D0008B819C8101969C838B83B101882777FD35
:1029E0008095982F0E943A2D6B017C01F201608145
:1029F0007181882777FD8095982F0E943A2D3B01A1
:102A00004C0120917001309171011123C1F045E119
:102A100050E0249FC001259F900D349F900D1124FC
:102A2000805F9D4FA601B70183019401FAE0EF2E6C
:102A3000E2E0CE2EB1E3AB2EB1E0BB2E1BC085E1B0
:102A400090E0289F8001299F100D389F100D1124C0
:102A5000005F1D4F8CE693E064E070E00E94B827B1
:102A60005C01C801A601B70183019401AAE0EA2E26
:102A7000F2E0CF2E0E94D9278091700190917101D0
:102A800001969093710180937001ED81FE813196E2
:102A9000FE83ED834CE050E0240E351E379709F09D
:102AA0004FCF82E090E0480E591E9BE3491691E01B
:102AB000590609F037CF26960FB6F894DEBF0FBE41
:102AC000CDBFCF91DF911F910F91FF90EF90DF90DD
:102AD000CF90BF90AF909F908F907F906F905F90BE
:102AE0004F903F902F900895FF920F931F93CF9395
:102AF000DF938C01EB01F42E8035910580F577FD95
:102B00002EC0693271055CF580E060E20E942127E9
:102B1000602F606880E00E942127CF77D070B3E0FB
:102B2000D595C795BA95E1F7CE018064682F80E00E
:102B30000E94212785E0F89EC00111248C010053DA
:102B40001D4FEC01CB59D040C059DC4F81E060E013
:102B50000E9421270F5F1F4F0C171D07B9F7DF9148
:102B6000CF911F910F91FF900895DF92EF92FF9206
:102B70000F931F93CF93DF93EC017B01D22E8A0139
:102B800006C0CE01B7012D2D0E9474152596F801BF
:102B900041918F014423A9F7DF91CF911F910F91AC
:102BA000FF90EF90DF900895EF92FF920F931F93A5
:102BB000CF93DF938C01EB01F42EE22E803591054B
:102BC00088F577FD2FC06932710564F580E060E219
:102BD0000E942127602F606880E00E942127CF7724
:102BE000D07013E0D595C7951A95E1F7CE018064B2
:102BF000682F80E00E94212785E0F89EC001112403
:102C0000EC01C053DD4F8C010B521D4FFE0164914E
:102C1000EE2009F4609581E00E9421272196C017DB
:102C2000D107A1F7DF91CF911F910F91FF90EF9006
:102C30000895DF92EF92FF920F931F93CF93DF934C
:102C4000EC017B01D22E8A0106C0CE01B7012D2DE9
:102C50000E94D4152596F80141918F014423A9F7CC
:102C6000DF91CF911F910F91FF90EF90DF9008952A
:102C70000F931F93609123010AE011E084E190E03B
:102C800070E0A80121E00E94B5158091230190E039
:102C900001966CE470E00E94C42E682F809323019B
:102CA00084E190E070E0A80121E00E9419161F91D4
:102CB0000F910895DC010D900020E9F71197A81BF2
:102CC000B90BBD010E94D32108950F931F932DB717
:102CD0003EB7285030400FB6F8943EBF0FBE2DBF10
:102CE000EDB7FEB7319609E811E0ADB7BEB7129661
:102CF0001C930E93119728E030E03383228320E069
:102D000031E035832483978386830E94A9312DB7D0
:102D10003EB7285F3F4F0FB6F8943EBF0FBE2DBFA2
:102D2000C8010E945A161F910F9108958DEC93E0EF
:102D300063E073E00E9460310E945A1680916E0138
:102D400090916F010E94651608958DEC93E066E105
:102D500073E00E9460310E945A1680911801909190
:102D600019010E9465160895AF92BF92CF92DF922B
:102D7000EF92FF920F931F930E94DD040E94072D94
:102D80007B018C01CB016CE370E00E94C42E88278C
:102D900077FD8095982F0E943A2D0E94752D5B013A
:102DA0006C01C7016CE370E00E94C42EAA2797FD56
:102DB000A095BA2FBC01CD010E943A2D0E94752D1D
:102DC0007B018C018DEC93E06BE273E00E9460313B
:102DD0000E945A16C601B5010E94072DDC01CB01E5
:102DE0000E94651688E091E00E945A16C801B7015A
:102DF0000E94072DDC01CB010E9465161F910F91E7
:102E0000FF90EF90DF90CF90BF90AF9008950F9319
:102E10001F930DEC13E0C80162EB71E00E9460317A
:102E20000E945A160E94A5160E9496160E94B41679
:102E3000C80162EA71E00E9460310E945A168091D6
:102E40007801909179010E9465161F910F91089564
:102E50000F931F930DEC13E0C8016AEE71E00E941E
:102E600060310E945A16C80164ED71E00E94603121
:102E70000E945A1680911C0190911D010E946516B6
:102E8000C8016EEB71E00E9460310E945A16809179
:102E90001A0190911B010E9465160E94B4161F91A1
:102EA0000F9108952F923F924F925F926F927F926F
:102EB0008F929F92AF92BF92CF92DF92EF92FF924A
:102EC0000F931F93DF93CF93CDB7DEB768970FB6FD
:102ED000F894DEBF0FBECDBF8CE9882E84E0982E1B
:102EE000AA24BB248DB79EB745970FB6F8949EBF12
:102EF0000FBE8DBFA5E1B0E0AA9EF001AB9EF00D24
:102F0000BA9EF00D1124ADB7BEB71196E856FB4F2F
:102F100085E101900D928150E1F70E947607EDB7AF
:102F2000FEB775960FB6F894FEBF0FBEEDBF298BA6
:102F30003A8B4B8B5C8B6D8B7E8B8F8B988FDE01EE
:102F40001196FE01719688E001900D928150E1F793
:102F50004D805E806F8078842B803C8005E9E02E78
:102F600001E0F02ECC24DD2493C08DB79EB74597A9
:102F70000FB6F8949EBF0FBE8DBFA5E1B0E0CA9E0C
:102F8000F001CB9EF00DDA9EF00D1124ADB7BEB767
:102F90001196EB56FE4F85E101900D928150E1F7BD
:102FA0000E947607EDB7FEB775960FB6F894FEBF90
:102FB0000FBEEDBF298B3A8B4B8B5C8B6D8B7E8B61
:102FC0008F8B988FDE011996FE01719688E0019033
:102FD0000D928150E1F72D853E858B859C852816C5
:102FE000390609F04EC08F8598896816790624F055
:102FF0002415350544F445C0241535050CF441C0AD
:1030000062167306F4F180E090E0A2EAB2E4F70100
:1030100080839183A283B38380E090E0A0E0B0E05E
:1030200084839583A683B783128A0F5F1F4F109303
:103030001B0100931A0180E090E0A0EEB0ECF401D7
:1030400080839183A283B38380911C0190911D01A1
:10305000019790931D0180931C0180916E019091C6
:103060006F010A9690936F0180936E010E9428175A
:1030700080917801909179010196909379018093E4
:1030800078010894C11CD11C85E190E0E80EF91E7E
:1030900000911A0110911B01C016D1060CF465CFE6
:1030A0000894A11CB11CA5E1B0E08A0E9B1EB5E0FE
:1030B000AB16B10409F016CF68960FB6F894DEBFD0
:1030C0000FBECDBFCF91DF911F910F91FF90EF9079
:1030D000DF90CF90BF90AF909F908F907F906F9038
:1030E0005F904F903F902F9008950F931F930DEC9A
:1030F00013E0C8016CE172E00E9460310E945A1630
:10310000C80166E072E00E9460310E945A16809108
:103110001C0190911D010E9465160E94B4160E9428
:10312000A5160E9496161F910F9108950E941412E1
:1031300080919704882311F00E94EC098091CB03C1
:10314000882319F00E94D20902C02A982B988091F6
:10315000760190917701019711F40E9475180E94F1
:103160009A0B0E94F30B0E94C00A0E945217089506
:103170000F931F930DEC13E0C8016CE972E00E94FD
:1031800060310E945A160E94A5160E9496160E944F
:10319000B416C80166E872E00E9460310E945A16B7
:1031A00080911C0190911D010E946516C80160E785
:1031B00072E00E9460310E945A1680911A0190912B
:1031C0001B010E9465161F910F910895EF92FF92C7
:1031D0000F931F93809108028823F9F00E94B8187A
:1031E00081E0809368010E94DD047B018C01609185
:1031F000FF0170910002882777FD8095982F0E942B
:103200003A2D9B01AC01C801B7010E94362C0E94E7
:10321000072D7093B5036093B4031F910F91FF9036
:10322000EF900895EF92FF920F931F937C010DECA6
:1032300013E0C80161EF72E00E9460310E945A16EB
:10324000C8016DED72E00E9460310E945A16C701FC
:103250000E945A160E94A5160E9496160E94B41645
:103260001F910F91FF90EF9008954F925F926F9290
:103270007F928F929F92AF92BF92CF92DF92EF9206
:10328000FF920F931F93DF93CF93CDB7DEB768976D
:103290000FB6F894DEBF0FBECDBF00E010E02E01E8
:1032A0000894411C511C31E1A32EB12CAC0EBD1E63
:1032B00025E1622E712C99E0892E912C8C0E9D1E99
:1032C0008DB79EB745970FB6F8949EBF0FBE8DBFC2
:1032D000ADB7BEB71196E6EBF3E085E101900D9234
:1032E0008150E1F70E947607EDB7FEB775960FB6ED
:1032F000F894FEBF0FBEEDBF298B3A8B4B8B5C8BD6
:103300006D8B7E8B8F8B988FD201F50188E00190B9
:103310000D928150E1F7EF80F884CD80DE808DB78B
:103320009EB745970FB6F8949EBF0FBE8DBF069D02
:10333000F001079DF00D169DF00D1124ADB7BEB73D
:103340001196E856FB4F85E101900D928150E1F70F
:103350000E947607EDB7FEB775960FB6F894FEBFDC
:103360000FBEEDBF298B3A8B4B8B5C8B6D8B7E8BAD
:103370008F8B988FD401F50188E001900D928150D8
:10338000E1F749855A852F8538898D859E858C156D
:103390009D051CF0E816F90634F4E216F30604F174
:1033A0002C153D05ECF089819A8148175907C4F026
:1033B0008B819C81841795079CF0809118019091D6
:1033C0001901019790931901809318018DEC93E0F6
:1033D00060E372E00E9460310E9412190E9427147B
:1033E0000F5F1F4F0530110509F06ACF68960FB6C1
:1033F000F894DEBF0FBECDBFCF91DF911F910F912B
:10340000FF90EF90DF90CF90BF90AF909F908F9004
:103410007F906F905F904F900895DF93CF93CDB7DB
:10342000DEB760970FB6F894DEBF0FBECDBF8DB785
:103430009EB745970FB6F8949EBF0FBE8DBFADB730
:10344000BEB71196E6EBF3E085E101900D92815055
:10345000E1F70E947607EDB7FEB775960FB6F894C0
:10346000FEBF0FBEEDBF29873A874B875C876D870C
:103470007E878F87988BDE011196FE01399688E052
:1034800001900D928150E1F78B819C81C1976CF482
:1034900089819A8197FD09C08D819E8197FD05C024
:1034A0008F819885853591059CF0809118019091C8
:1034B0001901019790931901809318018DEC93E005
:1034C0006CE472E00E9460310E9412190E9427147D
:1034D00060960FB6F894DEBF0FBECDBFCF91DF91DF
:1034E00008952F923F924F925F926F927F928F92A8
:1034F0009F92BF92CF92DF92EF92FF920F931F9312
:10350000DF93CF93CDB7DEB768970FB6F894DEBFE1
:103510000FBECDBF73E2C72E72E0D72EBB24EE24C0
:10352000FF2465E1262E312C2E010894411C511CEC
:1035300051E1852E912C8C0E9D1E49E0642E712C3C
:103540006C0E7D1EADC08DB79EB745970FB6F89433
:103550009EBF0FBE8DBFE29CF001E39CF00DF29C7C
:10356000F00D1124ADB7BEB71196E05FFD4F85E1B8
:1035700001900D928150E1F70E947607EDB7FEB7FA
:1035800075960FB6F894FEBF0FBEEDBF298B3A8B30
:103590004B8B5C8B6D8B7E8B8F8B988FD201F40164
:1035A00088E001900D928150E1F709811A818DB771
:1035B0009EB745970FB6F8949EBF0FBE8DBFADB7AF
:1035C000BEB71196E6EBF3E085E101900D928150D4
:1035D000E1F70E947607EDB7FEB775960FB6F8943F
:1035E000FEBF0FBEEDBF298B3A8B4B8B5C8B6D8B77
:1035F0007E8B8F8B988FD301F40188E001900D9220
:103600008150E1F78B859C858017910709F041C0B7
:103610008F81988505962F85388982179307CCF17D
:103620008D819E8105972D853E85281739078CF160
:10363000F6018081918181539140C1F4F09205029D
:10364000E092040208501040B801882777FD809569
:10365000982F0E943A2D6093BA037093BB03809316
:10366000BC039093BD03BB24B39413C08091180195
:1036700090911901019790931901809318018DEC95
:1036800093E060E672E00E9460310E9412190E948D
:1036900027140894E11CF11C85E190E0C80ED91EA6
:1036A0008091700190917101E816F9060CF44BCFEE
:1036B0008B2D68960FB6F894DEBF0FBECDBFCF91AD
:1036C000DF911F910F91FF90EF90DF90CF90BF900F
:1036D0009F908F907F906F905F904F903F902F9032
:1036E0000895EF92FF920F931F93DF93CF93CDB77F
:1036F000DEB72A970FB6F894DEBF0FBECDBF0E948B
:10370000711A982F27EA31E0AE014F5F5F4FE0E07A
:10371000F0E0D9018C91882319F4DA01ED93FC9340
:1037200031962B5E3F4F4E5F5F4FE530F10589F7D5
:10373000E0901A01F0901B01EE19FF09EE0FFF1F38
:10374000EC0FFD1F218132818091FE01882309F455
:103750004AC01E141F040CF046C0992309F443C04C
:1037600085E190E0289F8001299F100D389F100D62
:1037700011240B561E4F6091B6037091B7038091D0
:10378000B8039091B90320E030E040E050E40E949B
:10379000372CF80160837183828393836091BA032D
:1037A0007091BB038091BC039091BD0320E030E099
:1037B00040E051E40E94372C20E030E040E050E44B
:1037C0000E94362CD80114966D937D938D939C9313
:1037D000179781E052968C930894E108F108F092D3
:1037E0001B01E0921A012A960FB6F894DEBF0FBEB5
:1037F000CDBFCF91DF911F910F91FF90EF90089572
:103800000E94711B0E945B0C0E94500D08950E9443
:10381000711A882379F56091C2037091C303809176
:10382000C4039091C5032DEC3CEC4CE45EE30E9494
:10383000372C6093C2037093C3038093C4039093A7
:10384000C50320E030E040E85FE30E943D2E1816FB
:1038500064F480E090E0A0E8BFE38093C20390931B
:10386000C303A093C403B093C50310926C011092DC
:103870006D010CC080E090E0A0E0B0E08093C20356
:103880009093C303A093C403B093C5036091BA039C
:103890007091BB038091BC039091BD032091C20342
:1038A0003091C3034091C4035091C5030E94372C4B
:1038B0006093BA037093BB038093BC039093BD03E2
:1038C0000895DF92EF92FF920F931F930E94711A57
:1038D000D82E0E94E907882341F1E090BE03F090C2
:1038E000BF030091C0031091C103C801B70120E0DC
:1038F00030E040E050E00E943D2E181654F0C80120
:10390000B70120E030E040E050E00E949B2C88238B
:1039100064F480E090E0A0E0B0E08093BE03909378
:10392000BF03A093C003B093C1038091CC0388234D
:1039300031F1DD2009F465C08AE999E9A9E0B0EC2C
:103940008093C2039093C303A093C403B093C503B1
:103950006091BA037091BB038091BC039091BD0349
:103960002AE939E949E050E40E94362C6093BA0311
:103970007093BB038093BC039093BD0303C0DD2011
:1039800009F43FC06091BA037091BB038091BC03FE
:103990009091BD0320E030E040E051E40E94372CDC
:1039A0000E94072D809135019091360168177907A3
:1039B00039F08091390190913A016817790749F4FB
:1039C00080910A0290910B02A0910C02B0910D021D
:1039D00010C080913701909138016817790789F4F8
:1039E00080910A0290910B02A0910C02B0910D02FD
:1039F000B0588093BE039093BF03A093C003B093CD
:103A0000C10380916C01882379F16091BA037091B0
:103A1000BB038091BC039091BD0320E030E040E007
:103A200051E40E94372C7B018C0160913701709129
:103A30003801882777FD8095982F0E943A2D9B01A9
:103A4000AC01C801B7010E949B2C60910A027091E1
:103A50000B0280910C0290910D0220E030E040E0DA
:103A60005FE30E94372C33C080916D018823B9F148
:103A70006091BA037091BB038091BC039091BD0328
:103A800020E030E040E051E40E94372C7B018C01C3
:103A90006091370170913801882777FD8095982FC4
:103AA0000E943A2D9B01AC01C801B7010E949B2CDA
:103AB00060910A0270910B0280910C0290910D02AC
:103AC00020E030E040E05FE30E94372C90586093A4
:103AD000BE037093BF038093C0039093C1036091B2
:103AE000B6037091B7038091B8039091B903209108
:103AF000BE033091BF034091C0035091C1030E94A7
:103B0000372C6093B6037093B7038093B8039093F8
:103B1000B9031F910F91FF90EF90DF9008950E94DD
:103B2000711A8823C1F0209104023091050280911E
:103B3000190590911A052817390769F030931A056D
:103B40002093190580916E0190916F0101969093D9
:103B50006F0180936E0108958DEC93E067E473E04C
:103B60000E9460310E945A166091B6037091B703AB
:103B70008091B8039091B9030E94072DDC01CB011D
:103B80000E9465168CE20E9471216091BA037091C7
:103B9000BB038091BC039091BD030E94072DDC0103
:103BA000CB010E94651684E191E00E945A160895A7
:103BB0008DEC93E06AEA72E00E9460310E945A162E
:103BC0000E94AC1D08958DEC93E06DEB72E00E94B5
:103BD00060310E945A160E9496160E94A5160E94F5
:103BE000B4160E94AC1D0895DF93CF93CDB7DEB716
:103BF00068970FB6F894DEBF0FBECDBF8DB79EB7E6
:103C000045970FB6F8949EBF0FBE8DBFADB7BEB738
:103C10001196E1E0F5E085E101900D928150E1F728
:103C20000E947607EDB7FEB775960FB6F894FEBF03
:103C30000FBEEDBF298B3A8B4B8B5C8B6D8B7E8BD4
:103C40008F8B988FDE011196FE01719688E00190AE
:103C50000D928150E1F78DB79EB745970FB6F89456
:103C60009EBF0FBE8DBFADB7BEB71196E6EBF3E0BA
:103C700085E101900D928150E1F70E947607EDB742
:103C8000FEB775960FB6F894FEBF0FBEEDBF298B39
:103C90003A8B4B8B5C8B6D8B7E8B8F8B988FDE0181
:103CA0001996FE01719688E001900D928150E1F71E
:103CB0002B853C8589819A81281739075CF18D8194
:103CC0009E8103972D853E85281739071CF18F812A
:103CD000988503962F85388982179307DCF08091A9
:103CE000180190911901029690931901809318017F
:103CF0001092130580E090E0A0E2B1EC80930505FE
:103D000090930605A0930705B09308050E94271419
:103D10000E94E31D68960FB6F894DEBF0FBECDBFBC
:103D2000CF91DF91089580910902882321F40E94A8
:103D3000BC080E94611C0E94071C0E940D1A0E9470
:103D4000F41D0E948F1D0E94260708958DEC93E0BC
:103D500065E373E00E9460310E945A160E94AC1D18
:103D600008950E9470140E9438140E94E8130E9463
:103D7000C4130E9495130E9452130E94A61E8091A4
:103D8000700190917101019790931A058093190524
:103D900008950E94F2241092670110926B01109214
:103DA000680110926A0110926C0110926D0181E01D
:103DB00080931E0110921A051092190510920502A7
:103DC00010920402109279011092780180E090E044
:103DD000A0E0B0E08093720190937301A09374010E
:103DE000B09375018AE090E09093190180931801D7
:103DF00010926F0110926E0185E090E090931B018C
:103E000080931A0190931D0180931C0110927101FF
:103E1000109270011092B5031092B4030E94DD0459
:103E20000E94072D709300026093FF01882777FDA1
:103E30008095982F0E943A2D6093720170937301C0
:103E400080937401909375010E94B11E0E940E2709
:103E500008952F923F924F925F926F927F928F922E
:103E60009F92AF92BF92CF92DF92EF92FF920F9309
:103E70001F93DF93CF93CDB7DEB7AD970FB6F8940E
:103E8000DEBF0FBECDBF03E0202E01E0302E10E1DB
:103E9000412E512C4C0E5D1EBFE16B2E712C6C0E11
:103EA0007D1E19C10091010210910202C8016CE34C
:103EB00070E00E94C42E882777FD8095982F0E947D
:103EC0003A2D0E94752D4B015C01C8016CE370E036
:103ED0000E94C42EAA2797FDA095BA2FBC01CD0140
:103EE0000E943A2D0E94752D6B017C0100D000D0FC
:103EF00000D00DB71EB70F5F1F4FE1E0F0E0EC0FF1
:103F0000FD1FADB7BEB71296FC93EE931197D80183
:103F100013963C922E921297C501B4010E94072D70
:103F2000F801758364830E94DA310DB71EB70F5F05
:103F30001F4FADB7BEB712965C924E921197F80123
:103F400033822282C701B6010E94072DD80115963F
:103F50007C936E9314970E94DA31EDB7FEB73196D9
:103F6000ADB7BEB712967C926E92119780E091E049
:103F70009383828380916E0190916F0195838483F6
:103F80000E94DA31ADB7BEB716960FB6F894BEBF31
:103F90000FBEADBF0E944321882319F400E010E05A
:103FA00003C00E941E218C010E94F2248DEC93E03C
:103FB00068E971E00E946031AC0189E190E061E064
:103FC00070E021E00E94E9268DEC93E061E971E068
:103FD0000E946031AC018AE090E06BE070E021E08B
:103FE0000E94E9268DE290E06BE070E0A30121E001
:103FF0000E94E9268DEC93E06BE871E00E9460314D
:10400000AC018AE090E065E170E021E00E94E926E1
:104010008DE290E065E170E0AE014F5F5F4F21E01F
:104020000E94E9268DEC93E069E871E00E9460311E
:10403000AC0187E390E065E170E021E00E94E926B1
:104040008BE390E065E170E0A20121E00E94E926A7
:104050008DEC93E06DE771E00E946031AC0180E08F
:1040600090E06FE170E021E00E94E9268DEC93E0A2
:104070006EE671E00E946031AC0180E090E069E2A0
:1040800070E021E00E94E9260E940E277D9903C07E
:104090000237110521F40E94C91E109269017E9910
:1040A00003C001371105B9F41092690181E08093D2
:1040B0006B010E94F2248DEC93E065E671E00E94B2
:1040C0006031AC0184E190E064E170E021E00E94A5
:1040D000E9260E940E2780916901882309F0E2CE2B
:1040E000AD960FB6F894DEBF0FBECDBFCF91DF9176
:1040F0001F910F91FF90EF90DF90CF90BF90AF9006
:104100009F908F907F906F905F904F903F902F90F7
:104110000895809121010E9442270E944321882313
:1041200039F00E941E21909318058093170504C052
:10413000109218051092170580911F01909120018F
:10414000292F332727FD3A952093BF008093CF0076
:104150000E94E00E80910702882331F080916A016D
:1041600091E0892780936A010E94E6180E94BD11A0
:104170000E94931E0E9496180E94BD060E9421076D
:104180000E94001C0E943F13809118019091190118
:1041900018161906ACF00E94DD040E94072D7093DA
:1041A0000202609301020E943816809123018E3230
:1041B00038F00E9407170E94291F81E0809369014F
:1041C0000895CF93DF930E94CB120E947E0F0E942E
:1041D000B11EC8ECD0E009C00E9489208AE491E0B9
:1041E000FE013197F1F70197D9F780916701882394
:1041F00021F480916B01882379F380E090E0DF91D6
:10420000CF91089581E08093D70080EA8093D80011
:1042100082E189BD09B400FEFDCF80E98093D8001A
:104220001092E00010929101109292018CE0809324
:10423000E200789408958091910108952FB7F89441
:1042400080919101882369F083E08093E9009BE6E7
:104250008091E80085FD09C082FF03C09093E800CB
:10426000F7CF2FBF2FEF3FEF0CC09091F10080915F
:10427000E80085FD03C08BE68093E8002FBF292F5F
:1042800030E0C90108952FB7F894809191018823F7
:1042900011F490E010C083E08093E9009091F20067
:1042A000992349F48091E80082FF05C085FD03C091
:1042B0008BE68093E8002FBF892F089580919101AC
:1042C000882371F09FB7F89483E08093E9002BE690
:1042D00002C02093E8008091E80085FDFACF9FBFDF
:1042E0000895482F809191018823D9F12FB7F89430
:1042F00084E08093E90080919401882341F08091CB
:10430000E80085FD02C02FBF12C010929401909169
:10431000E400975E34E08091E80085FD13C02FBF74
:104320008091E400891729F481E0809394018FEF54
:104330000895809191018823A1F02FB7F8943093CC
:10434000E900E9CF4093F1008091E80085FD03C0CA
:104350008AE38093E80085E0809393012FBF80E09B
:1043600008958FEF0895282F80919101882351F0AF
:104370009FB7F89484E08093E9008091E80085FD80
:1043800003C09FBF8FEF08952093F1008091E80054
:1043900085FD03C08AE38093E80085E08093930164
:1043A0009FBF80E00895CF93DF93EC01809191014E
:1043B000882309F41CC13FB7F89484E08093E90096
:1043C00080919401882309F408C18091E80085FD5B
:1043D00002C03FBF0CC110929401FFC09091E40055
:1043E000975E8091E80085FD13C03FBF8091E40097
:1043F000891721F481E080939401F9C080919101A3
:10440000882309F4F4C03FB7F894B093E900E9CFEA
:104410008091F200242F281B822F90E068177907E3
:1044200008F4262F822F90E08134910508F0C6C051
:104430008A5A9F4FFC01EE0FFF1F0590F491E02D6B
:10444000099489918093F10089918093F100899179
:104450008093F10089918093F10089918093F1001C
:1044600089918093F10089918093F10089918093E3
:10447000F10089918093F10089918093F1008991F5
:104480008093F10089918093F10089918093F100EC
:1044900089918093F10089918093F10089918093B3
:1044A000F10089918093F10089918093F1008991C5
:1044B0008093F10089918093F10089918093F100BC
:1044C00089918093F10089918093F1008991809383
:1044D000F10089918093F10089918093F100899195
:1044E0008093F10089918093F10089918093F1008C
:1044F00089918093F10089918093F1008991809353
:10450000F10089918093F10089918093F100899164
:104510008093F10089918093F10089918093F1005B
:1045200089918093F10089918093F1008991809322
:10453000F10089918093F10089918093F100899134
:104540008093F10089918093F10089918093F1002B
:1045500089918093F10089918093F10089918093F2
:10456000F10089918093F10089918093F100899104
:104570008093F10089918093F10089918093F100FB
:1045800089918093F10089918093F10089918093C2
:10459000F10089918093F10089918093F1008991D4
:1045A0008093F10089918093F10089918093F100CB
:1045B00089918093F10089918093F1008991809392
:1045C000F1008091E80085FD02C05093E800621B75
:1045D0007109A09393013FBF04C0B4E040E45AE3E3
:1045E000A5E06115710509F0F9CE80E001C08FEFFB
:1045F000DF91CF9108959FB7F8948091930188231C
:1046000041F084E08093E9008AE38093E80010920F
:1046100093019FBF0895609145017091460180917B
:104620004701909148010895809149010895809132
:104630004A01089580914B01089580919201089557
:10464000282F9FB7F89480919101882339F082E058
:104650008093E9008091E80085FD03C09FBF8FEF44
:10466000089581EA8093F10080E28093F100109236
:10467000F1001092F1001092F1001092F10081E02F
:104680008093F1001092F1002093F1008AE380936F
:10469000E8009FBF80E008951F920F920FB60F921F
:1046A00011248F939F938091E1001092E100982F45
:1046B00083FF11C01092E90081E08093EB0010921B
:1046C000EC0082E18093ED0088E08093F00010928E
:1046D00091011092920192FF13C080919101882361
:1046E00079F080919301882359F081508093930150
:1046F000882331F484E08093E9008AE38093E80022
:104700009F918F910F900FBE0F901F9018951F9241
:104710000F920FB60F9211240F931F932F933F9375
:104720004F935F936F937F938F939F93AF93BF93B9
:10473000EF93FF931092E9008091E80083FF3CC162
:104740004091F1003091F1008091F100682F70E00C
:104750002091F100922F80E0682B792B8091F1005D
:10476000A82FB0E02091F100922F80E0A82BB92B68
:104770001091F1000091F10082EF8093E800363053
:1047800009F05AC027E535E0A90145505040F9012C
:104790003797859194918617970701F5FA018591CE
:1047A00094918A179B07D1F49A012E5F3F4FF9012C
:1047B000659174912E5F3F4FF9014491212F30E0B4
:1047C000902F80E0282B392B2F3F310519F010F066
:1047D0002FEF30E0241758F4422F09C0295F3F4FD4
:1047E000495F5F4FF5E021383F0789F6E5C05EEF8E
:1047F0008091E800282F30E0C90185709070892BE6
:10480000B9F322FDDCC0342F413108F030E1232F11
:10481000CB0106C0FC010196E491E093F100215028
:104820002223C1F7630F711D431B5093E8004423FB
:10483000F9F63031E9F2C3C0353061F48EEF809380
:10484000E8008091E80080FFFCCF862F806880938D
:10485000E300B5C0393051F5442309F0ADC0609391
:10486000910110929201109293018EEF8093E800D3
:104870008AE795E021E02093E900FC010196E491AC
:10488000E093EB00EE2369F0AC014F5F5F4FFC015A
:1048900084918093EC00CA010196FA01349130931F
:1048A000ED002F5F253039F78EE181C0383061F49B
:1048B000403809F081C08091E80080FFFCCF8091F2
:1048C00091018093F10050C0313289F4413A09F0EE
:1048D00073C08091E80080FFFCCFE5E4F1E08191B6
:1048E0008093F10081E0EC34F807C9F73DC0303225
:1048F000A1F4413209F060C08091E80082FFFCCF52
:10490000E5E4F1E08091F100819381E0EC34F80777
:10491000C9F78BEF8093E80027C0323251F441325F
:1049200009F04AC0609392018091E80080FFFCCFBB
:104930001BC03323E9F48091E80080FFFCCF4238AC
:1049400011F080E00DC0A093E9008091EB0090E0B1
:1049500025E0969587952A95E1F781701092E900F8
:104960008093F1001092F1008EEF8093E80027C051
:10497000313011F0333001F54230F1F4672BE1F4BE
:104980002A2F2F77822F81508430B0F48EEF8093BE
:10499000E8002093E900333079F089E18093EB005F
:1049A00081E090E002C0880F991F2A95E2F780937A
:1049B000EA001092EA0003C081E28093EB00FF91CD
:1049C000EF91BF91AF919F918F917F916F915F9187
:1049D0004F913F912F911F910F910F900FBE0F900C
:1049E0001F901895EBE1F5E0119287E0E331F807AD
:1049F000D9F708959C0197FD37C077FD35C0843500
:104A0000910594F5603371057CF5CB0173E09595C4
:104A100087957A95E1F76770452B99F0E4E58E9FCD
:104A2000F0011124E20FF31FE55EFA4F81E090E000
:104A300002C0880F991F6A95E2F72081282B2083F6
:104A40000895E4E58E9FF0011124E20FF31FE55E67
:104A5000FA4F81E090E002C0880F991F6A95E2F753
:104A6000809520812823208308952F923F924F9292
:104A70005F926F927F928F929F92AF92BF92CF92EE
:104A8000DF92EF92FF920F931F93DF93CF93CDB7F7
:104A9000DEB72E970FB6F894DEBF0FBECDBF7C01F8
:104AA0006B014A0139011C870B8784179507F9F4BC
:104AB0005B0110C0C701B5014B855C850E94FA24DB
:104AC000C614D70424F40894A11CB11C03C0089494
:104AD000A108B108C614D7042CF46A147B040CF4A2
:104AE000FDC0E8CFA614B7040CF4F8C0E3CF6217FA
:104AF0007307F9F45C0110C0C501B6014B855C85F4
:104B00000E94FA24E814F90424F40894A11CB11CAE
:104B100003C00894A108B108E814F9042CF48A141D
:104B20009B040CF4DBC0E8CFA814B9040CF4D6C085
:104B3000E3CF4817590724F447017A013B01690183
:104B4000B4016E197F09882777FD8095982F0E9400
:104B50003A2D6F83788789879A87B3016C197D090D
:104B6000882777FD8095982F0E943A2D6B837C8350
:104B70008D839E832F81388549855A850E949F2C7D
:104B80001B012C0120E030E040E050E00E943D2E6F
:104B900087FF04C057FA509457F85094DA82C982BC
:104BA0000F2EF0E0AF2EF0E0BF2EF0E0CF2EF0E0C1
:104BB000DF2EF02D7FC0C70169817A814B855C852E
:104BC0000E94FA24C601B501A20191010E94372C6E
:104BD0003BC0C70169817A814B855C850E94FA24BC
:104BE0001E861D866B817C818D819E8120E030E058
:104BF00040E050E00E943D2E181624F421E030E001
:104C00003E872D8700E010E06B817C818D819E8145
:104C100020E030E040E050E00E949B2C882314F418
:104C200001E010E08D859E85801B910BE981FA8162
:104C3000E80FF91FFA83E983C601B50120E030E0EF
:104C400040E85FE30E94362C5B016C0120E030E01D
:104C500040E05FE30E943D2E8823CCF06B817C8195
:104C60008D819E8120E030E040E050E00E943D2EAA
:104C700018163CF429813A81621673060CF0A9CF0C
:104C800006C089819A81861597050CF0A2CF6F81A5
:104C9000788589859A8520E030E040E050E00E94E8
:104CA0003D2E181624F40894E11CF11C03C008944E
:104CB000E108F1086F81788589859A8520E030E0E8
:104CC00040E050E00E943D2E181624F48E149F04FC
:104CD0002CF071CFE814F9040CF06DCF2E960FB6BE
:104CE000F894DEBF0FBECDBFCF91DF911F910F9122
:104CF000FF90EF90DF90CF90BF90AF909F908F90FC
:104D00007F906F905F904F903F902F9008954F92BB
:104D10005F926F927F928F929F92AF92BF92CF924B
:104D2000DF92EF92FF920F931F93CF93DF933B019C
:104D3000490125E0429FA0011124A9E7EA2EA5E040
:104D4000FA2EE40EF51E8C01F1E04F2E512CEEE709
:104D5000AE2EE5E0BE2EA40EB51EF701849181149F
:104D6000910409F48095C0E0D0E0C82EDD24BE0196
:104D7000660D771DA2010C2E02C0440F551F0A9428
:104D8000E2F74C215D210C2E02C0559547950A94FF
:104D9000E2F7C8010E94FA242196C830D10539F7FC
:104DA0000894E11CF11C0F5F1F4FEA14FB04A9F6E5
:104DB000DF91CF911F910F91FF90EF90DF90CF90F7
:104DC000BF90AF909F908F907F906F905F904F902B
:104DD0000895CF92DF92EF92FF920F931F93CF939C
:104DE000DF936B017A01E901082F10E008C0802FE2
:104DF00090E0B6019E010E9487260B5F1F5FF701BE
:104E0000E10FF11D4081442391F7DF91CF911F9174
:104E10000F91FF90EF90DF90CF900895CF93DF93A5
:104E200080E060E00E948327CBE1D5E081E06991DA
:104E30000E94212787E0C331D807C1F7DF91CF91C6
:104E4000089595B18295880F807E9F7D982B95B9A6
:104E50005F9827E030E070E08F98CB01022E02C00F
:104E6000959587950A94E2F780FF02C02E9A01C0BB
:104E70002E988F9A215030408FEF2F3F380761F7DF
:104E80005F9A08951F93182F579A249A259A269A65
:104E9000879A2C985F9A2C9A80E061E20E942127E1
:104EA000106880E0612F0E94212780E064E00E946A
:104EB000212780E063E10E94212780E06CE00E94CE
:104EC000212780E060E20E94212780E06CE00E94C0
:104ED000212780E060E40E94212780E060E80E94B2
:104EE00021271F910895CF93DF93C0E0D0E081E0A8
:104EF00060E00E942127219681E0C83FD807B9F7DA
:104F0000DF91CF9108951F93182F606480E00E9475
:104F10002127106880E0612F0E9421271F910895AA
:104F20000F931F93CF93DF938C01C1E0D0E001C0BA
:104F30002196FC010196E491EE23D1F7CE010E9467
:104F4000222F9C01009771F080E090E0F801E80FBB
:104F5000F91FE491D901A80FB91FEC9301968C17A2
:104F60009D07A4F3C901DF91CF911F910F9108957F
:104F70000F931F93CF93DF938C01EB01CB010E9422
:104F8000222F9C01009779F080E090E009C0F801A1
:104F9000E80FF91FE491D901A80FB91FEC9301960E
:104FA0008C179D07A4F3C901DF91CF911F910F9139
:104FB0000895AF92BF92CF92EF920F931F93FC018F
:104FC00040835183628373830483158326833783ED
:104FD000E08AC18AB48AA38A81E0828B80E090E073
:104FE000A0E0B0E080879187A287B3878487958708
:104FF000A687B7871F910F91EF90CF90BF90AF908A
:1050000008952F923F924F925F926F927F928F926C
:105010009F92AF92BF92CF92DF92EF92FF920F9347
:105020001F93CF93DF938C01DC0152968C915297A2
:10503000882309F481C06D917D918D919C910E948E
:10504000A42E0E94072D3B01F80124813581468161
:105050005781643571050CF06FC0D80150968C9162
:10506000C82FD0E0CE01860D971D181619060CF03A
:1050700063C0CA01B9010E94A42E0E94072D4B01F2
:10508000603371050CF058C0F80181899401280F34
:10509000311D121613060CF04FC057E0A52EB12C8F
:1050A000AC0EBD1E43E0B594A7944A95E1F7EE24FB
:1050B000FF24CC24DD2437E0232E312C31C0CE0157
:1050C00023E0959587952A95E1F7D8015396ED91C0
:1050D000FC915497EC0DFD1DE80FF91F408150E045
:1050E000CE0187709070F101E81BF90B02C0559555
:1050F0004795EA95E2F741705070CE01860D971DF5
:10510000B2010E94FA242196D80150968C9190E029
:10511000C817D907A4F20894E11CF11CCA0CDB1CC7
:10512000F801818990E0E816F90634F4C0E0D0E097
:105130002701480C591CE8CFDF91CF911F910F91A7
:10514000FF90EF90DF90CF90BF90AF909F908F90A7
:105150007F906F905F904F903F902F900895A1E1C6
:10516000B0E0E5EBF8E20C94D72E3C017F876E8728
:105170006A01FC0117821682838181FD03C06FEFF3
:105180007FEF6FC39E012F5F3F4F398B288BF30159
:105190002381EE85FF8523FD859123FF8191FF8784
:1051A000EE87882309F45AC3853251F4EE85FF85D2
:1051B00023FD859123FF8191FF87EE87853229F4B6
:1051C00090E0B3010E947D31E2CF982F10E0882457
:1051D00099241032B0F49B3269F09C3228F490325A
:1051E00051F0933271F40BC09D3239F0903349F491
:1051F000116028C01260146025C0186023C01061BF
:1052000021C017FD2AC0892F80538A3078F416FFF9
:1052100006C0FAE09F9E902C1124980E13C03AE02D
:10522000839E802C1124880E10620CC09E3221F4C3
:1052300016FD14C3106406C09C3611F4106802C039
:10524000983659F4EE85FF8523FD959123FF9191C2
:10525000FF87EE87992309F0BCCF892F85548330CF
:1052600020F4812F8061905E07C0892F855683309E
:1052700008F09FC1812F8F7E86FD02C076E0972EB9
:105280006FE3F62EF822953619F4F0E4FF2A07C0F2
:10529000963619F420E8F22A02C091109A94F7FE8B
:1052A0000AC03BE3391518F45CE3B52E02C0B92CF3
:1052B000B39427E009C047E0491520F4BB2447E038
:1052C000942EF7CF292DBB24C60104969D878C8789
:1052D000F6016081718182819381AE014F5F5F4FE2
:1052E0000B2D0E9488306C010981202E332400FF91
:1052F00004C003FD02C01DE209C0F1FE02C01BE2B2
:1053000005C0F2FC02C010E001C010E2C1018C70C7
:105310009070892BB9F1112311F483E001C084E06E
:10532000881510F088240AC0881AF3FC07C080E2B0
:1053300090E0B3010E947D318A94C9F7112329F0CE
:10534000812F90E0B3010E947D3123FE03C009EF5D
:1053500017E00EC00DEF17E00BC0E114F10409F0E7
:10536000805290E0B3010E947D310F5F1F4F05C056
:10537000EF2CFF24F0E1EF22FF24F8018491882331
:1053800061F714C1F7FE12C0BC0C24FE04C08A8170
:10539000813309F4BA941B141CF0BB24B3942DC0C0
:1053A000F8E0FB1550F538E0B32E27C0F6FC25C019
:1053B000892D90E08C159D054CF02CEFC2162FEF37
:1053C000D20624F030E8F32A01C09A94992049F0DB
:1053D000E2E0F0E0EC0FFD1FE90DF11D808180336C
:1053E000A1F3F7FE0AC0B92CB394892D90E0C8163A
:1053F000D90614F0992401C09C18F7FC03C025E0DD
:1054000030E009C01C141D041CF021E030E003C092
:1054100096012F5F3F4F112311F02F5F3F4F9920CF
:1054200029F0892D90E00196280F391F882D90E0F2
:105430002817390714F0882401C0821A4F2C5524EC
:10544000C20189709070892B39F008C080E290E029
:10545000B3010E947D318A948820C1F7112329F07D
:10546000812F90E0B3010E947D3143FE07C008C048
:1054700080E390E0B3010E947D318A948820C1F7D7
:10548000F7FE46C08601D7FE02C000E010E07601BC
:105490000894E11CF11CE01AF10A41E050E04C0FC5
:1054A0005D1FE40EF51E26014B185108892D90E072
:1054B000AA24BB24A81AB90A5FEF0F3F150729F4E5
:1054C0008EE290E0B3010E947D31C016D10634F027
:1054D000401651061CF4F701808101C080E30150A1
:1054E00010400894E11CF11C0A151B052CF090E0FB
:1054F000B3010E947D31E0CF0C151D0539F49A816E
:10550000963318F4953311F424FE81E390E04BC0F8
:105510008A81813309F00F7E90E0B3010E947D31D2
:105520009920A1F08EE290E0B3010E947D3112E05B
:10553000E1E0F0E0EC0FFD1FE10FF11D1F5F808146
:1055400090E0B3010E947D319A9491F744FC03C02E
:1055500085E690E002C085E490E0B3010E947D31D1
:10556000D7FC05C0C114D10441F404FF06C0D09497
:10557000C194D108D3948DE201C08BE290E0B301D5
:105580000E947D3180E305C08F5F26EF3FEFC20EA2
:10559000D31E3AE0C316D104BCF790E0B3010E94D9
:1055A0007D31C601C096B3010E947D31CC84DD847B
:1055B00052C1933631F0933799F0933509F059C0C1
:1055C00023C0F601808189835E010894A11CB11C6F
:1055D00022E030E0C20ED31E21E0E22EF12C12C0F8
:1055E000F601A080B18016FD03C06FEF7FEF02C00F
:1055F000692D70E022E030E0C20ED31EC5010E948A
:1056000072317C011F7713C0F601A080B18016FDB6
:1056100003C06FEF7FEF02C0692D70E022E030E041
:10562000C20ED31EC5010E9467317C01106813FFB2
:1056300007C01BC080E290E0B3010E947D318A94D4
:10564000882D90E0E816F906A8F30FC0F50117FDC4
:10565000859117FF81915F0190E0B3010E947D3138
:1056600081108A940894E108F108E114F10471F7BB
:10567000F2C0943611F0993689F517FF08C0F6018B
:10568000208131814281538184E090E00AC0F6019B
:10569000808191819C01442737FD4095542F82E001
:1056A00090E0C80ED91E9FE6F92EF12257FF09C0DF
:1056B00050954095309521953F4F4F4F5F4F90E863
:1056C000F92ACA01B901AE014F5F5F4F2AE030E00D
:1056D0000E94FE31E82EE889EE1A41C0953721F488
:1056E0001F7E2AE030E01CC0197F9F3661F09037A2
:1056F00020F4983509F0B2C00FC0903739F09837D0
:1057000009F0ACC004C028E030E00AC0106114FD0C
:10571000146020E130E004C014FD166020E132E0A6
:1057200017FF08C0F601608171818281938144E096
:1057300050E008C0F60180819181BC0180E090E0DA
:1057400042E050E0C40ED51EAE014F5F5F4F0E9495
:10575000FE31E82E5889E51A8FE7F82EF122F6FE81
:105760000BC08EEFF822E91438F4F4FE07C0F2FC07
:1057700005C09FEEF92202C01E2D01C0192DF4FEB6
:105780000DC0FE01EE0DF11D8081803319F4E9EEAC
:10579000FE2208C01F5FF2FE05C003C08F2D867871
:1057A00009F01F5F0F2DF3FC14C0F0FE0FC0181599
:1057B00010F09E2C0BC09E2C980C911A182D06C030
:1057C00080E290E0B3010E947D311F5F1815C0F3A5
:1057D00004C0181510F4811A01C0882404FF0FC0FA
:1057E00080E390E0B3010E947D3102FF1DC001FD06
:1057F00003C088E790E00EC088E590E00BC0802FE2
:10580000867891F001FF02C08BE201C080E2F7FCD4
:105810008DE290E0B3010E947D3106C080E390E00C
:10582000B3010E947D319A94E914C0F3EA94E1E057
:10583000F0E0EC0FFD1FEE0DF11D808190E0B30153
:105840000E947D31EE2091F706C080E290E0B30126
:105850000E947D318A948820C1F799CCF30166813A
:105860007781CB016196E2E10C94F32E5058BB276F
:10587000AA270ED0B1C1A2D130F0A7D120F031F4C7
:105880009F3F11F41EF497C10EF4E095E7FB64C14D
:10589000E92FB3D180F3BA1762077307840795071E
:1058A00018F071F49EF5E2C10EF4E0950B2EBA2FBC
:1058B000A02D0B01B90190010C01CA01A001112416
:1058C000FF27591B99F0593F50F4503E68F11A16C2
:1058D000F040A22F232F342F4427585FF3CF469553
:1058E00037952795A795F0405395C9F77EF41F1675
:1058F000BA0B620B730B840BBAF09150A1F0FF0F3F
:10590000BB1F661F771F881FC2F70EC0BA0F621F2A
:10591000731F841F48F4879577956795B795F7951A
:105920009E3F08F0B3CF9395880F08F09927EE0FAC
:10593000979587950895ECD008F481E008950CD0F0
:105940004BC143D140F03AD130F021F45F3F19F020
:1059500003C151118CC12FC150D198F39923C9F3C0
:105960005523B1F3951B550BBB27AA276217730765
:10597000840738F09F5F5F4F220F331F441FAA1F19
:10598000A9F333D00E2E3AF0E0E830D091505040D9
:10599000E695001CCAF729D0FE2F27D0660F771F87
:1059A000881FBB1F261737074807AB07B0E809F069
:1059B000BB0B802DBF01FF2793585F4F2AF09E3FFE
:1059C000510568F0C9C053C15F3FECF3983EDCF36A
:1059D000869577956795B795F7959F5FC9F7880F77
:1059E000911D9695879597F90895E1E0660F771FC9
:1059F000881FBB1F621773078407BA0720F0621B5A
:105A0000730B840BBA0BEE1F88F7E095089504D052
:105A10006894B1112CC10895F8D088F09F5790F088
:105A2000B92F9927B751A0F0D1F0660F771F881FC3
:105A3000991F1AF0BA95C9F712C0B13081F016D18A
:105A4000B1E0089513C1672F782F8827B85F39F028
:105A5000B93FCCF3869577956795B395D9F73EF422
:105A600090958095709561957F4F8F4F9F4F0895CA
:105A7000E89409C097FB3EF49095809570956195E8
:105A80007F4F8F4F9F4F9923A9F0F92F96E9BB279E
:105A90009395F695879577956795B795F111F8CF1A
:105AA000FAF4BB0F11F460FF1BC06F5F7F4F8F4F85
:105AB0009F4F16C0882311F096E911C0772321F07B
:105AC0009EE8872F762F05C0662371F096E8862F13
:105AD00070E060E02AF09A95660F771F881FDAF76A
