:100000000C94C7010C94E4010C94E4010C94E401F9
:100010000C94E4010C94E4010C94E4010C94E401CC
:100020000C94E4010C94E4010C94E4010C94E401BC
:100030000C94E4010C94E4010C94E4010C94E401AC
:100040000C94E4010C94E4010C94E4010C94E4019C
:100050000C94E4010C94E4010C94E4010C94E4018C
:100060000C94E4010C94E4010C94E4010C94E4017C
:100070000C94E4010C94E4010C94E4010C94E4016C
:100080000C94E4010C94E4010C94E4010C94E4015C
:100090000C94E4010C94E4010C94E4010C94E4014C
:1000A0000C94E4010C94E4010C94E40100000000C1
:1000B0000000005F00000007000700147F147F1499
:1000C000242A7F2A122313086462364955225000DD
:1000D00005030000001C2241000041221C001408FE
:1000E0003E081408083E08080050300000080808C0
:1000F0000808006060000020100804023E514945D5
:100100003E00427F400042615149462141454B310A
:100110001814127F1027454545393C4A494930019A
:10012000710905033649494936064949291E0036F1
:100130003600000056360000081422410014141442
:100140001414004122140802015109063249794170
:100150003E7E1111117E7F494949363E414141227F
:100160007F4141221C7F494949417F090909013EDC
:100170004149497A7F0808087F00417F41002040BB
:10018000413F017F081422417F404040407F020CE4
:10019000027F7F0408107F3E4141413E7F090909EB
:1001A000063E4151215E7F09192946464949493198
:1001B00001017F01013F4040403F1F2040201F3F81
:1001C0004038403F63140814630708700807615102
:1001D000494543007F41410002040810200041418D
:1001E0007F0004020102044040404040000102043C
:1001F0000020545454787F484444383844444420C0
:10020000384444487F3854545418087E0901020C7D
:100210005252523E7F0804047800447D4000204042
:10022000443D007F1028440000417F40007C0418BA
:1002300004787C0804047838444444387C1414144A
:1002400008081414187C7C080404084854545420EA
:10025000043F4440203C4040207C1C2040201C3C6B
:100260004030403C44281028440C5050503C4464DA
:10027000544C44000836410000007F000000413625
:100280000800100808100878464146786E616E0034
:10029000696E660000407A10F35A00A0724E180989
:1002A0000010A5D4E80000E87648170000E40B54DD
:1002B000020000CA9A3B000000E1F50500008096AC
:1002C0009800000040420F000000A08601000000DE
:1002D000102700000000E803000000006400000098
:1002E00000000A00000000000100000000002C7661
:1002F000D888DC674F0823DFC1DFAE59E1B1B7967C
:10030000E5E3E453C63AE651997696E8E6C28426D8
:10031000EB898C9B62ED407C6FFCEFBC9C9F40F2B4
:10032000BAA56FA5F490055A2AF75C936B6CF96730
:100330006DC11BFCE0E40D47FEF520E6B500D0EDF5
:10034000902E0300943577050080841E080000205D
:100350004E0A000000C80C333333330F986E1283FB
:100360001141EF8D2114893BE65516CFFEE6DB18CF
:10037000D1844B381BF77C1D901DA4BBE424203294
:1003800084725E228100C9F124ECA1E53D2711248D
:100390001FBECFEFDAE0DEBFCDBF11E0A0E0B1E0DD
:1003A000EEE2F0E302C005900D92A437B107D9F751
:1003B00015E0A4E7B1E001C01D92A335B107E1F754
:1003C0000E94FA0A0C9415180C9400002F923F9288
:1003D0004F925F926F927F928F929F92AF92BF9255
:1003E000CF92DF92EF92FF920F931F93DF93CF9301
:1003F00000D000D000D0CDB7DEB720907D01309086
:100400007E018091510390915203209155033091C8
:100410005603409153035091540301E811E01E83A9
:100420000D83CC24DD247C010027F7FC0095102FE0
:10043000E982FA820B831C832901662457FC6094AD
:10044000762C4A01AA2497FCA094BA2C64C0AD81F2
:10045000BE811496ED90FD900D911C9117976981C6
:100460007A818B819C810E9483139B01AC01C8011E
:10047000B7010E94E412882361F0C301B2010E9417
:1004800083139B01AC01C801B7010E94E4128823C9
:1004900059F40F2EFAE9EF2EF9E9FF2EF9E90F2FA3
:1004A000FEE31F2FF02D16C0C501B4010E94831377
:1004B0009B01AC01C801B7010E94E412882391F4AA
:1004C0000F2EFAE9EF2EF9E9FF2EF9E90F2FFEEBD7
:1004D0001F2FF02DAD81BE811896ED92FD920D93E8
:1004E0001C931B97ED81FE816081718182819381D4
:1004F00020853185428553850E948012AD81BE8161
:100500006D937D938D939C9313970894C11CD11C7C
:100510005596BE83AD83C214D3040CF498CF2696AF
:100520000FB6F894DEBF0FBECDBFCF91DF911F9104
:100530000F91FF90EF90DF90CF90BF90AF909F9082
:100540008F907F906F905F904F903F902F90089585
:10055000AF92BF92CF92DF92EF92FF920F931F93D1
:10056000CF93DF93A0907D01B0907E01C1E8D1E0F0
:10057000CC24DD2429C0E880F9800A811B81C801D0
:10058000B70120E030E048EA52E40E943314181624
:100590002CF480E090E0A0E2B1EC0EC0C801B701FD
:1005A00020E030E040E251EC0E94E412882344F461
:1005B00080E090E0A8EAB2E488839983AA83BB83B1
:1005C0000894C11CD11C6596CA14DB04A4F2DF9107
:1005D000CF911F910F91FF90EF90DF90CF90BF9040
:1005E000AF9008950E94E6010E94A80208958091AC
:1005F0007701882379F580914A01882329F080E0EA
:1006000090E0A0E0BFE304C080E090E0A0E0BFEB9A
:100610008093420390934303A0934403B093450314
:1006200060913A0370913B0380913C0390913D03AC
:10063000209142033091430340914403509145037C
:100640000E94801260933A0370933B0380933C03B3
:1006500090933D030895EF92FF920F931F93E090C4
:100660003A03F0903B0300913C0310913D03C80115
:10067000B70120E030E040E050E00E94E41288231F
:1006800024F481E080934A010CC0C801B70120E046
:1006900030E04AE952E40E943314181614F4109220
:1006A0004A011F910F91FF90EF9008950E942B0334
:1006B0000E94F70208956F927F928F929F92AF925D
:1006C000BF92CF92DF92EF92FF920F931F93DF932F
:1006D000CF93CDB7DEB728970FB6F894DEBF0FBE25
:1006E000CDBF6D8C7E8C8F8C98A0E98CFA8C0B8D95
:1006F0001C8D6AA570E0882777FD8095982F0E9451
:1007000083139B01AC01C401B3010E9480120E94BB
:1007100050135B016C0169A570E0882777FD809517
:10072000982F0E9483139B01AC01C801B7010E945E
:1007300080120E94501378876F83C801B7010E940E
:1007400050137E836D83BC82AB82C401B3010E94CF
:1007500050137A83698329813A814B815C816D8151
:100760007E818F81988528960FB6F894DEBF0FBEE4
:10077000CDBFCF91DF911F910F91FF90EF90DF9050
:10078000CF90BF90AF909F908F907F906F90089583
:1007900051982198209820988598869808958FB12F
:1007A00082958695877080FF0FC084EF91E028ECDA
:1007B00030E0F9013197F1F70197D9F7809177018E
:1007C00091E08927809377010895189B07C0809155
:1007D0007501882319F481E08093750108950F93C2
:1007E0001F93DF93CF93CDB7DEB72F970FB6F89453
:1007F000DEBF0FBECDBF00D000D000D0EDB7FEB73A
:1008000031968E010F5F1F4FADB7BEB712961C9386
:100810000E93119780E091E0938382838091480149
:1008200090914901958384830E9437178DB79EB7B5
:1008300006960FB6F8949EBF0FBE8DBF8AE090E07B
:1008400069E270E043E051E021E00E947B0D82E329
:1008500090E069E270E0A80121E00E947B0D2F96F4
:100860000FB6F894DEBF0FBECDBFCF91DF911F91C1
:100870000F9108950F931F93DF93CF93CDB7DEB7FA
:100880002F970FB6F894DEBF0FBECDBF00D000D0BB
:1008900000D0EDB7FEB731968E010F5F1F4FADB799
:1008A000BEB712961C930E93119780E091E093834C
:1008B00082838091460190914701958384830E94B1
:1008C00037178DB79EB706960FB6F8949EBF0FBE2A
:1008D0008DBF8AE090E06FE170E04CE051E021E0F4
:1008E0000E947B0D8DE290E06FE170E0A80121E0B5
:1008F0000E947B0D2F960FB6F894DEBF0FBECDBFC2
:10090000CF91DF911F910F9108950F931F93DF9364
:10091000CF93CDB7DEB72F970FB6F894DEBF0FBEDB
:10092000CDBF00D000D000D0EDB7FEB731968E011C
:100930000F5F1F4FADB7BEB712961C930E93119762
:1009400080E091E09383828380917B0190917C0190
:10095000958384830E9437178DB79EB706960FB68E
:10096000F8949EBF0FBE8DBF8AE090E065E170E015
:1009700042E151E021E00E947B0D8DE290E065E1D3
:1009800070E0A80121E00E947B0D2F960FB6F8942D
:10099000DEBF0FBECDBFCF91DF911F910F910895A4
:1009A0000F931F93DF93CF93CDB7DEB72F970FB67B
:1009B000F894DEBF0FBECDBF00D000D000D0EDB7A1
:1009C000FEB731968E010F5F1F4FADB7BEB71296BF
:1009D0001C930E93119780E091E093838283809122
:1009E0007B0190917C01958384830E9437178DB79A
:1009F0009EB706960FB6F8949EBF0FBE8DBF8AE0D5
:100A000090E06BE070E048E151E021E00E947B0D56
:100A10008DE290E06BE070E0A80121E00E947B0D88
:100A20002F960FB6F894DEBF0FBECDBFCF91DF91EA
:100A30001F910F9108950F931F93DF93CF93CDB71D
:100A4000DEB72F970FB6F894DEBF0FBECDBF00D034
:100A500000D000D0EDB7FEB731968E010F5F1F4F6B
:100A6000ADB7BEB712961C930E93119780E091E03C
:100A7000938382838091440190914501958384837F
:100A80000E9437178DB79EB706960FB6F8949EBF93
:100A90000FBE8DBF8AE090E061E070E04FE151E071
:100AA00021E00E947B0D8DE290E061E070E0A80102
:100AB00021E00E947B0D2F960FB6F894DEBF0FBE8B
:100AC000CDBFCF91DF911F910F91089513C00E9468
:100AD000840B0E941B050E94D0040E9485040E9482
:100AE0003A040E94EF030E94A00D189B03C01092CD
:100AF0007501089580917501882349F708950E9432
:100B0000840B82E190E06BE070E046E251E020E08F
:100B10000E947B0D84E190E064E170E041E351E0EC
:100B200021E00E947B0D0E94A00D7E9BFECF0895C8
:100B3000E1E6F0E080E8808381E080830E94C803E2
:100B40008FE30E94D40D0E94050E08950F931F930A
:100B5000CF93DF9301E811E0C0E0D0E006C0C80108
:100B60000E944A0E21960B5E1F4F80917D0190914D
:100B70007E01C817D9079CF3DF91CF911F910F9188
:100B800008950E94840B0E94A60585E293E00E94CE
:100B90004A0E8AE393E00E944A0E0E94A00D089537
:100BA000AF92BF92CF92EF920F931F938AE393E09D
:100BB00040E050E060E070E000E010E024E232E469
:100BC000A7E0EA2EF7E0CF2EE2E6AE2EE1E0BE2E61
:100BD0000E94220E1F910F91EF90CF90BF90AF9087
:100BE00008956F927F928F929F92AF92BF92CF9211
:100BF000DF92EF92FF920F931F93CF93DF9380903A
:100C00007D0190907E018091510390915203C1E843
:100C1000D1E0AA24BB2400E010E06C01EE24D7FC54
:100C2000E094FE2CA5E16A2E712C2CC0C701B60100
:100C30000E9483139B01AC016C817D818E819F8119
:100C40000E94E4128823D9F48B899C8982559140B3
:100C5000B1F4A69CF001A79CF00DB69CF00D1124F8
:100C6000EF57FE4F688179818A819B812081318194
:100C7000428153810E94E41288230CF458010F5FD3
:100C80001F4F6596081519058CF285E190E0A89E26
:100C90008001A99E100DB89E100D11240F571E4FF4
:100CA000F801608171818281938120E030E040E829
:100CB00050E40E9480126B017C01F801648175810F
:100CC0008681978120E030E040EE50E40E947F1260
:100CD0008B019C0185E293E0B701A601F5E0EF2EC0
:100CE000E7E0CE2EBBE4AB2EB1E0BB2E0E94220E7D
:100CF000DF91CF911F910F91FF90EF90DF90CF90F8
:100D0000BF90AF909F908F907F906F90089585E2F5
:100D100093E00E9464151092790110927A010E946A
:100D2000F1050895DF93CF93CDB7DEB768970FB67F
:100D3000F894DEBF0FBECDBF8DB79EB745970FB6F7
:100D4000F8949EBF0FBE8DBFADB7BEB71196EAE354
:100D5000F3E085E101900D928150E1F70E945B0381
:100D6000EDB7FEB775960FB6F894FEBF0FBEEDBF98
:100D7000298B3A8B4B8B5C8B6D8B7E8B8F8B988FFB
:100D8000DE011196FE01719688E001900D9281506E
:100D9000E1F78DB79EB745970FB6F8949EBF0FBE8B
:100DA0008DBFADB7BEB71196E5E2F3E085E10190E6
:100DB0000D928150E1F70E945B03EDB7FEB7759687
:100DC0000FB6F894FEBF0FBEEDBF298B3A8B4B8B4D
:100DD0005C8B6D8B7E8B8F8B988FDE011996FE015D
:100DE000719688E001900D928150E1F72B853C854A
:100DF00089819A81281739070CF18D819E8103978B
:100E00002D853E8528173907CCF08F81988503966C
:100E10002F853889821793078CF080914401909137
:100E200045010296909345018093440110924C0332
:100E30008AE393E00E9464150E94870668960FB6C5
:100E4000F894DEBF0FBECDBFCF91DF910895DF9341
:100E5000CF93CDB7DEB760970FB6F894DEBF0FBE65
:100E6000CDBF8DB79EB745970FB6F8949EBF0FBE06
:100E70008DBFADB7BEB71196E5E2F3E085E1019015
:100E80000D928150E1F70E945B03EDB7FEB77596B6
:100E90000FB6F894FEBF0FBEEDBF29873A874B8788
:100EA0005C876D877E878F87988BDE011196FE01A8
:100EB000399688E001900D928150E1F78B819C81F9
:100EC000C1976CF489819A8197FD09C08D819E81BB
:100ED00097FD05C08F819885853591055CF08091DF
:100EE00044019091450101979093450180934401FD
:100EF0000E94870660960FB6F894DEBF0FBECDBF86
:100F0000CF91DF9108952F923F924F925F926F920F
:100F10007F928F929F92BF92CF92DF92EF92FF9239
:100F20000F931F93DF93CF93CDB7DEB768970FB6BC
:100F3000F894DEBF0FBECDBF84E9C82E81E0D82E65
:100F4000BB24EE24FF2405E1202E312C2E01089431
:100F5000411C511C11E1812E912C8C0E9D1EB9E07B
:100F60006B2E712C6C0E7D1EA4C08DB79EB745975D
:100F70000FB6F8949EBF0FBE8DBFE29CF001E39CBC
:100F8000F00DF29CF00D1124ADB7BEB71196EF57DE
:100F9000FE4F85E101900D928150E1F70E945B03C5
:100FA000EDB7FEB775960FB6F894FEBF0FBEEDBF56
:100FB000298B3A8B4B8B5C8B6D8B7E8B8F8B988FB9
:100FC000D201F40188E001900D928150E1F709818E
:100FD0001A818DB79EB745970FB6F8949EBF0FBE86
:100FE0008DBFADB7BEB71196E5E2F3E085E10190A4
:100FF0000D928150E1F70E945B03EDB7FEB7759645
:101000000FB6F894FEBF0FBEEDBF298B3A8B4B8B0A
:101010005C8B6D8B7E8B8F8B988FD301F40188E076
:1010200001900D928150E1F78B859C858017910787
:10103000C9F58F81988505962F8538898217930782
:101040008CF18D819E8105972D853E852817390766
:101050004CF1F6018081918182559140C1F4F0926A
:101060008001E0927F0107501040B801882777FD8A
:101070008095982F0E9483136093290370932A030D
:1010800080932B0390932C03BB24B3940BC08091CB
:10109000440190914501019790934501809344014B
:1010A0000E9487060894E11CF11C85E190E0C80EBF
:1010B000D91E80917D0190917E01E816F9060CF40D
:1010C00054CF8B2D68960FB6F894DEBF0FBECDBF00
:1010D000CF91DF911F910F91FF90EF90DF90CF9014
:1010E000BF909F908F907F906F905F904F903F90B8
:1010F0002F9008950E9483078823D9F460913103CB
:101100007091320380913303909134032AE939E9D5
:1011100049E95EE30E9480126093310370933203C9
:1011200080933303909334031092790110927A01E3
:101130000CC080E090E0A0E0B0E080933103909399
:101140003203A0933303B093340360912903709169
:101150002A0380912B0390912C032091310330912D
:10116000320340913303509134030E948012609304
:10117000290370932A0380932B0390932C030895E3
:10118000EF92FF920F931F930E948307982F89B1CC
:10119000869580FF26C0992309F45BC080E090E02B
:1011A000A0E0B0EC8093310390933203A09333031B
:1011B000B09334036091290370912A0380912B032B
:1011C00090912C0320E030E040E050E40E947F1238
:1011D0006093290370932A0380932B0390932C032D
:1011E00002C09923B1F16091290370912A03809183
:1011F0002B0390912C0320E030E040EE50E40E945D
:1012000080120E94501380915103909152036817ED
:10121000790739F080915503909156036817790743
:1012200029F48AE999E9A9E9BEE30BC08091530347
:10123000909154036817790761F48AE999E9A9E95B
:10124000BEEB80932D0390932E03A0932F03B093B6
:10125000300380917901882361F1609129037091B5
:101260002A0380912B0390912C0320E030E040EE84
:1012700050E40E9480127B018C01609153037091B5
:101280005403882777FD8095982F0E9483139B0134
:10129000AC01C801B7010E94E412882329F483E35A
:1012A00093E3A3E3BFE32DC08DEC9CECACE4BFE380
:1012B00028C080917A01882361F16091290370919F
:1012C0002A0380912B0390912C0320E030E040EE24
:1012D00050E40E9480127B018C0160915303709155
:1012E0005403882777FD8095982F0E9483139B01D4
:1012F000AC01C801B7010E94E4128DEC9CECACE497
:10130000BFEB80932D0390932E03A0932F03B093F4
:1013100030036091250370912603809127039091FB
:10132000280320912D0330912E0340912F035091DB
:1013300030030E94801260932503709326038093EC
:101340002703909328031F910F91FF90EF9008952A
:101350000E9483078823D1F0489B0AC080917A01BC
:10136000882319F010927A0103C081E080937901FB
:1013700083B1869580FF0AC080917901882319F096
:1013800010927901089581E080937A0108950E9476
:1013900083078823C1F020917F01309180018091E3
:1013A0004F03909150032817390769F03093500389
:1013B00020934F0380917B0190917C010196909343
:1013C0007C0180937B0108950E947A080E94A809FD
:1013D0000E94C0080E9427070E9492060E94C70927
:1013E00008952F923F924F925F926F927F928F92C9
:1013F0009F92AF92BF92CF92DF92EF92FF920F93A4
:101400001F93DF93CF9300D000D000D0CDB7DEB7CD
:1014100010927E0110927D01B1E52B2EB3E03B2EA0
:10142000A7E04A2E512C9CC00E940D16AA2797FDBA
:10143000A095BA2FBC01CD010E94831320E03EEF9E
:101440004FEF56E40E94E8122AE939E949E95EE3E0
:101450000E94E41287FD6FC00E940D167C012D8151
:101460003E81B901882777FD8095982F0E948313CC
:101470005B016C0169817A818B819C810E9483135D
:101480003B014C010E945013D1016D937C930027C6
:10149000F7FC0095102FC801B7010E94831320E0CC
:1014A0003EEF4FEF56E40E94E81220E030E040E8C3
:1014B0005EE30E94331420917D0130917E01181665
:1014C000C4F4E5E1F0E02E9FC0012F9F900D3E9FF8
:1014D000900D11248F579E4FA501B60194018301F1
:1014E000FAE0EF2EE3E0CE2EB2E5AB2EB1E0BB2E5C
:1014F00017C045E150E0249FC001259F900D349F07
:10150000900D11248F579E4FA501B60194018301C0
:10151000AAE0EA2EF3E0CF2EEAE5AE2EE1E0BE2E01
:101520000E94220E80917D0190917E010196909300
:101530007E0180937D018D819E810C969E838D839B
:101540008435910509F070CFADE0B0E04A0E5B1E26
:10155000E2E0F0E02E0E3F1EFEE24F16510461F075
:101560001E821D829201442737FD4095542F298306
:101570003A834B835C8358CF26960FB6F894DEBF30
:101580000FBECDBFCF91DF911F910F91FF90EF90D4
:10159000DF90CF90BF90AF909F908F907F906F9093
:1015A0005F904F903F902F900895AF92BF92CF924F
:1015B000EF920F931F930E94F1090E94F1058AE3B5
:1015C00093E040E050E060E070E000E010E024E2F2
:1015D00032E4A7E0EA2EF7E0CF2EE2E6AE2EE1E01D
:1015E000BE2E0E94220E1F910F91EF90CF90BF90C0
:1015F000AF900895CF93DF930E9498050E947F05D6
:101600000E94D50AC8ECD0E009C00E94690B8AE4A8
:1016100091E0FE013197F1F70197D9F780917401BC
:10162000882321F480917801882379F380E090E089
:10163000DF91CF910895109274011092750110926C
:1016400077011092790110927A018AE090E09093EC
:1016500045018093440110927C0110927B0185E04A
:1016600090E09093470180934601909349018093C5
:1016700048010E94FA0A089527C00E94840B8AE05C
:1016800090E06AE070E04AE351E021E00E947B0DC7
:101690000E94A00D7D9B04C00E941B0B109276013E
:1016A0007E9B12C01092760181E0809378010E94A7
:1016B000840B84E190E064E170E041E351E021E0DB
:1016C0000E947B0D0E94A00D809176018823A9F6CF
:1016D00008950E94CF030E94E5030E9466050E94C0
:1016E000E4090E94F2020E9456030E94C105809103
:1016F000440190914501181619062CF00E943C0BEC
:1017000081E0809376010895E7E5F3E0119285E0AA
:10171000EF34F807D9F708959C0197FD37C077FD9E
:1017200035C08435910594F5603371057CF5CB01A6
:1017300073E0959587957A95E1F76770452B99F059
:10174000E4E58E9FF0011124E20FF31FE95AFC4FEC
:1017500081E090E002C0880F991F6A95E2F720812E
:10176000282B20830895E4E58E9FF0011124E20FD9
:10177000F31FE95AFC4F81E090E002C0880F991FE7
:101780006A95E2F7809520812823208308952F927F
:101790003F924F925F926F927F928F929F92AF9201
:1017A000BF92CF92DF92EF92FF920F931F93DF933E
:1017B000CF93CDB7DEB72E970FB6F894DEBF0FBE2E
:1017C000CDBF7C016B014A0139011C870B8784174F
:1017D0009507F9F45B0110C0C701B5014B855C8525
:1017E0000E948C0BC614D70424F40894A11CB11CCD
:1017F00003C00894A108B108C614D7042CF46A14D5
:101800007B040CF4FDC0E8CFA614B7040CF4F8C0B8
:10181000E3CF62177307F9F45C0110C0C501B6018C
:101820004B855C850E948C0BE814F90424F4089421
:10183000A11CB11C03C00894A108B108E814F90464
:101840002CF48A149B040CF4DBC0E8CFA814B90470
:101850000CF4D6C0E3CF4817590724F447017A01A6
:101860003B016901B4016E197F09882777FD8095D6
:10187000982F0E9483136F83788789879A87B30193
:101880006C197D09882777FD8095982F0E94831316
:101890006B837C838D839E832F81388549855A8510
:1018A0000E94E8121B012C0120E030E040E050E0F3
:1018B0000E94331487FF04C057FA509457F850948D
:1018C000DA82C9820F2EF0E0AF2EF0E0BF2EF0E0FA
:1018D000CF2EF0E0DF2EF02D7FC0C70169817A8125
:1018E0004B855C850E948C0BC601B501A20191015C
:1018F0000E9480123BC0C70169817A814B855C855B
:101900000E948C0B1E861D866B817C818D819E8141
:1019100020E030E040E050E00E943314181624F438
:1019200021E030E03E872D8700E010E06B817C8174
:101930008D819E8120E030E040E050E00E94E41282
:10194000882314F401E010E08D859E85801B910BA7
:10195000E981FA81E80FF91FFA83E983C601B5012D
:1019600020E030E040E85FE30E947F125B016C0101
:1019700020E030E040E05FE30E9433148823CCF0A5
:101980006B817C818D819E8120E030E040E050E0E1
:101990000E94331418163CF429813A8162167306AA
:1019A0000CF0A9CF06C089819A81861597050CF0A5
:1019B000A2CF6F81788589859A8520E030E040E06C
:1019C00050E00E943314181624F40894E11CF11C12
:1019D00003C00894E108F1086F81788589859A85AC
:1019E00020E030E040E050E00E943314181624F468
:1019F0008E149F042CF071CFE814F9040CF06DCF15
:101A00002E960FB6F894DEBF0FBECDBFCF91DF91FB
:101A10001F910F91FF90EF90DF90CF90BF90AF900C
:101A20009F908F907F906F905F904F903F902F90FE
:101A300008954F925F926F927F928F929F92AF9292
:101A4000BF92CF92DF92EF92FF920F931F93CF93AB
:101A5000DF933B01490125E0429FA0011124ACE046
:101A6000EA2EA0E0FA2EE40EF51E8C01F1E04F2ED6
:101A7000512CE1E1AE2EE0E0BE2EA40EB51EF70122
:101A800084918114910409F48095C0E0D0E0C82EBF
:101A9000DD24BE01660D771DA2010C2E02C0440F8D
:101AA000551F0A94E2F74C215D210C2E02C055957A
:101AB00047950A94E2F7C8010E948C0B2196C83022
:101AC000D10539F70894E11CF11C0F5F1F4FEA1490
:101AD000FB04A9F6DF91CF911F910F91FF90EF903A
:101AE000DF90CF90BF90AF909F908F907F906F903E
:101AF0005F904F900895CF92DF92EF92FF920F93F5
:101B00001F93CF93DF936B017A01E901082F10E057
:101B100008C0802F90E0B6019E010E94190D0B5F56
:101B20001F5FF701E10FF11D4081442391F7DF9121
:101B3000CF911F910F91FF90EF90DF90CF9008957C
:101B4000CF93DF9380E060E00E94150EC7E5D3E0FD
:101B500081E069910E94B30D85E0CF34D807C1F7C9
:101B6000DF91CF91089595B18295880F807E9F7DFA
:101B7000982B95B95F9827E030E070E08F98CB0103
:101B8000022E02C0959587950A94E2F780FF02C065
:101B90002E9A01C02E988F9A215030408FEF2F3F00
:101BA000380761F75F9A08951F93182F579A249A60
:101BB000259A269A879A2C985F9A2C9A80E061E25F
:101BC0000E94B30D106880E0612F0E94B30D80E089
:101BD00064E00E94B30D80E063E10E94B30D80E0F9
:101BE0006CE00E94B30D80E060E20E94B30D80E0E3
:101BF0006CE00E94B30D80E060E40E94B30D80E0D1
:101C000060E80E94B30D1F910895CF93DF93C0E069
:101C1000D0E081E060E00E94B30D219681E0C83FF2
:101C2000D807B9F7DF91CF9108951F93182F6064FB
:101C300080E00E94B30D106880E0612F0E94B30D18
:101C40001F910895AF92BF92CF92EF920F931F937F
:101C5000FC0140835183628373830483158326834D
:101C60003783E08AC18AB48AA38A81E0828B80E0CC
:101C700090E0A0E0B0E080879187A287B387848757
:101C80009587A687B7871F910F91EF90CF90BF9050
:101C9000AF9008952F923F924F925F926F927F92F2
:101CA0008F929F92AF92BF92CF92DF92EF92FF926C
:101CB0000F931F93CF93DF938C01DC0152968C918D
:101CC0005297882309F481C06D917D918D919C91EB
:101CD0000E9437140E9450133B01F8012481358182
:101CE00046815781643571050CF06FC0D80150965C
:101CF0008C91C82FD0E0CE01860D971D18161906BD
:101D00000CF063C0CA01B9010E9437140E9450133D
:101D10004B01603371050CF058C0F80181899401C2
:101D2000280F311D121613060CF04FC057E0A52ED8
:101D3000B12CAC0EBD1E43E0B594A7944A95E1F7D3
:101D4000EE24FF24CC24DD2437E0232E312C31C0B7
:101D5000CE0123E0959587952A95E1F7D801539612
:101D6000ED91FC915497EC0DFD1DE80FF91F40819A
:101D700050E0CE0187709070F101E81BF90B02C0B2
:101D800055954795EA95E2F741705070CE01860D62
:101D9000971DB2010E948C0B2196D80150968C9110
:101DA00090E0C817D907A4F20894E11CF11CCA0CF2
:101DB000DB1CF801818990E0E816F90634F4C0E0F4
:101DC000D0E02701480C591CE8CFDF91CF911F913B
:101DD0000F91FF90EF90DF90CF90BF90AF909F90CA
:101DE0008F907F906F905F904F903F902F900895CD
:101DF000A1E1B0E0EEEFFEE00C9480143C017F879F
:101E00006E876A01FC0117821682838181FD03C0FF
:101E10006FEF7FEF6FC39E012F5F3F4F398B288B92
:101E2000F3012381EE85FF8523FD859123FF8191B9
:101E3000FF87EE87882309F45AC3853251F4EE8573
:101E4000FF8523FD859123FF8191FF87EE878532F2
:101E500029F490E0B3010E940B17E2CF982F10E015
:101E6000882499241032B0F49B3269F09C3228F413
:101E7000903251F0933271F40BC09D3239F09033AF
:101E800049F4116028C01260146025C0186023C096
:101E9000106121C017FD2AC0892F80538A3078F441
:101EA00016FF06C0FAE09F9E902C1124980E13C0D6
:101EB0003AE0839E802C1124880E10620CC09E3262
:101EC00021F416FD14C3106406C09C3611F410688A
:101ED00002C0983659F4EE85FF8523FD959123FFC6
:101EE0009191FF87EE87992309F0BCCF892F855404
:101EF000833020F4812F8061905E07C0892F855642
:101F0000833008F09FC1812F8F7E86FD02C076E06E
:101F1000972E6FE3F62EF822953619F4F0E4FF2A97
:101F200007C0963619F420E8F22A02C091109A945C
:101F3000F7FE0AC03BE3391518F45CE3B52E02C086
:101F4000B92CB39427E009C047E0491520F4BB241D
:101F500047E0942EF7CF292DBB24C60104969D8718
:101F60008C87F6016081718182819381AE014F5F20
:101F70005F4F0B2D0E941D166C010981202E33240A
:101F800000FF04C003FD02C01DE209C0F1FE02C053
:101F90001BE205C0F2FC02C010E001C010E2C1016A
:101FA0008C709070892BB9F1112311F483E001C07A
:101FB00084E0881510F088240AC0881AF3FC07C052
:101FC00080E290E0B3010E940B178A94C9F71123B5
:101FD00029F0812F90E0B3010E940B1723FE03C06C
:101FE0000CE812E00EC000E912E00BC0E114F104AD
:101FF00009F0805290E0B3010E940B170F5F1F4F52
:1020000005C0EF2CFF24F0E1EF22FF24F8018491BA
:10201000882361F714C1F7FE12C0BC0C24FE04C073
:102020008A81813309F4BA941B141CF0BB24B39445
:102030002DC0F8E0FB1550F538E0B32E27C0F6FCB4
:1020400025C0892D90E08C159D054CF02CEFC21613
:102050002FEFD20624F030E8F32A01C09A94992099
:1020600049F0E2E0F0E0EC0FFD1FE90DF11D808189
:102070008033A1F3F7FE0AC0B92CB394892D90E008
:10208000C816D90614F0992401C09C18F7FC03C0A7
:1020900025E030E009C01C141D041CF021E030E0F4
:1020A00003C096012F5F3F4F112311F02F5F3F4F69
:1020B000992029F0892D90E00196280F391F882D4D
:1020C00090E02817390714F0882401C0821A4F2C99
:1020D0005524C20189709070892B39F008C080E2C4
:1020E00090E0B3010E940B178A948820C1F7112356
:1020F00029F0812F90E0B3010E940B1743FE07C027
:1021000008C080E390E0B3010E940B178A948820F6
:10211000C1F7F7FE46C08601D7FE02C000E010E01E
:1021200076010894E11CF11CE01AF10A41E050E04C
:102130004C0F5D1FE40EF51E26014B185108892D2A
:1021400090E0AA24BB24A81AB90A5FEF0F3F150735
:1021500029F48EE290E0B3010E940B17C016D1065D
:1021600034F0401651061CF4F701808101C080E371
:10217000015010400894E11CF11C0A151B052CF0BD
:1021800090E0B3010E940B17E0CF0C151D0539F448
:102190009A81963318F4953311F424FE81E390E08C
:1021A0004BC08A81813309F00F7E90E0B3010E9419
:1021B0000B179920A1F08EE290E0B3010E940B175B
:1021C00012E0E1E0F0E0EC0FFD1FE10FF11D1F5FF9
:1021D000808190E0B3010E940B179A9491F744FC20
:1021E00003C085E690E002C085E490E0B3010E9460
:1021F0000B17D7FC05C0C114D10441F404FF06C07D
:10220000D094C194D108D3948DE201C08BE290E0C8
:10221000B3010E940B1780E305C08F5F26EF3FEFED
:10222000C20ED31E3AE0C316D104BCF790E0B3014E
:102230000E940B17C601C096B3010E940B17CC84F5
:10224000DD8452C1933631F0933799F0933509F01C
:1022500059C023C0F601808189835E010894A11CC6
:10226000B11C22E030E0C20ED31E21E0E22EF12CA0
:1022700012C0F601A080B18016FD03C06FEF7FEFA2
:1022800002C0692D70E022E030E0C20ED31EC5010D
:102290000E9400177C011F7713C0F601A080B18057
:1022A00016FD03C06FEF7FEF02C0692D70E022E0E2
:1022B00030E0C20ED31EC5010E94F5167C011068E5
:1022C00013FF07C01BC080E290E0B3010E940B1710
:1022D0008A94882D90E0E816F906A8F30FC0F5015E
:1022E00017FD859117FF81915F0190E0B3010E9476
:1022F0000B1781108A940894E108F108E114F104A5
:1023000071F7F2C0943611F0993689F517FF08C0BD
:10231000F601208131814281538184E090E00AC03E
:10232000F601808191819C01442737FD4095542F0F
:1023300082E090E0C80ED91E9FE6F92EF12257FFE9
:1023400009C050954095309521953F4F4F4F5F4FB5
:1023500090E8F92ACA01B901AE014F5F5F4F2AE048
:1023600030E00E945B17E82EE889EE1A41C09537ED
:1023700021F41F7E2AE030E01CC0197F9F3661F0F7
:10238000903720F4983509F0B2C00FC0903739F07B
:10239000983709F0ACC004C028E030E00AC01061F2
:1023A00014FD146020E130E004C014FD166020E14B
:1023B00032E017FF08C0F60160817181828193814C
:1023C00044E050E008C0F60180819181BC0180E0CA
:1023D00090E042E050E0C40ED51EAE014F5F5F4F6B
:1023E0000E945B17E82E5889E51A8FE7F82EF12234
:1023F000F6FE0BC08EEFF822E91438F4F4FE07C0A5
:10240000F2FC05C09FEEF92202C01E2D01C0192D5D
:10241000F4FE0DC0FE01EE0DF11D8081803319F434
:10242000E9EEFE2208C01F5FF2FE05C003C08F2D3B
:10243000867809F01F5F0F2DF3FC14C0F0FE0FC06B
:10244000181510F09E2C0BC09E2C980C911A182D6C
:1024500006C080E290E0B3010E940B171F5F1815C1
:10246000C0F304C0181510F4811A01C0882404FFB9
:102470000FC080E390E0B3010E940B1702FF1DC064
:1024800001FD03C088E790E00EC088E590E00BC036
:10249000802F867891F001FF02C08BE201C080E2BC
:1024A000F7FC8DE290E0B3010E940B1706C080E3B9
:1024B00090E0B3010E940B179A94E914C0F3EA94D8
:1024C000E1E0F0E0EC0FFD1FEE0DF11D808190E0EA
:1024D000B3010E940B17EE2091F706C080E290E056
:1024E000B3010E940B178A948820C1F799CCF3019D
:1024F00066817781CB016196E2E10C949C1450587F
:10250000BB27AA270ED075C166D130F06BD120F061
:1025100031F49F3F11F41EF45BC10EF4E095E7FB2C
:1025200051C1E92F77D180F3BA1762077307840787
:10253000950718F071F49EF58FC10EF4E0950B2EFF
:10254000BA2FA02D0B01B90190010C01CA01A00105
:102550001124FF27591B99F0593F50F4503E68F160
:102560001A16F040A22F232F342F4427585FF3CFA1
:10257000469537952795A795F0405395C9F77EF472
:102580001F16BA0B620B730B840BBAF09150A1F0BB
:10259000FF0FBB1F661F771F881FC2F70EC0BA0F41
:1025A000621F731F841F48F4879577956795B795C9
:1025B000F7959E3F08F0B3CF9395880F08F09927C1
:1025C000EE0F979587950895D9D008F481E0089586
:1025D0000CD00FC107D140F0FED030F021F45F3FA6
:1025E00019F0F0C0511139C1F3C014D198F39923F7
:1025F000C9F35523B1F3951B550BBB27AA276217C7
:102600007307840738F09F5F5F4F220F331F441F0B
:10261000AA1FA9F333D00E2E3AF0E0E830D0915043
:102620005040E695001CCAF729D0FE2F27D0660F30
:10263000771F881FBB1F261737074807AB07B0E86F
:1026400009F0BB0B802DBF01FF2793585F4F2AF085
:102650009E3F510568F0B6C000C15F3FECF3983E65
:10266000DCF3869577956795B795F7959F5FC9F7E2
:10267000880F911D9695879597F90895E1E0660F6B
:10268000771F881FBB1F621773078407BA0720F0E4
:10269000621B730B840BBA0BEE1F88F7E09508954D
:1026A00004D06894B111D9C00895BCD088F09F5768
:1026B00090F0B92F9927B751A0F0D1F0660F771F8E
:1026C000881F991F1AF0BA95C9F712C0B13081F06E
:1026D000C3D0B1E00895C0C0672F782F8827B85FB6
:1026E00039F0B93FCCF3869577956795B395D9F7CF
:1026F0003EF490958095709561957F4F8F4F9F4FD9
:102700000895E89409C097FB3EF4909580957095E4
:1027100061957F4F8F4F9F4F9923A9F0F92F96E92D
:10272000BB279395F695879577956795B795F111A2
:10273000F8CFFAF4BB0F11F460FF1BC06F5F7F4F3F
:102740008F4F9F4F16C0882311F096E911C0772351
:1027500021F09EE8872F762F05C0662371F096E85A
:10276000862F70E060E02AF09A95660F771F881F29
:10277000DAF7880F9695879597F90895990F0008CD
:10278000550FAA0BE0E8FEEF16161706E807F90743
:10279000C0F012161306E407F50798F0621B730BDE
:1027A000840B950B39F40A2661F0232B242B252B5F
:1027B00021F408950A2609F4A140A6958FEF811D02
:1027C000811D089597F99F6780E870E060E00895A3
:1027D0009FEF80EC089500240A9416161706180639
:1027E0000906089500240A94121613061406050615
:1027F0000895092E0394000C11F4882352F0BB0FA6
:1028000040F4BF2B11F460FF04C06F5F7F4F8F4F08
:102810009F4F089557FD9058440F551F59F05F3F43
:1028200071F04795880F97FB991F61F09F3F79F0F2
:1028300087950895121613061406551FF2CF469574
:10284000F1DF08C0161617061806991FF1CF8695F6
:102850007105610508940895E894BB2766277727DA
:10286000CB0197F908958ADF08F48FEF0895DADF36
:10287000E0F09E37D8F09639B8F49E3848F4672FC8
:10288000782F8827985FF9CF8695779567959395E8
:102890009539D0F3B62FB1706B0F711D811D20F4E7
:1028A000879577956795939502C01CC0D6CF8823EE
:1028B00071F4772321F09850872B762F07C0662379
:1028C00011F499270DC09051862B70E060E02AF03A
:1028D0009A95660F771F881FDAF7880F9695879568
:1028E00097F908959F3F31F0915020F4879577959F
:1028F0006795B795880F911D9695879597F90895D7
:102900002F923F924F925F926F927F928F929F92FF
:10291000AF92BF92CF92DF92EF92FF920F931F93ED
:10292000CF93DF93CDB7DEB7CA1BDB0B0FB6F8949E
:10293000DEBF0FBECDBF09942A88398848885F84DE
:102940006E847D848C849B84AA84B984C884DF804F
:10295000EE80FD800C811B81AA81B981CE0FD11D33
:102960000FB6F894DEBF0FBECDBFED010895CF9333
:10297000DF93BC018230910510F462E070E0A09119
:102980005105B0915205ED01E0E0F0E040E050E08B
:1029900021C0888199818617970769F48A819B8174
:1029A000309719F09383828304C0909352058093EB
:1029B0005105FE0134C06817790738F441155105F7
:1029C00019F08417950708F4AC01FE018A819B81F8
:1029D0009C01E9012097E9F641155105A9F1CA01C9
:1029E000861B970B049708F4BA01E0E0F0E02AC0D8
:1029F0008D919C91119784179507F9F464177507C9
:102A000081F412968D919C911397309719F09383CE
:102A1000828304C09093520580935105FD01329644
:102A20004FC0CA01861B970BFD01E80FF91F619388
:102A3000719302978D939C9343C0FD018281938192
:102A40009C01D9011097A1F680914F0590915005F6
:102A5000892B41F480916B0190916C01909350050A
:102A600080934F0540916D0150916E0141155105C4
:102A700041F44DB75EB78091690190916A01481B9E
:102A8000590B20914F053091500524173507B0F4AC
:102A9000CA01821B930B8617970780F0AB014E5F2C
:102AA0005F4F8417950750F0420F531F5093500506
:102AB00040934F05F9016193719302C0E0E0F0E0AB
:102AC000CF01DF91CF910895CF93DF93009709F461
:102AD00050C0EC0122971B821A82A0915105B0913F
:102AE0005205109709F140E050E0AC17BD0708F11E
:102AF000BB83AA83FE0121913191E20FF31FAE1730
:102B0000BF0779F48D919C911197280F391F2E5F83
:102B10003F4F3983288312968D919C9113979B8305
:102B20008A834115510571F4D0935205C093510524
:102B300020C012968D919C911397AD01009711F0D2
:102B4000DC01D3CFFA01D383C28321913191E20F0B
:102B5000F31FCE17DF0769F488819981280F391F89
:102B60002E5F3F4FFA01318320838A819B819383BB
:102B70008283DF91CF910895A0E0B0E0E2ECF5E12F
:102B80000C948814EC01A880B980CA80DB80A11461
:102B9000B104C104D10441F484E2A82E89EDB82E19
:102BA0008BE5C82E87E0D82EC601B5012DE133EFA5
:102BB00041E050E00E94D81727EA31E440E050E0BD
:102BC0000E94B9177B018C01C601B5012DE133EFDD
:102BD00041E050E00E94D817CA01B9012CEE34EF51
:102BE0004FEF5FEF0E94B9176E0D7F1D801F911F81
:102BF00097FF04C06150704080409048688379839B
:102C00008A839B839B013F77C901CDB7DEB7EAE09A
:102C10000C94A4140E94BC1508958FE691E00E94C4
:102C2000BC150895A0E0B0E080936F01909370010F
:102C3000A0937101B09372010895283008F027E045
:102C40003327DA01990F311D87FD916000966105E8
:102C5000710539F432602E5F3D9330E32A95E1F738
:102C600008959F3F30F080387105610509F03C5FA1
:102C70003C5F3D93913008F08068911DDF93CF93C6
:102C80001F930F93FF92EF92192F987F9695E92F3C
:102C900096959695E90FFF27E251FD4F9927332727
:102CA000EE24FF24A701E70105900894079428F477
:102CB000360FE71EF81E491F511D660F771F881F2C
:102CC000991F0694A1F70590079428F4E70EF81EC3
:102CD000491F561FC11D770F881F991F661F069435
:102CE000A1F70590079428F4F80E491F561FC71F37
:102CF000D11D880F991F661F771F0694A1F70590B5
:102D0000079420F4490F561FC71FD81F990F661F3D
:102D1000771F881F0694A9F784911095177041F0CA
:102D2000D695C79557954795F794E7941A95C1F7A7
:102D3000E4E9F2E0689415901591359165919591CB
:102D400005907FE27395E118F10A430B560BC90B0E
:102D5000D009C0F7E10CF11E431F561FC91FD01D3B
:102D60007EF4703311F48A95E6CFE894015030F088
:102D7000080F0AF40027021708F4202F2395022FCA
:102D80007A3328F079E37D932A95E9F710C07D9393
:102D90002A9589F606949795679537951795179410
:102DA000E118F10A430B560BC90BD00998F0239593
:102DB0007E9173957A3308F070E37C932013B8F713
:102DC0007E9170617D9330F0839571E37D9370E324
:102DD0002A95E1F71124EF90FF900F911F91CF9169
:102DE000DF91992787FD90950895FC01059061502A
:102DF00070400110D8F7809590958E0F9F1F089511
:102E0000FC016150704001900110D8F780959095B9
:102E10008E0F9F1F08950F931F93CF93DF938C0105
:102E2000EB018B8181FF1BC082FF0DC02E813F8192
:102E30008C819D812817390764F4E881F981019319
:102E4000F983E88306C0E885F985802F0995892BE9
:102E500031F48E819F8101969F838E8302C00FEF94
:102E60001FEFC801DF91CF911F910F910895AEE040
:102E7000B0E0EDE3F7E10C948E140D891E8986E035
:102E80008C831A8309838FEF9FE79E838D839E0136
:102E9000275E3F4FCE0101966F89788DA9010E9470
:102EA000F80E2F813885020F131FF80110822E961D
:102EB000E4E00C94AA14FA01AA27283051F1203139
:102EC00081F1E8946F936E7F6E5F7F4F8F4F9F4FBE
:102ED000AF4FB1E03ED0B4E03CD0670F781F891F00
:102EE0009A1FA11D680F791F8A1F911DA11D6A0FCE
:102EF000711D811D911DA11D20D009F468943F9181
:102F00002AE0269F11243019305D3193DEF6CF017F
:102F10000895462F4770405D4193B3E00FD0C9F745
:102F2000F6CF462F4F70405D4A3318F0495D31FDB2
:102F30004052419302D0A9F7EACFB4E0A695979505
:102F4000879577956795BA95C9F7009761057105DB
:102F500008959B01AC010A2E069457954795379525
:102F60002795BA95C9F7620F731F841F951FA01D7F
:102F70000895629FD001739FF001829FE00DF11DC3
:102F8000649FE00DF11D929FF00D839FF00D749FE3
:102F9000F00D659FF00D9927729FB00DE11DF91F8F
:102FA000639FB00DE11DF91FBD01CF0111240895EC
:102FB00097FB092E05260ED057FD04D014D00AD059
:102FC000001C38F450954095309521953F4F4F4F58
:102FD0005F4F0895F6F790958095709561957F4FB6
:102FE0008F4F9F4F0895A1E21A2EAA1BBB1BFD0114
:102FF0000DC0AA1FBB1FEE1FFF1FA217B307E407D8
:10300000F50720F0A21BB30BE40BF50B661F771F2F
:10301000881F991F1A9469F760957095809590950F
:0E3020009B01AC01BD01CF010895F894FFCFD4
:10302E002564005A6F6D626965733A00466F6F646E
:10303E003A0054696D653A0053636F72653A004CFD
:10304E00697665733A0056616E65737361204C69DB
:10305E00006E393936363436330047414D45204FF0
:10306E00564552000A000500050001707020F82038
:10307E005088FFFFFFFFFFFF0000FFFF0000FFFF74
:10308E000000FE82BA929282FE20005305000001DB
:04309E00000000002E
:00000001FF
