:100000000C94C7010C94E4010C94E4010C94E401F9
:100010000C94E4010C94E4010C94E4010C94E401CC
:100020000C94E4010C94E4010C94E4010C94E401BC
:100030000C94E4010C94E4010C94E4010C94E401AC
:100040000C94E4010C94E4010C94E4010C94E4019C
:100050000C9401020C94E4010C94E4010C94EA0960
:100060000C94E4010C94E4010C94E4010C94E4017C
:100070000C94E4010C94E4010C94E4010C94E4016C
:100080000C94E4010C94E4010C94E4010C94E4015C
:100090000C94E4010C94E4010C94E4010C94E4014C
:1000A0000C94E4010C94E4010C94E40100000000C1
:1000B0000000005F00000007000700147F147F1499
:1000C000242A7F2A122313086462364955225000DD
:1000D00005030000001C2241000041221C001408FE
:1000E0003E081408083E08080050300000080808C0
:1000F0000808006060000020100804023E514945D5
:100100003E00427F400042615149462141454B310A
:100110001814127F1027454545393C4A494930019A
:10012000710905033649494936064949291E0036F1
:100130003600000056360000081422410014141442
:100140001414004122140802015109063249794170
:100150003E7E1111117E7F494949363E414141227F
:100160007F4141221C7F494949417F090909013EDC
:100170004149497A7F0808087F00417F41002040BB
:10018000413F017F081422417F404040407F020CE4
:10019000027F7F0408107F3E4141413E7F090909EB
:1001A000063E4151215E7F09192946464949493198
:1001B00001017F01013F4040403F1F2040201F3F81
:1001C0004038403F63140814630708700807615102
:1001D000494543007F41410002040810200041418D
:1001E0007F0004020102044040404040000102043C
:1001F0000020545454787F484444383844444420C0
:10020000384444487F3854545418087E0901020C7D
:100210005252523E7F0804047800447D4000204042
:10022000443D007F1028440000417F40007C0418BA
:1002300004787C0804047838444444387C1414144A
:1002400008081414187C7C080404084854545420EA
:10025000043F4440203C4040207C1C2040201C3C6B
:100260004030403C44281028440C5050503C4464DA
:10027000544C44000836410000007F000000413625
:100280000800100808100878464146786E616E0034
:10029000696E660000407A10F35A00A0724E180989
:1002A0000010A5D4E80000E87648170000E40B54DD
:1002B000020000CA9A3B000000E1F50500008096AC
:1002C0009800000040420F000000A08601000000DE
:1002D000102700000000E803000000006400000098
:1002E00000000A00000000000100000000002C7661
:1002F000D888DC674F0823DFC1DFAE59E1B1B7967C
:10030000E5E3E453C63AE651997696E8E6C28426D8
:10031000EB898C9B62ED407C6FFCEFBC9C9F40F2B4
:10032000BAA56FA5F490055A2AF75C936B6CF96730
:100330006DC11BFCE0E40D47FEF520E6B500D0EDF5
:10034000902E0300943577050080841E080000205D
:100350004E0A000000C80C333333330F986E1283FB
:100360001141EF8D2114893BE65516CFFEE6DB18CF
:10037000D1844B381BF77C1D901DA4BBE424203294
:1003800084725E228100C9F124ECA1E53D2711248D
:100390001FBECFEFDAE0DEBFCDBF11E0A0E0B1E0DD
:1003A000EEE8F4E402C005900D92A239B107D9F746
:1003B00016E0A2E9B1E001C01D92A237B107E1F752
:1003C0000E9468140C9445220C94000087E88093E6
:1003D0007A000895982F9F71906490937C008072AA
:1003E00080937B0080917A00806480937A00809172
:1003F0007A0086FDFCCF2091780030917900C90108
:1004000008951F920F920FB60F9211248F939F930E
:10041000AF93BF938091B0019091B101A091B201CF
:10042000B091B3010196A11DB11D8093B0019093CD
:10043000B101A093B201B093B301BF91AF919F916D
:100440008F910F900FBE0F901F901895AF92BF9293
:10045000CF92DF92EF92FF920F931F936091B001C2
:100460007091B1018091B2019091B301E09084004C
:10047000F09085000E94FD1C20E030E040E857E449
:100480000E94061E5B016C0100E010E0C801B7018C
:100490000E94FD1C9B01AC01C601B5010E94FC1B22
:1004A00020E030E040E852E40E94061E20E034E202
:1004B00044EF5AE40E94641C1F910F91FF90EF904B
:1004C000DF90CF90BF90AF9008952F923F924F92C0
:1004D0005F926F927F928F929F92AF92BF92CF92D4
:1004E000DF92EF92FF920F931F93DF93CF93CDB7DD
:1004F000DEB72E970FB6F894DEBF0FBECDBF81E0FA
:100500000E94EA01A0E0B0E0BC01CD010E94FD1C08
:100510007B018C0120E030E040E85FE30E94601C3A
:1005200088232CF480E090E0A0E0B0E033C0C80164
:10053000B70120E030E040E85FE30E94021E181699
:100540007CF4C801B70120E030E040E853E40E94A9
:10055000601C88232CF48DEC9CECACECBDE31AC041
:10056000C801B70120E030E040E853E40E94021ED9
:1005700018160CF054C0C801B70120E030E040E08C
:1005800054E40E94601C88230CF049C08AE999E970
:10059000A9E9BEE380932F0290933002A093310229
:1005A000B0933202209024023090250260917004B2
:1005B000709171042091740430917504409172041B
:1005C0005091730480902F0290903002A0903102DD
:1005D000B0903202D501C401B05889839A83AB83AD
:1005E000BC83A3E3B2E0BE87AD87CC24DD24CB017E
:1005F000AA2797FDA095BA2F8D839E83AF83B887D6
:10060000C901AA2797FDA095BA2F89879A87AB873A
:10061000BC872A01662457FC6094762C90C0C801E0
:10062000B70120E030E040E054E40E94021E1816BA
:100630007CF4C801B70120E030E040E454E40E94BB
:10064000601C88232CF480E090E0A0E0BFE3A2CF00
:10065000C801B70120E030E040E454E40E94021EEB
:1006600018160CF09FCFC801B70120E030E040E839
:1006700054E40E94601C88230CF094CF83E393E33E
:10068000A3E3BFE387CFAD85BE851496ED90FD90C3
:100690000D911C9117976D817E818F8198850E94A5
:1006A000FF1C9B01AC01C801B7010E94601C88239C
:1006B00071F069857A858B859C850E94FF1C9B0162
:1006C000AC01C801B7010E94601C882339F4ED8594
:1006D000FE8580869186A286B38616C0C301B201CC
:1006E0000E94FF1C9B01AC01C801B7010E94601C65
:1006F000882351F489819A81AB81BC81ED85FE8587
:1007000080879187A287B387AD85BE856D917D91E6
:100710008D919C91139718962D913D914D915C91DF
:100720001B970E94FC1BED85FE856083718382838D
:1007300093830894C11CD11C7596FE87ED87C21463
:10074000D3040CF4A0CF2E960FB6F894DEBF0FBEE4
:10075000CDBFCF91DF911F910F91FF90EF90DF9070
:10076000CF90BF90AF909F908F907F906F905F9051
:100770004F903F902F900895AF92BF92CF92DF920B
:10078000EF92FF920F931F93CF93DF93A0902402D9
:10079000B0902502C3E3D2E0CC24DD2429C0E88058
:1007A000F9800A811B81C801B70120E030E048EAE6
:1007B00052E40E94021E18162CF480E090E0A0E2A1
:1007C000B1EC0EC0C801B70120E030E040E251ECCE
:1007D0000E94601C882344F480E090E0A8EAB2E420
:1007E00088839983AA83BB830894C11CD11C659616
:1007F000CA14DB04A4F2DF91CF911F910F91FF90F7
:10080000EF90DF90CF90BF90AF9008950E94650267
:100810000E94BC0308958091AA01882379F58091F4
:100820005101882329F080E090E0A0E0BFE304C0FC
:1008300080E090E0A0E0BFEB8093600490936104BF
:10084000A0936204B09363046091580470915904BA
:1008500080915A0490915B0420916004309161046E
:1008600040916204509163040E94FC1B6093580401
:100870007093590480935A0490935B040895EF9207
:10088000FF920F931F93E0905804F0905904009149
:100890005A0410915B04C801B70120E030E040E049
:1008A00050E00E94601C882324F481E08093510171
:1008B0000CC0C801B70120E030E04AE952E40E94D0
:1008C000021E181614F4109251011F910F91FF90FF
:1008D000EF9008950E943F040E940B0408956F92C8
:1008E0007F928F929F92AF92BF92CF92DF92EF92C0
:1008F000FF920F931F93DF93CF93CDB7DEB7289767
:100900000FB6F894DEBF0FBECDBF6D8C7E8C8F8C82
:1009100098A0E98CFA8C0B8D1C8D6AA570E0882755
:1009200077FD8095982F0E94FF1C9B01AC01C401AC
:10093000B3010E94FC1B0E94CC1C5B016C0169A5E9
:1009400070E0882777FD8095982F0E94FF1C9B01FF
:10095000AC01C801B7010E94FC1B20E030E040E878
:100960005FE30E94FB1B0E94CC1C78876F83C80149
:10097000B7010E94CC1C7E836D83BC82AB82C40114
:10098000B3010E94CC1C7A83698329813A814B810F
:100990005C816D817E818F81988528960FB6F89451
:1009A000DEBF0FBECDBFCF91DF911F910F91FF90A2
:1009B000EF90DF90CF90BF90AF909F908F907F90FF
:1009C0006F90089580912902882351F08091AD01A4
:1009D000882319F01092AD0103C081E08093AC012F
:1009E00080916D04882351F08091AC01882319F027
:1009F0001092AC01089581E08093AD0108953F927B
:100A00004F925F926F927F928F929F92AF92BF921E
:100A1000CF92DF92EF92FF920F931F93DF93CF93CA
:100A2000CDB7DEB768970FB6F894DEBF0FBECDBF67
:100A3000E0902402F0902502BB2400E010E08CE25C
:100A400090E08C0F9D1F382EA92E2E010894411C7A
:100A5000511C21E1C22ED12CCC0EDD1E95E1692E58
:100A6000712C89E0882E912C8C0E9D1E79C0EDB7DB
:100A7000FEB775970FB6F894FEBF0FBEEDBFADB7CA
:100A8000BEB71196832D9A2DFC0185E101900D9240
:100A90008150E1F70E946F04EDB7FEB775960FB66F
:100AA000F894FEBF0FBEEDBF298B3A8B4B8B5C8B4E
:100AB0006D8B7E8B8F8B988FD201F60188E0019031
:100AC0000D928150E1F78DB79EB745970FB6F89418
:100AD0009EBF0FBE8DBF069DF001079DF00D169DB8
:100AE000F00D1124ADB7BEB71196ED5CFD4F85E159
:100AF00001900D928150E1F70E946F04EDB7FEB7AF
:100B000075960FB6F894FEBF0FBEEDBF298B3A8BDA
:100B10004B8B5C8B6D8B7E8B8F8B988FD401F6010A
:100B200088E001900D928150E1F72B813C8189850D
:100B30009A852817390791F48F85988903962F8114
:100B400038858217930754F08D859E8503972D81F4
:100B50003E812817390714F0BB24B3940F5F1F4F51
:100B60000E151F050CF483CF8B2D68960FB6F894E5
:100B7000DEBF0FBECDBFCF91DF911F910F91FF90D0
:100B8000EF90DF90CF90BF90AF909F908F907F902D
:100B90006F905F904F903F9008952F923F924F92A9
:100BA0005F926F927F928F929F92AF92BF92CF92FD
:100BB000DF92EF92FF920F931F93CF93DF93609199
:100BC0002F027091300280913102909132022AE915
:100BD00039E949E95EE30E94FC1B3B014C01CFEE81
:100BE000D3E033E8C32E31E0D32EAA24BB241B016B
:100BF0002C0157FA509457F850942DB73EB7255111
:100C000030400FB6F8943EBF0FBE2DBF45E150E017
:100C1000A49EF001A59EF00DB49EF00D1124ADB779
:100C2000BEB71196E151FC4F85E101900D928150C4
:100C3000E1F70E94FF04982FADB7BEB755960FB6E7
:100C4000F894BEBF0FBEADBF882309F06FC0E88423
:100C5000F9840A851B85C801B70120E030E040E037
:100C600050E00E94601C882341F56C857D858E854F
:100C70009F852DEC3CEC4CEC5DE30E94FC1B6C87EB
:100C80007D878E879F8720E030E040E050E0288716
:100C900039874A875B8720E030E040E85FE30E94C5
:100CA000021E18160CF097C080E090E0A0E8BFE3A9
:100CB0008C879D87AE87BF878EC0C801B70120E0B3
:100CC00030E040E050E00E94021E181684F4688173
:100CD00079818A819B8120E030E040E050E40E94ED
:100CE000FB1B688379838A839B83D6011C9268856A
:100CF00079858A859B8520E030E040E050E00E94C5
:100D0000601C88230CF067C0688179818A819B818F
:100D100020E030E040E050E40E94FC1B68837983CF
:100D20008A839B8321E0F601208355C0D6018C91F4
:100D3000882329F0688679868A869B8604C028865F
:100D400039864A865B86992309F445C020E030E065
:100D500040E050E02C873D874E875F876C817D8126
:100D60008E819F8120E030E040EE50E40E94FC1B29
:100D70000E94CC1C2091700430917104621773079B
:100D80002CF0C901039686179707C4F420917204CA
:100D900030917304621773072CF0C901039686170C
:100DA000970764F4209174043091750462177307F7
:100DB00094F0C9010396861797076CF027503040CE
:100DC000B901882777FD8095982F0E94FF1C6C83BE
:100DD0007D838E839F836C817D818E819F812C8515
:100DE0003D854E855F850E94FC1B6C837D838E83D1
:100DF0009F83688179818A819B81288539854A858D
:100E00005B850E94FC1B688379838A839B8308949B
:100E1000A11CB11C65960894C11CD11C35E0A31619
:100E2000B10409F0EACEDF91CF911F910F91FF90AD
:100E3000EF90DF90CF90BF90AF909F908F907F907A
:100E40006F905F904F903F902F900895EF92FF9298
:100E50000F931F93CF93DF93CFEED3E0E880F98019
:100E60000A811B81C801B70120E030E048EA52E462
:100E70000E94021E18162CF480E090E0A0EAB0EC6C
:100E80000EC0C801B70120E030E040EA50EC0E94FB
:100E9000601C882344F480E090E0A8EAB2E48883F0
:100EA0009983AA83BB83659684E0C835D807B1F6D9
:100EB000DF91CF911F910F91FF90EF9008951F93B5
:100EC0000E94260210E00E94CC1C643071050CF0D8
:100ED00011E0812F1F9108952F923F924F925F92C0
:100EE0006F927F928F929F92AF92BF92CF92DF923A
:100EF000EF92FF920F931F93DF93CF93CDB7DEB79F
:100F00006E970FB6F894DEBF0FBECDBF20904B0199
:100F100030904C0140904F015090500180904D0115
:100F200090904E0159E7652E51E0752E4FEEA42E9C
:100F300043E0B42ECC24DD244DB75EB7455150407C
:100F40000FB6F8945EBF0FBE4DBF85E190E0C89E1E
:100F5000F001C99EF00DD89EF00D1124ADB7BEB7BB
:100F60001196E151FC4F85E101900D928150E1F71E
:100F70000E946F04ADB7BEB755960FB6F894BEBFCA
:100F80000FBEADBF298B3A8B4B8B5C8B6D8B7E8BF1
:100F90008F8B988FDE011196FE01719688E001908B
:100FA0000D928150E1F7ED81FE81FC8FEB8F4F8137
:100FB00058855A8F498F8B819C819E8F8D8F0BEB2B
:100FC00011E0EE24FF248CC0ADB7BEB755970FB625
:100FD000F894BEBF0FBEADBF45E150E0E49EF00106
:100FE000E59EF00DF49EF00D11241196E554FE4F90
:100FF00085E101900D928150E1F70E946F04ADB739
:10100000BEB755960FB6F894BEBF0FBEADBF298BC5
:101010003A8B4B8B5C8B6D8B7E8B8F8B988FDE012D
:101020001996FE01719688E001900D928150E1F7CA
:101030002D853E858B859C85ED8DFE8DE817F90706
:1010400009F049C08F859889498D5A8D48175907ED
:1010500034F08B8D9C8D281739075CF43CC0AB8D28
:10106000BC8D2A173B07BCF1E98DFA8DE217F30717
:1010700094F180E090E0A2EAB2E4F80180839183E9
:10108000A283B38380E090E0A0E0B0E08483958306
:10109000A683B783128A0894811C911CD3016D9199
:1010A0007C91882777FD8095982F0E94FF1CF50181
:1010B000608371838283938380E090E0A0EEB0EC44
:1010C00084839583A683B7830894410851084AE036
:1010D00050E0240E351E0894E11CF11C0B5E1F4FDE
:1010E000E814F9040CF470CF0894C11CD11C82E000
:1010F00090E0680E791EA5E1B0E0AA0EBB1EB5E037
:10110000CB16D10409F018CF30924C0120924B013C
:101110005092500140924F0190924E0180924D01A9
:101120006E960FB6F894DEBF0FBECDBFCF91DF91A4
:101130001F910F91FF90EF90DF90CF90BF90AF90F5
:101140009F908F907F906F905F904F903F902F90E7
:1011500008950E945F07882321F00E94CD050E9418
:101160006C070E94260708952F923F924F925F923C
:101170006F927F928F929F92AF92BF92CF92DF92A7
:10118000EF92FF920F931F93DF93CF93CDB7DEB70C
:1011900068970FB6F894DEBF0FBECDBF2090240233
:1011A000309025027BEBC72E71E0D72EAA24BB24FA
:1011B0008DB79EB745970FB6F8949EBF0FBE8DBFF3
:1011C00085E190E0A89EF001A99EF00DB89EF00D7B
:1011D0001124ADB7BEB71196E554FE4F85E10190DD
:1011E0000D928150E1F70E946F04EDB7FEB775963E
:1011F0000FB6F894FEBF0FBEEDBF298B3A8B4B8B19
:101200005C8B6D8B7E8B8F8B988FDE011196FE0130
:10121000719688E001900D928150E1F74B805C80DF
:101220006F8078848D809E806BE3E62E62E0F62EE0
:1012300000E010E055C08DB79EB745970FB6F89403
:101240009EBF0FBE8DBF85E190E0089FF001099F12
:10125000F00D189FF00D1124ADB7BEB71196ED5CDF
:10126000FD4F85E101900D928150E1F70E946F04DE
:10127000EDB7FEB775960FB6F894FEBF0FBEEDBF83
:10128000298B3A8B4B8B5C8B6D8B7E8B8F8B988FE6
:10129000DE011996FE01719688E001900D92815051
:1012A000E1F789859A8548165906A1F48F859889B2
:1012B000861597057CF08D859E858816990654F0D5
:1012C000F70180819181A281B381F60180879187A6
:1012D000A287B3870F5F1F4F85E190E0E80EF91EEC
:1012E000021513050CF4A7CFF6016081718182818C
:1012F000938120853185428553850E94FC1BF60130
:1013000060837183828393830894A11CB11C85E15F
:1013100090E0C80ED91E95E0A916B10409F048CF97
:1013200068960FB6F894DEBF0FBECDBFCF91DF91A8
:101330001F910F91FF90EF90DF90CF90BF90AF90F3
:101340009F908F907F906F905F904F903F902F90E5
:101350000895EF92FF920F931F93CF93DF93CBEB00
:10136000D1E0E880F9800A811B81C801B70120E043
:1013700030E048EA52E40E94021E18162CF480E085
:1013800090E0A0E0B0EC0EC0C801B70120E030E072
:1013900040E050EC0E94601C882344F480E090E020
:1013A000A8EAB2E488839983AA83BB83659682E026
:1013B000C432D807B1F6DF91CF911F910F91FF9002
:1013C000EF900895519821985098279820988598E3
:1013D000869808951F920F920FB60F9211248F9343
:1013E0009F938091920199B1880F8E71969591701B
:1013F000892B80939201809192018F3121F481E0B9
:101400008093930106C080919201882311F4109279
:10141000930180919401880F8E7190E01F9991E063
:10142000892B80939401809194018F3121F481E084
:101430008093950106C080919401882311F4109245
:101440009501909195018091A101981749F08091A3
:1014500095011092A101882319F081E08093A101E8
:101460008091960193B1880F8E7196959170892B1A
:1014700080939601809196018F3121F481E08093D1
:10148000970106C080919601882311F4109297016C
:101490008091980199B1880F8E719170892B8093FA
:1014A0009801809198018F3121F481E08093990116
:1014B00006C080919801882311F4109299018091BF
:1014C0009A0193B1880F8E719170892B80939A0144
:1014D00080919A018F3121F481E080939B0106C0B5
:1014E00080919A01882311F410929B0190919B01A5
:1014F0008091A401981749F080919B011092A4015A
:10150000882319F081E08093A40180919C019FB110
:10151000880F8E719295969596959170892B8093F0
:101520009C0180919C018F3121F481E080939D0189
:1015300006C080919C01882311F410929D01809136
:101540009E019FB1880F8E71929596959170892B0F
:1015500080939E0180919E018F3121F481E08093E0
:101560009F0106C080919E01882311F410929F0173
:1015700090919F018091A601981749F080919F0159
:101580001092A601882319F081E08093A6019F9113
:101590008F910F900FBE0F901F901895809195011D
:1015A0009091B401891719F4109226020DC0809110
:1015B0009501891749F080919501109226028823A0
:1015C00019F081E080932602809195018093B40107
:1015D00080919F019091B501891719F410922D0205
:1015E0000DC080919F01891749F080919F01109251
:1015F0002D02882319F081E080932D0280919F01B4
:101600008093B50190919B018091B601981759F094
:1016100080919B018093B60110922E02882319F0CD
:1016200081E080932E02909193018091B7019817E9
:1016300059F0809193018093B7011092EE038823B3
:1016400019F081E08093EE03909197018091B801A9
:10165000981759F0809197018093B80110926D040A
:10166000882319F081E080936D0490919901809115
:10167000B901981759F0809199018093B90110929E
:101680002902882319F081E08093290290919D011D
:101690008091BA01981759F080919D018093BA0109
:1016A00010922C02882319F081E080932C02089577
:1016B00080912D02882331F08091AA0191E0892741
:1016C0008093AA010895EF92FF920F931F93809148
:1016D0002E028823E9F081E08093A8010E9426026F
:1016E0007B018C016091270270912802882777FD89
:1016F0008095982F0E94FF1C9B01AC01C801B70187
:101700000E94FB1B0E94CC1C7093D8036093D703EC
:101710001F910F91FF90EF9008950E94001582E1B4
:1017200090E06BE070E040E051E020E00E94F716AE
:1017300084E190E064E170E04BE051E021E00E9440
:10174000F7160E941C177E9BFECF08950F931F93E0
:10175000DF93CF93CDB7DEB72F970FB6F894DEBFE8
:101760000FBECDBF00D000D000D0EDB7FEB7319690
:101770008E010F5F1F4FADB7BEB712961C930E932D
:10178000119784E191E09383828380914F0190913E
:101790005001958384830E9467218DB79EB706967A
:1017A0000FB6F8949EBF0FBE8DBF8AE090E069E24D
:1017B00070E047E151E021E00E94F71682E390E0FB
:1017C00069E270E0A80121E00E94F7162F960FB69B
:1017D000F894DEBF0FBECDBFCF91DF911F910F9167
:1017E00008950F931F93DF93CF93CDB7DEB72F9755
:1017F0000FB6F894DEBF0FBECDBF00D000D000D032
:10180000EDB7FEB731968E010F5F1F4FADB7BEB774
:1018100012961C930E93119784E191E09383828337
:1018200080914D0190914E01958384830E946721A0
:101830008DB79EB706960FB6F8949EBF0FBE8DBFAC
:101840008AE090E06FE170E040E251E021E00E9428
:10185000F7168DE290E06FE170E0A80121E00E94B0
:10186000F7162F960FB6F894DEBF0FBECDBFCF91FF
:10187000DF911F910F9108950F931F93DF93CF93E3
:10188000CDB7DEB72F970FB6F894DEBF0FBECDBF32
:1018900000D000D000D0EDB7FEB731968E010F5FBB
:1018A0001F4FADB7BEB712961C930E93119784E1EC
:1018B00091E0938382838091AE019091AF019583F3
:1018C00084830E9467218DB79EB706960FB6F89461
:1018D0009EBF0FBE8DBF8AE090E06BE070E046E2F5
:1018E00051E021E00E94F7168DE290E06BE070E09D
:1018F000A80121E00E94F7162F960FB6F894DEBFDC
:101900000FBECDBFCF91DF911F910F9108950F931F
:101910001F93DF93CF93CDB7DEB72F970FB6F89411
:10192000DEBF0FBECDBF00D000D000D0EDB7FEB7F8
:1019300031968E010F5F1F4FADB7BEB712961C9345
:101940000E93119784E191E09383828380914B0100
:1019500090914C01958384830E9467218DB79EB737
:1019600006960FB6F8949EBF0FBE8DBF8AE090E03A
:1019700061E070E04DE251E021E00E94F7168DE257
:1019800090E061E070E0A80121E00E94F7162F9638
:101990000FB6F894DEBF0FBECDBFCF91DF911F9180
:1019A0000F9108954F925F926F927F928F929F92C4
:1019B000AF92BF92CF92DF92EF92FF920F931F935D
:1019C000DF93CF93CDB7DEB76E970FB6F894DEBF37
:1019D0000FBECDBF0091D7031091D803C8016CE3AF
:1019E00070E00E94891E882777FD8095982F0E94BD
:1019F000FF1C0E943A1D3B014C01C8016CE370E0E2
:101A00000E94891EAA2797FDA095BA2FBC01CD017F
:101A10000E94FF1C0E943A1D5B016C0100D000D0A7
:101A200000D00DB71EB70F5F1F4F2E010894411C49
:101A3000511CEDB7FEB752824182F4E3EF2EF1E084
:101A4000FF2EF801F382E282C401B3010E94CC1C94
:101A5000F801758364830E9467210DB71EB70F5F7D
:101A60001F4FE0E18E2E912C8C0E9D1EEDB7FEB720
:101A700092828182F801F382E282C601B5010E945E
:101A8000CC1CF801758364830E9467218DB79EB7D3
:101A900006960FB6F8949EBF0FBE8DBF8AE090E009
:101AA00065E170E049E351E021E00E94F7168DE224
:101AB00090E065E170E0A20121E00E94F71687E363
:101AC00090E065E170E04FE351E021E00E94F716FD
:101AD0008BE390E065E170E0A40121E00E94F7163D
:101AE0006E960FB6F894DEBF0FBECDBFCF91DF91DB
:101AF0001F910F91FF90EF90DF90CF90BF90AF902C
:101B00009F908F907F906F905F904F900895EF928D
:101B1000FF920F931F9332C010922E020E94CE0AA2
:101B20000E9400150E94870C0E943C0C0E94D20C5F
:101B30000E94F10B0E94A60B0E941C1780912E029E
:101B40008823E1F00E9426027B018C016091D7037B
:101B50007091D803882777FD8095982F0E94FF1CED
:101B60009B01AC01C801B7010E94FB1B0E94CC1C69
:101B700070932802609327021092A8018091A80117
:101B8000882351F61F910F91FF90EF9008951F93B6
:101B9000E1E6F0E080E8808311E010830E94E20932
:101BA00087E880937A008FE30E9450170E94811784
:101BB00014BC84E085BD10936E001092800083E019
:101BC0008093810010936F0078941F9108950F9374
:101BD0001F93CF93DF9303E312E0C0E0D0E006C091
:101BE000C8010E94C61721960B5E1F4F80912402E8
:101BF00090912502C817D9079CF3DF91CF911F91CF
:101C00000F910895CF93DF93CFEED3E0CE010E94E2
:101C1000C617659684E0C835D807C1F7DF91CF9124
:101C20000895CF93DF93CBEBD1E0CE010E94C6178E
:101C3000659682E0C432D807C1F7DF91CF9108954D
:101C40000E9400150E94E70D89ED93E00E94C617DF
:101C500088E594E00E94C6170E94110E0E94020EB1
:101C60000E941C1708958F929F92AF92BF92CF92BD
:101C7000EF920F931F93CF93DF93F9E78F2EF1E04D
:101C80009F2ECFEED3E0F401619171914F0188272F
:101C900077FD8095982F0E94FF1CAB01BC01CE01FF
:101CA00000E010E020EE30ECE5E0EE2EB7E0CB2EC9
:101CB000A2E7AA2EA1E0BA2E0E949E176596F3E82D
:101CC0008F16F1E09F06F9F6DF91CF911F910F91EA
:101CD000EF90CF90BF90AF909F908F900895AF926C
:101CE000BF92CF92EF920F931F93CF93DF93CBEBE3
:101CF000D1E0CE0140E050E062EA72E400E010E0A2
:101D000020E030E0E2E0EE2EB2E0CB2EA0E7AA2EFB
:101D1000A1E0BA2E0E949E171A8A659682E0C4320C
:101D2000D80739F7DF91CF911F910F91EF90CF90A6
:101D3000BF90AF900895AF92BF92CF92EF920F9362
:101D40001F9388E594E040E050E060E070E000E040
:101D500010E024E232E4B7E0EB2EA7E0CA2EF9E669
:101D6000AF2EF1E0BF2E0E949E171F910F91EF90B2
:101D7000CF90BF90AF9008956F927F928F929F9275
:101D8000AF92BF92CF92DF92EF92FF920F931F9389
:101D9000CF93DF938090240290902502809170046D
:101DA00090917104C3E3D2E0AA24BB2400E010E0C8
:101DB0006C01EE24D7FCE094FE2CB5E16B2E712C67
:101DC0002CC0C701B6010E94FF1C9B01AC016C81B5
:101DD0007D818E819F810E94601C8823D9F48B892C
:101DE0009C8989559140B1F4A69CF001A79CF00D07
:101DF000B69CF00D1124ED5CFD4F688179818A81DC
:101E00009B8120813181428153810E94601C882303
:101E10000CF458010F5F1F4F6596081519058CF2D9
:101E200085E190E0A89E8001A99E100DB89E100D3E
:101E300011240D5C1D4FF8016081718182819381B5
:101E400020E030E040E850E40E94FC1B6B017C0184
:101E5000F801648175818681978120E030E040EE51
:101E600050E40E94FB1B8B019C0189ED93E0B701BC
:101E7000A601A5E0EA2EF7E0CF2EE2E5AE2EE1E0E6
:101E8000BE2E0E949E17DF91CF911F910F91FF9060
:101E9000EF90DF90CF90BF90AF909F908F907F900A
:101EA0006F90089589ED93E00E94941F1092AC0109
:101EB0001092AD010E94BC0E0895DF93CF93CDB771
:101EC000DEB768970FB6F894DEBF0FBECDBF8DB7F3
:101ED0009EB745970FB6F8949EBF0FBE8DBFADB7A6
:101EE000BEB71196E8E5F4E085E101900D928150CE
:101EF000E1F70E946F04EDB7FEB775960FB6F89440
:101F0000FEBF0FBEEDBF298B3A8B4B8B5C8B6D8B6D
:101F10007E8B8F8B988FDE011196FE01719688E083
:101F200001900D928150E1F78DB79EB745970FB69E
:101F3000F8949EBF0FBE8DBFADB7BEB71196E9ED49
:101F4000F3E085E101900D928150E1F70E946F046A
:101F5000EDB7FEB775960FB6F894FEBF0FBEEDBF96
:101F6000298B3A8B4B8B5C8B6D8B7E8B8F8B988FF9
:101F7000DE011996FE01719688E001900D92815064
:101F8000E1F72B853C8589819A81281739070CF167
:101F90008D819E8103972D853E8528173907CCF0CA
:101FA0008F81988503962F853889821793078CF047
:101FB00080914B0190914C01029690934C0180933B
:101FC0004B0110926A0488E594E00E94941F0E94DD
:101FD000520F68960FB6F894DEBF0FBECDBFCF91FB
:101FE000DF910895DF93CF93CDB7DEB760970FB63B
:101FF000F894DEBF0FBECDBF8DB79EB745970FB625
:10200000F8949EBF0FBE8DBFADB7BEB71196E9ED78
:10201000F3E085E101900D928150E1F70E946F0499
:10202000EDB7FEB775960FB6F894FEBF0FBEEDBFC5
:1020300029873A874B875C876D877E878F87988B48
:10204000DE011196FE01399688E001900D928150D3
:10205000E1F78B819C81C1976CF489819A8197FD0E
:1020600009C08D819E8197FD05C08F81988585353A
:1020700091055CF080914B0190914C0101979093F8
:102080004C0180934B010E94520F60960FB6F8945A
:10209000DEBF0FBECDBFCF91DF9108952F923F924B
:1020A0004F925F926F927F928F929F92BF92CF9248
:1020B000DF92EF92FF920F931F93DF93CF93CDB7F1
:1020C000DEB768970FB6F894DEBF0FBECDBF96E4BB
:1020D000C92E92E0D92EBB24EE24FF2485E1282EC0
:1020E000312C2E010894411C511C01E1802E912CB1
:1020F0008C0E9D1E19E0612E712C6C0E7D1EA4C0ED
:102100008DB79EB745970FB6F8949EBF0FBE8DBF93
:10211000E29CF001E39CF00DF29CF00D1124ADB7B0
:10212000BEB71196ED5CFD4F85E101900D92815097
:10213000E1F70E946F04EDB7FEB775960FB6F894FD
:10214000FEBF0FBEEDBF298B3A8B4B8B5C8B6D8B2B
:102150007E8B8F8B988FD201F40188E001900D92D5
:102160008150E1F709811A818DB79EB745970FB667
:10217000F8949EBF0FBE8DBFADB7BEB71196E9ED07
:10218000F3E085E101900D928150E1F70E946F0428
:10219000EDB7FEB775960FB6F894FEBF0FBEEDBF54
:1021A000298B3A8B4B8B5C8B6D8B7E8B8F8B988FB7
:1021B000D301F40188E001900D928150E1F78B8505
:1021C0009C8580179107C9F58F81988505962F8585
:1021D0003889821793078CF18D819E8105972D8513
:1021E0003E85281739074CF1F60180819181895588
:1021F0009140C1F4F0922B02E0922A020750104065
:10220000B801882777FD8095982F0E94FF1C609366
:10221000DD037093DE038093DF039093E003BB2420
:10222000B3940BC080914B0190914C010197909316
:102230004C0180934B010E94520F0894E11CF11C49
:1022400085E190E0C80ED91E80912402909125026C
:10225000E816F9060CF454CF8B2D68960FB6F89457
:10226000DEBF0FBECDBFCF91DF911F910F91FF90C9
:10227000EF90DF90CF90BF909F908F907F906F9066
:102280005F904F903F902F900895EF92FF920F93A1
:102290001F93DF93CF93CDB7DEB72A970FB6F8948D
:1022A000DEBF0FBECDBF0E944E10982F2DEC31E047
:1022B000AE014F5F5F4FE0E0F0E0D9018C918823E1
:1022C00019F4DA01ED93FC9331962B5E3F4F4E5F8C
:1022D0005F4FE530F10589F7E0904D01F0904E0138
:1022E000EE19FF09EE0FFF1FEC0FFD1F2181328158
:1022F00080912602882309F443C01E141F040CF0A9
:102300003FC09923E9F185E190E0289F8001299F52
:10231000100D389F100D112405541E4F6091D903E4
:102320007091DA038091DB039091DC0320E030E0D0
:1023300040E050E40E94FC1BF801608371838283BB
:1023400093836091DD037091DE038091DF039091B0
:10235000E00320E030E040EA50E40E94FC1BD8019A
:1023600014966D937D938D939C93179781E052966D
:102370008C930894E108F108F0924E01E0924D012F
:102380002A960FB6F894DEBF0FBECDBFCF91DF9176
:102390001F910F91FF90EF9008950E9445110E94A8
:1023A000B4080E94A90908950E944E10882379F567
:1023B0006091E5037091E6038091E7039091E80353
:1023C0002DEC3CEC4CE45EE30E94FC1B6093E503C7
:1023D0007093E6038093E7039093E80320E030E0F6
:1023E00040E85FE30E94021E181664F480E090E06B
:1023F000A0E8BFE38093E5039093E603A093E7038F
:10240000B093E8031092AC011092AD010CC080E0D3
:1024100090E0A0E0B0E08093E5039093E603A09302
:10242000E703B093E8036091DD037091DE038091D0
:10243000DF039091E0032091E5033091E6034091A2
:10244000E7035091E8030E94FC1B6093DD03709347
:10245000DE038093DF039093E0030895EF92FF92F1
:102460000F931F930E944E10982F8091EE038823A4
:1024700031F1992309F465C08DEC9CECACE0B0EC33
:102480008093E5039093E603A093E703B093E803FA
:102490006091DD037091DE038091DF039091E00392
:1024A0002DEC3CEC4CE050E40E94FB1B6093DD0300
:1024B0007093DE038093DF039093E00303C09923BE
:1024C00009F43FC06091DD037091DE038091DF036A
:1024D0009091E00320E030E040EE50E40E94FC1BCD
:1024E0000E94CC1C80917004909171046817790748
:1024F00039F080917404909175046817790749F454
:1025000080912F0290913002A0913102B09132025D
:1025100010C080917204909173046817790789F450
:1025200080912F0290913002A0913102B09132023D
:10253000B0588093E1039093E203A093E303B09338
:10254000E4038091AC01882379F16091DD037091FF
:10255000DE038091DF039091E00320E030E040EE65
:1025600050E40E94FC1B7B018C016091720470910D
:102570007304882777FD8095982F0E94FF1C9B018C
:10258000AC01C801B7010E94601C60912F027091DC
:102590003002809131029091320220E030E040E040
:1025A0005FE30E94FC1B33C08091AD018823B9F129
:1025B0006091DD037091DE038091DF039091E00371
:1025C00020E030E040EE50E40E94FC1B7B018C01D7
:1025D0006091720470917304882777FD8095982F1D
:1025E0000E94FF1C9B01AC01C801B7010E94601C46
:1025F00060912F02709130028091310290913202ED
:1026000020E030E040E05FE30E94FC1B90586093C4
:10261000E1037093E2038093E3039093E4036091FA
:10262000D9037091DA038091DB039091DC03209150
:10263000E1033091E2034091E3035091E4030E94EF
:10264000FC1B6093D9037093DA038093DB039093B0
:10265000DC031F910F91FF90EF9008950E944E10A0
:102660008823C1F020912A0230912B0280916E04C0
:1026700090916F042817390769F030936F04209305
:102680006E048091AE019091AF0101969093AF01DD
:102690008093AE0108950E94D4110E94E2040E942A
:1026A0002E120E94F20F0E945D0F0E942E130895B9
:1026B0002F923F924F925F926F927F928F929F9252
:1026C000AF92BF92CF92DF92EF92FF920F931F9340
:1026D000DF93CF9300D000D000D0CDB7DEB71092FB
:1026E000250210922402B0E72B2EB4E03B2EA7E087
:1026F0004A2E512C86B590E00E9442201E821D82F7
:102700009201442737FD4095542F29833A834B8308
:102710005C830E943D20AA2797FDA095BA2FBC019B
:10272000CD010E94FF1C20E03EEF4FEF56E40E94D7
:10273000641C23E333E343EB5EE30E94601C87FDEC
:102740006FC00E943D207C014D815E81BA018827C7
:1027500077FD8095982F0E94FF1C5B016C016981B9
:102760007A818B819C810E94FF1C3B014C010E945D
:10277000CC1CD1016D937C930027F7FC0095102FA2
:10278000C801B7010E94FF1C20E03EEF4FEF56E466
:102790000E94641C2DEC3CEC4CE45EE30E94021EA3
:1027A00020912402309125021816C4F4E5E1F0E0EE
:1027B0002E9FC0012F9F900D3E9F900D11248D5C88
:1027C0009D4FA501B60194018301FAE0EF2EE3E0ED
:1027D000CE2EB9E5AB2EB1E0BB2E17C045E150E0DF
:1027E000249FC001259F900D349F900D11248D5C76
:1027F0009D4FA501B60194018301AAE0EA2EF3E002
:10280000CF2EE1E6AE2EE1E0BE2E0E949E17809113
:102810002402909125020196909325028093240230
:102820008D819E810C969E838D838435910509F060
:1028300070CFADE0B0E04A0E5B1EE2E0F0E02E0E9D
:102840003F1EFEE24F16510409F054CF26960FB6F4
:10285000F894DEBF0FBECDBFCF91DF911F910F91D6
:10286000FF90EF90DF90CF90BF90AF909F908F90B0
:102870007F906F905F904F903F902F900895AF9210
:10288000BF92CF92EF920F931F930E9458130E9412
:10289000BC0E88E594E040E050E060E070E000E0CD
:1028A00010E024E232E4A7E0EA2EF7E0CF2EE9E6DA
:1028B000AE2EE1E0BE2E0E949E170E946F0E0E9477
:1028C000330E1F910F91EF90CF90BF90AF9008956E
:1028D000CF93DF930E94C70D0E948D0B0E943F147F
:1028E000C8ECD0E009C00E94D7148AE491E0FE0150
:1028F0003197F1F70197D9F78091A701882321F447
:102900008091AB01882379F380E090E0DF91CF9153
:1029100008951092A7011092A8011092AA01109296
:10292000AC011092AD018AE090E090934C0180934D
:102930004B011092AF011092AE0185E090E09093B0
:102940004E0180934D019093500180934F010E945E
:102950006814089527C00E9400158AE090E06AE09C
:1029600070E041E451E021E00E94F7160E941C173C
:102970007D9B04C00E9489141092A9017E9B12C005
:102980001092A90181E08093AB010E94001584E1BF
:1029900090E064E170E04BE051E021E00E94F71626
:1029A0000E941C178091A9018823A9F608950E940E
:1029B000CE0A80912D02882331F08091AA0191E006
:1029C00089278093AA010E94630B0E94870D0E94B1
:1029D0004B130E9406040E946A040E94CD110E94BB
:1029E000A9080E94200E80914B0190914C0118166D
:1029F00019062CF00E94AA1481E08093A901089581
:102A0000E6E7F4E0119286E0EE36F807D9F708958C
:102A10009C0197FD37C077FD35C08435910594F54D
:102A2000603371057CF5CB0173E0959587957A95B8
:102A3000E1F76770452B99F0E4E58E9FF0011124D2
:102A4000E20FF31FEA58FB4F81E090E002C0880FCD
:102A5000991F6A95E2F72081282B20830895E4E5E9
:102A60008E9FF0011124E20FF31FEA58FB4F81E023
:102A700090E002C0880F991F6A95E2F78095208147
:102A80002823208308952F923F924F925F926F9256
:102A90007F928F929F92AF92BF92CF92DF92EF92EE
:102AA000FF920F931F93DF93CF93CDB7DEB72E978F
:102AB0000FB6F894DEBF0FBECDBF7C016B014A019B
:102AC00039011C870B8784179507F9F45B0110C047
:102AD000C701B5014B855C850E940815C614D70453
:102AE00024F40894A11CB11C03C00894A108B108E7
:102AF000C614D7042CF46A147B040CF4FDC0E8CF90
:102B0000A614B7040CF4F8C0E3CF62177307F9F406
:102B10005C0110C0C501B6014B855C850E9408159B
:102B2000E814F90424F40894A11CB11C03C008940F
:102B3000A108B108E814F9042CF48A149B040CF4DD
:102B4000DBC0E8CFA814B9040CF4D6C0E3CF481713
:102B5000590724F447017A013B016901B4016E1958
:102B60007F09882777FD8095982F0E94FF1C6F832F
:102B7000788789879A87B3016C197D09882777FD43
:102B80008095982F0E94FF1C6B837C838D839E838E
:102B90002F81388549855A850E94641C1B012C01B0
:102BA00020E030E040E050E00E94021E87FF04C0B9
:102BB00057FA509457F85094DA82C9820F2EF0E0F9
:102BC000AF2EF0E0BF2EF0E0CF2EF0E0DF2EF02DA4
:102BD0007FC0C70169817A814B855C850E94081599
:102BE000C601B501A20191010E94FC1B3BC0C701B7
:102BF00069817A814B855C850E9408151E861D8639
:102C00006B817C818D819E8120E030E040E050E04E
:102C10000E94021E181624F421E030E03E872D8722
:102C200000E010E06B817C818D819E8120E030E0AE
:102C300040E050E00E94601C882314F401E010E0A2
:102C40008D859E85801B910BE981FA81E80FF91F24
:102C5000FA83E983C601B50120E030E040E85FE394
:102C60000E94FB1B5B016C0120E030E040E05FE371
:102C70000E94021E8823CCF06B817C818D819E8115
:102C800020E030E040E050E00E94021E18163CF4C4
:102C900029813A81621673060CF0A9CF06C089819A
:102CA0009A81861597050CF0A2CF6F81788589856A
:102CB0009A8520E030E040E050E00E94021E1816A5
:102CC00024F40894E11CF11C03C00894E108F10805
:102CD0006F81788589859A8520E030E040E050E07A
:102CE0000E94021E181624F48E149F042CF071CF3B
:102CF000E814F9040CF06DCF2E960FB6F894DEBFF1
:102D00000FBECDBFCF91DF911F910F91FF90EF903C
:102D1000DF90CF90BF90AF909F908F907F906F90FB
:102D20005F904F903F902F9008954F925F926F92D7
:102D30007F928F929F92AF92BF92CF92DF92EF924B
:102D4000FF920F931F93CF93DF933B01490125E03F
:102D5000429FA0011124ACE0EA2EA0E0FA2EE40E7E
:102D6000F51E8C01F1E04F2E512CE1E1AE2EE0E09A
:102D7000BE2EA40EB51EF70184918114910409F4AE
:102D80008095C0E0D0E0C82EDD24BE01660D771D21
:102D9000A2010C2E02C0440F551F0A94E2F74C21E9
:102DA0005D210C2E02C0559547950A94E2F7C801A3
:102DB0000E9408152196C830D10539F70894E11C06
:102DC000F11C0F5F1F4FEA14FB04A9F6DF91CF91AE
:102DD0001F910F91FF90EF90DF90CF90BF90AF9039
:102DE0009F908F907F906F905F904F900895CF92BB
:102DF000DF92EF92FF920F931F93CF93DF936B01BC
:102E00007A01E901082F10E008C0802F90E0B60198
:102E10009E010E9495160B5F1F5FF701E10FF11DE8
:102E20004081442391F7DF91CF911F910F91FF9043
:102E3000EF90DF90CF900895CF93DF9380E060E034
:102E40000E949117C6E7D4E081E069910E942F1794
:102E500086E0CE36D807C1F7DF91CF91089595B1BE
:102E60008295880F807E9F7D982B95B95F9827E08B
:102E700030E070E08F98CB01022E02C095958795C7
:102E80000A94E2F780FF02C02E9A01C02E988F9A12
:102E9000215030408FEF2F3F380761F75F9A089538
:102EA0001F93182F579A249A259A269A879A2C9816
:102EB0005F9A2C9A80E061E20E942F17106880E0F0
:102EC000612F0E942F1780E064E00E942F1780E09E
:102ED00063E10E942F1780E06CE00E942F1780E0D2
:102EE00060E20E942F1780E06CE00E942F1780E0C4
:102EF00060E40E942F1780E060E80E942F171F9166
:102F00000895CF93DF93C0E0D0E081E060E00E94BD
:102F10002F17219681E0C83FD807B9F7DF91CF91ED
:102F200008951F93182F606480E00E942F17106887
:102F300080E0612F0E942F171F910895AF92BF92DA
:102F4000CF92EF920F931F93FC01408351836283D2
:102F500073830483158326833783E08AC18AB48A06
:102F6000A38A81E0828B80E090E0A0E0B0E08087DF
:102F70009187A287B38784879587A687B7871F9194
:102F80000F91EF90CF90BF90AF9008952F923F9206
:102F90004F925F926F927F928F929F92AF92BF9269
:102FA000CF92DF92EF92FF920F931F93CF93DF9315
:102FB0008C01DC0152968C915297882309F481C0D0
:102FC0006D917D918D919C910E94691E0E94CC1CF7
:102FD0003B01F801248135814681578164357105B3
:102FE0000CF06FC0D80150968C91C82FD0E0CE0164
:102FF000860D971D181619060CF063C0CA01B90199
:103000000E94691E0E94CC1C4B01603371050CF0BC
:1030100058C0F80181899401280F311D121613063A
:103020000CF04FC057E0A52EB12CAC0EBD1E43E0F6
:10303000B594A7944A95E1F7EE24FF24CC24DD242F
:1030400037E0232E312C31C0CE0123E095958795B2
:103050002A95E1F7D8015396ED91FC915497EC0D28
:10306000FD1DE80FF91F408150E0CE018770907080
:10307000F101E81BF90B02C055954795EA95E2F777
:1030800041705070CE01860D971DB2010E94081547
:103090002196D80150968C9190E0C817D907A4F2D8
:1030A0000894E11CF11CCA0CDB1CF801818990E03A
:1030B000E816F90634F4C0E0D0E02701480C591CAA
:1030C000E8CFDF91CF911F910F91FF90EF90DF90AC
:1030D000CF90BF90AF909F908F907F906F905F90B8
:1030E0004F903F902F900895A1E1B0E0EAE7F8E11A
:1030F0000C949C1E3C017F876E876A01FC0117823D
:103100001682838181FD03C06FEF7FEF6FC39E0145
:103110002F5F3F4F398B288BF3012381EE85FF858D
:1031200023FD859123FF8191FF87EE87882309F492
:103130005AC3853251F4EE85FF8523FD859123FF27
:103140008191FF87EE87853229F490E0B3010E94D8
:103150003B21E2CF982F10E0882499241032B0F45C
:103160009B3269F09C3228F4903251F0933271F422
:103170000BC09D3239F0903349F4116028C01260C1
:10318000146025C0186023C0106121C017FD2AC03B
:10319000892F80538A3078F416FF06C0FAE09F9E8C
:1031A000902C1124980E13C03AE0839E802C112499
:1031B000880E10620CC09E3221F416FD14C31064F8
:1031C00006C09C3611F4106802C0983659F4EE859A
:1031D000FF8523FD959123FF9191FF87EE8799232A
:1031E00009F0BCCF892F8554833020F4812F806172
:1031F000905E07C0892F8556833008F09FC1812FCC
:103200008F7E86FD02C076E0972E6FE3F62EF822C1
:10321000953619F4F0E4FF2A07C0963619F420E831
:10322000F22A02C091109A94F7FE0AC03BE33915C6
:1032300018F45CE3B52E02C0B92CB39427E009C0A2
:1032400047E0491520F4BB2447E0942EF7CF292D01
:10325000BB24C60104969D878C87F601608171812D
:1032600082819381AE014F5F5F4F0B2D0E944D20F5
:103270006C010981202E332400FF04C003FD02C02D
:103280001DE209C0F1FE02C01BE205C0F2FC02C053
:1032900010E001C010E2C1018C709070892BB9F16F
:1032A000112311F483E001C084E0881510F0882414
:1032B0000AC0881AF3FC07C080E290E0B3010E94C4
:1032C0003B218A94C9F7112329F0812F90E0B301A3
:1032D0000E943B2123FE03C00CE812E00EC000E96F
:1032E00012E00BC0E114F10409F0805290E0B30148
:1032F0000E943B210F5F1F4F05C0EF2CFF24F0E120
:10330000EF22FF24F8018491882361F714C1F7FEAE
:1033100012C0BC0C24FE04C08A81813309F4BA9423
:103320001B141CF0BB24B3942DC0F8E0FB1550F522
:1033300038E0B32E27C0F6FC25C0892D90E08C150F
:103340009D054CF02CEFC2162FEFD20624F030E88A
:10335000F32A01C09A94992049F0E2E0F0E0EC0FE2
:10336000FD1FE90DF11D80818033A1F3F7FE0AC036
:10337000B92CB394892D90E0C816D90614F099247D
:1033800001C09C18F7FC03C025E030E009C01C1404
:103390001D041CF021E030E003C096012F5F3F4F79
:1033A000112311F02F5F3F4F992029F0892D90E0D4
:1033B0000196280F391F882D90E02817390714F03F
:1033C000882401C0821A4F2C5524C2018970907044
:1033D000892B39F008C080E290E0B3010E943B21C4
:1033E0008A948820C1F7112329F0812F90E0B3013E
:1033F0000E943B2143FE07C008C080E390E0B30178
:103400000E943B218A948820C1F7F7FE46C08601BE
:10341000D7FE02C000E010E076010894E11CF11C28
:10342000E01AF10A41E050E04C0F5D1FE40EF51E7A
:1034300026014B185108892D90E0AA24BB24A81A14
:10344000B90A5FEF0F3F150729F48EE290E0B30150
:103450000E943B21C016D10634F0401651061CF4E0
:10346000F701808101C080E3015010400894E11C05
:10347000F11C0A151B052CF090E0B3010E943B21C2
:10348000E0CF0C151D0539F49A81963318F4953365
:1034900011F424FE81E390E04BC08A81813309F06E
:1034A0000F7E90E0B3010E943B219920A1F08EE2B3
:1034B00090E0B3010E943B2112E0E1E0F0E0EC0F6C
:1034C000FD1FE10FF11D1F5F808190E0B3010E949D
:1034D0003B219A9491F744FC03C085E690E002C03A
:1034E00085E490E0B3010E943B21D7FC05C0C114E4
:1034F000D10441F404FF06C0D094C194D108D39400
:103500008DE201C08BE290E0B3010E943B2180E399
:1035100005C08F5F26EF3FEFC20ED31E3AE0C31601
:10352000D104BCF790E0B3010E943B21C601C096D4
:10353000B3010E943B21CC84DD8452C1933631F02B
:10354000933799F0933509F059C023C0F601808173
:1035500089835E010894A11CB11C22E030E0C20EF8
:10356000D31E21E0E22EF12C12C0F601A080B18022
:1035700016FD03C06FEF7FEF02C0692D70E022E0FF
:1035800030E0C20ED31EC5010E9430217C011F779E
:1035900013C0F601A080B18016FD03C06FEF7FEF6E
:1035A00002C0692D70E022E030E0C20ED31EC501DA
:1035B0000E9425217C01106813FF07C01BC080E218
:1035C00090E0B3010E943B218A94882D90E0E81698
:1035D000F906A8F30FC0F50117FD859117FF81913A
:1035E0005F0190E0B3010E943B2181108A9408940E
:1035F000E108F108E114F10471F7F2C0943611F01A
:10360000993689F517FF08C0F60120813181428182
:10361000538184E090E00AC0F601808191819C0191
:10362000442737FD4095542F82E090E0C80ED91E04
:103630009FE6F92EF12257FF09C05095409530952D
:1036400021953F4F4F4F5F4F90E8F92ACA01B901CA
:10365000AE014F5F5F4F2AE030E00E948B21E82EE1
:10366000E889EE1A41C0953721F41F7E2AE030E048
:103670001CC0197F9F3661F0903720F4983509F00F
:10368000B2C00FC0903739F0983709F0ACC004C011
:1036900028E030E00AC0106114FD146020E130E041
:1036A00004C014FD166020E132E017FF08C0F601E7
:1036B000608171818281938144E050E008C0F6010D
:1036C00080819181BC0180E090E042E050E0C40E36
:1036D000D51EAE014F5F5F4F0E948B21E82E5889A7
:1036E000E51A8FE7F82EF122F6FE0BC08EEFF822D6
:1036F000E91438F4F4FE07C0F2FC05C09FEEF9228D
:1037000002C01E2D01C0192DF4FE0DC0FE01EE0DEC
:10371000F11D8081803319F4E9EEFE2208C01F5F9D
:10372000F2FE05C003C08F2D867809F01F5F0F2DB4
:10373000F3FC14C0F0FE0FC0181510F09E2C0BC047
:103740009E2C980C911A182D06C080E290E0B301CF
:103750000E943B211F5F1815C0F304C0181510F418
:10376000811A01C0882404FF0FC080E390E0B301F8
:103770000E943B2102FF1DC001FD03C088E790E0CD
:103780000EC088E590E00BC0802F867891F001FF95
:1037900002C08BE201C080E2F7FC8DE290E0B30151
:1037A0000E943B2106C080E390E0B3010E943B21D0
:1037B0009A94E914C0F3EA94E1E0F0E0EC0FFD1F05
:1037C000EE0DF11D808190E0B3010E943B21EE20BF
:1037D00091F706C080E290E0B3010E943B218A94F9
:1037E0008820C1F799CCF30166817781CB0161967E
:1037F000E2E10C94B81E5058BB27AA270ED0B1C1E5
:10380000A2D130F0A7D120F031F49F3F11F41EF483
:1038100097C10EF4E095E7FB64C1E92FB3D180F3C3
:10382000BA17620773078407950718F071F49EF5BD
:10383000E2C10EF4E0950B2EBA2FA02D0B01B901B9
:1038400090010C01CA01A0011124FF27591B99F016
:10385000593F50F4503E68F11A16F040A22F232F22
:10386000342F4427585FF3CF469537952795A79572
:10387000F0405395C9F77EF41F16BA0B620B730B19
:10388000840BBAF09150A1F0FF0FBB1F661F771F8A
:10389000881FC2F70EC0BA0F621F731F841F48F43F
:1038A000879577956795B795F7959E3F08F0B3CFC5
:1038B0009395880F08F09927EE0F979587950895AF
:1038C000ECD008F481E008950CD04BC143D140F016
:1038D0003AD130F021F45F3F19F003C151118CC18E
:1038E0002FC150D198F39923C9F35523B1F3951BF8
:1038F000550BBB27AA2762177307840738F09F5F11
:103900005F4F220F331F441FAA1FA9F333D00E2E7F
:103910003AF0E0E830D091505040E695001CCAF7EC
:1039200029D0FE2F27D0660F771F881FBB1F2617B1
:1039300037074807AB07B0E809F0BB0B802DBF0184
:10394000FF2793585F4F2AF09E3F510568F0C9C08A
:1039500053C15F3FECF3983EDCF38695779567950E
:10396000B795F7959F5FC9F7880F911D9695879535
:1039700097F90895E1E0660F771F881FBB1F621754
:1039800073078407BA0720F0621B730B840BBA0B12
:10399000EE1F88F7E095089504D06894B1112CC10A
:1039A0000895F8D088F09F5790F0B92F9927B75114
:1039B000A0F0D1F0660F771F881F991F1AF0BA95F3
:1039C000C9F712C0B13081F016D1B1E0089513C12A
:1039D000672F782F8827B85F39F0B93FCCF38695E9
:1039E00077956795B395D9F73EF490958095709546
:1039F00061957F4F8F4F9F4F0895E89409C097FBC3
:103A00003EF490958095709561957F4F8F4F9F4FB5
:103A10009923A9F0F92F96E9BB279395F6958795F9
:103A200077956795B795F111F8CFFAF4BB0F11F4BC
:103A300060FF1BC06F5F7F4F8F4F9F4F16C0882363
:103A400011F096E911C0772321F09EE8872F762F99
:103A500005C0662371F096E8862F70E060E02AF0DA
:103A60009A95660F771F881FDAF7880F96958795C6
:103A700097F90895A9D080F09F3740F491110EF086
:103A8000BBC060E070E080E89FEB089526F41B1651
:103A9000611D711D811D2BC045C0990F0008550F78
:103AA000AA0BE0E8FEEF16161706E807F907C0F0C4
:103AB00012161306E407F50798F0621B730B840BCC
:103AC000950B39F40A2661F0232B242B252B21F4A6
:103AD00008950A2609F4A140A6958FEF811D811D46
:103AE000089597F99F6780E870E060E00895882363
:103AF00071F4772321F09850872B762F07C0662327
:103B000011F499270DC09051862B70E060E02AF0E7
:103B10009A95660F771F881FDAF7880F9695879515
:103B200097F908959F3F31F0915020F4879577954C
:103B30006795B795880F911D9695879597F9089584
:103B40009FEF80EC089500240A94161617061806B5
:103B50000906089500240A94121613061406050691
:103B60000895092E0394000C11F4882352F0BB0F22
:103B700040F4BF2B11F460FF04C06F5F7F4F8F4F85
:103B80009F4F089557FD9058440F551F59F05F3FC0
:103B900071F04795880F97FB991F61F09F3F79F06F
:103BA00087950895121613061406551FF2CF4695F1
:103BB000F1DF08C0161617061806991FF1CF869573
:103BC0007105610508940895E5DFA0F0BEE7B91717
:103BD00088F4BB279F3860F41616B11D672F782F25
:103BE0008827985FF7CF869577956795B11D939550
:103BF0009639C8F30895E894BB2766277727CB0149
:103C000097F908954ADF08F48FEF08950BD0A9CFF4
:103C10009ADF28F09FDF18F0952309F062CF90CF4C
:103C20001124EACFAFDFA0F3959FD1F3950F50E0B9
:103C3000551F629FF001729FBB27F00DB11D639F5E
:103C4000AA27F00DB11DAA1F649F6627B00DA11D04
:103C5000661F829F2227B00DA11D621F739FB00DAA
:103C6000A11D621F839FA00D611D221F749F33271A
:103C7000A00D611D231F849F600D211D822F762FB3
:103C80006A2F11249F5750408AF0E1F088234AF0B0
:103C9000EE0FFF1FBB1F661F771F881F91505040FC
:103CA000A9F79E3F510570F01CCFA6CF5F3FECF304
:103CB000983EDCF3869577956795B795F795E795E8
:103CC0009F5FC1F7FE2B880F911D9695879597F9F9
:103CD000089560DFE0F09E37D8F09639B8F49E384A
:103CE00048F4672F782F8827985FF9CF86957795C6
:103CF000679593959539D0F3B62FB1706B0F711D01
:103D0000811D20F48795779567959395F0CE0ACF1E
:103D100073CF97FB092E07260AD077FD04D043D036
:103D200006D000201AF4709561957F4F0895F6F73C
:103D3000909581959F4F08952F923F924F925F9259
:103D40006F927F928F929F92AF92BF92CF92DF92AB
:103D5000EF92FF920F931F93CF93DF93CDB7DEB710
:103D6000CA1BDB0B0FB6F894DEBF0FBECDBF0994A4
:103D70002A88398848885F846E847D848C849B84FB
:103D8000AA84B984C884DF80EE80FD800C811B8109
:103D9000AA81B981CE0FD11D0FB6F894DEBF0FBE38
:103DA000CDBFED010895AA1BBB1B51E107C0AA1F9F
:103DB000BB1FA617B70710F0A61BB70B881F991FCC
:103DC0005A95A9F780959095BC01CD010895CF93A0
:103DD000DF93BC018230910510F462E070E0A091A5
:103DE0007006B0917106ED01E0E0F0E040E050E0D7
:103DF00021C0888199818617970769F48A819B8100
:103E0000309719F09383828304C090937106809356
:103E10007006FE0134C06817790738F44115510562
:103E200019F08417950708F4AC01FE018A819B8183
:103E30009C01E9012097E9F641155105A9F1CA0154
:103E4000861B970B049708F4BA01E0E0F0E02AC063
:103E50008D919C91119784179507F9F46417750754
:103E600081F412968D919C911397309719F093835A
:103E7000828304C09093710680937006FD01329690
:103E80004FC0CA01861B970BFD01E80FF91F619314
:103E9000719302978D939C9343C0FD01828193811E
:103EA0009C01D9011097A1F680916E0690916F0642
:103EB000892B41F480918A0190918B0190936F0638
:103EC00080936E0640918C0150918D0141155105F2
:103ED00041F44DB75EB78091880190918901481BEC
:103EE000590B20916E0630916F0624173507B0F4F8
:103EF000CA01821B930B8617970780F0AB014E5FB8
:103F00005F4F8417950750F0420F531F50936F0671
:103F100040936E06F9016193719302C0E0E0F0E016
:103F2000CF01DF91CF910895CF93DF93009709F4EC
:103F300050C0EC0122971B821A82A0917006B091AA
:103F40007106109709F140E050E0AC17BD0708F189
:103F5000BB83AA83FE0121913191E20FF31FAE17BB
:103F6000BF0779F48D919C911197280F391F2E5F0F
:103F70003F4F3983288312968D919C9113979B8391
:103F80008A834115510571F4D0937106C093700670
:103F900020C012968D919C911397AD01009711F05E
:103FA000DC01D3CFFA01D383C28321913191E20F97
:103FB000F31FCE17DF0769F488819981280F391F15
:103FC0002E5F3F4FFA01318320838A819B81938347
:103FD0008283DF91CF910895A0E0B0E0E2EFFFE1AE
:103FE0000C94A41EEC01A880B980CA80DB80A114C7
:103FF000B104C104D10441F484E2A82E89EDB82EA5
:104000008BE5C82E87E0D82EC601B5012DE133EF30
:1040100041E050E00E94082227EA31E440E050E00D
:104020000E94E9217B018C01C601B5012DE133EF2E
:1040300041E050E00E940822CA01B9012CEE34EFA1
:104040004FEF5FEF0E94E9216E0D7F1D801F911FD2
:1040500097FF04C061507040804090486883798326
:104060008A839B839B013F77C901CDB7DEB7EAE026
:104070000C94C01E0E94EC1F08958EE891E00E94EF
:10408000EC1F0895A0E0B0E080938E0190938F0123
:10409000A0939001B09391010895283008F027E093
:1040A0003327DA01990F311D87FD91600096610574
:1040B000710539F432602E5F3D9330E32A95E1F7C4
:1040C00008959F3F30F080387105610509F03C5F2D
:1040D0003C5F3D93913008F08068911DDF93CF9352
:1040E0001F930F93FF92EF92192F987F9695E92FC8
:1040F00096959695E90FFF27E251FD4F99273327B3
:10410000EE24FF24A701E70105900894079428F402
:10411000360FE71EF81E491F511D660F771F881FB7
:10412000991F0694A1F70590079428F4E70EF81E4E
:10413000491F561FC11D770F881F991F661F0694C0
:10414000A1F70590079428F4F80E491F561FC71FC2
:10415000D11D880F991F661F771F0694A1F7059040
:10416000079420F4490F561FC71FD81F990F661FC9
:10417000771F881F0694A9F784911095177041F056
:10418000D695C79557954795F794E7941A95C1F733
:10419000E4E9F2E068941590159135916591959157
:1041A00005907FE27395E118F10A430B560BC90B9A
:1041B000D009C0F7E10CF11E431F561FC91FD01DC7
:1041C0007EF4703311F48A95E6CFE894015030F014
:1041D000080F0AF40027021708F4202F2395022F56
:1041E0007A3328F079E37D932A95E9F710C07D931F
:1041F0002A9589F60694979567953795179517949C
:10420000E118F10A430B560BC90BD00998F023951E
:104210007E9173957A3308F070E37C932013B8F79E
:104220007E9170617D9330F0839571E37D9370E3AF
:104230002A95E1F71124EF90FF900F911F91CF91F4
:10424000DF91992787FD90950895FC0105906150B5
:1042500070400110D8F7809590958E0F9F1F08959C
:10426000FC016150704001900110D8F78095909545
:104270008E0F9F1F08950F931F93CF93DF938C0191
:10428000EB018B8181FF1BC082FF0DC02E813F811E
:104290008C819D812817390764F4E881F9810193A5
:1042A000F983E88306C0E885F985802F0995892B75
:1042B00031F48E819F8101969F838E8302C00FEF20
:1042C0001FEFC801DF91CF911F910F910895AEE0CC
:1042D000B0E0EDE6F1E20C94AA1E0D891E8986E09D
:1042E0008C831A8309838FEF9FE79E838D839E01C2
:1042F000275E3F4FCE0101966F89788DA9010E94FC
:1043000074182F813885020F131FF80110822E9622
:10431000E4E00C94C61EFA01AA27283051F120319E
:1043200081F1E8946F936E7F6E5F7F4F8F4F9F4F49
:10433000AF4FB1E03ED0B4E03CD0670F781F891F8B
:104340009A1FA11D680F791F8A1F911DA11D6A0F59
:10435000711D811D911DA11D20D009F468943F910C
:104360002AE0269F11243019305D3193DEF6CF010B
:104370000895462F4770405D4193B3E00FD0C9F7D1
:10438000F6CF462F4F70405D4A3318F0495D31FD3E
:104390004052419302D0A9F7EACFB4E0A695979591
:1043A000879577956795BA95C9F700976105710567
:1043B00008959B01AC010A2E0694579547953795B1
:1043C0002795BA95C9F7620F731F841F951FA01D0B
:1043D0000895629FD001739FF001829FE00DF11D4F
:1043E000649FE00DF11D929FF00D839FF00D749F6F
:1043F000F00D659FF00D9927729FB00DE11DF91F1B
:10440000639FB00DE11DF91FBD01CF011124089577
:1044100097FB092E05260ED057FD04D014D00AD0E4
:10442000001C38F450954095309521953F4F4F4FE3
:104430005F4F0895F6F790958095709561957F4F41
:104440008F4F9F4F0895A1E21A2EAA1BBB1BFD019F
:104450000DC0AA1FBB1FEE1FFF1FA217B307E40763
:10446000F50720F0A21BB30BE40BF50B661F771FBB
:10447000881F991F1A9469F760957095809590959B
:0E4480009B01AC01BD01CF010895F894FFCF60
:10448E0056616E65737361204C69006E393936362C
:10449E00343633002564005A6F6D626965733A00D5
:1044AE00466F6F643A0053636F72653A004C6976DB
:1044BE0065733A00253032640054696D653A003AEE
:1044CE000047414D45204F564552000A0005000554
:1044DE000001707020F8205088FFFFFFFFFFFF00E3
:1044EE0000FFFF0000FFFF0000FE82BA929282FEE4
:1044FE00C0C088A8F820205088050013001F003582
:10450E0000450001010101012000720600000100BA
:02451E0000009B
:00000001FF
