:100000000C94C7010C94E4010C94E4010C94E401F9
:100010000C94E4010C94E4010C94E4010C94E401CC
:100020000C94E4010C94E4010C94E4010C94E401BC
:100030000C94E4010C94E4010C94E4010C94E401AC
:100040000C94E4010C94E4010C94E4010C94E4019C
:100050000C9401020C94E4010C94E4010C94330B15
:100060000C94E4010C94E4010C94E4010C94E4017C
:100070000C94E4010C94E4010C94E4010C94E4016C
:100080000C94E4010C94E4010C94E4010C94E4015C
:100090000C94E4010C94E4010C94E4010C94E4014C
:1000A0000C94E4010C94E4010C94E40100000000C1
:1000B0000000005F00000007000700147F147F1499
:1000C000242A7F2A122313086462364955225000DD
:1000D00005030000001C2241000041221C001408FE
:1000E0003E081408083E08080050300000080808C0
:1000F0000808006060000020100804023E514945D5
:100100003E00427F400042615149462141454B310A
:100110001814127F1027454545393C4A494930019A
:10012000710905033649494936064949291E0036F1
:100130003600000056360000081422410014141442
:100140001414004122140802015109063249794170
:100150003E7E1111117E7F494949363E414141227F
:100160007F4141221C7F494949417F090909013EDC
:100170004149497A7F0808087F00417F41002040BB
:10018000413F017F081422417F404040407F020CE4
:10019000027F7F0408107F3E4141413E7F090909EB
:1001A000063E4151215E7F09192946464949493198
:1001B00001017F01013F4040403F1F2040201F3F81
:1001C0004038403F63140814630708700807615102
:1001D000494543007F41410002040810200041418D
:1001E0007F0004020102044040404040000102043C
:1001F0000020545454787F484444383844444420C0
:10020000384444487F3854545418087E0901020C7D
:100210005252523E7F0804047800447D4000204042
:10022000443D007F1028440000417F40007C0418BA
:1002300004787C0804047838444444387C1414144A
:1002400008081414187C7C080404084854545420EA
:10025000043F4440203C4040207C1C2040201C3C6B
:100260004030403C44281028440C5050503C4464DA
:10027000544C44000836410000007F000000413625
:100280000800100808100878464146786E616E0034
:10029000696E660000407A10F35A00A0724E180989
:1002A0000010A5D4E80000E87648170000E40B54DD
:1002B000020000CA9A3B000000E1F50500008096AC
:1002C0009800000040420F000000A08601000000DE
:1002D000102700000000E803000000006400000098
:1002E00000000A00000000000100000000002C7661
:1002F000D888DC674F0823DFC1DFAE59E1B1B7967C
:10030000E5E3E453C63AE651997696E8E6C28426D8
:10031000EB898C9B62ED407C6FFCEFBC9C9F40F2B4
:10032000BAA56FA5F490055A2AF75C936B6CF96730
:100330006DC11BFCE0E40D47FEF520E6B500D0EDF5
:10034000902E0300943577050080841E080000205D
:100350004E0A000000C80C333333330F986E1283FB
:100360001141EF8D2114893BE65516CFFEE6DB18CF
:10037000D1844B381BF77C1D901DA4BBE424203294
:1003800084725E228100C9F124ECA1E53D2711248D
:100390001FBECFEFDAE0DEBFCDBF11E0A0E0B1E0DD
:1003A000ECE7F8E402C005900D92A439B107D9F743
:1003B00016E0A4E9B1E001C01D92A837B107E1F74A
:1003C0000E9453160C943C240C94000087E8809300
:1003D0007A000895982F9F71906490937C008072AA
:1003E00080937B0080917A00806480937A00809172
:1003F0007A0086FDFCCF2091780030917900C90108
:1004000008951F920F920FB60F9211248F939F930E
:10041000AF93BF938091B2019091B301A091B401C9
:10042000B091B5010196A11DB11D8093B2019093C9
:10043000B301A093B401B093B501BF91AF919F9167
:100440008F910F900FBE0F901F901895AF92BF9293
:10045000CF92DF92EF92FF920F931F936091B201C0
:100460007091B3018091B4019091B501E090840046
:10047000F09085000E94F41E20E030E040E857E450
:100480000E94FD1F5B016C0100E010E0C801B70194
:100490000E94F41E9B01AC01C601B5010E94F31D30
:1004A00020E030E040E852E40E94FD1F20E034E20A
:1004B00044EF5AE40E945B1E1F910F91FF90EF9052
:1004C000DF90CF90BF90AF9008952F923F924F92C0
:1004D0005F926F927F928F929F92AF92BF92CF92D4
:1004E000DF92EF92FF920F931F93DF93CF93CDB7DD
:1004F000DEB72E970FB6F894DEBF0FBECDBF81E0FA
:100500000E94EA01A0E0B0E0BC01CD010E94F41E0F
:100510007B018C0120E030E040E85FE30E94571E41
:1005200088232CF480E090E0A0E0B0E033C0C80164
:10053000B70120E030E040E85FE30E94F91F1816A1
:100540007CF4C801B70120E030E040E853E40E94A9
:10055000571E88232CF48DEC9CECACECBDE31AC048
:10056000C801B70120E030E040E853E40E94F91FE1
:1005700018160CF054C0C801B70120E030E040E08C
:1005800054E40E94571E88230CF049C08AE999E977
:10059000A9E9BEE38093310290933202A093330223
:1005A000B0933402209026023090270260917604A6
:1005B0007091770420917A0430917B044091780403
:1005C000509179048090310290903202A0903302D1
:1005D000B0903402D501C401B05889839A83AB83AB
:1005E000BC83A5E3B2E0BE87AD87CC24DD24CB017C
:1005F000AA2797FDA095BA2F8D839E83AF83B887D6
:10060000C901AA2797FDA095BA2F89879A87AB873A
:10061000BC872A01662457FC6094762C90C0C801E0
:10062000B70120E030E040E054E40E94F91F1816C2
:100630007CF4C801B70120E030E040E454E40E94BB
:10064000571E88232CF480E090E0A0E0BFE3A2CF07
:10065000C801B70120E030E040E454E40E94F91FF3
:1006600018160CF09FCFC801B70120E030E040E839
:1006700054E40E94571E88230CF094CF83E393E345
:10068000A3E3BFE387CFAD85BE851496ED90FD90C3
:100690000D911C9117976D817E818F8198850E94A5
:1006A000F61E9B01AC01C801B7010E94571E8823AA
:1006B00071F069857A858B859C850E94F61E9B0169
:1006C000AC01C801B7010E94571E882339F4ED859B
:1006D000FE8580869186A286B38616C0C301B201CC
:1006E0000E94F61E9B01AC01C801B7010E94571E73
:1006F000882351F489819A81AB81BC81ED85FE8587
:1007000080879187A287B387AD85BE856D917D91E6
:100710008D919C91139718962D913D914D915C91DF
:100720001B970E94F31DED85FE8560837183828394
:1007300093830894C11CD11C7596FE87ED87C21463
:10074000D3040CF4A0CF2E960FB6F894DEBF0FBEE4
:10075000CDBFCF91DF911F910F91FF90EF90DF9070
:10076000CF90BF90AF909F908F907F906F905F9051
:100770004F903F902F900895AF92BF92CF92DF920B
:10078000EF92FF920F931F93CF93DF93A0902602D7
:10079000B0902702C5E3D2E0CC24DD2429C0E88054
:1007A000F9800A811B81C801B70120E030E048EAE6
:1007B00052E40E94F91F18162CF480E090E0A0E2A9
:1007C000B1EC0EC0C801B70120E030E040E251ECCE
:1007D0000E94571E882344F480E090E0A8EAB2E427
:1007E00088839983AA83BB830894C11CD11C659616
:1007F000CA14DB04A4F2DF91CF911F910F91FF90F7
:10080000EF90DF90CF90BF90AF9008950E94650267
:100810000E94BC0308958091AC01882379F58091F2
:100820005101882329F080E090E0A0E0BFE304C0FC
:1008300080E090E0A0E0BFEB8093620490936304BB
:10084000A0936404B093650460915A0470915B04B2
:1008500080915C0490915D04209162043091630466
:1008600040916404509165040E94F31D60935A0402
:1008700070935B0480935C0490935D040895EF9201
:10088000FF920F931F93E0905A04F0905B04009145
:100890005C0410915D04C801B70120E030E040E045
:1008A00050E00E94571E882324F481E08093510178
:1008B0000CC0C801B70120E030E04AE952E40E94D0
:1008C000F91F181614F4109251011F910F91FF9007
:1008D000EF9008950E943F040E940B0408958091B8
:1008E0008301909184018C52914090938401809374
:1008F000830108956F927F928F929F92AF92BF92E1
:10090000CF92DF92EF92FF920F931F93DF93CF93DB
:10091000CDB7DEB728970FB6F894DEBF0FBECDBFB8
:100920006D8C7E8C8F8C98A0E98CFA8C0B8D1C8D35
:100930006AA570E0882777FD8095982F0E94F61EA3
:100940009B01AC01C401B3010E94F31D0E94C31EB0
:100950005B016C0169A570E0882777FD8095982F71
:100960000E94F61E9B01AC01C801B7010E94F31D55
:1009700020E030E040E85FE30E94F21D0E94C31EC9
:1009800078876F83C801B7010E94C31E7E836D8381
:10099000BC82AB82C401B3010E94C31E7A83698307
:1009A00029813A814B815C816D817E818F8198851F
:1009B00028960FB6F894DEBF0FBECDBFCF91DF9162
:1009C0001F910F91FF90EF90DF90CF90BF90AF906D
:1009D0009F908F907F906F90089580912B02882335
:1009E00051F08091AF01882319F01092AF0103C03C
:1009F00081E08093AE0180916F04882351F0809153
:100A0000AE01882319F01092AE01089581E0809321
:100A1000AF0108953F924F925F926F927F928F92B3
:100A20009F92AF92BF92CF92DF92EF92FF920F937D
:100A30001F93DF93CF93CDB7DEB768970FB6F894C7
:100A4000DEBF0FBECDBFE0902602F0902702BB2490
:100A500000E010E08CE290E08C0F9D1F382EA92E54
:100A60002E010894411C511C21E1C22ED12CCC0E28
:100A7000DD1E95E1692E712C89E0882E912C8C0E5B
:100A80009D1E79C0EDB7FEB775970FB6F894FEBFFF
:100A90000FBEEDBFADB7BEB71196832D9A2DFC01E9
:100AA00085E101900D928150E1F70E947A04EDB743
:100AB000FEB775960FB6F894FEBF0FBEEDBF298B3B
:100AC0003A8B4B8B5C8B6D8B7E8B8F8B988FD2018F
:100AD000F60188E001900D928150E1F78DB79EB745
:100AE00045970FB6F8949EBF0FBE8DBF069DF001CF
:100AF000079DF00D169DF00D1124ADB7BEB71196F0
:100B0000EB5CFD4F85E101900D928150E1F70E9471
:100B10007A04EDB7FEB775960FB6F894FEBF0FBE18
:100B2000EDBF298B3A8B4B8B5C8B6D8B7E8B8F8BC8
:100B3000988FD401F60188E001900D928150E1F781
:100B40002B813C8189859A852817390791F48F85F7
:100B5000988903962F8138858217930754F08D85E5
:100B60009E8503972D813E812817390714F0BB24F9
:100B7000B3940F5F1F4F0E151F050CF483CF8B2D01
:100B800068960FB6F894DEBF0FBECDBFCF91DF9150
:100B90001F910F91FF90EF90DF90CF90BF90AF909B
:100BA0009F908F907F906F905F904F903F900895AF
:100BB0002A9A2B9A08952A982B980895AF92BF925B
:100BC000CF92DF92EF92FF920F931F93CF93DF9319
:100BD0006091720470917304809174049091750413
:100BE00020E030E040E450E40E94F31D5B016C0122
:100BF000C0E0D0E00E9426027B018C01C601B50155
:100C000020E030E040E05EE30E94F31D9B01AC0178
:100C1000C801B7010E94F91F8823BCF00E94260278
:100C20007B018C01C601B50120E030E040E85EE3C5
:100C30000E94F31D9B01AC01C801B7010E94571E21
:100C400018161CF02A9A2B9A2AC00E9426027B01B1
:100C50008C01C601B50120E030E040E85EE30E946F
:100C6000F31D9B01AC01C801B7010E94F91F882345
:100C7000B4F00E9426027B018C01C601B50120E080
:100C800030E040EC5EE30E94F31D9B01AC01C80123
:100C9000B7010E94571E181614F02A982B98219617
:100CA000CE31D10559F0C601B50120E030E040E871
:100CB0005EE30E94F31D5B016C019CCF2A982B9888
:100CC000DF91CF911F910F91FF90EF90DF90CF9028
:100CD000BF90AF900895AF92BF92CF92DF92EF9204
:100CE000FF920F931F93CF93DF93C5EFD3E000E004
:100CF00010E035E1A32EB12C0F2EF0E0CF2EF0E066
:100D0000DF2EF0E0EF2EF0E0FF2EF02D2DB73EB7F6
:100D1000255130400FB6F8943EBF0FBE2DBF0A9D3F
:100D2000F0010B9DF00D1A9DF00D1124ADB7BEB76B
:100D30001196EF50FC4F85E101900D928150E1F743
:100D40000E940A052DB73EB72B5E3F4F0FB6F894B1
:100D50003EBF0FBE2DBF882389F56C817D818E81BA
:100D60009F8120E030E040E050E00E94571E882341
:100D700009F065C0688579858A859B852AE939E906
:100D800049E95EE30E94F31D688779878A879B871C
:100D9000CC82DD82EE82FF8220E030E040E85FE33B
:100DA0000E94F91F18160CF04AC080E090E0A0E8FD
:100DB000BFE388879987AA87BB8741C0C886D98641
:100DC000EA86FB86688179818A819B8120E030E018
:100DD00040EE50E40E94F31D0E94C31E2091760451
:100DE00030917704621773072CF0C90103968617B8
:100DF0009707C4F42091780430917904621773073F
:100E00002CF0C90103968617970764F420917A04A1
:100E100030917B046217730794F0C901039686171B
:100E200097076CF027503040B901882777FD8095EF
:100E3000982F0E94F61E688379838A839B8368813A
:100E400079818A819B81288539854A855B850E94C5
:100E5000F31D688379838A839B830F5F1F4F659699
:100E60000530110509F052CFDF91CF911F910F91FD
:100E7000FF90EF90DF90CF90BF90AF9008952F92AA
:100E80003F924F925F926F927F928F929F92AF921A
:100E9000BF92CF92DF92EF92FF920F931F93CF9367
:100EA000DF93609131027091320280913302909110
:100EB00034022AE939E949E95EE30E94F31D3B0166
:100EC0004C01C1EFD3E045E8C42E41E0D42EAA2462
:100ED000BB241B012C0157FA509457F850942DB79E
:100EE0003EB7255130400FB6F8943EBF0FBE2DBF20
:100EF00085E190E0A89EF001A99EF00DB89EF00D4E
:100F00001124ADB7BEB71196EF50FC4F85E10190AB
:100F10000D928150E1F70E940A05EDB7FEB7759674
:100F20000FB6F894FEBF0FBEEDBF882309F047C08F
:100F3000E884F9840A851B85C801B70120E030E008
:100F400040E050E00E94571E882309F445C0C801C4
:100F5000B70120E030E040E050E00E94F91F181691
:100F600084F4688179818A819B8120E030E040E0CF
:100F700050E40E94F21D688379838A839B83F60183
:100F80001082688579858A859B8520E030E040E085
:100F900050E00E94571E8823FCF4688179818A8181
:100FA0009B8120E030E040E050E40E94F31D688324
:100FB00079838A839B8321E0F60120830DC0F601AB
:100FC0008081882329F0688679868A869B8604C07A
:100FD000288639864A865B86688179818A819B81E9
:100FE000288539854A855B850E94F31D688379834E
:100FF0008A839B830894A11CB11C65960894C11C2C
:10100000D11CF5E0AF16B10409F069CFDF91CF91A3
:101010001F910F91FF90EF90DF90CF90BF90AF9016
:101020009F908F907F906F905F904F903F902F9008
:101030000895EF92FF920F931F93CF93DF93C1EF29
:10104000D3E0E880F9800A811B81C801B70120E064
:1010500030E048EA52E40E94F91F18162CF480E0B0
:1010600090E0A0EAB0EC0EC0C801B70120E030E08B
:1010700040EA50EC0E94571E882344F480E090E040
:10108000A8EAB2E488839983AA83BB83659684E047
:10109000CA35D807B1F6DF91CF911F910F91FF901C
:1010A000EF9008952F923F924F925F926F927F92AE
:1010B0008F929F92AF92BF92CF92DF92EF92FF9268
:1010C0000F931F93DF93CF93CDB7DEB76C970FB617
:1010D000F894DEBF0FBECDBF40904B0150904C0145
:1010E00060904F0170905001A0904D01B0904E0162
:1010F00055EF852E53E0952ECC24DD244DB75EB7F9
:10110000455150400FB6F8945EBF0FBE4DBF85E10C
:1011100090E0C89EF001C99EF00DD89EF00D1124FC
:10112000ADB7BEB71196EF50FC4F85E101900D921F
:101130008150E1F70E947A04ADB7BEB755960FB65D
:10114000F894BEBF0FBEADBF298B3A8B4B8B5C8B27
:101150006D8B7E8B8F8B988FDE011196FE017196C1
:1011600088E001900D928150E1F7ED81FE81FA8FC8
:10117000E98F2F8038844B815C815C8F4B8F0DEB26
:1011800011E0EE24FF247CC08DB79EB745970FB6C3
:10119000F8949EBF0FBE8DBFA5E1B0E0EA9EF001BE
:1011A000EB9EF00DFA9EF00D1124ADB7BEB711966F
:1011B000E354FE4F85E101900D928150E1F70E94CA
:1011C0007A04EDB7FEB775960FB6F894FEBF0FBE62
:1011D000EDBF298B3A8B4B8B5C8B6D8B7E8B8F8B12
:1011E000988FDE011996FE01719688E001900D92AC
:1011F0008150E1F72D853E858B859C854B8D5C8DDF
:1012000048175907C1F58F8598892816390634F093
:10121000898D9A8D281739074CF42DC0A98DBA8D68
:101220002A173B0744F1221633062CF180E090E0A8
:10123000A2EAB2E4F80180839183A283B38380E0C1
:1012400090E0A0E0B0E084839583A683B783128A00
:101250000894A11CB11C80E090E0A0EEB0ECF40179
:1012600080839183A283B3830894610871084AE064
:1012700050E0440E551E0894E11CF11C0B5E1F4FFC
:10128000EA14FB040CF480CF0894C11CD11C85E146
:1012900090E0880E991E95E0C916D10409F02ECF72
:1012A00050924C0140924B017092500160924F015C
:1012B000B0924E01A0924D016C960FB6F894DEBF2D
:1012C0000FBECDBFCF91DF911F910F91FF90EF9097
:1012D000DF90CF90BF90AF909F908F907F906F9056
:1012E0005F904F903F902F9008954F925F926F9232
:1012F0007F928F929F92AF92BF92CF92DF92EF92A6
:10130000FF920F931F93CF93DF9300914F011091A2
:101310005001C5EFD3E00F2EF0E04F2EF0E05F2E2E
:10132000F0EE6F2EF0EC7F2EF02D0F2EF0E08F2ED2
:10133000F0E09F2EF0E0AF2EF0E0BF2EF02D0F2E4C
:10134000FDECCF2EFCECDF2EFCE4EF2EFEE3FF2EB7
:10135000F02D688179818A819B8120E030E040E432
:1013600052E40E94F91F181674F40150104048828C
:1013700059826A827B8288869986AA86BB86CC82BD
:10138000DD82EE82FF82659684E0CE35D80709F7CC
:101390001093500100934F01DF91CF911F910F9156
:1013A000FF90EF90DF90CF90BF90AF909F908F9085
:1013B0007F906F905F904F9008952F923F924F9241
:1013C0005F926F927F928F929F92AF92BF92CF92D5
:1013D000DF92EF92FF920F931F93DF93CF93CDB7DE
:1013E000DEB768970FB6F894DEBF0FBECDBF209072
:1013F0002602309027027DEBC72E71E0D72EAA245B
:10140000BB248DB79EB745970FB6F8949EBF0FBE0D
:101410008DBF85E190E0A89EF001A99EF00DB89ED9
:10142000F00D1124ADB7BEB71196E354FE4F85E120
:1014300001900D928150E1F70E947A04EDB7FEB75A
:1014400075960FB6F894FEBF0FBEEDBF298B3A8B91
:101450004B8B5C8B6D8B7E8B8F8B988FDE01119607
:10146000FE01719688E001900D928150E1F74B806A
:101470005C806F8078848D809E806DE3E62E62E0D4
:10148000F62E00E010E055C08DB79EB745970FB619
:10149000F8949EBF0FBE8DBF85E190E0089FF001DC
:1014A000099FF00D189FF00D1124ADB7BEB711962E
:1014B000EB5CFD4F85E101900D928150E1F70E94B8
:1014C0007A04EDB7FEB775960FB6F894FEBF0FBE5F
:1014D000EDBF298B3A8B4B8B5C8B6D8B7E8B8F8B0F
:1014E000988FDE011996FE01719688E001900D92A9
:1014F0008150E1F789859A8548165906A1F48F85B0
:101500009889861597057CF08D859E8588169906A5
:1015100054F0F70180819181A281B381F601808727
:101520009187A287B3870F5F1F4F85E190E0E80E98
:10153000F91E021513050CF4A7CFF6016081718125
:101540008281938120853185428553850E94F31DD8
:10155000F60160837183828393830894A11CB11C7C
:1015600085E190E0C80ED91E95E0A916B10409F0F6
:1015700048CF68960FB6F894DEBF0FBECDBFCF91AF
:10158000DF911F910F91FF90EF90DF90CF90BF9070
:10159000AF909F908F907F906F905F904F903F9013
:1015A0002F9008956F927F928F929F92AF92BF92E9
:1015B000CF92DF92EF92FF920F931F93CF93DF931F
:1015C000CDEBD1E00F2EF0E06F2EF0E07F2EF8EAA9
:1015D0008F2EF2E49F2EF02D0F2EF0E0AF2EF0E0D4
:1015E000BF2EF0E0CF2EF0ECDF2EF02DE880F9805A
:1015F0000A811B81C801B70120E030E044EB52E4CE
:101600000E94F91F18162CF4A882B982CA82DB82C4
:101610000EC0C801B70120E030E040E051EC0E946C
:10162000571E882324F4688279828A829B82659679
:1016300082E0C632D807D1F6DF91CF911F910F918A
:10164000FF90EF90DF90CF90BF90AF909F908F90E2
:101650007F906F90089551982198509827982098DE
:101660008598869808951F920F920FB60F921124B5
:101670008F939F938091940199B1880F8E71969565
:101680009170892B80939401809194018F3121F482
:1016900081E08093950106C080919401882311F424
:1016A0001092950180919601880F8E7190E01F999C
:1016B00091E0892B80939601809196018F3121F4DE
:1016C00081E08093970106C080919601882311F4F0
:1016D00010929701909197018091A301981749F07A
:1016E000809197011092A301882319F081E08093E3
:1016F000A3018091980193B1880F8E719695917096
:10170000892B80939801809198018F3121F481E099
:101710008093990106C080919801882311F410925A
:10172000990180919A0199B1880F8E719170892BDE
:1017300080939A0180919A018F3121F481E0809306
:101740009B0106C080919A01882311F410929B019D
:1017500080919C0193B1880F8E719170892B809339
:101760009C0180919C018F3121F481E080939D0147
:1017700006C080919C01882311F410929D019091E4
:101780009D018091A601981749F080919D011092CA
:10179000A601882319F081E08093A60180919E0123
:1017A0009FB1880F8E719295969596959170892B21
:1017B00080939E0180919E018F3121F481E080937E
:1017C0009F0106C080919E01882311F410929F0111
:1017D0008091A0019FB1880F8E719295969591701E
:1017E000892B8093A0018091A0018F3121F481E0A9
:1017F0008093A10106C08091A001882311F410926A
:10180000A1019091A1018091A801981749F08091C0
:10181000A1011092A801882319F081E08093A8010A
:101820009F918F910F900FBE0F901F9018958091F0
:1018300097019091B601891719F4109228020DC0F2
:1018400080919701891749F08091970110922802A1
:10185000882319F081E0809328028091970180937A
:10186000B6018091A1019091B701891719F41092E6
:101870002F020DC08091A101891749F08091A1012B
:1018800010922F02882319F081E080932F0280911B
:10189000A1018093B70190919D018091B8019817A3
:1018A00059F080919D018093B801109230028823F5
:1018B00019F081E080933002909195018091B901F7
:1018C000981759F0809195018093B9011092F00317
:1018D000882319F081E08093F00390919901809121
:1018E000BA01981759F0809199018093BA0110922A
:1018F0006F04882319F081E080936F0490919B011D
:101900008091BB01981759F080919B018093BB0196
:1019100010922B02882319F081E080932B02909182
:101920009F018091BC01981759F080919F0180938D
:10193000BC0110922E02882319F081E080932E02C0
:10194000089580912F02882331F08091AC0191E0BD
:1019500089278093AC010895292F332727FD3A95D5
:101960002093BF008093CF000895EF92FF920F93D2
:101970001F93809130028823E9F081E08093AA01CF
:101980000E9426027B018C016091290270912A023B
:10199000882777FD8095982F0E94F61E9B01AC0149
:1019A000C801B7010E94F21D0E94C31E7093DA03A2
:1019B0006093D9031F910F91FF90EF9008950E94BB
:1019C000F71682E190E06BE070E040E051E020E04B
:1019D0000E94EE1884E190E064E170E04BE051E099
:1019E00021E00E94EE180E9413197E9BFECF0895FD
:1019F0000F931F93DF93CF93CDB7DEB72F970FB61B
:101A0000F894DEBF0FBECDBF00D000D000D0EDB740
:101A1000FEB731968E010F5F1F4FADB7BEB712965E
:101A20001C930E93119784E191E0938382838091BC
:101A30004F0190915001958384830E945E238DB75E
:101A40009EB706960FB6F8949EBF0FBE8DBF8AE074
:101A500090E069E270E047E151E021E00E94EE1879
:101A600082E390E069E270E0A80121E00E94EE18B4
:101A70002F960FB6F894DEBF0FBECDBFCF91DF918A
:101A80001F910F9108950F931F93DF93CF93CDB7BD
:101A9000DEB72F970FB6F894DEBF0FBECDBF00D0D4
:101AA00000D000D0EDB7FEB731968E010F5F1F4F0B
:101AB000ADB7BEB712961C930E93119784E191E0D7
:101AC0009383828380914D0190914E01958384830D
:101AD0000E945E238DB79EB706960FB6F8949EBF00
:101AE0000FBE8DBF8AE090E06FE170E040E251E010
:101AF00021E00E94EE188DE290E06FE170E0A80115
:101B000021E00E94EE182F960FB6F894DEBF0FBEAC
:101B1000CDBFCF91DF911F910F9108950F931F9328
:101B2000DF93CF93CDB7DEB72F970FB6F894DEBF14
:101B30000FBECDBF00D000D000D0EDB7FEB73196BC
:101B40008E010F5F1F4FADB7BEB712961C930E9359
:101B5000119784E191E0938382838091B001909109
:101B6000B101958384830E945E238DB79EB706964C
:101B70000FB6F8949EBF0FBE8DBF8AE090E06BE079
:101B800070E046E251E021E00E94EE188DE290E024
:101B90006BE070E0A80121E00E94EE182F960FB6CE
:101BA000F894DEBF0FBECDBFCF91DF911F910F9193
:101BB00008950F931F93DF93CF93CDB7DEB72F9781
:101BC0000FB6F894DEBF0FBECDBF00D000D000D05E
:101BD000EDB7FEB731968E010F5F1F4FADB7BEB7A1
:101BE00012961C930E93119784E191E09383828364
:101BF00080914B0190914C01958384830E945E23D8
:101C00008DB79EB706960FB6F8949EBF0FBE8DBFD8
:101C10008AE090E061E070E04DE251E021E00E9456
:101C2000EE188DE290E061E070E0A80121E00E94F2
:101C3000EE182F960FB6F894DEBF0FBECDBFCF9132
:101C4000DF911F910F9108954F925F926F927F9253
:101C50008F929F92AF92BF92CF92DF92EF92FF92BC
:101C60000F931F93DF93CF93CDB7DEB76E970FB669
:101C7000F894DEBF0FBECDBF0091D9031091DA03F7
:101C8000C8016CE370E00E948020882777FD809572
:101C9000982F0E94F61E0E94311F3B014C01C80183
:101CA0006CE370E00E948020AA2797FDA095BA2FD0
:101CB000BC01CD010E94F61E0E94311F5B016C0128
:101CC00000D000D000D00DB71EB70F5F1F4F2E0100
:101CD0000894411C511CEDB7FEB752824182A4E327
:101CE000EA2EA1E0FA2EF801F382E282C401B301E8
:101CF0000E94C31EF801758364830E945E230DB7A2
:101D00001EB70F5F1F4FF0E18F2E912C8C0E9D1E82
:101D1000EDB7FEB792828182F801F382E282C601BA
:101D2000B5010E94C31EF801758364830E945E237F
:101D30008DB79EB706960FB6F8949EBF0FBE8DBFA7
:101D40008AE090E065E170E049E351E021E00E9423
:101D5000EE188DE290E065E170E0A20121E00E94C2
:101D6000EE1887E390E065E170E04FE351E021E099
:101D70000E94EE188BE390E065E170E0A40121E0A1
:101D80000E94EE186E960FB6F894DEBF0FBECDBF60
:101D9000CF91DF911F910F91FF90EF90DF90CF9047
:101DA000BF90AF909F908F907F906F905F904F907B
:101DB0000895EF92FF920F931F9332C0109230025A
:101DC0000E94170C0E94F7160E94D90D0E948E0DDA
:101DD0000E94240E0E94430D0E94F80C0E941319C9
:101DE000809130028823E1F00E9426027B018C0161
:101DF0006091D9037091DA03882777FD8095982F39
:101E00000E94F61E9B01AC01C801B7010E94F21DA1
:101E10000E94C31E70932A02609329021092AA01A5
:101E20008091AA01882351F61F910F91FF90EF90A6
:101E30000895CF92DF92EF92FF920F931F93CF936B
:101E4000DF9380914F019091500118161906ACF163
:101E50000E9426026093720470937304809374044A
:101E60009093750485E090E09093500180934F012A
:101E7000C1EFD3E009E711E00F2EF0E0CF2EF0E044
:101E8000DF2EF0E0EF2EF0E0FF2EF02DC886D98691
:101E9000EA86FB86F801619171918F01882777FDB1
:101EA0008095982F0E94F61E688379838A839B838E
:101EB0006596F4E0CA35DF0749F70E9426027B01E8
:101EC0008C016091720470917304809174049091FC
:101ED00075040E94311F9B01AC01DD24C801B701CC
:101EE0000E94F21D0E94C31E6430710514F0DD24AF
:101EF000D3948D2DDF91CF911F910F91FF90EF9093
:101F0000DF90CF9008950E94190F882311F00E944E
:101F10006B060E9475090E943F070E9452080E94AA
:101F200019080E94DE0508951F93E1E6F0E080E8BD
:101F3000808311E010830E942B0B87E880937A0046
:101F40008FE30E9447190E94781914BC84E085BD74
:101F500010936E001092800083E0809381001093B4
:101F60006F0078948093BF008FEF8093D10082E858
:101F70008093C0003F9A87E08093C1001092C30015
:101F8000229A239A2A982B981F9108950F931F93B2
:101F9000CF93DF9305E312E0C0E0D0E006C0C801B4
:101FA0000E94BD1921960B5E1F4F809126029091D1
:101FB0002702C817D9079CF3DF91CF911F910F918A
:101FC0000895CF93DF93C1EFD3E0CE010E94BD19F6
:101FD000659684E0CA35D807C1F7DF91CF9108959F
:101FE000CF93DF93CDEBD1E0CE010E94BD19659672
:101FF00082E0C632D807C1F7DF91CF9108950E94E1
:10200000F7160E94C60F8BED93E00E94BD198AE57A
:1020100094E00E94BD190E94F00F0E94E10F0E94FF
:10202000131908958F929F92AF92BF92CF92EF9221
:102030000F931F93CF93DF93A9E78A2EA1E09A2EE7
:10204000C1EFD3E0F401619171914F01882777FDD1
:102050008095982F0E94F61EAB01BC01CE0100E0D6
:1020600010E020EE30ECF5E0EF2EE7E0CE2EB2E708
:10207000AB2EB1E0BB2E0E9495196596F3E88F1642
:10208000F1E09F06F9F6DF91CF911F910F91EF904C
:10209000CF90BF90AF909F908F900895AF92BF92D6
:1020A000CF92EF920F931F93CF93DF93CDEBD1E0BD
:1020B000CE0140E050E062EA72E400E010E020E08F
:1020C00030E0F2E0EF2EE2E0CE2EB0E7AB2EB1E052
:1020D000BB2E0E9495191A8A659682E0C632D807EF
:1020E00039F7DF91CF911F910F91EF90CF90BF9073
:1020F000AF900895AF92BF92CF92EF920F931F933C
:102100008AE594E040E050E060E070E000E010E03C
:1021100024E232E4E7E0EE2EB7E0CB2EA9E6AA2EC9
:10212000A1E0BA2E0E9495191F910F91EF90CF90C8
:10213000BF90AF9008956F927F928F929F92AF92CF
:10214000BF92CF92DF92EF92FF920F931F93CF93A4
:10215000DF938090260290902702809176049091E0
:102160007704C5E3D2E0AA24BB2400E010E06C01B0
:10217000EE24D7FCE094FE2C85E1682E712C2CC057
:10218000C701B6010E94F61E9B01AC016C817D81E6
:102190008E819F810E94571E8823D9F48B899C8948
:1021A00089559140B1F4A69CF001A79CF00DB69C16
:1021B000F00D1124EB5CFD4F688179818A819B8150
:1021C00020813181428153810E94571E88230CF463
:1021D00058010F5F1F4F6596081519058CF285E1B0
:1021E00090E0A89E8001A99E100DB89E100D1124AC
:1021F0000B5C1D4FF801608171818281938120E029
:1022000030E040E850E40E94F31D6B017C01F801CE
:10221000648175818681978120E030E040EE50E452
:102220000E94F21D8B019C018BED93E0B701A6018A
:10223000B5E0EB2EA7E0CA2EF2E5AF2EF1E0BF2EFF
:102240000E949519DF91CF911F910F91FF90EF9010
:10225000DF90CF90BF90AF909F908F907F906F90C6
:10226000089580918301909184018C5291409093C4
:102270008401809383018BED93E00E948B21109267
:10228000AE011092AF010E949B100895DF93CF938F
:10229000CDB7DEB768970FB6F894DEBF0FBECDBFDF
:1022A0008DB79EB745970FB6F8949EBF0FBE8DBFF2
:1022B000ADB7BEB71196EAE5F4E085E101900D9265
:1022C0008150E1F70E947A04EDB7FEB775960FB61C
:1022D000F894FEBF0FBEEDBF298B3A8B4B8B5C8B06
:1022E0006D8B7E8B8F8B988FDE011196FE01719620
:1022F00088E001900D928150E1F78DB79EB7459728
:102300000FB6F8949EBF0FBE8DBFADB7BEB7119686
:10231000EBEDF3E085E101900D928150E1F70E9431
:102320007A04EDB7FEB775960FB6F894FEBF0FBEF0
:10233000EDBF298B3A8B4B8B5C8B6D8B7E8B8F8BA0
:10234000988FDE011996FE01719688E001900D923A
:102350008150E1F72B853C8589819A8128173907BF
:102360000CF18D819E8103972D853E8528173907B5
:10237000CCF08F81988503962F8538898217930733
:102380008CF080914B0190914C01029690934C01FE
:1023900080934B0110926C048AE594E00E948B219B
:1023A0000E94311168960FB6F894DEBF0FBECDBF04
:1023B000CF91DF910895DF93CF93CDB7DEB76097CC
:1023C0000FB6F894DEBF0FBECDBF8DB79EB7459751
:1023D0000FB6F8949EBF0FBE8DBFADB7BEB71196B6
:1023E000EBEDF3E085E101900D928150E1F70E9461
:1023F0007A04EDB7FEB775960FB6F894FEBF0FBE20
:10240000EDBF29873A874B875C876D877E878F87EB
:10241000988BDE011196FE01399688E001900D92AD
:102420008150E1F78B819C81C1976CF489819A81FD
:1024300097FD09C08D819E8197FD05C08F8198858C
:10244000853591055CF080914B0190914C0101978D
:1024500090934C0180934B010E94311160960FB60E
:10246000F894DEBF0FBECDBFCF91DF9108952F92BC
:102470003F924F925F926F927F928F929F92BF9204
:10248000CF92DF92EF92FF920F931F93DF93CF9340
:10249000CDB7DEB768970FB6F894DEBF0FBECDBFDD
:1024A00048E4C42E42E0D42EBB24EE24FF2435E1C0
:1024B000232E312C2E010894411C511C21E1822E27
:1024C000912C8C0E9D1E99E0692E712C6C0E7D1E38
:1024D000A4C08DB79EB745970FB6F8949EBF0FBEA8
:1024E0008DBFE29CF001E39CF00DF29CF00D1124F5
:1024F000ADB7BEB71196EB5CFD4F85E101900D9233
:102500008150E1F70E947A04EDB7FEB775960FB6D9
:10251000F894FEBF0FBEEDBF298B3A8B4B8B5C8BC3
:102520006D8B7E8B8F8B988FD201F40188E00190A8
:102530000D928150E1F709811A818DB79EB74597B9
:102540000FB6F8949EBF0FBE8DBFADB7BEB7119644
:10255000EBEDF3E085E101900D928150E1F70E94EF
:102560007A04EDB7FEB775960FB6F894FEBF0FBEAE
:10257000EDBF298B3A8B4B8B5C8B6D8B7E8B8F8B5E
:10258000988FD301F40188E001900D928150E1F71A
:102590008B859C8580179107C9F58F819885059655
:1025A0002F853889821793078CF18D819E8105973D
:1025B0002D853E85281739074CF1F60180819181E0
:1025C00089559140C1F4F0922D02E0922C020750FF
:1025D0001040B801882777FD8095982F0E94F61E3D
:1025E0006093DF037093E0038093E1039093E20331
:1025F000BB24B3940BC080914B0190914C01019787
:1026000090934C0180934B010E9431110894E11C7E
:10261000F11C85E190E0C80ED91E809126029091B0
:102620002702E816F9060CF454CF8B2D68960FB6E6
:10263000F894DEBF0FBECDBFCF91DF911F910F91F8
:10264000FF90EF90DF90CF90BF909F908F907F9002
:102650006F905F904F903F902F900895EF92FF9270
:102660000F931F93DF93CF93CDB7DEB72A970FB6A3
:10267000F894DEBF0FBECDBF0E943712982F2FEC0B
:1026800031E0AE014F5F5F4FE0E0F0E0D9018C91A7
:10269000882319F4DA01ED93FC9331962B5E3F4FBA
:1026A0004E5F5F4FE530F10589F7E0904D01F09006
:1026B0004E01EE19FF09EE0FFF1FEC0FFD1F2181E8
:1026C000328180912802882309F443C01E141F041C
:1026D0000CF03FC09923E9F185E190E0289F80014B
:1026E000299F100D389F100D112403541E4F609127
:1026F000DB037091DC038091DD039091DE0320E029
:1027000030E040E050E40E94F31DF80160837183E3
:10271000828393836091DF037091E0038091E103F2
:102720009091E20320E030E040EA50E40E94F31D83
:10273000D80114966D937D938D939C93179781E0A8
:1027400052968C930894E108F108F0924E01E092C1
:102750004D012A960FB6F894DEBF0FBECDBFCF91C4
:10276000DF911F910F91FF90EF9008950E942E131B
:102770000E94DD090E94D20A08950E943712882320
:1027800079F56091E7037091E8038091E9039091F6
:10279000EA032DEC3CEC4CE45EE30E94F31D6093F5
:1027A000E7037093E8038093E9039093EA0320E042
:1027B00030E040E85FE30E94F91F181664F480E0FF
:1027C00090E0A0E8BFE38093E7039093E803A09331
:1027D000E903B093EA031092AE011092AF010CC06E
:1027E00080E090E0A0E0B0E08093E7039093E803FE
:1027F000A093E903B093EA036091DF037091E003D3
:102800008091E1039091E2032091E7033091E80386
:102810004091E9035091EA030E94F31D6093DF03A6
:102820007093E0038093E1039093E2030895EF92A5
:10283000FF920F931F930E943712982F8091F003FD
:10284000882331F1992309F465C08DEC9CECACE050
:10285000B0EC8093E7039093E803A093E903B0936F
:10286000EA036091DF037091E0038091E1039091AE
:10287000E2032DEC3CEC4CE050E40E94F21D60932E
:10288000DF037093E0038093E1039093E20303C0BE
:10289000992309F43FC06091DF037091E0038091B8
:1028A000E1039091E20320E030E040EE50E40E942A
:1028B000F31D0E94C31E80917604909177046817DF
:1028C000790739F080917A0490917B046817790731
:1028D00049F48091310290913202A0913302B0917B
:1028E000340210C0809178049091790468177907B8
:1028F00089F48091310290913202A0913302B0911B
:102900003402B0588093E3039093E403A093E5036B
:10291000B093E6038091AE01882379F16091DF03E3
:102920007091E0038091E1039091E20320E030E0B8
:1029300040EE50E40E94F31D7B018C01609178040D
:1029400070917904882777FD8095982F0E94F61E54
:102950009B01AC01C801B7010E94571E6091310272
:1029600070913202809133029091340220E030E085
:1029700040E05FE30E94F31D33C08091AF018823E4
:10298000B9F16091DF037091E0038091E1039091D0
:10299000E20320E030E040EE50E40E94F31D7B01B2
:1029A0008C016091780470917904882777FD809577
:1029B000982F0E94F61E9B01AC01C801B7010E942E
:1029C000571E6091310270913202809133029091D2
:1029D000340220E030E040E05FE30E94F31D9058B5
:1029E0006093E3037093E4038093E5039093E6031D
:1029F0006091DB037091DC038091DD039091DE0335
:102A00002091E3033091E4034091E5035091E60304
:102A10000E94F31D6093DB037093DC038093DD035E
:102A20009093DE031F910F91FF90EF9008950E9405
:102A300037128823C1F020912C0230912D02809111
:102A40007004909171042817390769F0309371046C
:102A5000209370048091B0019091B1010196909300
:102A6000B1018093B00108950E94BD130E94ED044E
:102A70000E9417140E94DB110E9446110E94171534
:102A800008952F923F924F925F926F927F928F9212
:102A90009F92AF92BF92CF92DF92EF92FF920F93ED
:102AA0001F93DF93CF9300D000D000D0CDB7DEB717
:102AB0001092270210922602B6E72B2EB4E03B2E8E
:102AC000A7E04A2E512C80918400909185000E94AD
:102AD00039221E821D829201442737FD4095542FD2
:102AE00029833A834B835C830E943422AA2797FD73
:102AF000A095BA2FBC01CD010E94F61E20E03EEF4A
:102B00004FEF56E40E945B1E23E333E343EB5EE3A7
:102B10000E94571E87FD6FC00E9434227C014D81A8
:102B20005E81BA01882777FD8095982F0E94F61E56
:102B30005B016C0169817A818B819C810E94F61E08
:102B40003B014C010E94C31ED1016D937C93002771
:102B5000F7FC0095102FC801B7010E94F61E20E077
:102B60003EEF4FEF56E40E945B1E2DEC3CEC4CE434
:102B70005EE30E94F91F2091260230912702181669
:102B8000C4F4E5E1F0E02E9FC0012F9F900D3E9F21
:102B9000900D11248B5C9D4FA501B601940183011A
:102BA000FAE0EF2EE3E0CE2EB9E5AB2EB1E0BB2E7E
:102BB00017C045E150E0249FC001259F900D349F30
:102BC000900D11248B5C9D4FA501B60194018301EA
:102BD000AAE0EA2EF3E0CF2EE1E6AE2EE1E0BE2E33
:102BE0000E94951980912602909127020196909358
:102BF0002702809326028D819E810C969E838D8371
:102C00008435910509F070CFADE0B0E04A0E5B1E4F
:102C1000E2E0F0E02E0E3F1EFEE24F16510409F0F6
:102C200052CF26960FB6F894DEBF0FBECDBFCF9120
:102C3000DF911F910F91FF90EF90DF90CF90BF90A9
:102C4000AF909F908F907F906F905F904F903F904C
:102C50002F900895AF92BF92CF92EF920F931F9350
:102C60000E9441150E949B108AE594E040E050E0EC
:102C700060E070E000E010E024E232E4A7E0EA2E39
:102C8000F7E0CF2EE9E6AE2EE1E0BE2E0E949519C8
:102C90000E944E100E9412101F910F91EF90CF9042
:102CA000BF90AF900895CF93DF930E94940F0E943E
:102CB000DF0C0E942A16C8ECD0E009C00E94C216A0
:102CC0008AE491E0FE013197F1F70197D9F78091FD
:102CD000A901882321F48091AD01882379F380E054
:102CE00090E0DF91CF9108951092A9011092AA016E
:102CF0001092AC011092AE011092AF018AE090E008
:102D000090934C0180934B011092B1011092B0014D
:102D100085E090E090934E0180934D019093500197
:102D200080934F010E945316089527C00E94F71602
:102D30008AE090E06AE070E041E451E021E00E9426
:102D4000EE180E9413197D9B04C00E947416109205
:102D5000AB017E9B12C01092AB0181E08093AD016C
:102D60000E94F71684E190E064E170E04BE051E0EE
:102D700021E00E94EE180E9413198091AB01882374
:102D8000A9F608958091830190918401292F33271A
:102D900027FD3A952093BF008093CF000E94170C27
:102DA00080912F02882331F08091AC0191E0892736
:102DB0008093AC010E94B50C0E94D90E0E9434157C
:102DC0000E9406040E946A040E94B6130E94830FA8
:102DD0000E94FF0F80914B0190914C01181619062B
:102DE0002CF00E94951681E08093AB010895ECE7EA
:102DF000F4E0119286E0E437F807D9F708959C01D2
:102E000097FD37C077FD35C08435910594F5603363
:102E100071057CF5CB0173E0959587957A95E1F77F
:102E20006770452B99F0E4E58E9FF0011124E20FC5
:102E3000F31FE458FB4F81E090E002C0880F991F18
:102E40006A95E2F72081282B20830895E4E58E9F80
:102E5000F0011124E20FF31FE458FB4F81E090E0F2
:102E600002C0880F991F6A95E2F780952081282378
:102E7000208308952F923F924F925F926F927F929C
:102E80008F929F92AF92BF92CF92DF92EF92FF927A
:102E90000F931F93DF93CF93CDB7DEB72E970FB667
:102EA000F894DEBF0FBECDBF7C016B014A01390132
:102EB0001C870B8784179507F9F45B0110C0C701C5
:102EC000B5014B855C850E94FF16C614D70424F417
:102ED0000894A11CB11C03C00894A108B108C61431
:102EE000D7042CF46A147B040CF4FDC0E8CFA614BC
:102EF000B7040CF4F8C0E3CF62177307F9F45C0170
:102F000010C0C501B6014B855C850E94FF16E81410
:102F1000F90424F40894A11CB11C03C00894A1086E
:102F2000B108E814F9042CF48A149B040CF4DBC0F7
:102F3000E8CFA814B9040CF4D6C0E3CF481759075A
:102F400024F447017A013B016901B4016E197F093C
:102F5000882777FD8095982F0E94F61E6F837887CB
:102F600089879A87B3016C197D09882777FD809539
:102F7000982F0E94F61E6B837C838D839E832F8106
:102F8000388549855A850E945B1E1B012C0120E073
:102F900030E040E050E00E94F91F87FF04C057FA7C
:102FA000509457F85094DA82C9820F2EF0E0AF2E79
:102FB000F0E0BF2EF0E0CF2EF0E0DF2EF02D7FC04E
:102FC000C70169817A814B855C850E94FF16C60125
:102FD000B501A20191010E94F31D3BC0C7016981A7
:102FE0007A814B855C850E94FF161E861D866B814B
:102FF0007C818D819E8120E030E040E050E00E94A5
:10300000F91F181624F421E030E03E872D8700E0F8
:1030100010E06B817C818D819E8120E030E040E07A
:1030200050E00E94571E882314F401E010E08D85C3
:103030009E85801B910BE981FA81E80FF91FFA83C5
:10304000E983C601B50120E030E040E85FE30E947B
:10305000F21D5B016C0120E030E040E05FE30E9484
:10306000F91F8823CCF06B817C818D819E8120E0CB
:1030700030E040E050E00E94F91F18163CF429812E
:103080003A81621673060CF0A9CF06C089819A8135
:10309000861597050CF0A2CF6F81788589859A8572
:1030A00020E030E040E050E00E94F91F181624F4C0
:1030B0000894E11CF11C03C00894E108F1086F8139
:1030C000788589859A8520E030E040E050E00E94D4
:1030D000F91F181624F48E149F042CF071CFE814F5
:1030E000F9040CF06DCF2E960FB6F894DEBF0FBE2C
:1030F000CDBFCF91DF911F910F91FF90EF90DF90A7
:10310000CF90BF90AF909F908F907F906F905F9087
:103110004F903F902F9008954F925F926F927F92C1
:103120008F929F92AF92BF92CF92DF92EF92FF92D7
:103130000F931F93CF93DF933B01490125E0429FFB
:10314000A0011124ACE0EA2EA0E0FA2EE40EF51E58
:103150008C01F1E04F2E512CE1E1AE2EE0E0BE2ECD
:10316000A40EB51EF70184918114910409F4809591
:10317000C0E0D0E0C82EDD24BE01660D771DA2019F
:103180000C2E02C0440F551F0A94E2F74C215D211A
:103190000C2E02C0559547950A94E2F7C8010E948B
:1031A000FF162196C830D10539F70894E11CF11CAF
:1031B0000F5F1F4FEA14FB04A9F6DF91CF911F9117
:1031C0000F91FF90EF90DF90CF90BF90AF909F90C6
:1031D0008F907F906F905F904F900895CF92DF9285
:1031E000EF92FF920F931F93CF93DF936B017A01BE
:1031F000E901082F10E008C0802F90E0B6019E0181
:103200000E948C180B5F1F5FF701E10FF11D4081D9
:10321000442391F7DF91CF911F910F91FF90EF9091
:10322000DF90CF900895CF93DF9380E060E00E941D
:103230008819CCE7D4E081E069910E94261986E0E4
:10324000C437D807C1F7DF91CF91089595B1829522
:10325000880F807E9F7D982B95B95F9827E030E09E
:1032600070E08F98CB01022E02C0959587950A9445
:10327000E2F780FF02C02E9A01C02E988F9A21504B
:1032800030408FEF2F3F380761F75F9A08951F9303
:10329000182F579A249A259A269A879A2C985F9ADB
:1032A0002C9A80E061E20E942619106880E0612F6C
:1032B0000E94261980E064E00E94261980E063E104
:1032C0000E94261980E06CE00E94261980E060E2EE
:1032D0000E94261980E06CE00E94261980E060E4DC
:1032E0000E94261980E060E80E9426191F91089527
:1032F000CF93DF93C0E0D0E081E060E00E94261928
:10330000219681E0C83FD807B9F7DF91CF910895A2
:103310001F93182F606480E00E942619106880E0D7
:10332000612F0E9426191F910895AF92BF92CF92EC
:10333000EF920F931F93FC01408351836283738349
:103340000483158326833783E08AC18AB48AA38ADB
:1033500081E0828B80E090E0A0E0B0E08087918700
:10336000A287B38784879587A687B7871F910F9118
:10337000EF90CF90BF90AF9008952F923F924F92D1
:103380005F926F927F928F929F92AF92BF92CF92F5
:10339000DF92EF92FF920F931F93CF93DF938C01F5
:1033A000DC0152968C915297882309F481C06D916B
:1033B0007D918D919C910E9460200E94C31E3B01D3
:1033C000F8012481358146815781643571050CF0FF
:1033D0006FC0D80150968C91C82FD0E0CE01860DD9
:1033E000971D181619060CF063C0CA01B9010E9496
:1033F00060200E94C31E4B01603371050CF058C061
:10340000F80181899401280F311D121613060CF062
:103410004FC057E0A52EB12CAC0EBD1E43E0B594B5
:10342000A7944A95E1F7EE24FF24CC24DD2437E06D
:10343000232E312C31C0CE0123E0959587952A9516
:10344000E1F7D8015396ED91FC915497EC0DFD1DD9
:10345000E80FF91F408150E0CE0187709070F101B4
:10346000E81BF90B02C055954795EA95E2F74170C4
:103470005070CE01860D971DB2010E94FF16219655
:10348000D80150968C9190E0C817D907A4F20894FF
:10349000E11CF11CCA0CDB1CF801818990E0E816E4
:1034A000F90634F4C0E0D0E02701480C591CE8CFFD
:1034B000DF91CF911F910F91FF90EF90DF90CF9010
:1034C000BF90AF909F908F907F906F905F904F9044
:1034D0003F902F900895A1E1B0E0E1E7FAE10C946C
:1034E00093203C017F876E876A01FC011782168258
:1034F000838181FD03C06FEF7FEF6FC39E012F5F5C
:103500003F4F398B288BF3012381EE85FF8523FD07
:10351000859123FF8191FF87EE87882309F45AC3A1
:10352000853251F4EE85FF8523FD859123FF81913E
:10353000FF87EE87853229F490E0B3010E943223A1
:10354000E2CF982F10E0882499241032B0F49B32F7
:1035500069F09C3228F4903251F0933271F40BC030
:103560009D3239F0903349F4116028C01260146024
:1035700025C0186023C0106121C017FD2AC0892F03
:1035800080538A3078F416FF06C0FAE09F9E902C94
:103590001124980E13C03AE0839E802C1124880ECB
:1035A00010620CC09E3221F416FD14C3106406C0D4
:1035B0009C3611F4106802C0983659F4EE85FF85E8
:1035C00023FD959123FF9191FF87EE87992309F0C1
:1035D000BCCF892F8554833020F4812F8061905E89
:1035E00007C0892F8556833008F09FC1812F8F7EB9
:1035F00086FD02C076E0972E6FE3F62EF822953610
:1036000019F4F0E4FF2A07C0963619F420E8F22AEC
:1036100002C091109A94F7FE0AC03BE3391518F4E2
:103620005CE3B52E02C0B92CB39427E009C047E093
:10363000491520F4BB2447E0942EF7CF292DBB2455
:10364000C60104969D878C87F60160817181828115
:103650009381AE014F5F5F4F0B2D0E9444226C019E
:103660000981202E332400FF04C003FD02C01DE2A7
:1036700009C0F1FE02C01BE205C0F2FC02C010E06E
:1036800001C010E2C1018C709070892BB9F1112337
:1036900011F483E001C084E0881510F088240AC08A
:1036A000881AF3FC07C080E290E0B3010E94322345
:1036B0008A94C9F7112329F0812F90E0B3010E9469
:1036C000322323FE03C00CE812E00EC000E912E032
:1036D0000BC0E114F10409F0805290E0B3010E94A4
:1036E00032230F5F1F4F05C0EF2CFF24F0E1EF22C4
:1036F000FF24F8018491882361F714C1F7FE12C0FA
:10370000BC0C24FE04C08A81813309F4BA941B14D2
:103710001CF0BB24B3942DC0F8E0FB1550F538E045
:10372000B32E27C0F6FC25C0892D90E08C159D0591
:103730004CF02CEFC2162FEFD20624F030E8F32A1B
:1037400001C09A94992049F0E2E0F0E0EC0FFD1FEF
:10375000E90DF11D80818033A1F3F7FE0AC0B92C79
:10376000B394892D90E0C816D90614F0992401C0AD
:103770009C18F7FC03C025E030E009C01C141D04B0
:103780001CF021E030E003C096012F5F3F4F112372
:1037900011F02F5F3F4F992029F0892D90E001967D
:1037A000280F391F882D90E02817390714F0882436
:1037B00001C0821A4F2C5524C20189709070892B48
:1037C00039F008C080E290E0B3010E9432238A946D
:1037D0008820C1F7112329F0812F90E0B3010E94C6
:1037E000322343FE07C008C080E390E0B3010E948B
:1037F00032238A948820C1F7F7FE46C08601D7FE9F
:1038000002C000E010E076010894E11CF11CE01A0F
:10381000F10A41E050E04C0F5D1FE40EF51E260159
:103820004B185108892D90E0AA24BB24A81AB90A84
:103830005FEF0F3F150729F48EE290E0B3010E947D
:103840003223C016D10634F0401651061CF4F7019D
:10385000808101C080E3015010400894E11CF11CFC
:103860000A151B052CF090E0B3010E943223E0CF33
:103870000C151D0539F49A81963318F4953311F41B
:1038800024FE81E390E04BC08A81813309F00F7EF2
:1038900090E0B3010E9432239920A1F08EE290E0E3
:1038A000B3010E94322312E0E1E0F0E0EC0FFD1FD3
:1038B000E10FF11D1F5F808190E0B3010E94322370
:1038C0009A9491F744FC03C085E690E002C085E439
:1038D00090E0B3010E943223D7FC05C0C114D1048B
:1038E00041F404FF06C0D094C194D108D3948DE272
:1038F00001C08BE290E0B3010E94322380E305C057
:103900008F5F26EF3FEFC20ED31E3AE0C316D104FD
:10391000BCF790E0B3010E943223C601C096B30108
:103920000E943223CC84DD8452C1933631F0933728
:1039300099F0933509F059C023C0F601808189833D
:103940005E010894A11CB11C22E030E0C20ED31E1F
:1039500021E0E22EF12C12C0F601A080B18016FD0C
:1039600003C06FEF7FEF02C0692D70E022E030E00E
:10397000C20ED31EC5010E9427237C011F7713C0EE
:10398000F601A080B18016FD03C06FEF7FEF02C08B
:10399000692D70E022E030E0C20ED31EC5010E9406
:1039A0001C237C01106813FF07C01BC080E290E05D
:1039B000B3010E9432238A94882D90E0E816F9061C
:1039C000A8F30FC0F50117FD859117FF81915F01E5
:1039D00090E0B3010E94322381108A940894E10898
:1039E000F108E114F10471F7F2C0943611F0993640
:1039F00089F517FF08C0F60120813181428153818A
:103A000084E090E00AC0F601808191819C01442706
:103A100037FD4095542F82E090E0C80ED91E9FE6F6
:103A2000F92EF12257FF09C0509540953095219508
:103A30003F4F4F4F5F4F90E8F92ACA01B901AE01DD
:103A40004F5F5F4F2AE030E00E948223E82EE88932
:103A5000EE1A41C0953721F41F7E2AE030E01CC0E9
:103A6000197F9F3661F0903720F4983509F0B2C085
:103A70000FC0903739F0983709F0ACC004C028E087
:103A800030E00AC0106114FD146020E130E004C091
:103A900014FD166020E132E017FF08C0F6016081D6
:103AA00071818281938144E050E008C0F6018081F9
:103AB0009181BC0180E090E042E050E0C40ED51E50
:103AC000AE014F5F5F4F0E948223E82E5889E51AAE
:103AD0008FE7F82EF122F6FE0BC08EEFF822E914E4
:103AE00038F4F4FE07C0F2FC05C09FEEF92202C0D4
:103AF0001E2D01C0192DF4FE0DC0FE01EE0DF11DAD
:103B00008081803319F4E9EEFE2208C01F5FF2FEC7
:103B100005C003C08F2D867809F01F5F0F2DF3FCC1
:103B200014C0F0FE0FC0181510F09E2C0BC09E2C78
:103B3000980C911A182D06C080E290E0B3010E9403
:103B400032231F5F1815C0F304C0181510F4811A32
:103B500001C0882404FF0FC080E390E0B3010E94FD
:103B6000322302FF1DC001FD03C088E790E00EC0B4
:103B700088E590E00BC0802F867891F001FF02C0AD
:103B80008BE201C080E2F7FC8DE290E0B3010E947D
:103B9000322306C080E390E0B3010E9432239A945E
:103BA000E914C0F3EA94E1E0F0E0EC0FFD1FEE0D44
:103BB000F11D808190E0B3010E943223EE2091F745
:103BC00006C080E290E0B3010E9432238A948820EC
:103BD000C1F799CCF30166817781CB016196E2E16F
:103BE0000C94AF205058BB27AA270ED0B1C1A2D148
:103BF00030F0A7D120F031F49F3F11F41EF497C1AB
:103C00000EF4E095E7FB64C1E92FB3D180F3BA1756
:103C1000620773078407950718F071F49EF5E2C1F7
:103C20000EF4E0950B2EBA2FA02D0B01B9019001D7
:103C30000C01CA01A0011124FF27591B99F0593F1B
:103C400050F4503E68F11A16F040A22F232F342F63
:103C50004427585FF3CF469537952795A795F040B1
:103C60005395C9F77EF41F16BA0B620B730B840BC6
:103C7000BAF09150A1F0FF0FBB1F661F771F881F7E
:103C8000C2F70EC0BA0F621F731F841F48F48795D6
:103C900077956795B795F7959E3F08F0B3CF9395C5
:103CA000880F08F09927EE0F979587950895ECD027
:103CB00008F481E008950CD04BC143D140F03AD1D3
:103CC00030F021F45F3F19F003C151118CC12FC1B5
:103CD00050D198F39923C9F35523B1F3951B550B94
:103CE000BB27AA2762177307840738F09F5F5F4FCF
:103CF000220F331F441FAA1FA9F333D00E2E3AF010
:103D0000E0E830D091505040E695001CCAF729D029
:103D1000FE2F27D0660F771F881FBB1F2617370778
:103D20004807AB07B0E809F0BB0B802DBF01FF27A8
:103D300093585F4F2AF09E3F510568F0C9C053C1A8
:103D40005F3FECF3983EDCF3869577956795B795E2
:103D5000F7959F5FC9F7880F911D9695879597F9FD
:103D60000895E1E0660F771F881FBB1F6217730776
:103D70008407BA0720F0621B730B840BBA0BEE1F8B
:103D800088F7E095089504D06894B1112CC1089586
:103D9000F8D088F09F5790F0B92F9927B751A0F02D
:103DA000D1F0660F771F881F991F1AF0BA95C9F7CF
:103DB00012C0B13081F016D1B1E0089513C1672F60
:103DC000782F8827B85F39F0B93FCCF3869577957F
:103DD0006795B395D9F73EF4909580957095619568
:103DE0007F4F8F4F9F4F0895E89409C097FB3EF493
:103DF00090958095709561957F4F8F4F9F4F992338
:103E0000A9F0F92F96E9BB279395F69587957795B5
:103E10006795B795F111F8CFFAF4BB0F11F460FF75
:103E20001BC06F5F7F4F8F4F9F4F16C0882311F0CD
:103E300096E911C0772321F09EE8872F762F05C0E1
:103E4000662371F096E8862F70E060E02AF09A957C
:103E5000660F771F881FDAF7880F9695879597F971
:103E60000895A9D080F09F3740F491110EF0BBC0A7
:103E700060E070E080E89FEB089526F41B16611D5A
:103E8000711D811D2BC045C0990F0008550FAA0B4D
:103E9000E0E8FEEF16161706E807F907C0F012165D
:103EA0001306E407F50798F0621B730B840B950B60
:103EB00039F40A2661F0232B242B252B21F40895B5
:103EC0000A2609F4A140A6958FEF811D811D089552
:103ED00097F99F6780E870E060E00895882371F4A7
:103EE000772321F09850872B762F07C0662311F493
:103EF00099270DC09051862B70E060E02AF09A95CA
:103F0000660F771F881FDAF7880F9695879597F9C0
:103F100008959F3F31F0915020F4879577956795EC
:103F2000B795880F911D9695879597F908959FEFFE
:103F300080EC089500240A94161617061806090640
:103F4000089500240A94121613061406050608950F
:103F5000092E0394000C11F4882352F0BB0F40F497
:103F6000BF2B11F460FF04C06F5F7F4F8F4F9F4FD7
:103F7000089557FD9058440F551F59F05F3F71F059
:103F80004795880F97FB991F61F09F3F79F08795C0
:103F90000895121613061406551FF2CF4695F1DF49
:103FA00008C0161617061806991FF1CF86957105D9
:103FB000610508940895E5DFA0F0BEE7B91788F41D
:103FC000BB279F3860F41616B11D672F782F8827FE
:103FD000985FF7CF869577956795B11D939596393C
:103FE000C8F30895E894BB2766277727CB0197F994
:103FF00008954ADF08F48FEF08950BD0A9CF9ADF18
:1040000028F09FDF18F0952309F062CF90CF11249C
:10401000EACFAFDFA0F3959FD1F3950F50E0551F86
:10402000629FF001729FBB27F00DB11D639FAA270D
:10403000F00DB11DAA1F649F6627B00DA11D661F5C
:10404000829F2227B00DA11D621F739FB00DA11D7D
:10405000621F839FA00D611D221F749F3327A00D37
:10406000611D231F849F600D211D822F762F6A2FD3
:1040700011249F5750408AF0E1F088234AF0EE0F58
:10408000FF1FBB1F661F771F881F91505040A9F765
:104090009E3F510570F01CCFA6CF5F3FECF3983EDA
:1040A000DCF3869577956795B795F795E7959F5FCC
:1040B000C1F7FE2B880F911D9695879597F9089566
:1040C00060DFE0F09E37D8F09639B8F49E3848F4B7
:1040D000672F782F8827985FF9CF86957795679512
:1040E00093959539D0F3B62FB1706B0F711D811D6B
:1040F00020F48795779567959395F0CE0ACF73CF87
:1041000097FB092E07260AD077FD04D043D006D0AE
:1041100000201AF4709561957F4F0895F6F79095F9
:1041200081959F4F08952F923F924F925F926F9289
:104130007F928F929F92AF92BF92CF92DF92EF9237
:10414000FF920F931F93CF93DF93CDB7DEB7CA1BB8
:10415000DB0B0FB6F894DEBF0FBECDBF09942A88E3
:10416000398848885F846E847D848C849B84AA848B
:10417000B984C884DF80EE80FD800C811B81AA8118
:10418000B981CE0FD11D0FB6F894DEBF0FBECDBFE3
:10419000ED010895AA1BBB1B51E107C0AA1FBB1F5D
:1041A000A617B70710F0A61BB70B881F991F5A95C3
:1041B000A9F780959095BC01CD010895CF93DF9329
:1041C000BC018230910510F462E070E0A0917606A7
:1041D000B0917706ED01E0E0F0E040E050E021C072
:1041E000888199818617970769F48A819B81309726
:1041F00019F09383828304C09093770680937606A8
:10420000FE0134C06817790738F44115510519F0DB
:104210008417950708F4AC01FE018A819B819C01FB
:10422000E9012097E9F641155105A9F1CA01861B5C
:10423000970B049708F4BA01E0E0F0E02AC08D91F2
:104240009C91119784179507F9F46417750781F409
:1042500012968D919C911397309719F093838283D6
:1042600004C09093770680937606FD0132964FC086
:10427000CA01861B970BFD01E80FF91F619371932B
:1042800002978D939C9343C0FD01828193819C0191
:10429000D9011097A1F68091740690917506892B2B
:1042A00041F480918C0190918D01909375068093DB
:1042B000740640918E0150918F014115510541F4D2
:1042C0004DB75EB780918A0190918B01481B590BC5
:1042D000209174063091750624173507B0F4CA0191
:1042E000821B930B8617970780F0AB014E5F5F4FE1
:1042F0008417950750F0420F531F50937506409353
:104300007406F9016193719302C0E0E0F0E0CF011F
:10431000DF91CF910895CF93DF93009709F450C0B8
:10432000EC0122971B821A82A0917606B091770643
:10433000109709F140E050E0AC17BD0708F1BB83CE
:10434000AA83FE0121913191E20FF31FAE17BF073F
:1043500079F48D919C911197280F391F2E5F3F4F53
:104360003983288312968D919C9113979B838A831E
:104370004115510571F4D0937706C093760620C09D
:1043800012968D919C911397AD01009711F0DC016D
:10439000D3CFFA01D383C28321913191E20FF31F6E
:1043A000CE17DF0769F488819981280F391F2E5FA6
:1043B0003F4FFA01318320838A819B8193838283DB
:1043C000DF91CF910895A0E0B0E0E9EEF1E20C9426
:1043D0009B20EC01A880B980CA80DB80A114B104C5
:1043E000C104D10441F484E2A82E89EDB82E8BE5F6
:1043F000C82E87E0D82EC601B5012DE133EF41E08C
:1044000050E00E94FF2327EA31E440E050E00E94A0
:10441000E0237B018C01C601B5012DE133EF41E0C2
:1044200050E00E94FF23CA01B9012CEE34EF4FEF98
:104430005FEF0E94E0236E0D7F1D801F911F97FF8D
:1044400004C06150704080409048688379838A83BB
:104450009B839B013F77C901CDB7DEB7EAE00C949F
:10446000B7200E94E321089580E991E00E94E321B2
:104470000895A0E0B0E08093900190939101A09303
:104480009201B09393010895283008F027E0332774
:10449000DA01990F311D87FD916000966105710564
:1044A00039F432602E5F3D9330E32A95E1F70895A9
:1044B0009F3F30F080387105610509F03C5F3C5F3B
:1044C0003D93913008F08068911DDF93CF931F9347
:1044D0000F93FF92EF92192F987F9695E92F96955B
:1044E0009695E90FFF27E251FD4F99273327EE24D8
:1044F000FF24A701E70105900894079428F4360FDC
:10450000E71EF81E491F511D660F771F881F991F50
:104510000694A1F70590079428F4E70EF81E491FAA
:10452000561FC11D770F881F991F661F0694A1F79C
:104530000590079428F4F80E491F561FC71FD11D78
:10454000880F991F661F771F0694A1F7059007949F
:1045500020F4490F561FC71FD81F990F661F771FDA
:10456000881F0694A9F784911095177041F0D6958D
:10457000C79557954795F794E7941A95C1F7E4E9DD
:10458000F2E068941590159135916591959105909B
:104590007FE27395E118F10A430B560BC90BD00962
:1045A000C0F7E10CF11E431F561FC91FD01D7EF43A
:1045B000703311F48A95E6CFE894015030F0080F7B
:1045C0000AF40027021708F4202F2395022F7A33CC
:1045D00028F079E37D932A95E9F710C07D932A9519
:1045E00089F6069497956795379517951794E1186E
:1045F000F10A430B560BC90BD00998F023957E9115
:1046000073957A3308F070E37C932013B8F77E91AA
:1046100070617D9330F0839571E37D9370E32A950B
:10462000E1F71124EF90FF900F911F91CF91DF914F
:10463000992787FD90950895FC0105906150704081
:104640000110D8F7809590958E0F9F1F0895FC015B
:104650006150704001900110D8F7809590958E0FB1
:104660009F1F08950F931F93CF93DF938C01EB014E
:104670008B8181FF1BC082FF0DC02E813F818C8109
:104680009D812817390764F4E881F9810193F98342
:10469000E88306C0E885F985802F0995892B31F4D8
:1046A0008E819F8101969F838E8302C00FEF1FEF43
:1046B000C801DF91CF911F910F910895AEE0B0E056
:1046C000E4E6F3E20C94A1200D891E8986E08C8338
:1046D0001A8309838FEF9FE79E838D839E01275E58
:1046E0003F4FCE0101966F89788DA9010E946B1A08
:1046F0002F813885020F131FF80110822E96E4E0F7
:104700000C94BD20FA01AA27283051F1203181F103
:10471000E8946F936E7F6E5F7F4F8F4F9F4FAF4FC9
:10472000B1E03ED0B4E03CD0670F781F891F9A1FDC
:10473000A11D680F791F8A1F911DA11D6A0F711D90
:10474000811D911DA11D20D009F468943F912AE09C
:10475000269F11243019305D3193DEF6CF01089584
:10476000462F4770405D4193B3E00FD0C9F7F6CFB5
:10477000462F4F70405D4A3318F0495D31FD40527D
:10478000419302D0A9F7EACFB4E0A6959795879513
:1047900077956795BA95C9F70097610571050895F2
:1047A0009B01AC010A2E069457954795379527959E
:1047B000BA95C9F7620F731F841F951FA01D089536
:1047C000629FD001739FF001829FE00DF11D649FF5
:1047D000E00DF11D929FF00D839FF00D749FF00D81
:1047E000659FF00D9927729FB00DE11DF91F639F22
:1047F000B00DE11DF91FBD01CF011124089597FBF4
:10480000092E05260ED057FD04D014D00AD0001C66
:1048100038F450954095309521953F4F4F4F5F4F5D
:104820000895F6F790958095709561957F4F8F4F1D
:104830009F4F0895A1E21A2EAA1BBB1BFD010DC0BC
:10484000AA1FBB1FEE1FFF1FA217B307E407F50740
:1048500020F0A21BB30BE40BF50B661F771F881F1C
:10486000991F1A9469F760957095809590959B01B2
:0C487000AC01BD01CF010895F894FFCF0A
:10487C0056616E65737361204C69006E393936363A
:10488C00343633002564005A6F6D626965733A00E3
:10489C00466F6F643A0053636F72653A004C6976E9
:1048AC0065733A00253032640054696D653A003AFC
:1048BC000047414D45204F564552000A0005000562
:1048CC000001707020F8205088FFFFFFFFFFFF00F1
:1048DC0000FFFF0000FFFF0000FE82BA929282FEF2
:1048EC00C0C088A8F820205088050013001F003590
:1048FC000045002C01010101010120007806000097
:04490C0001000000A6
:00000001FF
