:100000000C94C7010C94E4010C94E4010C94E401F9
:100010000C94E4010C94E4010C94E4010C94E401CC
:100020000C94E4010C94E4010C94E4010C94E401BC
:100030000C94E4010C94E4010C94E4010C94E401AC
:100040000C94E4010C94E4010C94E4010C94E4019C
:100050000C94E4010C94E4010C94E4010C94E4018C
:100060000C94E4010C94E4010C94E4010C94E4017C
:100070000C94E4010C94E4010C94E4010C94E4016C
:100080000C94E4010C94E4010C94E4010C94E4015C
:100090000C94E4010C94E4010C94E4010C94E4014C
:1000A0000C94E4010C94E4010C94E40100000000C1
:1000B0000000005F00000007000700147F147F1499
:1000C000242A7F2A122313086462364955225000DD
:1000D00005030000001C2241000041221C001408FE
:1000E0003E081408083E08080050300000080808C0
:1000F0000808006060000020100804023E514945D5
:100100003E00427F400042615149462141454B310A
:100110001814127F1027454545393C4A494930019A
:10012000710905033649494936064949291E0036F1
:100130003600000056360000081422410014141442
:100140001414004122140802015109063249794170
:100150003E7E1111117E7F494949363E414141227F
:100160007F4141221C7F494949417F090909013EDC
:100170004149497A7F0808087F00417F41002040BB
:10018000413F017F081422417F404040407F020CE4
:10019000027F7F0408107F3E4141413E7F090909EB
:1001A000063E4151215E7F09192946464949493198
:1001B00001017F01013F4040403F1F2040201F3F81
:1001C0004038403F63140814630708700807615102
:1001D000494543007F41410002040810200041418D
:1001E0007F0004020102044040404040000102043C
:1001F0000020545454787F484444383844444420C0
:10020000384444487F3854545418087E0901020C7D
:100210005252523E7F0804047800447D4000204042
:10022000443D007F1028440000417F40007C0418BA
:1002300004787C0804047838444444387C1414144A
:1002400008081414187C7C080404084854545420EA
:10025000043F4440203C4040207C1C2040201C3C6B
:100260004030403C44281028440C5050503C4464DA
:10027000544C44000836410000007F000000413625
:100280000800100808100878464146786E616E0034
:10029000696E660000407A10F35A00A0724E180989
:1002A0000010A5D4E80000E87648170000E40B54DD
:1002B000020000CA9A3B000000E1F50500008096AC
:1002C0009800000040420F000000A08601000000DE
:1002D000102700000000E803000000006400000098
:1002E00000000A00000000000100000000002C7661
:1002F000D888DC674F0823DFC1DFAE59E1B1B7967C
:10030000E5E3E453C63AE651997696E8E6C28426D8
:10031000EB898C9B62ED407C6FFCEFBC9C9F40F2B4
:10032000BAA56FA5F490055A2AF75C936B6CF96730
:100330006DC11BFCE0E40D47FEF520E6B500D0EDF5
:10034000902E0300943577050080841E080000205D
:100350004E0A000000C80C333333330F986E1283FB
:100360001141EF8D2114893BE65516CFFEE6DB18CF
:10037000D1844B381BF77C1D901DA4BBE424203294
:1003800084725E228100C9F124ECA1E53D2711248D
:100390001FBECFEFDAE0DEBFCDBF11E0A0E0B1E0DD
:1003A000E4E8F5E202C005900D92A833B107D9F751
:1003B00015E0A8E3B1E001C01D92AB30B107E1F751
:1003C0000E9444070C94C0120C9400002F923F929C
:1003D0004F925F926F927F928F929F92AF92BF9255
:1003E000CF92DF92EF92FF920F931F93DF93CF9301
:1003F00000D000D000D0CDB7DEB720903D013090C6
:100400003E0180910D0390910E0320910F033091D6
:10041000100340911103509112030FE311E01E836A
:100420000D83CC24DD247C010027F7FC0095102FE0
:10043000E982FA820B831C832901662457FC6094AD
:10044000762C4A01AA2497FCA094BA2C54C0ED81C2
:10045000FE81E480F5800681178169817A818B8134
:100460009C810E94570F9B01AC01C801B7010E94FB
:10047000B80E882329F1C301B2010E94570F9B01D6
:10048000AC01C801B7010E94B80E882369F4ED8160
:10049000FE8160817181828193812AE939E949E98C
:1004A0005EE30E94530E18C0C501B4010E94570FAD
:1004B0009B01AC01C801B7010E94B80E882391F4DA
:1004C000ED81FE8160817181828193812AE939E920
:1004D00049E95EE30E94540EED81FE8160837183E1
:1004E000828393830894C11CD11C0D811E810B5EF5
:1004F0001F4F1E830D83C214D3040CF4A8CF26967D
:100500000FB6F894DEBF0FBECDBFCF91DF911F9124
:100510000F91FF90EF90DF90CF90BF90AF909F90A2
:100520008F907F906F905F904F903F902F900895A5
:10053000AF92BF92CF92DF92EF92FF920F931F93F1
:10054000CF93DF93A0903D01B0903E01CFE3D1E087
:10055000CC24DD2429C0E880F9800A811B81C801F0
:10056000B70120E030E048EA52E40E940710181674
:100570002CF480E090E0A0E2B1EC0EC0C801B7011D
:1005800020E030E040E251EC0E94B80E882344F4B1
:1005900080E090E0A8EAB2E488839983AA83BB83D1
:1005A0000894C11CD11C6596CA14DB04A4F2DF9127
:1005B000CF911F910F91FF90EF90DF90CF90BF9060
:1005C000AF9008950E94E6010E94980208958091DC
:1005D0003A01882389F5809114018823B9F060914C
:1005E000F8027091F9028091FA029091FB022AE9D7
:1005F00039E949E95EE30E94540E6093F802709372
:10060000F9028093FA029093FB0208956091F80238
:100610007091F9028091FA029091FB022AE939E97E
:1006200049E95EE30E94530E6093F8027093F90269
:100630008093FA029093FB020895EF92FF920F933A
:100640001F93E090F802F090F9020091FA021091E5
:10065000FB02C801B70120E030E040E050E00E941A
:10066000B80E882324F481E0809314010CC0C801E3
:10067000B70120E030E04AE952E40E940710181662
:1006800014F4109214011F910F91FF90EF900895B0
:100690000E941D030E94E70208956F927F928F923D
:1006A0009F92AF92BF92CF92DF92EF92FF920F9301
:1006B0001F93DF93CF93CDB7DEB728970FB6F8948B
:1006C000DEBF0FBECDBF6D8C7E8C8F8C98A0E98C69
:1006D000FA8C0B8D1C8D6AA570E0882777FD8095BC
:1006E000982F0E94570F9B01AC01C401B3010E94D7
:1006F000540E0E94240F5B016C0169A570E08827ED
:1007000077FD8095982F0E94570F9B01AC01C8017F
:10071000B7010E94540E0E94240F78876F83C8018E
:10072000B7010E94240F7E836D83BC82AB82C4011B
:10073000B3010E94240F7A83698329813A814B8116
:100740005C816D817E818F81988528960FB6F894A3
:10075000DEBF0FBECDBFCF91DF911F910F91FF90F4
:10076000EF90DF90CF90BF90AF909F908F907F9051
:100770006F9008954F925F926F927F928F929F92A7
:10078000BF92CF92DF92EF92FF920F931F93DF936E
:10079000CF93CDB7DEB768970FB6F894DEBF0FBE24
:1007A000CDBFE0903D01F0903E01BB2400E010E0A1
:1007B00025E1422E512C3E010894611C711C91E1EF
:1007C000C92ED12CCC0EDD1E89E0882E912C8C0EEA
:1007D0009D1E78C08DB79EB745970FB6F8949EBF03
:1007E0000FBE8DBF049DF001059DF00D149DF00D11
:1007F0001124ADB7BEB71196E15CFE4F85E10190C3
:100800000D928150E1F70E944D03EDB7FEB775964A
:100810000FB6F894FEBF0FBEEDBF298B3A8B4B8B02
:100820005C8B6D8B7E8B8F8B988FD301F60188E06C
:1008300001900D928150E1F78DB79EB745970FB6A5
:10084000F8949EBF0FBE8DBFADB7BEB71196E3EE55
:10085000F2E085E101900D928150E1F70E944D0395
:10086000EDB7FEB775960FB6F894FEBF0FBEEDBF9D
:10087000298B3A8B4B8B5C8B6D8B7E8B8F8B988F00
:10088000D401F60188E001900D928150E1F72B85AB
:100890003C8589819A812817390791F48F81988541
:1008A00005962F8538898217930754F08D819E8194
:1008B00005972D853E852817390714F0BB24B3947E
:1008C0000F5F1F4F0E151F050CF484CF8B2D6896FC
:1008D0000FB6F894DEBF0FBECDBFCF91DF911F9151
:1008E0000F91FF90EF90DF90CF90BF909F908F90EF
:1008F0007F906F905F904F9008950E94BA03882375
:10090000B9F46091E7027091E8028091E902909158
:10091000EA022DEC3CEC4CE45EE30E94540E609342
:10092000E7027093E8028093E9029093EA02089547
:100930006091E7027091E8028091E9029091EA02E9
:1009400020E030E040E051E40E94540E0E94240F69
:1009500080910D0390910E036817790739F080910B
:1009600011039091120368177907B9F46091E302BB
:100970007091E4028091E5029091E6022AE939E95A
:1009800049E95EE30E94540E6093E3027093E4022F
:100990008093E5029093E602089580910F03909171
:1009A000100368177907B1F46091E3027091E402D3
:1009B0008091E5029091E6022AE939E949E95EE38E
:1009C0000E94530E6093E3027093E4028093E50269
:1009D0009093E6020895489B0AC080913C018823C9
:1009E00019F010923C0103C081E080933B0183B178
:1009F000869580FF0AC080913B01882319F01092F0
:100A00003B01089581E080933C01089580913B0172
:100A10008823B1F06091E3027091E4028091E502D5
:100A20009091E6022DEC3CEC4CEC5EE30E94540EFF
:100A30006093E3027093E4028093E5029093E602F0
:100A4000089580913C018823B1F06091E302709198
:100A5000E4028091E5029091E6022DEC3CEC4CEC36
:100A60005EE30E94530E6093E3027093E40280936E
:100A7000E5029093E60208950E947D040E94EB0433
:100A800080913B018823B1F06091E3027091E40210
:100A90008091E5029091E6022DEC3CEC4CEC5EE39B
:100AA0000E94540E6093E3027093E4028093E50287
:100AB0009093E60280913C018823B1F06091E302BB
:100AC0007091E4028091E5029091E6022DEC3CECFD
:100AD0004CEC5EE30E94530E6093E3027093E402D9
:100AE0008093E5029093E6020895219820988598D6
:100AF000869808958FB182958695877080FF06C08D
:100B000080913A0191E0892780933A010895E1E6C6
:100B1000F0E080E8808381E080830E9475058FE3A8
:100B20000E94A8090E94D90908950E94580782E1ED
:100B300090E06BE070E040E051E020E00E944F095F
:100B400084E190E064E170E04BE051E021E00E943C
:100B50004F090E9474097E9BFECF08950F931F9347
:100B6000CF93DF930FE311E0C0E0D0E006C0C801EF
:100B70000E941E0A21960B5E1F4F80913D019091AD
:100B80003E01C817D9079CF3DF91CF911F910F91B8
:100B900008950E9458070E94AE0583EE92E00E94DD
:100BA0001E0A88EF92E00E941E0A0E9474090895AE
:100BB0000E947A050E943C050E94E2020E944803BE
:100BC0000E94C9050895AF92BF92CF92EF920F9302
:100BD0001F9388EF92E040E050E060E070E000E0BA
:100BE00010E024E232E4A7E0EA2EF7E0CF2EEDE2B7
:100BF000AE2EE1E0BE2E0E94F6091F910F91EF90FC
:100C0000CF90BF90AF900895AF92BF92CF92DF92F6
:100C1000EF92FF920F931F93C0903F01D09040013D
:100C2000E0904101F09042016091430170914401D4
:100C3000809145019091460120E030E040E051E490
:100C40000E94530E8B019C0183EE92E0B701A60136
:100C5000F5E0EF2EE8E0CE2EB5E1AB2EB1E0BB2EF5
:100C60000E94F6091F910F91FF90EF90DF90CF90B7
:100C7000BF90AF9008952F923F924F925F926F92E4
:100C80007F928F929F92AF92BF92CF92DF92EF921C
:100C9000FF920F931F93DF93CF9300D000D000D02B
:100CA000CDB7DEB710923E0110923D010DE0202E2F
:100CB00003E0302E18E0412E512C9CC00E94DC1025
:100CC000AA2797FDA095BA2FBC01CD010E94570F0E
:100CD00020E03EEF4FEF56E40E94BC0E2DEC3CECC2
:100CE0004CE45EE30E94B80E87FD6FC00E94DC10EA
:100CF0007C012D813E81B901882777FD8095982F51
:100D00000E94570F5B016C0169817A818B819C8104
:100D10000E94570F3B014C010E94240FD1016D939B
:100D20007C930027F7FC0095102FC801B7010E94A3
:100D3000570F20E03EEF4FEF56E40E94BC0E2DEC23
:100D40003CEC4CE45EE30E94071020913D013091A1
:100D50003E011816C4F4E5E1F0E02E9FC0012F9F7C
:100D6000900D3E9F900D1124815C9E4FA501B60110
:100D700094018301BAE0EB2EA3E0CA2EFDE1AF2E71
:100D8000F1E0BF2E17C045E150E0249FC001259F30
:100D9000900D349F900D1124815C9E4FA501B601EA
:100DA00094018301EAE0EE2EB3E0CB2EA5E2AA2E59
:100DB000A1E0BA2E0E94F60980913D0190913E017A
:100DC000019690933E0180933D018D819E810C960A
:100DD0009E838D838435910509F070CFADE0B0E03E
:100DE0004A0E5B1EE2E0F0E02E0E3F1EFFE24F16C1
:100DF000510461F01E821D829201442737FD409507
:100E0000542F29833A834B835C8358CF26960FB6A1
:100E1000F894DEBF0FBECDBFCF91DF911F910F9130
:100E2000FF90EF90DF90CF90BF90AF909F908F900A
:100E30007F906F905F904F903F902F900895AF926A
:100E4000BF92CF92EF920F931F930E943B060E9496
:100E5000040688EF92E040E050E060E070E000E0DF
:100E600010E024E232E4A7E0EA2EF7E0CF2EEDE234
:100E7000AE2EE1E0BE2E0E94F6091F910F91EF9079
:100E8000CF90BF90AF900895CF93DF930E948705D6
:100E90000E9495050E941F07C8ECD0E00E94D8056B
:100EA0008AE491E0FE013197F1F70197D9F7F6CF87
:100EB000E3E1F3E0119285E0EB30F807D9F708950C
:100EC0009C0197FD37C077FD35C08435910594F5B9
:100ED000603371057CF5CB0173E0959587957A9524
:100EE000E1F76770452B99F0E4E58E9FF00111243E
:100EF000E20FF31FED5EFC4F81E090E002C0880F2F
:100F0000991F6A95E2F72081282B20830895E4E554
:100F10008E9FF0011124E20FF31FED5EFC4F81E084
:100F200090E002C0880F991F6A95E2F780952081B2
:100F30002823208308952F923F924F925F926F92C1
:100F40007F928F929F92AF92BF92CF92DF92EF9259
:100F5000FF920F931F93DF93CF93CDB7DEB72E97FA
:100F60000FB6F894DEBF0FBECDBF7C016B014A0106
:100F700039011C870B8784179507F9F45B0110C0B2
:100F8000C701B5014B855C850E946007C614D70474
:100F900024F40894A11CB11C03C00894A108B10852
:100FA000C614D7042CF46A147B040CF4FDC0E8CFFB
:100FB000A614B7040CF4F8C0E3CF62177307F9F472
:100FC0005C0110C0C501B6014B855C850E946007BD
:100FD000E814F90424F40894A11CB11C03C008947B
:100FE000A108B108E814F9042CF48A149B040CF449
:100FF000DBC0E8CFA814B9040CF4D6C0E3CF48177F
:10100000590724F447017A013B016901B4016E19C3
:101010007F09882777FD8095982F0E94570F6F834F
:10102000788789879A87B3016C197D09882777FDAE
:101030008095982F0E94570F6B837C838D839E83AE
:101040002F81388549855A850E94BC0E1B012C01D1
:1010500020E030E040E050E00E94071087FF04C02D
:1010600057FA509457F85094DA82C9820F2EF0E064
:10107000AF2EF0E0BF2EF0E0CF2EF0E0DF2EF02D0F
:101080007FC0C70169817A814B855C850E946007BA
:10109000C601B501A20191010E94540E3BC0C701D7
:1010A00069817A814B855C850E9460071E861D865A
:1010B0006B817C818D819E8120E030E040E050E0BA
:1010C0000E940710181624F421E030E03E872D8797
:1010D00000E010E06B817C818D819E8120E030E01A
:1010E00040E050E00E94B80E882314F401E010E0C4
:1010F0008D859E85801B910BE981FA81E80FF91F90
:10110000FA83E983C601B50120E030E040E85FE3FF
:101110000E94530E5B016C0120E030E040E05FE391
:101120000E9407108823CCF06B817C818D819E8189
:1011300020E030E040E050E00E94071018163CF438
:1011400029813A81621673060CF0A9CF06C0898105
:101150009A81861597050CF0A2CF6F8178858985D5
:101160009A8520E030E040E050E00E940710181619
:1011700024F40894E11CF11C03C00894E108F10870
:101180006F81788589859A8520E030E040E050E0E5
:101190000E940710181624F48E149F042CF071CFAF
:1011A000E814F9040CF06DCF2E960FB6F894DEBF5C
:1011B0000FBECDBFCF91DF911F910F91FF90EF90A8
:1011C000DF90CF90BF90AF909F908F907F906F9067
:1011D0005F904F903F902F9008954F925F926F9243
:1011E0007F928F929F92AF92BF92CF92DF92EF92B7
:1011F000FF920F931F93CF93DF933B01490125E0AB
:10120000429FA0011124ACE0EA2EA0E0FA2EE40EE9
:10121000F51E8C01F1E04F2E512CE1E1AE2EE0E005
:10122000BE2EA40EB51EF70184918114910409F419
:101230008095C0E0D0E0C82EDD24BE01660D771D8C
:10124000A2010C2E02C0440F551F0A94E2F74C2154
:101250005D210C2E02C0559547950A94E2F7C8010E
:101260000E9460072196C830D10539F70894E11C27
:10127000F11C0F5F1F4FEA14FB04A9F6DF91CF9119
:101280001F910F91FF90EF90DF90CF90BF90AF90A4
:101290009F908F907F906F905F904F900895CF9226
:1012A000DF92EF92FF920F931F93CF93DF936B0127
:1012B0007A01E901082F10E008C0802F90E0B60104
:1012C0009E010E94ED080B5F1F5FF701E10FF11D0A
:1012D0004081442391F7DF91CF911F910F91FF90AF
:1012E000EF90DF90CF900895CF93DF9380E060E0A0
:1012F0000E94E909C3E1D3E081E069910E94870976
:1013000085E0CB30D807C1F7DF91CF91089595B133
:101310008295880F807E9F7D982B95B95F9827E0F6
:1013200030E070E08F98CB01022E02C09595879532
:101330000A94E2F780FF02C02E9A01C02E988F9A7D
:10134000215030408FEF2F3F380761F75F9A0895A3
:101350001F93182F579A249A259A269A879A2C9881
:101360005F9A2C9A80E061E20E948709106880E011
:10137000612F0E94870980E064E00E94870980E075
:1013800063E10E94870980E06CE00E94870980E0A9
:1013900060E20E94870980E06CE00E94870980E09B
:1013A00060E40E94870980E060E80E9487091F913D
:1013B0000895CF93DF93C0E0D0E081E060E00E9429
:1013C0008709219681E0C83FD807B9F7DF91CF910F
:1013D00008951F93182F606480E00E9487091068A9
:1013E00080E0612F0E9487091F910895AF92BF92FC
:1013F000CF92EF920F931F93FC014083518362833E
:1014000073830483158326833783E08AC18AB48A71
:10141000A38A81E0828B80E090E0A0E0B0E080874A
:101420009187A287B38784879587A687B7871F91FF
:101430000F91EF90CF90BF90AF9008952F923F9271
:101440004F925F926F927F928F929F92AF92BF92D4
:10145000CF92DF92EF92FF920F931F93CF93DF9380
:101460008C01DC0152968C915297882309F481C03B
:101470006D917D918D919C910E940B100E94240F83
:101480003B01F8012481358146815781643571051E
:101490000CF06FC0D80150968C91C82FD0E0CE01CF
:1014A000860D971D181619060CF063C0CA01B90104
:1014B0000E940B100E94240F4B01603371050CF049
:1014C00058C0F80181899401280F311D12161306A6
:1014D0000CF04FC057E0A52EB12CAC0EBD1E43E062
:1014E000B594A7944A95E1F7EE24FF24CC24DD249B
:1014F00037E0232E312C31C0CE0123E0959587951E
:101500002A95E1F7D8015396ED91FC915497EC0D93
:10151000FD1DE80FF91F408150E0CE0187709070EB
:10152000F101E81BF90B02C055954795EA95E2F7E2
:1015300041705070CE01860D971DB2010E94600768
:101540002196D80150968C9190E0C817D907A4F243
:101550000894E11CF11CCA0CDB1CF801818990E0A5
:10156000E816F90634F4C0E0D0E02701480C591C15
:10157000E8CFDF91CF911F910F91FF90EF90DF9017
:10158000CF90BF90AF909F908F907F906F905F9023
:101590004F903F902F900895A1E1B0E0E2EDFAE086
:1015A0000C9454103C017F876E876A01FC011782FE
:1015B0001682838181FD03C06FEF7FEF6FC39E01B1
:1015C0002F5F3F4F398B288BF3012381EE85FF85F9
:1015D00023FD859123FF8191FF87EE87882309F4FE
:1015E0005AC3853251F4EE85FF8523FD859123FF93
:1015F0008191FF87EE87853229F490E0B3010E9444
:10160000DA11E2CF982F10E0882499241032B0F438
:101610009B3269F09C3228F4903251F0933271F48D
:101620000BC09D3239F0903349F4116028C012602C
:10163000146025C0186023C0106121C017FD2AC0A6
:10164000892F80538A3078F416FF06C0FAE09F9EF7
:10165000902C1124980E13C03AE0839E802C112404
:10166000880E10620CC09E3221F416FD14C3106463
:1016700006C09C3611F4106802C0983659F4EE8505
:10168000FF8523FD959123FF9191FF87EE87992395
:1016900009F0BCCF892F8554833020F4812F8061DD
:1016A000905E07C0892F8556833008F09FC1812F37
:1016B0008F7E86FD02C076E0972E6FE3F62EF8222D
:1016C000953619F4F0E4FF2A07C0963619F420E89D
:1016D000F22A02C091109A94F7FE0AC03BE3391532
:1016E00018F45CE3B52E02C0B92CB39427E009C00E
:1016F00047E0491520F4BB2447E0942EF7CF292D6D
:10170000BB24C60104969D878C87F6016081718198
:1017100082819381AE014F5F5F4F0B2D0E94EC10D1
:101720006C010981202E332400FF04C003FD02C098
:101730001DE209C0F1FE02C01BE205C0F2FC02C0BE
:1017400010E001C010E2C1018C709070892BB9F1DA
:10175000112311F483E001C084E0881510F088247F
:101760000AC0881AF3FC07C080E290E0B3010E942F
:10177000DA118A94C9F7112329F0812F90E0B3017F
:101780000E94DA1123FE03C00CE812E00EC000E94B
:1017900012E00BC0E114F10409F0805290E0B301B3
:1017A0000E94DA110F5F1F4F05C0EF2CFF24F0E1FC
:1017B000EF22FF24F8018491882361F714C1F7FE1A
:1017C00012C0BC0C24FE04C08A81813309F4BA948F
:1017D0001B141CF0BB24B3942DC0F8E0FB1550F58E
:1017E00038E0B32E27C0F6FC25C0892D90E08C157B
:1017F0009D054CF02CEFC2162FEFD20624F030E8F6
:10180000F32A01C09A94992049F0E2E0F0E0EC0F4D
:10181000FD1FE90DF11D80818033A1F3F7FE0AC0A1
:10182000B92CB394892D90E0C816D90614F09924E8
:1018300001C09C18F7FC03C025E030E009C01C146F
:101840001D041CF021E030E003C096012F5F3F4FE4
:10185000112311F02F5F3F4F992029F0892D90E03F
:101860000196280F391F882D90E02817390714F0AA
:10187000882401C0821A4F2C5524C20189709070AF
:10188000892B39F008C080E290E0B3010E94DA11A0
:101890008A948820C1F7112329F0812F90E0B301A9
:1018A0000E94DA1143FE07C008C080E390E0B30154
:1018B0000E94DA118A948820C1F7F7FE46C086019B
:1018C000D7FE02C000E010E076010894E11CF11C94
:1018D000E01AF10A41E050E04C0F5D1FE40EF51EE6
:1018E00026014B185108892D90E0AA24BB24A81A80
:1018F000B90A5FEF0F3F150729F48EE290E0B301BC
:101900000E94DA11C016D10634F0401651061CF4BC
:10191000F701808101C080E3015010400894E11C70
:10192000F11C0A151B052CF090E0B3010E94DA119E
:10193000E0CF0C151D0539F49A81963318F49533D0
:1019400011F424FE81E390E04BC08A81813309F0D9
:101950000F7E90E0B3010E94DA119920A1F08EE28F
:1019600090E0B3010E94DA1112E0E1E0F0E0EC0F48
:10197000FD1FE10FF11D1F5F808190E0B3010E9408
:10198000DA119A9491F744FC03C085E690E002C016
:1019900085E490E0B3010E94DA11D7FC05C0C114C0
:1019A000D10441F404FF06C0D094C194D108D3946B
:1019B0008DE201C08BE290E0B3010E94DA1180E376
:1019C00005C08F5F26EF3FEFC20ED31E3AE0C3166D
:1019D000D104BCF790E0B3010E94DA11C601C096B1
:1019E000B3010E94DA11CC84DD8452C1933631F008
:1019F000933799F0933509F059C023C0F6018081DF
:101A000089835E010894A11CB11C22E030E0C20E63
:101A1000D31E21E0E22EF12C12C0F601A080B1808D
:101A200016FD03C06FEF7FEF02C0692D70E022E06A
:101A300030E0C20ED31EC5010E94CF117C011F777A
:101A400013C0F601A080B18016FD03C06FEF7FEFD9
:101A500002C0692D70E022E030E0C20ED31EC50145
:101A60000E94C4117C01106813FF07C01BC080E2F4
:101A700090E0B3010E94DA118A94882D90E0E81674
:101A8000F906A8F30FC0F50117FD859117FF8191A5
:101A90005F0190E0B3010E94DA1181108A940894EA
:101AA000E108F108E114F10471F7F2C0943611F085
:101AB000993689F517FF08C0F601208131814281EE
:101AC000538184E090E00AC0F601808191819C01FD
:101AD000442737FD4095542F82E090E0C80ED91E70
:101AE0009FE6F92EF12257FF09C050954095309599
:101AF00021953F4F4F4F5F4F90E8F92ACA01B90136
:101B0000AE014F5F5F4F2AE030E00E940612E82EE0
:101B1000E889EE1A41C0953721F41F7E2AE030E0B3
:101B20001CC0197F9F3661F0903720F4983509F07A
:101B3000B2C00FC0903739F0983709F0ACC004C07C
:101B400028E030E00AC0106114FD146020E130E0AC
:101B500004C014FD166020E132E017FF08C0F60152
:101B6000608171818281938144E050E008C0F60178
:101B700080819181BC0180E090E042E050E0C40EA1
:101B8000D51EAE014F5F5F4F0E940612E82E5889A6
:101B9000E51A8FE7F82EF122F6FE0BC08EEFF82241
:101BA000E91438F4F4FE07C0F2FC05C09FEEF922F8
:101BB00002C01E2D01C0192DF4FE0DC0FE01EE0D58
:101BC000F11D8081803319F4E9EEFE2208C01F5F09
:101BD000F2FE05C003C08F2D867809F01F5F0F2D20
:101BE000F3FC14C0F0FE0FC0181510F09E2C0BC0B3
:101BF0009E2C980C911A182D06C080E290E0B3013B
:101C00000E94DA111F5F1815C0F304C0181510F4F4
:101C1000811A01C0882404FF0FC080E390E0B30163
:101C20000E94DA1102FF1DC001FD03C088E790E0A9
:101C30000EC088E590E00BC0802F867891F001FF00
:101C400002C08BE201C080E2F7FC8DE290E0B301BC
:101C50000E94DA1106C080E390E0B3010E94DA111D
:101C60009A94E914C0F3EA94E1E0F0E0EC0FFD1F70
:101C7000EE0DF11D808190E0B3010E94DA11EE209B
:101C800091F706C080E290E0B3010E94DA118A94D5
:101C90008820C1F799CCF30166817781CB016196E9
:101CA000E2E10C9470105058BB27AA270ED075C1E2
:101CB00066D130F06BD120F031F49F3F11F41EF467
:101CC0005BC10EF4E095E7FB51C1E92F77D180F3BA
:101CD000BA17620773078407950718F071F49EF529
:101CE0008FC10EF4E0950B2EBA2FA02D0B01B90178
:101CF00090010C01CA01A0011124FF27591B99F082
:101D0000593F50F4503E68F11A16F040A22F232F8D
:101D1000342F4427585FF3CF469537952795A795DD
:101D2000F0405395C9F77EF41F16BA0B620B730B84
:101D3000840BBAF09150A1F0FF0FBB1F661F771FF5
:101D4000881FC2F70EC0BA0F621F731F841F48F4AA
:101D5000879577956795B795F7959E3F08F0B3CF30
:101D60009395880F08F09927EE0F9795879508951A
:101D7000D9D008F481E008950CD00FC107D140F00C
:101D8000FED030F021F45F3F19F0F0C0511139C19D
:101D9000F3C014D198F39923C9F35523B1F3951BDC
:101DA000550BBB27AA2762177307840738F09F5F7C
:101DB0005F4F220F331F441FAA1FA9F333D00E2EEB
:101DC0003AF0E0E830D091505040E695001CCAF758
:101DD00029D0FE2F27D0660F771F881FBB1F26171D
:101DE00037074807AB07B0E809F0BB0B802DBF01F0
:101DF000FF2793585F4F2AF09E3F510568F0B6C009
:101E000000C15F3FECF3983EDCF3869577956795CC
:101E1000B795F7959F5FC9F7880F911D96958795A0
:101E200097F90895E1E0660F771F881FBB1F6217BF
:101E300073078407BA0720F0621B730B840BBA0B7D
:101E4000EE1F88F7E095089504D06894B111D9C0C9
:101E50000895BCD088F09F5790F0B92F9927B751BB
:101E6000A0F0D1F0660F771F881F991F1AF0BA955E
:101E7000C9F712C0B13081F0C3D0B1E00895C0C03D
:101E8000672F782F8827B85F39F0B93FCCF3869554
:101E900077956795B395D9F73EF4909580957095B1
:101EA00061957F4F8F4F9F4F0895E89409C097FB2E
:101EB0003EF490958095709561957F4F8F4F9F4F21
:101EC0009923A9F0F92F96E9BB279395F695879565
:101ED00077956795B795F111F8CFFAF4BB0F11F428
:101EE00060FF1BC06F5F7F4F8F4F9F4F16C08823CF
:101EF00011F096E911C0772321F09EE8872F762F05
:101F000005C0662371F096E8862F70E060E02AF045
:101F10009A95660F771F881FDAF7880F9695879531
:101F200097F90895990F0008550FAA0BE0E8FEEF06
:101F300016161706E807F907C0F012161306E4078D
:101F4000F50798F0621B730B840B950B39F40A2686
:101F500061F0232B242B252B21F408950A2609F464
:101F6000A140A6958FEF811D811D089597F99F6768
:101F700080E870E060E008959FEF80EC0895002411
:101F80000A941616170618060906089500240A94DE
:101F900012161306140605060895092E0394000C64
:101FA00011F4882352F0BB0F40F4BF2B11F460FFF3
:101FB00004C06F5F7F4F8F4F9F4F089557FD90581C
:101FC000440F551F59F05F3F71F04795880F97FBFD
:101FD000991F61F09F3F79F08795089512161306B7
:101FE0001406551FF2CF4695F1DF08C016161706E6
:101FF0001806991FF1CF869571056105089408951B
:10200000E894BB2766277727CB0197F908958ADFE5
:1020100008F48FEF0895DADFE0F09E37D8F09639B4
:10202000B8F49E3848F4672F782F8827985FF9CF47
:1020300086957795679593959539D0F3B62FB170BE
:102040006B0F711D811D20F487957795679593958A
:1020500002C01CC0D6CF882371F4772321F098509A
:10206000872B762F07C0662311F499270DC0905156
:10207000862B70E060E02AF09A95660F771F881F24
:10208000DAF7880F9695879597F908959F3F31F075
:10209000915020F4879577956795B795880F911D96
:1020A0009695879597F908952F923F924F925F9258
:1020B0006F927F928F929F92AF92BF92CF92DF9258
:1020C000EF92FF920F931F93CF93DF93CDB7DEB7BD
:1020D000CA1BDB0B0FB6F894DEBF0FBECDBF099451
:1020E0002A88398848885F846E847D848C849B84A8
:1020F000AA84B984C884DF80EE80FD800C811B81B6
:10210000AA81B981CE0FD11D0FB6F894DEBF0FBEE4
:10211000CDBFED010895A0E0B0E0E1E9F0E10C945D
:102120005C10EC01A880B980CA80DB80A114B104E6
:10213000C104D10441F484E2A82E89EDB82E8BE5C8
:10214000C82E87E0D82EC601B5012DE133EF41E05E
:1021500050E00E94831227EA31E440E050E00E9400
:1021600064127B018C01C601B5012DE133EF41E022
:1021700050E00E948312CA01B9012CEE34EF4FEFF8
:102180005FEF0E9464126E0D7F1D801F911F97FFED
:1021900004C06150704080409048688379838A838E
:1021A0009B839B013F77C901CDB7DEB7EAE00C9472
:1021B00078100E948B10089584E391E00E948B10A8
:1021C0000895A0E0B0E08093340190933501A0938E
:1021D0003601B09337010895283008F027E03327FF
:1021E000DA01990F311D87FD916000966105710537
:1021F00039F432602E5F3D9330E32A95E1F708957C
:102200009F3F30F080387105610509F03C5F3C5F0D
:102210003D93913008F08068911DDF93CF931F9319
:102220000F93FF92EF92192F987F9695E92F96952D
:102230009695E90FFF27E251FD4F99273327EE24AA
:10224000FF24A701E70105900894079428F4360FAE
:10225000E71EF81E491F511D660F771F881F991F23
:102260000694A1F70590079428F4E70EF81E491F7D
:10227000561FC11D770F881F991F661F0694A1F76F
:102280000590079428F4F80E491F561FC71FD11D4B
:10229000880F991F661F771F0694A1F70590079472
:1022A00020F4490F561FC71FD81F990F661F771FAD
:1022B000881F0694A9F784911095177041F0D69560
:1022C000C79557954795F794E7941A95C1F7E4E9B0
:1022D000F2E068941590159135916591959105906E
:1022E0007FE27395E118F10A430B560BC90BD00935
:1022F000C0F7E10CF11E431F561FC91FD01D7EF40D
:10230000703311F48A95E6CFE894015030F0080F4D
:102310000AF40027021708F4202F2395022F7A339E
:1023200028F079E37D932A95E9F710C07D932A95EB
:1023300089F6069497956795379517951794E11840
:10234000F10A430B560BC90BD00998F023957E91E7
:1023500073957A3308F070E37C932013B8F77E917D
:1023600070617D9330F0839571E37D9370E32A95DE
:10237000E1F71124EF90FF900F911F91CF91DF9122
:10238000992787FD90950895FC0105906150704054
:102390000110D8F7809590958E0F9F1F0895FC012E
:1023A0006150704001900110D8F7809590958E0F84
:1023B0009F1F08950F931F93CF93DF938C01EB0121
:1023C0008B8181FF1BC082FF0DC02E813F818C81DC
:1023D0009D812817390764F4E881F9810193F98315
:1023E000E88306C0E885F985802F0995892B31F4AB
:1023F0008E819F8101969F838E8302C00FEF1FEF16
:10240000C801DF91CF911F910F910895FA01AA277A
:10241000283051F1203181F1E8946F936E7F6E5F27
:102420007F4F8F4F9F4FAF4FB1E03ED0B4E03CD0D5
:10243000670F781F891F9A1FA11D680F791F8A1FB8
:10244000911DA11D6A0F711D811D911DA11D20D01F
:1024500009F468943F912AE0269F11243019305DD9
:102460003193DEF6CF010895462F4770405D4193CA
:10247000B3E00FD0C9F7F6CF462F4F70405D4A3317
:1024800018F0495D31FD4052419302D0A9F7EACFDF
:10249000B4E0A6959795879577956795BA95C9F70E
:1024A00000976105710508959B01AC010A2E069401
:1024B0005795479537952795BA95C9F7620F731FBA
:1024C000841F951FA01D0895629FD001739FF00186
:1024D000829FE00DF11D649FE00DF11D929FF00DB4
:1024E000839FF00D749FF00D659FF00D9927729FEB
:1024F000B00DE11DF91F639FB00DE11DF91FBD0176
:10250000CF011124089597FB092E05260ED057FD03
:1025100004D014D00AD0001C38F450954095309562
:1025200021953F4F4F4F5F4F0895F6F79095809557
:10253000709561957F4F8F4F9F4F0895A1E21A2E9E
:10254000AA1BBB1BFD010DC0AA1FBB1FEE1FFF1F57
:10255000A217B307E407F50720F0A21BB30BE40BA7
:10256000F50B661F771F881F991F1A9469F76095EE
:102570007095809590959B01AC01BD01CF010895A8
:04258000F894FFCFFD
:1025840056616E65737361204C69006E3939363655
:10259400343633000170707020F8205088FFFFFF3C
:1025A400FFFFFF0000FFFF0000FFFF0000FE82BAF4
:0825B400929282FE010000007A
:00000001FF
