:100000000C947D010C949A010C949A010C949A0121
:100010000C949A010C949A010C949A010C949A01F4
:100020000C949A010C949A010C9411040C944C04B5
:100030000C949A010C949A010C949A010C949A01D4
:100040000C949A010C949A010C949A010C949A01C4
:100050000C949A010C949A010C949A010C949A01B4
:100060000C949A010C943C060C9411060C949A0181
:100070000C949A010C949A010C949A010C949A0194
:100080000C949A010C949A010C949A010C949A0184
:100090000C949A010C949A010C949A010C949A0174
:1000A0000C949A010C949A010C949A01A603A30350
:1000B000A0039D039A039703940391038E038B037C
:1000C0008803850382037F037C037903760373032C
:1000D00070036D036A036703640361035E035B03DC
:1000E0005803550352034F034C034903460343038C
:1000F00040033D033A033703340331032E032B033C
:100100002803250322031F031C03190316031303EB
:1001100010030D030A03070304030103FE02FB029D
:10012000F802F502F202EF02EC02E902E602000137
:10013000000062011200020000740143000300008D
:10014000B7010401030904BB011402030904D1012E
:100150001603030904E9010C0001C11201803601F4
:1001600081361201000202000010C0167A0400015C
:100170000102030109024300020100C03209040028
:100180000001020201000524001001052401010103
:10019000042402060524060001070582031000401E
:1001A00009040100020A00000007050302400000E4
:1001B0000705840240000004030904140359006F7A
:1001C000007500720020004E0061006D00650000A7
:1001D00000160355005300420020005300650072D2
:1001E00000690061006C0000000C03310032003334
:1001F000003400350000006E616E00696E6600001C
:10020000407A10F35A00A0724E18090010A5D4E8E5
:100210000000E87648170000E40B54020000CA9A78
:100220003B000000E1F505000080969800000040CA
:10023000420F000000A0860100000010270000000F
:1002400000E803000000006400000000000A000055
:100250000000000100000000002C76D888DC674F09
:100260000823DFC1DFAE59E1B1B796E5E3E453C639
:100270003AE651997696E8E6C28426EB898C9B6231
:10028000ED407C6FFCEFBC9C9F40F2BAA56FA5F4DB
:1002900090055A2AF75C936B6CF9676DC11BFCE003
:1002A000E40D47FEF520E6B500D0ED902E03009456
:1002B0003577050080841E080000204E0A000000EB
:1002C000C80C333333330F986E12831141EF8D21F5
:1002D00014893BE65516CFFEE6DB18D1844B381B5C
:1002E000F77C1D901DA4BBE424203284725E228121
:1002F00000C9F124ECA1E53D270011241FBECFEF7A
:10030000DAE0DEBFCDBF11E0A0E0B1E0EAE7F7E15F
:1003100002C005900D92A830B107D9F711E0A8E00E
:10032000B1E001C01D92A837B107E1F70E94C401F6
:100330000C94BB0B0C94000083E390E09093CD00F1
:100340008093CC00E8ECF0E0808182608083A9ECAF
:10035000B0E08C9180618C938C9188608C93EAECF6
:10036000F0E08081826080838081846080838C91D2
:100370008B7F8C9380818F7E808380818F7D808333
:100380008081877F808308950E949C01FFCF81E058
:100390008093D70080EA8093D80082E189BD09B4B8
:1003A00000FEFDCF80E98093D8001092E00010920B
:1003B0000801109209018CE08093E200789408957E
:1003C0008091080108952FB7F8948091080188233F
:1003D00069F083E08093E9009BE68091E80085FD69
:1003E00009C082FF03C09093E800F7CF2FBF2FEF23
:1003F0003FEF0CC09091F1008091E80085FD03C0B3
:100400008BE68093E8002FBF292F30E0C9010895C3
:100410002FB7F89480910801882311F490E010C060
:1004200083E08093E9009091F200992349F4809150
:10043000E80082FF05C085FD03C08BE68093E800DD
:100440002FBF892F089580910801882371F09FB7ED
:10045000F89483E08093E9002BE602C02093E80043
:100460008091E80085FDFACF9FBF0895482F8091C5
:1004700008018823D9F12FB7F89484E08093E9002C
:1004800080910B01882341F08091E80085FD02C036
:100490002FBF12C010920B019091E400975E34E0E0
:1004A0008091E80085FD13C02FBF8091E40089177B
:1004B00029F481E080930B018FEF0895809108016A
:1004C0008823A1F02FB7F8943093E900E9CF409347
:1004D000F1008091E80085FD03C08AE38093E80085
:1004E00085E080930A012FBF80E008958FEF089583
:1004F000282F80910801882351F09FB7F89484E059
:100500008093E9008091E80085FD03C09FBF8FEFD5
:1005100008952093F1008091E80085FD03C08AE3EF
:100520008093E80085E080930A019FBF80E00895F2
:10053000CF93DF93EC0180910801882309F41CC15B
:100540003FB7F89484E08093E90080910B01882301
:1005500009F408C18091E80085FD02C03FBF0CC1CD
:1005600010920B01FFC09091E400975E8091E8002B
:1005700085FD13C03FBF8091E400891721F481E01D
:1005800080930B01F9C080910801882309F4F4C01D
:100590003FB7F894B093E900E9CF8091F200242F9F
:1005A000281B822F90E06817790708F4262F822FE6
:1005B00090E08134910508F0C6C08A5A9F4FFC0133
:1005C000EE0FFF1F0590F491E02D0994899180931F
:1005D000F10089918093F10089918093F1008991D4
:1005E0008093F10089918093F10089918093F100CB
:1005F00089918093F10089918093F1008991809392
:10060000F10089918093F10089918093F1008991A3
:100610008093F10089918093F10089918093F1009A
:1006200089918093F10089918093F1008991809361
:10063000F10089918093F10089918093F100899173
:100640008093F10089918093F10089918093F1006A
:1006500089918093F10089918093F1008991809331
:10066000F10089918093F10089918093F100899143
:100670008093F10089918093F10089918093F1003A
:1006800089918093F10089918093F1008991809301
:10069000F10089918093F10089918093F100899113
:1006A0008093F10089918093F10089918093F1000A
:1006B00089918093F10089918093F10089918093D1
:1006C000F10089918093F10089918093F1008991E3
:1006D0008093F10089918093F10089918093F100DA
:1006E00089918093F10089918093F10089918093A1
:1006F000F10089918093F10089918093F1008991B3
:100700008093F10089918093F10089918093F100A9
:1007100089918093F10089918093F1008991809370
:10072000F10089918093F10089918093F100899182
:100730008093F10089918093F10089918093F10079
:1007400089918093F10089918093F1008091E80074
:1007500085FD02C05093E800621B7109A0930A0155
:100760003FBF04C0B4E040E45AE3A5E06115710561
:1007700009F0F9CE80E001C08FEFDF91CF910895AD
:100780009FB7F89480910A01882341F084E0809318
:10079000E9008AE38093E80010920A019FBF089560
:1007A000609100017091010180910201909103011B
:1007B0000895809104010895809105010895809124
:1007C00006010895809109010895282F9FB7F89494
:1007D00080910801882339F082E08093E9008091BC
:1007E000E80085FD03C09FBF8FEF089581EA8093E5
:1007F000F10080E28093F1001092F1001092F1007C
:100800001092F1001092F10081E08093F1001092BB
:10081000F1002093F1008AE38093E8009FBF80E01D
:1008200008951F920F920FB60F9211248F939F93EA
:100830008091E1001092E100982F83FF11C0109287
:10084000E90081E08093EB001092EC0082E180935C
:10085000ED0088E08093F0001092080110920901E9
:1008600092FF13C080910801882379F080910A01DA
:10087000882359F0815080930A01882331F484E061
:100880008093E9008AE38093E8009F918F910F9015
:100890000FBE0F901F9018951F920F920FB60F92D8
:1008A00011240F931F932F933F934F935F936F9355
:1008B0007F938F939F93AF93BF93EF93FF93109288
:1008C000E9008091E80083FF3CC14091F100309144
:1008D000F1008091F100682F70E02091F100922FDB
:1008E00080E0682B792B8091F100A82FB0E0209157
:1008F000F100922F80E0A82BB92B1091F10000910C
:10090000F10082EF8093E800363009F05AC025E309
:1009100031E0A90145505040F901379785919491F4
:100920008617970701F5FA01859194918A179B071D
:10093000D1F49A012E5F3F4FF901659174912E5FBA
:100940003F4FF9014491212F30E0902F80E0282B78
:10095000392B2F3F310519F010F02FEF30E024171D
:1009600058F4422F09C0295F3F4F495F5F4FF1E0C4
:100970002F353F0789F6E5C05EEF8091E800282F0C
:1009800030E0C90185709070892BB9F322FDDCC07D
:10099000342F413108F030E1232FCB0106C0FC0198
:1009A0000196E491E093F10021502223C1F7630FF7
:1009B000711D431B5093E8004423F9F63031E9F2EE
:1009C000C3C0353061F48EEF8093E8008091E80079
:1009D00080FFFCCF862F80688093E300B5C039305C
:1009E00051F5442309F0ADC060930801109209014C
:1009F00010920A018EEF8093E80088E591E021E0F3
:100A00002093E900FC010196E491E093EB00EE23D2
:100A100069F0AC014F5F5F4FFC0184918093EC0063
:100A2000CA010196FA0134913093ED002F5F253011
:100A300039F78EE181C0383061F4403809F081C067
:100A40008091E80080FFFCCF809108018093F10045
:100A500050C0313289F4413A09F073C08091E80006
:100A600080FFFCCFE0E0F1E081918093F10081E034
:100A7000E730F807C9F73DC03032A1F4413209F040
:100A800060C08091E80082FFFCCFE0E0F1E080915F
:100A9000F100819381E0E730F807C9F78BEF80938D
:100AA000E80027C0323251F4413209F04AC0609365
:100AB00009018091E80080FFFCCF1BC03323E9F4DB
:100AC0008091E80080FFFCCF423811F080E00DC03B
:100AD000A093E9008091EB0090E025E09695879542
:100AE0002A95E1F781701092E9008093F10010924D
:100AF000F1008EEF8093E80027C0313011F03330E1
:100B000001F54230F1F4672BE1F42A2F2F77822F81
:100B100081508430B0F48EEF8093E8002093E90098
:100B2000333079F089E18093EB0081E090E002C0FE
:100B3000880F991F2A95E2F78093EA001092EA0045
:100B400003C081E28093EB00FF91EF91BF91AF91E1
:100B50009F918F917F916F915F914F913F912F91D5
:100B60001F910F910F900FBE0F901F9018959B0132
:100B7000AC01F89460E079E08DE390E00E94EA092E
:100B800021503109410951095695479537952795C7
:100B90003093CD002093CC0082E08093C80088E998
:100BA0008093C90086E08093CA0010924E01109293
:100BB0004F0110920C0110920D01789408959091BC
:100BC0004F019F5F983208F090E020914E01291765
:100BD000E1F3E92FF0E0E05BFE4F808390934F015B
:100BE00088EB8093C900089590910D0180910C01CC
:100BF0009817D1F390910C019F5F903408F090E02A
:100C0000E92FF0E0E25FFE4F808190930C010895A0
:100C100080910D0190910C01891708F4805C891B6B
:100C200008951F920F920FB60F9211248F939F93E6
:100C3000EF93FF9390914F0180914E01981304C060
:100C400088E98093C9000FC080914E018F5F883280
:100C500008F080E0E82FF0E0E05BFE4F9081909399
:100C6000CE0080934E01FF91EF919F918F910F9055
:100C70000FBE0F901F9018951F920F920FB60F92F4
:100C800011242F938F939F93EF93FF939091CE0016
:100C900080910D018F5F803408F080E020910C017D
:100CA000821739F0E82FF0E0E25FFE4F90838093E7
:100CB0000D01FF91EF919F918F912F910F900FBE9A
:100CC0000F901F901895A1E1B0E0E9E6F6E00C94D2
:100CD0000C0A3C017F876E876A01FC01178216822D
:100CE000838181FD03C06FEF7FEF6FC39E012F5F94
:100CF0003F4F398B288BF3012381EE85FF8523FD40
:100D0000859123FF8191FF87EE87882309F45AC3D9
:100D1000853251F4EE85FF8523FD859123FF819176
:100D2000FF87EE87853229F490E0B3010E94310BF2
:100D3000E2CF982F10E0882499241032B0F49B322F
:100D400069F09C3228F4903251F0933271F40BC068
:100D50009D3239F0903349F4116028C0126014605C
:100D600025C0186023C0106121C017FD2AC0892F3B
:100D700080538A3078F416FF06C0FAE09F9E902CCC
:100D80001124980E13C03AE0839E802C1124880E03
:100D900010620CC09E3221F416FD14C3106406C00C
:100DA0009C3611F4106802C0983659F4EE85FF8520
:100DB00023FD959123FF9191FF87EE87992309F0F9
:100DC000BCCF892F8554833020F4812F8061905EC1
:100DD00007C0892F8556833008F09FC1812F8F7EF1
:100DE00086FD02C076E0972E6FE3F62EF822953648
:100DF00019F4F0E4FF2A07C0963619F420E8F22A25
:100E000002C091109A94F7FE0AC03BE3391518F41A
:100E10005CE3B52E02C0B92CB39427E009C047E0CB
:100E2000491520F4BB2447E0942EF7CF292DBB248D
:100E3000C60104969D878C87F6016081718182814D
:100E40009381AE014F5F5F4F0B2D0E94430A6C01EF
:100E50000981202E332400FF04C003FD02C01DE2DF
:100E600009C0F1FE02C01BE205C0F2FC02C010E0A6
:100E700001C010E2C1018C709070892BB9F111236F
:100E800011F483E001C084E0881510F088240AC0C2
:100E9000881AF3FC07C080E290E0B3010E94310B96
:100EA0008A94C9F7112329F0812F90E0B3010E94A1
:100EB000310B23FE03C007EF11E00EC00BEF11E072
:100EC0000BC0E114F10409F0805290E0B3010E94DC
:100ED000310B0F5F1F4F05C0EF2CFF24F0E1EF2215
:100EE000FF24F8018491882361F714C1F7FE12C032
:100EF000BC0C24FE04C08A81813309F4BA941B140B
:100F00001CF0BB24B3942DC0F8E0FB1550F538E07D
:100F1000B32E27C0F6FC25C0892D90E08C159D05C9
:100F20004CF02CEFC2162FEFD20624F030E8F32A53
:100F300001C09A94992049F0E2E0F0E0EC0FFD1F27
:100F4000E90DF11D80818033A1F3F7FE0AC0B92CB1
:100F5000B394892D90E0C816D90614F0992401C0E5
:100F60009C18F7FC03C025E030E009C01C141D04E8
:100F70001CF021E030E003C096012F5F3F4F1123AA
:100F800011F02F5F3F4F992029F0892D90E00196B5
:100F9000280F391F882D90E02817390714F088246E
:100FA00001C0821A4F2C5524C20189709070892B80
:100FB00039F008C080E290E0B3010E94310B8A94BE
:100FC0008820C1F7112329F0812F90E0B3010E94FE
:100FD000310B43FE07C008C080E390E0B3010E94DC
:100FE000310B8A948820C1F7F7FE46C08601D7FEF0
:100FF00002C000E010E076010894E11CF11CE01A48
:10100000F10A41E050E04C0F5D1FE40EF51E260191
:101010004B185108892D90E0AA24BB24A81AB90ABC
:101020005FEF0F3F150729F48EE290E0B3010E94B5
:10103000310BC016D10634F0401651061CF4F701EE
:10104000808101C080E3015010400894E11CF11C34
:101050000A151B052CF090E0B3010E94310BE0CF84
:101060000C151D0539F49A81963318F4953311F453
:1010700024FE81E390E04BC08A81813309F00F7E2A
:1010800090E0B3010E94310B9920A1F08EE290E034
:10109000B3010E94310B12E0E1E0F0E0EC0FFD1F24
:1010A000E10FF11D1F5F808190E0B3010E94310BC1
:1010B0009A9491F744FC03C085E690E002C085E471
:1010C00090E0B3010E94310BD7FC05C0C114D104DC
:1010D00041F404FF06C0D094C194D108D3948DE2AA
:1010E00001C08BE290E0B3010E94310B80E305C0A8
:1010F0008F5F26EF3FEFC20ED31E3AE0C316D10436
:10110000BCF790E0B3010E94310BC601C096B30159
:101110000E94310BCC84DD8452C1933631F0933779
:1011200099F0933509F059C023C0F6018081898375
:101130005E010894A11CB11C22E030E0C20ED31E57
:1011400021E0E22EF12C12C0F601A080B18016FD44
:1011500003C06FEF7FEF02C0692D70E022E030E046
:10116000C20ED31EC5010E94260B7C011F7713C03F
:10117000F601A080B18016FD03C06FEF7FEF02C0C3
:10118000692D70E022E030E0C20ED31EC5010E943E
:101190001B0B7C01106813FF07C01BC080E290E0AE
:1011A000B3010E94310B8A94882D90E0E816F9066D
:1011B000A8F30FC0F50117FD859117FF81915F011D
:1011C00090E0B3010E94310B81108A940894E108E9
:1011D000F108E114F10471F7F2C0943611F0993678
:1011E00089F517FF08C0F6012081318142815381C2
:1011F00084E090E00AC0F601808191819C0144273F
:1012000037FD4095542F82E090E0C80ED91E9FE62E
:10121000F92EF12257FF09C0509540953095219540
:101220003F4F4F4F5F4F90E8F92ACA01B901AE0115
:101230004F5F5F4F2AE030E00E945D0BE82EE889A7
:10124000EE1A41C0953721F41F7E2AE030E01CC021
:10125000197F9F3661F0903720F4983509F0B2C0BD
:101260000FC0903739F0983709F0ACC004C028E0BF
:1012700030E00AC0106114FD146020E130E004C0C9
:1012800014FD166020E132E017FF08C0F60160810E
:1012900071818281938144E050E008C0F601808131
:1012A0009181BC0180E090E042E050E0C40ED51E88
:1012B000AE014F5F5F4F0E945D0BE82E5889E51A23
:1012C0008FE7F82EF122F6FE0BC08EEFF822E9141C
:1012D00038F4F4FE07C0F2FC05C09FEEF92202C00C
:1012E0001E2D01C0192DF4FE0DC0FE01EE0DF11DE5
:1012F0008081803319F4E9EEFE2208C01F5FF2FE00
:1013000005C003C08F2D867809F01F5F0F2DF3FCF9
:1013100014C0F0FE0FC0181510F09E2C0BC09E2CB0
:10132000980C911A182D06C080E290E0B3010E943B
:10133000310B1F5F1815C0F304C0181510F4811A83
:1013400001C0882404FF0FC080E390E0B3010E9435
:10135000310B02FF1DC001FD03C088E790E00EC005
:1013600088E590E00BC0802F867891F001FF02C0E5
:101370008BE201C080E2F7FC8DE290E0B3010E94B5
:10138000310B06C080E390E0B3010E94310B9A94C8
:10139000E914C0F3EA94E1E0F0E0EC0FFD1FEE0D7C
:1013A000F11D808190E0B3010E94310BEE2091F796
:1013B00006C080E290E0B3010E94310B8A9488203D
:1013C000C1F799CCF30166817781CB016196E2E1A7
:1013D0000C94280AA1E21A2EAA1BBB1BFD010DC00A
:1013E000AA1FBB1FEE1FFF1FA217B307E407F507D5
:1013F00020F0A21BB30BE40BF50B661F771F881FB1
:10140000991F1A9469F760957095809590959B0146
:10141000AC01BD01CF0108952F923F924F925F9290
:101420006F927F928F929F92AF92BF92CF92DF92F4
:10143000EF92FF920F931F93CF93DF93CDB7DEB759
:10144000CA1BDB0B0FB6F894DEBF0FBECDBF0994ED
:101450002A88398848885F846E847D848C849B8444
:10146000AA84B984C884DF80EE80FD800C811B8152
:10147000AA81B981CE0FD11D0FB6F894DEBF0FBE81
:10148000CDBFED010895283008F027E03327DA01B9
:10149000990F311D87FD916000966105710539F442
:1014A00032602E5F3D9330E32A95E1F708959F3F28
:1014B00030F080387105610509F03C5F3C5F3D9379
:1014C000913008F08068911DDF93CF931F930F93A5
:1014D000FF92EF92192F987F9695E92F9695969502
:1014E000E90FFF27E75AFD4F99273327EE24FF2402
:1014F000A701E70105900894079428F4360FE71E2A
:10150000F81E491F511D660F771F881F991F0694EB
:10151000A1F70590079428F4E70EF81E491F561FFF
:10152000C11D770F881F991F661F0694A1F70590AC
:10153000079428F4F80E491F561FC71FD11D880FA6
:10154000991F661F771F0694A1F70590079420F452
:10155000490F561FC71FD81F990F661F771F881F77
:101560000694A9F784911095177041F0D695C79508
:1015700057954795F794E7941A95C1F7EFEFF1E087
:1015800068941590159135916591959105907FE23C
:101590007395E118F10A430B560BC90BD009C0F73C
:1015A000E10CF11E431F561FC91FD01D7EF470337E
:1015B00011F48A95E6CFE894015030F0080F0AF450
:1015C0000027021708F4202F2395022F7A3328F0E2
:1015D00079E37D932A95E9F710C07D932A9589F6E2
:1015E000069497956795379517951794E118F10A22
:1015F000430B560BC90BD00998F023957E91739538
:101600007A3308F070E37C932013B8F77E91706111
:101610007D9330F0839571E37D9370E32A95E1F734
:101620001124EF90FF900F911F91CF91DF91992797
:1016300087FD90950895FC01059061507040011060
:10164000D8F7809590958E0F9F1F0895FC016150EB
:10165000704001900110D8F7809590958E0F9F1FD4
:1016600008950F931F93CF93DF938C01EB018B8130
:1016700081FF1BC082FF0DC02E813F818C819D8127
:101680002817390764F4E881F9810193F983E88325
:1016900006C0E885F985802F0995892B31F48E8164
:1016A0009F8101969F838E8302C00FEF1FEFC801B9
:1016B000DF91CF911F910F910895FA01AA27283049
:1016C00051F1203181F1E8946F936E7F6E5F7F4F0F
:1016D0008F4F9F4FAF4FB1E03ED0B4E03CD0670F8B
:1016E000781F891F9A1FA11D680F791F8A1F911DDE
:1016F000A11D6A0F711D811D911DA11D20D009F42E
:1017000068943F912AE0269F11243019305D31936F
:10171000DEF6CF010895462F4770405D4193B3E058
:101720000FD0C9F7F6CF462F4F70405D4A3318F0FF
:10173000495D31FD4052419302D0A9F7EACFB4E0B0
:10174000A6959795879577956795BA95C9F7009768
:101750006105710508959B01AC010A2E0694579509
:10176000479537952795BA95C9F7620F731F841F60
:0A177000951FA01D0895F894FFCF07
:08177A0000E10000000008007E
:00000001FF
